:020000040800F2
:10000000400E002089010008D51A00080B090008DD
:100010000F090008DD0300086B2A0008000000003B
:10002000000000000000000000000000E91E0008C1
:100030001906000800000000991D0008312300087F
:10004000A3010008A3010008A3010008A301000800
:10005000A3010008A3010008A3010008A3010008F0
:10006000A3010008A301000893060008A3010008EB
:10007000E1030008A3010008A3010008A301000890
:10008000A3010008A3010008A3010008A3010008C0
:10009000A3010008A3010008A3010008A3010008B0
:1000A000A301000895230008A3010008A30100088C
:1000B000B1230008D52300080D240008A30100087F
:1000C000A3010008A3010008A3010008A301000880
:1000D000A3010008A30100084D280008A30100089F
:1000E00079060008A3010008A301000800F002F847
:1000F00000F03AF80AA090E8000C82448344AAF188
:100100000107DA4501D100F02FF8AFF2090EBAE885
:100110000F0013F0010F18BFFB1A43F0010318473B
:1001200090300000B0300000103A24BF78C878C189
:10013000FAD8520724BF30C830C144BF04680C60ED
:10014000704700000023002400250026103A28BF35
:1001500078C1FBD8520728BF30C148BF0B60704739
:100160001FB51FBD10B510BD00F031F81146FFF7E7
:10017000F7FF02F07DFC00F04FF803B4FFF7F2FF49
:1001800003BC00F057F800000948804709480047C1
:10019000FEE7FEE7FEE7FEE7FEE7FEE7FEE7FEE737
:1001A000FEE7FEE704480549054A064B7047000094
:1001B00035230008ED00000840080020400E002014
:1001C000400A0020400A002070477047704775467B
:1001D00000F02CF8AE4605006946534620F00700B3
:1001E000854618B020B5FFF7DDFFBDE820404FF091
:1001F00000064FF000074FF000084FF0000B21F011
:100200000701AC46ACE8C009ACE8C009ACE8C009DD
:10021000ACE8C0098D46704710B50446AFF30080C6
:100220002046BDE81040FFF7A8BF00000048704717
:10023000E007002001491820ABBEFEE726000200BF
:10024000704721B1826842F00102826003E0826857
:1002500022F001028260704721B1826842F480720C
:10026000826003E0826822F48072826070470146F7
:1002700000208A6802F004020AB1012000E0002098
:100280007047014600208A6802F008020AB1012086
:1002900000E000207047000030B502460020002337
:1002A00050680F4C20400D790C6844EA0524204327
:1002B000506090680B4C2040D1E902542C434D799A
:1002C00044EA450420439060D06A20F470000C7C1E
:1002D000641EE4B2234340EA0350D06230BD000004
:1002E000FFFEF0FFFDF7F1FFF0B504460D460020DC
:1002F0000021092D11DDE068A5F10A0606EB46078D
:10030000072606FA07F18843A5F10A0606EB46061A
:1003100003FA06F10843E0600CE0206905EB4507AD
:10032000072606FA07F1884305EB450603FA06F1AE
:1003300008432061072A0FDA606B561E06EB86071A
:100340001F2606FA07F18843561E06EB860605FAB5
:1003500006F10843606322E00D2A0FDA206BD61FF6
:1003600006EB86071F2606FA07F18843D61F06EB21
:10037000860605FA06F10843206310E0E06AA2F160
:100380000D0606EB86071F2606FA07F18843A2F141
:100390000D0606EB860605FA06F10843E062F0BD9D
:1003A000816841F008018160704721B1826842F4A0
:1003B000A002826003E0826822F4A002826070479B
:1003C000816841F004018160704700210160017182
:1003D00041718160C16001210174704700BFFEE777
:1003E00010B5202000F0CEF840B1002001F03AFE18
:1003F000012003490870202000F004F810BD00001F
:100400003000002000F0805111B10349086001E084
:1004100002494860704700000404024000000240A6
:1004200021B1026842F00102026004E002684FF666
:10043000FE731A400260704701684FF6FE72114069
:1004400001600021016041608160C1604B498842C8
:1004500008D14A490839496841F00F01474A083A2A
:1004600051608AE045491431884208D1434908392E
:10047000496841F0F001414A083A51607DE03F4946
:100480002831884208D13D490839496841F47061F2
:100490003A4A083A516070E038493C31884208D104
:1004A00036490839496841F47041344A083A516084
:1004B00063E032495031884208D1304908394968EF
:1004C00041F470212D4A083A516056E02B496431BD
:1004D000884208D129490839496841F47001274AFE
:1004E000083A516049E025497831884208D12349CA
:1004F0000839496841F07061204A083A51603CE08F
:100500001F49884206D1011F096841F00F01021FEF
:10051000116032E01A491431884208D11849091F84
:10052000096841F0F001164A121F116025E01449D4
:100530002831884208D11249091F096841F47061C5
:100540000F4A121F116018E00D493C31884208D152
:100550000B49091F096841F47041094A121F1160D3
:100560000BE007495031884207D10549091F096846
:1005700041F47021024A121F1160704708000240C6
:100580000804024001460020002201F0805313B10C
:10059000054B1A6801E0054B1A6802EA01030BB12A
:1005A000012000E0002070470004024000000240EB
:1005B0001AB103680B43036002E003688B430360D6
:1005C000704710B50022026847F6F0739A430C6A30
:1005D0008B6823430C6923434C6923438C69234371
:1005E000CC6923434C6A23438C6A23431A43026039
:1005F000CB6843600B6883604B68C36010BD00210B
:10060000016041608160C160016141618161C161DE
:100610000162416281627047704700B5034603E0A2
:100620004FF47A7000F011F8181EA3F10103F7D10E
:1006300000BD10B5044603E04FF47A70FFF7EDFFFC
:10064000201EA4F10104F7D110BD00EBC001C900C8
:100650004FF0E0225161002191610521116100BF3D
:100660004FF0E021096901F480310029F8D004211C
:100670004FF0E0221161704710B54FF4004000F0D8
:100680001BF8012804D1C00300F010F800F0D2FEDE
:1006900010BD10B5102000F00FF8012804D1102073
:1006A00000F004F800F0B4FA10BD00000149086041
:1006B0007047000014040140014600200022074B4F
:1006C0001B6803EA0102054B14331B680B4013B18E
:1006D0000AB1012000E00020704700000004014042
:1006E000002123498279002A3AD00A461268036819
:1006F0009A430B461A600A1D126803689A430B1D41
:100700001A60027911440A6803681A430A60184A99
:100710000832126803689A43154B08331A601A1D91
:10072000126803689A43124B0C331A604279102AFC
:100730000ED11A1F126803681A430D4B08331A6052
:100740001A1D126803681A43094B0C331A600DE036
:100750000749427911440A6803681A430A6005E0B0
:10076000027911440A6803689A430A6070470000DE
:10077000000401400021016001710C214171002140
:100780008171704730B500228B071C0F0F2303FACD
:1007900004F20B4B8C1053F824309343084C8D100B
:1007A00044F8253023468C1053F824308C07240F4E
:1007B00000FA04F42343024C8D1044F8253030BD78
:1007C000080001402DE9F0410246002500260020E6
:1007D00000230024002791F803C00CF00F0591F8C6
:1007E00003C00CF0100CBCF1000F03D091F802C054
:1007F0004CEA050591F800C0BCF1000F31D0146837
:1008000000202BE04FF0010C0CFA00F3B1F800C00F
:100810000CEA03069E4220D183004FF00F0C0CFA25
:1008200003F7BC4305FA03FC4CEA040491F803C047
:10083000BCF1280F06D14FF0010C0CFA00FCC2F8F5
:1008400014C00AE091F803C0BCF1480F05D14FF085
:10085000010C0CFA00FCC2F810C0401C0828D1D3CF
:100860001460B1F800C0BCF1FF0F34DD5468002003
:100870002EE000F1080C4FF0010808FA0CF3B1F873
:1008800000C00CEA03069E4221D183004FF00F0CFA
:100890000CFA03F7BC4305FA03FC4CEA040491F894
:1008A00003C0BCF1280F05D100F1080C08FA0CF8C0
:1008B000C2F8148091F803C0BCF1480F07D100F1D1
:1008C000080C4FF0010808FA0CF8C2F81080401C20
:1008D0000828CED35460BDE8F0810246002093681A
:1008E0000B400BB1012000E0002070470161704710
:1008F0004FF6FF710180022181700421C1707047A1
:100900000AB1016100E04161704700BFFEE700BF2E
:10091000FEE7000010B590B004464FF4004001F02F
:100920003DFA0BA8FFF751FD01208DF831000020A2
:100930000E904FF460200D9000200B908DF83C40FD
:1009400001208DF830000BA92148FFF7A5FC0121FB
:100950001F48FFF781FC6846FFF751FE1C484C30EA
:10096000009080150690002004901A4801904FF4E2
:1009700080600790802005900020029003940A90E8
:1009800020200890C001099069461348FFF719FE1E
:1009900001210F48FFF755FC01210F48FFF740FDEB
:1009A0000B48FFF7FDFC00BF0948FFF76AFC012870
:1009B000FAD00748FFF704FD00BF0548FFF757FCD2
:1009C0000128FAD001210248FFF7EFFC10B010BD5A
:1009D00000240140C80000200800024008B5684615
:1009E000FFF786FF10208DF803004002ADF80000ED
:1009F00003208DF8020069460248FFF7E3FE00F08D
:100A000003F808BD000C014010B54FF40051024836
:100A1000FFF76CFF10BD0000000C014010B5064848
:100A20000078012802D100F0EFF804E002480078D5
:100A300008B900F0E5F810BD9000002010B50C4892
:100A4000006840B90B4801F01CFD0B490968401AC9
:100A50000A4908600AE0074801F013FD42F21071EC
:100A6000084405490968401A0449086010BD00009F
:100A700078000020000400408C0000208800002046
:100A800010B5044801F0FDFC03490860002003494B
:100A9000086010BD000400408C0000207800002099
:100AA00004480078012804D103480068401C02492A
:100AB0000860704774000020780000207CB500209A
:100AC0000090019000240026002500BF15E00021C1
:100AD0000FE01D4A165D1DF80020C1F1070306FA5C
:100AE00003F31A43D2B20DF80020621CD4B24A1CA0
:100AF000D1B20729EDDD411CC8B20428E7DD002092
:100B000005E01DF800102944CDB2411CC8B20328ED
:100B1000F7DD9DF80400A84212D1002005E01DF881
:100B200000100A4A1154411CC8B20328F7DD0748D7
:100B3000807807490870054800780649087001E088
:100B400000F05EF87CBD00007807002084000020E3
:100B5000920000209300002038B504460D46142072
:100B60001749C87010200880032088701548FFF7C7
:100B700029FE04210020FFF705FE01221021114863
:100B8000FFF7BEFE10201049086000200871082001
:100B90004871002088710846FFF7A2FD0A208DF8F1
:100BA000000000208DF801008DF8020001208DF872
:100BB0000300684600F090FF00F0F8F838BD000030
:100BC00068000020000801406C00002010B50A48B1
:100BD000007801280FD109480078401C07490870A7
:100BE00008460078042806DBFFF718FF00200349B9
:100BF00008700149087010BD7C000020940000209E
:100C000010B500F099F810BD10B500F095F810BDC2
:100C100010B53E480078062874D2DFE800F00304DF
:100C2000730D205F6FE0012039490870FFF728FF3E
:100C300003203649087066E0FFF700FF354800687A
:100C4000642809D333480068B42805D804202F4904
:100C50000870FFF715FF01E0FFF7D2FF53E0FFF741
:100C6000EDFE2C4800683C2818D32A4800685A2812
:100C700014D8FFF705FF0021274802780078401CB0
:100C8000254B18702548815418460078282824DB05
:100C900005201E49087000F06BF81EE01D48006832
:100CA0006E2818D31B480068822814D8FFF7E8FE86
:100CB0000122194801780078401C174B187017481A
:100CC000425418460078282807DB05200F49087091
:100CD00000F04EF801E0FFF793FF14E0FFF7AEFEDF
:100CE0000C48006828280AD30A4800683C2806D81F
:100CF00001200B490870FFF7E1FE02E002E0FFF778
:100D00007FFF00E000BF00BF10BD00008700002093
:100D10007400002088000020910000207807002047
:100D20009000002010B500200249087000F016F86D
:100D300010BD00009100002010B500F023F8002045
:100D400003490870034908700349087010BD00008A
:100D500087000020740000209000002010B50C20B7
:100D6000024948710846FFF7BBFC10BD6C0000202B
:100D700010B50820024948710846FFF7B1FC10BDC4
:100D80006C00002010B548200549C8700548FFF7E1
:100D900019FD0120044988710846FFF7A1FC10BD28
:100DA00068000020000801406C00002010B5002001
:100DB000054988710846FFF793FC10200349C87065
:100DC0000348FFF7FFFC10BD6C0000206800002006
:100DD0000008014010B501200749087000200749AC
:100DE0000870FFF7E3FF002005490870FFF79AFF3E
:100DF00001200449087010BD7D0000207E00002005
:100E0000870000207C00002010B51A4800780128D7
:100E10002ED119480068401C17490860174800780F
:100E200010B1012823D10DE0FFF7C0FF00221021EF
:100E30001348FFF765FD01201049087000200E4996
:100E4000086014E00C48006800EB800044F6206164
:100E500088420BD3FFF796FF01200A490870FFF77D
:100E60007DFF0020054908700249087000BF00BFDF
:100E700010BD00007D000020800000207E000020CA
:100E8000000801408700002038B5044618208DF87E
:100E900003004FF48060ADF8000003208DF80200DD
:100EA00069460F48FFF78EFC0E4801F068FC0020F1
:100EB0000C498881602008800020C8814881888092
:100EC00001204880601EC880074801F0B3FB012163
:100ED000054801F0C7FA0821034801F0FBFB38BDC3
:100EE00000080140C0070020002C01402DE9F0411E
:100EF00004460D460026002003E035F810100E448D
:100F0000401CA042F9DB204602F0AEF8074630460E
:100F100002F0AAF88046394601F0C4FFBDE8F0812E
:100F200010B50B46002105E04C1C30F8144020F8A9
:100F30001140491C541E8C42F6DC511E20F8113021
:100F400010BD000038B504466846FFF7D1FC1820F4
:100F50008DF803004FF48070ADF8000003208DF889
:100F6000020069460F48FFF72DFC0F4801F007FC0F
:100F700000200D498881602008800020C8814881B8
:100F8000888001204880601EC880084801F09CFAD3
:100F90000121064801F066FA0821044801F0E0FA50
:100FA00038BD000000080140A0070020002C0140CF
:100FB00008B56846FFF79CFC00208DF8030002206E
:100FC000ADF8000003208DF8020069460448FFF7E1
:100FD000F9FB0523042209210248FFF785F908BD22
:100FE000000C01400024014038B5044618208DF85B
:100FF00003004FF40060ADF8000003208DF80200FC
:1010000069460F48FFF7DEFB0E4801F0B8FB0020F1
:101010000C498881602008800020C8814881888030
:1010200001204880601EC880074801F05DFB012157
:10103000054801F017FA0821034801F093FB38BD79
:1010400000080140D0070020002C014008B5684688
:10105000FFF74EFC00208DF803000120ADF80000E2
:1010600003208DF8020069460448FFF7ABFB052317
:10107000032208210248FFF737F908BD000C0140A0
:10108000002401407FB505460C461C4801F016FAC5
:1010900001A801F0D1FB0020ADF80A00ADF8060070
:1010A0004720ADF8040044F61F60ADF808000020AA
:1010B0008DF80C0001A9114801F06CFB01210F48CB
:1010C00001F0BEF9012211460C4801F0EEF90121B0
:1010D0000A4801F0A9F919208DF8000001208DF8C7
:1010E00003008DF801508DF80240684600F0F4FCD2
:1010F0000021024801F0AAF97FBD0000002C014048
:101100007FB505460C464FF0804001F0D7F901A8A5
:1011100001F092FB0020ADF80A00ADF80600472070
:10112000ADF804000420ADF8080000208DF80C0094
:1011300001A94FF0804001F02DFB0121880701F04B
:101140007FF901221146900701F0AFF901218807CC
:1011500001F06AF91C208DF8000001208DF80300D1
:101160008DF801508DF80240684600F0B5FC002172
:101170004FF0804001F06AF97FBD000010B50446D1
:1011800007480088401C0649088008460088A0429D
:1011900005DB0020088000F0FDF9FFF71BFE10BD05
:1011A0002400002010B5044606480088401C05496C
:1011B000088008460088A04203DB0020088000F079
:1011C00023FC10BD260000207FB505460C461A48BA
:1011D00001F074F901A801F02FFB0020ADF80A001E
:1011E000ADF806004720ADF8040042F20F70ADF8EC
:1011F000080000208DF80C0001A90F4801F0CAFA80
:1012000001210D4801F01CF9012211460A4801F0A4
:101210004CF91D208DF8000001208DF803008DF899
:1012200001508DF80240684600F056FC002102484B
:1012300001F00CF97FBD0000000400407FB50546B9
:101240000C461A4801F03AF901A801F0F5FA00201D
:10125000ADF80A00ADF8060040F2CF20ADF804006A
:101260000920ADF8080000208DF80C0001A90F48F6
:1012700001F090FA01210D4801F0E2F80122114637
:101280000A4801F012F91E208DF8000001208DF8A7
:1012900003008DF801508DF80240684600F01CFCF8
:1012A0000021024801F0D2F87FBD00000008004094
:1012B00010B504460121204601F0C8F810BD000019
:1012C00008B510208DF803002020ADF800000320A1
:1012D0008DF8020069460348FFF774FA00F004F83D
:1012E00008BD0000000C014010B501222021024879
:1012F000FFF706FB10BD0000000C014008B5684672
:10130000FFF7F6FA10208DF803000002ADF8000098
:1013100003208DF8020069460248FFF753FA00F0F7
:1013200003F808BD000C014010B54FF4805102488D
:10133000FFF7DCFA10BD0000000C014038B5044690
:101340006846FFF7D5FA18208DF803004FF40070B7
:10135000ADF8000003208DF8020069460F48FFF742
:1013600031FA0F4801F00BFA00200D498881602006
:1013700008800020C8814881888001204880601E44
:10138000C880084801F0F6F80121064801F06AF823
:101390000821044801F040F938BD00000008014070
:1013A000B0070020002C014008B56846FFF7A0FAFE
:1013B00000208DF803000220ADF8000003208DF816
:1013C000020069460448FFF7FDF9052302220121C6
:1013D0000248FEF789FF08BD0008014000240140D3
:1013E00010B50F480078032804DA0D480078401C37
:1013F0000B4908700B48008881B203220A48FFF7A6
:101400008FFD094906480078FFF770FD044601F09A
:101410000BFE0649088000F07DF80549088010BDE4
:10142000B4000020A4000020B6000020A800002086
:10143000AA00002010B515480078012824D11448CE
:10144000007858B9134801F01CF8134908600C20C3
:1014500000F07AF801200E49087015E00C48007879
:10146000012811D10B4801F00CF80B490968401A0A
:101470000A490860FFF7B4FF082000F065F8002073
:10148000034908700149087010BD0000A200002047
:10149000AE00002000040040B0000020A4000020A6
:1014A0007CB505460C4601A8FFF722FA48208DF8C6
:1014B00007004FF40040ADF8040003208DF806004B
:1014C00001A91248FFF77EF90F210120FFF75AF911
:1014D0000F48FFF74FF94FF400400D490860012015
:1014E000887100200871082048710846FFF7F8F855
:1014F00028208DF8000001208DF803008DF80150A0
:101500008DF80240684600F0E7FA7CBD000C01400F
:10151000980000202DE9F0410848008801F0A4FD62
:10152000804601F093FC0646054A064B01F090FB0D
:10153000044601F05FFB80B2BDE8F081A800002006
:10154000C1CAA145B6F3C53F10B50446024844716F
:10155000FFF7C6F810BD00009800002010B50B483A
:101560000078012811D100F037F809480078401CB4
:101570000749087008460078022806DB00F014F8D6
:101580000020024908700249087010BDA000002028
:10159000AD00002001200249087002490870704720
:1015A000A0000020A100002010B500224FF48051BF
:1015B0000648FFF7A5F901200549087000200549F4
:1015C00008700820FFF7C0FF10BD000000080140B0
:1015D000A2000020A300002010B5064800780128D2
:1015E00007D1012201030448FFF78AF900200149CD
:1015F000087010BDA10000200008014008B5684631
:10160000FFF776F910208DF803000002ADF8000016
:1016100003208DF8020069460448FFF7D3F8002242
:101620004FF480510148FFF76BF908BD00080140F5
:1016300010B50121042000F0DDFB14200449C8701E
:1016400020200880032088700248FFF7BBF810BDF7
:1016500048000020000801400020144A108000BF0C
:1016600009E0134A125C8240104B1B881A430F4B4F
:101670001A80421CD0B21028F3DB0C4800880122EB
:10168000B2EBE03F05D109480088C043401C074A3F
:101690001080064800880011064A10800F21034878
:1016A00000880840044A1080704700005E00002057
:1016B00030070020600000206200002010B5C04804
:1016C000C0490978405C072805D2DFE800F073A61E
:1016D000EA05FCFB040071E1BB480068401CBA4904
:1016E0000860BA48BA490978405C30B1012817D07F
:1016F00002282AD003285BD144E001222021B548EA
:10170000FFF7FEF800222021B248FFF7F9F8002089
:10171000AD490860AE480078401CAD49087047E00C
:10172000A948006800EB8000B0F5FA7F0CD30122D5
:101730002021A848FFF7E4F80020A3490860A44846
:101740000078401CA249087032E09F48006800EB16
:101750008000A1490978884213D320219D48FFF7D2
:10176000BCF858B901209D490870002096490860CE
:1017700097480078401C9649087002E0002097497D
:10178000087015E09448007840F23A21081A8E4912
:10179000096801EB8101884209D800208A49086064
:1017A0008B49087087480078401C8649087000BF44
:1017B00000BF03E184480068401C834908608848F2
:1017C00088490978405C10B1012824D10DE000223D
:1017D00020218048FFF794F800207B490860814869
:1017E0000078401C7F49087015E07748006800EBDE
:1017F00080003C280ED3012220217648FFF780F894
:10180000002071490860774908706E480078401CD4
:101810006C49087000BF00BFD0E06B480068401CF6
:1018200069490860704871490978405C20B1012815
:1018300010D0022833D121E0002220216548FFF793
:101840005FF800206049086068480078401C6749DC
:10185000087024E05C48006800EB80000A280CD384
:10186000012220215B48FFF74BF800205649086011
:101870005E480078401C5D49087010E052480068DE
:1018800000EB8000322809D300204F4908605749F7
:1018900008704C480078401C4A49087000BF00BFDF
:1018A0008CE049480068401C47490860504851494D
:1018B0000978405C40B1012814D0022826D00328C2
:1018C0005CD14AE071E05BE0002220214148FFF753
:1018D00017F800203C49086046480078401C4549FC
:1018E00008704BE03848006800EB800005280CD3F6
:1018F000012220213748FFF703F800203249086011
:101900003C480078401C3B49087037E02E4800688E
:1019100000EB800005281FD320212E48FEF7DDFFB5
:1019200048B10121344802780078401C324B1870CD
:101930003248815408E000212F4802780078401C8A
:101940002D4B18702D48815400201F4908602948EC
:101950000078401C2749087010E01B48006800EB25
:1019600080002D2809D300201749086021490870FC
:1019700014480078401C1349087000BF00BF1DE0E8
:1019800011480068401C104908600846006800EBD8
:1019900080001B49884207D300200B490860094892
:1019A0000078401C0749087008E0FFF755FE012049
:1019B0001449087000200349087000BF00BF10BD23
:1019C000243100084C00002050000020A131000804
:1019D000550000200008014056000020570000205C
:1019E000A531000858000020A73100085900002048
:1019F000AA3100085A0000205C00002030070020B7
:101A0000B0710B005400002001200C4908700C49F3
:101A1000087000200B49088082200B4908700020C4
:101A20000A4908700A4908700A4908700A4908708A
:101A30000A4908700A490870704700004C000020ED
:101A40005B000020640000205600002054000020AD
:101A50005500002058000020590000205A000020A6
:101A60005C00002010B50D480078012814D10C4806
:101A70000088401C0A4908800846008840F271210D
:101A800048430849B1EB001F06DC00F00DF80020C8
:101A9000034908800149087010BD00005B00002068
:101AA0006400002080841E0010B5054800780128DD
:101AB00003D104480078012801D000F005F810BDDA
:101AC0005400002057000020002001490870704792
:101AD0004C0000207047000070B5002100230F2249
:101AE000C47804B3154C246804F4E064C4F5E064DD
:101AF000210AC1F10403CA40447804FA03F184784E
:101B00001440214309010E4C0678A155047804F0D5
:101B10001F050124AC4005786D11AD0005F1E025ED
:101B2000C5F8004109E0047804F01F050124AC4029
:101B3000044D0678761145F8264070BD0CED00E0A6
:101B400000E400E080E100E002490143024A116044
:101B5000704700000000FA050CED00E070B50024AD
:101B60000EE00021204600F0E6F8002504E0002009
:101B700000F002F9681CC5B2802DF8DB601CC4B20D
:101B8000082CEEDB70BD000008B50121102000F02C
:101B900031F914208DF8030003208DF802004FF472
:101BA0008040ADF8000069460A48FEF70BFE4FF48E
:101BB0000040ADF8000069460648FEF703FE01222A
:101BC00091030448FEF79CFE0122D1030148FEF771
:101BD00097FE08BD0010014070B50546002415E0D1
:101BE0008020204100EA05024FF400410E48FEF734
:101BF00087FE012291030C48FEF782FE00224FF47B
:101C000080410948FEF77CFE601CC4B2082CE7DB6B
:101C1000012291030448FEF773FE00224FF4804135
:101C20000148FEF76DFE70BD0010014010B50122A5
:101C3000D1030A48FEF764FE012291030748FEF72C
:101C40005FFE00224FF400410448FEF759FE0022D7
:101C50004FF480410148FEF753FE10BD00100140D3
:101C600010B500224FF400410648FEF749FE01225C
:101C700091030448FEF744FE0122D1030148FEF718
:101C80003FFE10BD0010014070B5002406E00025A5
:101C900000E06D1CB5F57A7FFBD3641CB4F57A7F48
:101CA000F5D3FFF771FFAE2000F056F8D52000F015
:101CB00053F8802000F050F8A82000F04DF83F20A5
:101CC00000F04AF8D32000F047F8002000F044F874
:101CD000402000F041F8A12000F03EF8C82000F0BC
:101CE0003BF8DA2000F038F8122000F035F88120B7
:101CF00000F032F8CF2000F02FF8D92000F02CF8B7
:101D0000F12000F029F8DB2000F026F8302000F068
:101D100023F8A42000F020F8A62000F01DF88D2064
:101D200000F01AF8142000F017F8AF2000F014F8B3
:101D3000FFF714FF70BD70B505460C4645F0B000C6
:101D400000F00AF8102141EA141000F005F804F040
:101D50000F0000F001F870BD10B50446FFF766FFF4
:101D60007820FFF739FF0020FFF736FF2046FFF706
:101D700033FFFFF775FF10BD10B50446FFF756FFA0
:101D80007820FFF729FF4020FFF726FF2046FFF7C6
:101D900023FFFFF765FF10BD7047000001460020DC
:101DA000034A506820F440400843506070470000E8
:101DB0000010024029B1064A52690243044B5A619D
:101DC00004E0034A52698243014B5A6170470000A4
:101DD0000010024029B1064AD2690243044BDA617D
:101DE00004E0034AD2698243014BDA617047000084
:101DF0000010024029B1064A92690243044B9A61DD
:101E000004E0034A92698243014B9A6170470000E3
:101E10000010024030B500210022002400232D4D87
:101E20006D6805F00C0121B1042905D0082923D1E2
:101E300005E0294D056022E0274D05601FE0254D96
:101E40006D6805F47012234D6D6805F48034022529
:101E500005EB92421CB9214D554305600BE01D4D29
:101E60006D6805F400351DB11C4D5543056002E059
:101E7000194D5543056002E0174D056000BF00BFD6
:101E8000144D6D6805F0F0010909154D6B5C05688E
:101E9000DD4045600F4D6D6805F4E061090A104DA5
:101EA0006B5C4568DD4085600A4D6D6805F46051E6
:101EB000C90A0B4D6B5C4568DD40C560054D6D681A
:101EC00005F44041890B074D6B5CC568B5FBF3F524
:101ED000056130BD0010024000127A0000093D008B
:101EE0000000002010000020704710B501214FF4C1
:101EF000E13000F009F8012000F076F8002201211D
:101F0000084600F027F810BD70B504460D460121C3
:101F10000820FFF76FFF01218804FFF75BFF012115
:101F20000846FFF747FF09480460002007498881F9
:101F30000C20488100200881C8808880044800F077
:101F400013FD2946024800F09DFC70BDC806002024
:101F50000048004070B506460C4615460C201C494A
:101F600008700120C870084646708470FFF7B4FD01
:101F70001848FEF761FA00201749C86010208860F1
:101F800000208862154848600020C86180204861B0
:101F900000200862124808600020886108614FF440
:101FA000005048620B48FEF70CFB012280210C48D0
:101FB000001F00F073FC012202210648FEF7F8FA28
:101FC00029460448FEF72CFA01200649087070BD26
:101FD0003E0000201C000240D8060020C80200205D
:101FE000044800403000002010B504460121084696
:101FF000FFF700FF18200549C8704FF48060088083
:10200000032088700248FEF7DDFB10BD360000207B
:10201000000C014070B505460C461CB115B1B4F575
:102020007A7F02DB4FF0FF3070BD00BF0A480078B6
:102030000028FBD0002000F015F808484560C46077
:1020400001460748FEF7BDFA012000F00BF8012019
:1020500000F01EF80120E7E730000020D80600203D
:102060001C00024010B5044622468021064800F0BC
:1020700015FC224602210548FEF79AFA214603483C
:10208000FEF7CEF910BD0000004800401C000240E1
:1020900010B504462146024800F0F4FB10BD0000D4
:1020A000004800402DE9F0478146884616461C4608
:1020B000DDE9087A484600F0C3FC0546307820B1D7
:1020C00001280FD0022830D11FE01A4810F808006C
:1020D00038B901203070002020702278501C207008
:1020E000BD5423E00D2D06D12278501C2070BD5424
:1020F0000220307008E02178AAF10100814203DA61
:102100002278501C2070BD5410E00A2D0CD122788A
:10211000501C2070BD5400203070217878542070FD
:102120000120044901F8080000E000BF00BFBDE83D
:10213000F0870000280000202DE9FF4F83B00446FF
:102140008A4693462D48844207D12D4D2F460615C9
:102150004FF400684FF0270909E02A48844206D16D
:10216000294D2F4604264FF008084FF0260901A8F4
:10217000FEF7BEFB18208DF80700ADF804600320C1
:102180008DF8060001A92846FEF71CFB48208DF8B3
:102190000700ADF8048003208DF8060001A9384639
:1021A000FEF710FB194800F054FC1848C0F800A0D6
:1021B0000020164988810C20488100200881C880B1
:1021C0008880204600F0D0FB012240F225512046B5
:1021D00000F0A4FB8DF8089001208DF80B008DF81D
:1021E00009B006988DF80A0002A8FFF775FC0121D6
:1021F000204600F047FB07B0BDE8F08F00480040E4
:10220000000C01400044004000080140D0000020C4
:1022100070B504460D4600BF8021204600F047FB04
:102220000028F9D02946204600F00FFC70BD70B59B
:1022300005460C4604E014F8011B2846FFF7E8FFAA
:1022400020780028F7D170BD10B500F001F810BD5E
:102250000CB50020019000903348006840F48030B5
:102260003149086000BF3048006800F40030009039
:102270000198401C0190009818B90198B0F5A06F22
:10228000F1D12948006800F4003010B1012000901D
:1022900001E0002000900098012843D12348006805
:1022A00040F01000214908600846006820F0030053
:1022B00008600846006840F0020008601A4840685C
:1022C000194948600846406848600846406840F43C
:1022D000806048600846406820F47C1048600846EA
:1022E000406840F4E81048600846006840F080709C
:1022F000086000BF0C48006800F000700028F9D0AA
:102300000948406820F003000749486008464068D3
:1023100040F00200486000BF0348406800F00C0035
:102320000828F9D10CBD0000001002400020024036
:102330007047000010B51348006840F001001149D3
:10234000086008464068104908400E494860084641
:1023500000680E4908400B4908600846006820F4F0
:10236000802008600846406820F4FE0048604FF472
:102370001F008860FFF768FF4FF0006004490860A5
:1023800010BD0000001002400000FFF8FFFFF6FE45
:1023900008ED00E010B50121044800F075F80128AF
:1023A00003D10121014800F04EF810BD002C01407E
:1023B00010B50121880700F067F8012809D1012133
:1023C000800700F040F8FFF7C9F8FEF71DFDFFF7A2
:1023D00075F910BD10B501210B4800F055F8012822
:1023E00010D10121084800F02EF86420FEF7C6FE47
:1023F000FEF756FBFEF7EAFB4FF49670FEF7D2FEAF
:10240000FFF730FB10BD00000004004010B50121B3
:10241000044800F039F8012803D10121014800F0F7
:1024200012F810BD0008004021B1028842F080027D
:10243000028004E002884FF67F731A4002807047E2
:10244000CA4302827047CA430282704721B10288A0
:1024500042F00102028004E002884FF6FE731A4047
:102460000280704731B1B0F8442042F40042A0F835
:10247000442005E0B0F84420C2F30E02A0F8442046
:1024800070470146888C704730B502460020002313
:102490000024158A05EA0103958905EA010413B1B0
:1024A0000CB1012000E0002030BD1AB183890B433C
:1024B000838102E083898B438381704701894FF6D2
:1024C000F87211400181704770B50024002200238A
:1024D000058C4FF6FE7635400584028C8388048B8C
:1024E0004FF68F752C40B51E2C400D882C43751E61
:1024F0002A400D892A434D882A43144DA8420BD007
:10250000134DA84208D0134DA84205D0124DA84241
:1025100002D0124DA84213D14FF6F7752A404D89CB
:102520002A434FF6FB752A408D882A434FF6FF65F4
:102530002B404FF6FF552B408D892B43CD892B43E4
:1025400083800483CD888586028470BD002C014081
:102550000034014000400140004401400048014077
:102560000A460021018B4FF6F7731940114301838E
:102570007047000070B5002400220023058C4FF640
:10258000EF7635400584028C8388048B48F6FF750E
:102590002C404FF6FF452C400D884FF6FF7606EA9B
:1025A00005252C434FF6DF752A400D8906EA0515EF
:1025B0002A434D8806EA05152A43154DA84202D044
:1025C000144DA8421DD14FF67F752A404D894FF614
:1025D000FF7606EA05152A434FF6BF752A408D8817
:1025E00006EA05152A434FF6FF352B404FF2FF75DB
:1025F0002B408D8906EA85052B43CD8906EA8505A2
:102600002B4383800483CD880587028470BD00003E
:10261000002C0140003401400A460021018B4FF29A
:10262000FF7319404FF6FF7303EA02231943018336
:102630007047000070B5002400220023058C4FF67F
:10264000FF6635400584028C8388848B4FF68F7536
:102650002C404FF6FC752C400D882C434FF6FF554F
:102660002A400D894FF6FF7606EA05252A434D8854
:1026700006EA05252A43154DA84202D0144DA8426A
:102680001DD14FF2FF752A404D894FF6FF7606EABD
:1026900005252A434FF6FF352A408D8806EA052591
:1026A0002A434EF6FF752B404DF6FF752B408D8962
:1026B00006EA05152B43CD8906EA05152B438380D1
:1026C0008483CD888587028470BD0000002C014082
:1026D000003401400A460021818B4FF6F773194000
:1026E000114381837047000070B50022002300244D
:1026F000058C4EF6FF7635400584038C8488828BEA
:1027000048F6FF752A404FF6FF452A400D884FF6E0
:10271000FF7606EA05252A434DF6FF752B400D8905
:1027200006EA05352B434D8806EA05352B430B4D4C
:10273000A84202D00A4DA84208D14BF6FF752C40A2
:102740008D894FF6FF7606EA85152C4384808283B7
:10275000CD88A0F84050038470BD0000002C0140DB
:10276000003401400A460021818B4FF2FF7319406B
:102770004FF6FF7303EA0223194381837047002158
:10278000018041808180C180018141818181C1813D
:1027900070470000002202881D4B98420ED01D4B4E
:1027A00098420BD0B0F1804F08D01B4B984205D017
:1027B0001A4B984202D01A4B984204D14FF68F73AD
:1027C0001A404B881A43174B984207D0164B984231
:1027D00004D04FF6FF431A40CB881A4302808B88FF
:1027E00083850B8803850A4B98420BD0094B98428E
:1027F00008D00E4B984205D00D4B984202D00D4B9D
:10280000984201D10B7A038601238382704700002E
:10281000002C01400034014000040040000800404A
:10282000000C004000100040001400400040014037
:1028300000440140004801404FF6FF7181800021B3
:102840000180C18041800172704700001CB540F2D8
:102850002551084800F038F801280AD1F424064828
:10286000064B074A0221CDE900040248FFF71AFC93
:1028700000BF1CBD00440040D40100202F000020F8
:102880002E00002021B1828942F40052828104E0AE
:1028900082894DF6FF731A40828170471AB1838A8C
:1028A0000B43838202E0838A8B4383827047024614
:1028B0000020B1F5007F00D100BF13880B400BB1A1
:1028C000012000E00020704770B50246002400237C
:1028D0000025002040F66A16B14200D100BFC1F3C6
:1028E000421501F01F03012606FA03F3012D02D160
:1028F0009689334006E0022D02D1168A334001E06A
:10290000968A33400C12012606FA04F416883440E5
:1029100013B10CB1012000E0002070BDF0B50346FA
:10292000002400260025002040F66A17B94200D195
:1029300000BF1846C1F3421401F01F06012707FA31
:1029400006F5012C01D10C3004E0022C01D110302D
:1029500000E014301AB107682F43076002E00768EF
:10296000AF430760F0BD00002DE9F04786B0054693
:102970000E460024A24600BFA1460027B08900B140
:1029800000BF2F462C8A4CF6FF700440F0880443A9
:102990002C82AC894EF6F3100440B088318908438C
:1029A000718908430443AC81AC8A4FF6FF40044070
:1029B000B0890443AC8201A8FFF72CFA1F48874274
:1029C00002D1DDF810A001E0DDF80CA0A88900F428
:1029D000004040B10AEBCA0000EB0A103168490020
:1029E000B0FBF1F807E00AEBCA0000EB0A1031680F
:1029F0008900B0FBF1F86420B8FBF0F00401200975
:102A0000642101FB1089A88900F4004040B1322004
:102A100000EBC900B0FBF1F000F00700044308E050
:102A2000322000EB09106421B0FBF1F000F00F0040
:102A300004432C8106B0BDE8F08700000038014057
:102A400001468888C0F308007047C1F308028280FD
:102A500070474FF41651016000218180C1800181CF
:102A60000C21418100218181704700BFFEE70000F9
:102A70004FF47A70FDF7D1FD01214804FFF7AAF960
:102A800001218804FFF7A6F90121C802FFF7B2F976
:102A900001210846FFF79EF901210220FFF79AF96C
:102AA00001210420FFF796F901210420FFF7A2F984
:102AB00001210820FFF79EF901211020FFF79AF964
:102AC00001210846FFF796F901214802FFF792F924
:102AD00001210846FFF76EF94FF4A060FFF734F8C4
:102AE000FEF7EEFB00231A464FF4E1313348FFF7BF
:102AF00023FB33A13148FFF79AFBFFF7C5F8FFF737
:102B00002DF803210846FEF7BDFA01210846FEF71D
:102B1000F7FA01210846FEF757FB00210846FEF7A9
:102B20008DFB2B48FEF7C4FB4FF08040FEF7C0FB47
:102B30002848FEF7BDFB2848FEF7BAFBFEF778FDF4
:102B400001210846FEF708F8FEF758FD0221084665
:102B5000FEF7A6FC4FF4FA70FEF7F4F91F48006880
:102B600000F062FA84B22046FEF7E8FB1C480068D9
:102B700000F05AFA84B22046FEF786F91948006838
:102B800000F052FA84B22046FEF72EFAFEF70CFC53
:102B9000FEF75CFAFEF70CFA0420FDF7BBFEFDF72A
:102BA0001DFFFEF7ABFBFFF7A0F906E009210EA021
:102BB000FFF730FA0220FDF73CFDF7E70044004044
:102BC00053657269616C325F4F6E0D0A0000000040
:102BD000002C01400004004000080040BC00002020
:102BE000C0000020C4000020537472696E67310D6C
:102BF0000A0000004FEA1153A3F58063D3F11E03CE
:102C0000A8BFD3F1200C08DB4FF0004242EAC122FA
:102C100052EA505232FA03F0704709420BD4102B9B
:102C2000C4BF0020704703F5787CBCF1FF3F05D09E
:102C30004FF0FF3070474FF00000704770B500F064
:102C4000B1F800BF4992248000207047F0E70000EF
:102C5000DFF848C170B51CEA111E1EBF1CEA13152F
:102C60009EEA0C0F95EA0C0F00F06F8081EA0304D6
:102C700023EA4C134EEAD47E21EA4C1141F4801130
:102C800043F48013AE44A1FB024CA0FB0365AEF1FC
:102C90007F7E361955EB0C05A1FB034C4CF100036C
:102CA000A0FB021C16EB0C06654153F10003094220
:102CB00018BF46F0010613F4007F0BD14FEA033131
:102CC0004FEA0530340341EA155140EA16506FF0DF
:102CD00003020AE04FEAC3214FEAC520F40241EAA9
:102CE000555140EA56506FF0020202EB2E4201EBC2
:102CF000025585EACE710AD05FEA440C18BF24F071
:102D0000004450F1000041F1000120EAD47040F28B
:102D1000FE7C624500D270BDA84214BF4FF08044D3
:102D20004FF04044002E08BF0024BEF1806FA8BFC2
:102D3000A1F1C041BDE8704080F282804FF00000F8
:102D400001F1C04101F0004170479EEA0C0F0CEA0E
:102D5000131518BF95EA0C0F06D04FF0000081EA5A
:102D6000030E0EF0004170BD00F01CF88900013E1A
:102D700000F007B800F009B84FEA430C5FEA5C5C6A
:102D800008D081EA030100F05BB84FEA410C5FEA2A
:102D90005C5CF6D14FF00000014970470000FF076E
:102DA0000000F87F0EF1020E2EF0030E5EF8046BA9
:102DB000364205D4012A43EB030515F5001F12D84E
:102DC000012841EB010C1CF5001F0CD80ED14FEA75
:102DD000D17C15F5001F0CEB4C0C0CF1020C08BF5C
:102DE0004CEBD37C04E04FF0080C01E04FEAD37CBD
:102DF0000CEB4C0526FA05F606F00706B6F1040CB6
:102E000006D20EEB860CBDE870404CF0010C60471A
:102E1000DFE80CF0090B02024FF000414FF0000018
:102E2000A1F5002170BD19461046012851EB01049F
:102E300018BFD4F5001484BF002001F0004170BD1C
:102E40000808A0F500114FEA3101704743004FEA2E
:102E5000D30C4FEA3C0C43401FBF40070CF16051BC
:102E600013F0FE4F70471CF0006F03D100200CF0F0
:102E7000004170470CF0004343EA507010B540EA3F
:102E8000CC0000F004F900BF000000924FEA0001FE
:102E9000FFF7D6BF4FF000414FF00000A1F5002131
:102EA000704700004FF47F0C1CEAD0121EBF1CEAD2
:102EB000D11392EA0C0F93EA0C0F00F0858090EA90
:102EC000010F48BF42F4807240F4000C41F400004E
:102ED0002CF07F4120F07F4000B58142A2EB03023D
:102EE0000FF2081CACEB504EC0F100009EF800E061
:102EF0004FEA4E0E00FB0EFC38BF49004FEA2C1C77
:102F000002F5FA020CFB0EF34FEACE1E4FEA112C2B
:102F10004FEAC1210EEB635E42EB22420EFB0CFC3A
:102F20004FEA1C5300FB03114FEA112C4FEA013109
:102F30000EFB0CFC4FEADC4C00FB0C11C14228BF1D
:102F400009184CEB03335DF804EB10EB410143EB44
:102F5000C250B2F57C0F38BF704729D512F0F00F80
:102F60001CBF00F1C04000F0004070470081828328
:102F70008485868788898B8C8D8E8F919293959688
:102F800097999A9C9D9FA0A2A3A5A7A8AAACAEB012
:102F9000B2B3B5B7B9BCBEC0C2C5C7C9CCCED1D417
:102FA000D7D9DCDFE2E6E9ECF0F3F7FAFE00000047
:102FB0004FEA400C0CF1807CBCF17E4F28BF70477B
:102FC000B0F1C04000F0A9B890EA010F0CEAD113AB
:102FD00048BF42F48072624538BF634507D213F49C
:102FE0007F0F16D080EA010000F00040704710B556
:102FF00000F04DF8097EFC3E00F005B880EA0100C3
:1030000000F00040704780EA010000F0004000F04E
:1030100084B812F47F0F04BF0248704780EA0100B1
:1030200000F07BB80000C07FC10DD1F19E0206DB2D
:103030004FEA002343F0004323FA02F070470042B6
:1030400007D54FEA4001B1F1FE4F02D24FF0000028
:10305000704710B500F01BF849922480002070479B
:103060006FEA200070470000B0FA80F310FA03F214
:10307000C3F19D030AD0D90501EB1220530638BFD6
:10308000704700F1010008BF20F0010070470EF109
:10309000020E2EF0030E5EF8044B244204D44FEAD5
:1030A0004102B2F17F4F11D84FEA4003B3F17F4F95
:1030B0000CD80ED14FEAD07CB2F17F4F0CEB4C0C08
:1030C0000CF1020C08BF4CEBD17C04E04FF0080C73
:1030D00001E04FEAD17C0CEB4C0324FA03F404F03A
:1030E0000704B4F1040C06D20EEB840CBDE81040CA
:1030F0004CF0010C6047DFE80CF0070802024FF0CB
:103100000040A0F5800010BD0846420018BFD2F173
:10311000807288BF00F0004010BDFF2141EAD0500E
:10312000C005704706030000010100000101000016
:103130000100000001000403000001010000010182
:103140000001010101010001020202020202020269
:10315000020202020202020205000000000000005A
:10316000000000000000000000000000000000005F
:10317000000000000000000000000000000000004F
:10318000000000000000000000000000000000003F
:10319000000000000000000000000000000000002F
:1031A000000001020300010001020001020300000F
:1031B000D031000800000020D000000028010008E5
:1031C000A0320008D0000020700D0000440100086B
:1031D00000000000010203040102030406070809BD
:1031E00002040608000000000000000000000000CB
:1031F00000000000000000000000000000000000CF
:1032000000000000000000000000000000000000BE
:1032100000000000000000000000000000000000AE
:103220000000000000004600000000000000000058
:10323000000000000000000000000000000000008E
:10324000000000000000000000000000000000007E
:10325000000000000000000000000000000000006E
:10326000000000000000000000000000000000005E
:10327000000000000000000000000000000000004E
:10328000000000000000000000000000000000003E
:10329000000000000000000000000000000000002E
:04000005080000ED02
:00000001FF
