:020000040800F2
:10000000100D0020E9010008052E0008A3180008C3
:10001000A718000859150008173C00080000000048
:10002000000000000000000000000000193200087D
:10003000CB15000800000000C9300008A9340008F2
:10004000030200080302000803020008030200087C
:10005000030200080302000803020008030200086C
:1000600003020008030200082D160008030200081E
:10007000030200080302000803020008030200084C
:10008000030200080302000803020008030200083C
:10009000030200080302000803020008030200082C
:1000A000030200080D3500080302000803020008DF
:1000B000293500084D35000889350008030200087D
:1000C00003020008030200080302000803020008FC
:1000D0000302000803020008CD390008093A0008AD
:1000E00013160008030200080302000800F002F8DB
:1000F00000F06AF80AA090E8000C82448344AAF158
:100100000107DA4501D100F05FF8AFF2090EBAE855
:100110000F0013F0010F18BFFB1A43F0010318473B
:10012000D4460000F44600000A444FF0000C10F8DA
:10013000013B13F0070408BF10F8014B1D1108BF65
:1001400010F8015B641E05D010F8016B641E01F805
:10015000016BF9D113F0080F1EBF10F8014BAD1C55
:100160000C1B09D16D1E58BF01F801CBFAD505E073
:1001700014F8016B01F8016B6D1EF9D59142D6D3CD
:10018000704700000023002400250026103A28BFF5
:1001900078C1FBD8520728BF30C148BF0B607047F9
:1001A000662904F0DD80642900F058800020704743
:1001B0001FB500F0C7FB04000020002103F010FE73
:1001C000E0601FBD10B510BD00F0BCFC1146FFF78C
:1001D000EFFF03F03DFD00F0DAFC03B4FFF7F2FFA0
:1001E00003BC00F01DFD0000094880470948004796
:1001F000FEE7FEE7FEE7FEE7FEE7FEE7FEE7FEE7D7
:10020000FEE7FEE704480549054A064B7047000033
:10021000AD340008ED00000810070020100D00208C
:1002200010090020100900200FB41CB50C0007AA0B
:10023000009001D02044401E074B7B44694601904A
:10024000069800F05EFB002C03D06946002000F009
:100250006BFB1CBC5DF814FBF50600002DE9F041BA
:100260000646002410687529314616A510D0AFF354
:100270000080002802DA404213A507E031688A07AF
:1002800001D512A502E0490704D511A5012401E01A
:10029000AFF3008000210A2206F1240709E0B0FB39
:1002A000F2FCB0FBF2F302FB1C003030785418462D
:1002B000491C0028F3D123462A463046BDE8F041C8
:1002C00000F0B1B8000000002D0000002B0000007D
:1002D000200000002DE9F0474FF0000A894604464F
:1002E000C0F820A02046E1688847002876D025285D
:1002F00006D0D4E901219047206A401C2062F1E732
:10030000E168204600258847C4F81CA0064600275F
:10031000C4F818A02A2E09D0304603F092FC38B356
:1003200004EB8708303EC8F8186019E059F8041B40
:10033000204604EB87029161E1688847012F064659
:1003400018D1E069002820DA25F020051DE0D8F852
:10035000180000EB800006EB40003038C8F81800A9
:100360002046E1688847064603F06BFC0028EED182
:10037000012F0AD02E2E08D12046E16888477F1C25
:100380000646022F45F02005C4DBA069002803DAE9
:10039000404245F00105A061E80701D025F01005B5
:1003A000B6B1A6F14100192802D8203645F40065FF
:1003B0004A463146204625604D46FFF7F1FE58B1CA
:1003C000012806D0ED1D25F0070000F1080989E796
:1003D00004E005F1040985E730468AE7206ABDE8B4
:1003E000F08710B5431C02E010F8011B71B18107C2
:1003F000FAD14FF0013202C88C1A8C4314EAC211B0
:10040000F9D0C01A0A0603D0C01E10BDC01A10BD14
:100410000A0401D0801E10BD0902FCD0401E10BD90
:100420007047704770472DE9F0470D469946924650
:10043000044600F124080168880604D5E06921F02B
:100440001001216000E00120A84201DD471B00E00F
:100450000027A1697A1902EB0900081AA061207827
:10046000C00602D42046AFF30080002608E0D4E99D
:1004700001211AF806009047206A401C761C206271
:100480004E45F4DB2078C0060AD52046AFF3008045
:1004900006E0D4E9012130209047206A401C206208
:1004A000381EA7F10107F4DC07E0D4E9012118F8B0
:1004B00005009047206A401C2062281EA5F1010516
:1004C000F3DC2046AFF300802078000602D502203E
:1004D000BDE8F0870120FBE770472DE9FF4F0C4690
:1004E0001E464FF0FF378BB0D2E90001DDF8608087
:1004F0000A908A46C1F30A5505B93D4600210846CF
:100500004FF00000BAF1000F00F4400005DA00EBF4
:1005100080004FF4400101EA50004FEA9059B9F1D0
:10052000010F00DDB9460A9850EA4A000ED044F6A1
:100530001050A5F2FF3545432F14B8F1000F1ED01F
:100540007542291E1EDDC9F100021CE0B8F1010F41
:100550004FF0000001D0302103E0F24305E02154C8
:10056000401CB042FBDB30460022002121540B9995
:10057000C1F80880C1E900200FB0BDE8F08FBD1BB5
:100580006D1CDEE74A4600DA694206A800F064FA0C
:1005900006AB93E8070003AB83E8070050460A99CF
:1005A00000F045FB8DE80700A0F500501F380090D3
:1005B0000398002D0ADD42F21F014A460844002339
:1005C00003A90390684600F0AEFD09E0A0F50050D5
:1005D0004A461F38002303A90390684600F0B8FD7F
:1005E0008DE807000004000C03D04FF0FF304108F5
:1005F00000E01046B8F1000F03D00022009215462B
:100600001EE0751E05D400F0A1F9303262556D1E52
:10061000F9D5B3460122084302D000227F1C04E032
:100620002078302801D100227F1E002A099784D02B
:100630001DE0112D07DA00F089F9303262556D1C8A
:1006400050EA0102F5D1084302D00098C8B10EE08B
:100650000021681E05E0235C625C63542254401E46
:10066000491C8142F7DBAB46A81B401E09900020C5
:1006700004F80B000B98099AC0F80880C0E9002B19
:100680007AE711264FF0000857E72DE9F04F88462A
:100690000446D21D22F0070191B0D1E90001CDE955
:1006A0000A0103F0BAFA02460B98C00F01D02D20C0
:1006B00007E02068810701D52B2002E0202101EA14
:1006C000C000032A099001D0072A05DB03464146F2
:1006D000204600F081F90BE12078800601D5E06921
:1006E00000E00620B8F1650F814606D0B8F1660F2C
:1006F00018D0B8F1670F70D131E00020B9F1110FB7
:10070000009001DB112301E009F101030AAA01A90C
:100710000CA8FFF7E2FEDDE90C70002609F10105E7
:10072000834647E001204B4600904FF000470AAA5D
:1007300001A90CA8FFF7D1FEDDE90DB00C995D46CB
:10074000002610B909F101000D18B9EB050003D41A
:10075000C0F1FF3609F10105A5EB09002BE0B9F165
:10076000010F01DA4FF001090020B9F1110F0090DB
:10077000484601DD112300E003460AAA01A90CA89E
:10078000FFF7ABFEDDE90C704D460026834620786E
:1007900000070AD4AB4500DA5D4601A8012D04DD4F
:1007A000411911F8011C302907D04F4502DA17F121
:1007B000040F04DA012082460FE06D1EEEE7002FE1
:1007C00002DCED1B3E4403E0781CA84200DD7D1CEA
:1007D000B81B00F1010A4FF000472078000703D44E
:1007E000AA4501DB4FF0FF3A0021B7F1004F0DF1B0
:1007F00043088DF8431024D002202B23002F01DA68
:100800007F422D230A21021EA0F1010000DC5FB10E
:1008100097FBF1FC97FBF1F201FB1C7C17460CF1F6
:10082000300C08F801CDEEE7A8F101000370218833
:10083000090501D5452100E06521A0F1010800F876
:10084000011C09980FA9A1EB0807FF1D00B10120A9
:10085000411901EBEA70A1693844081A401EA061F1
:100860002078C00602D42046AFF30080099828B152
:10087000D4E901219047206A401C20622078C006FC
:1008800022D52046AFF300801EE0002E04DBB345E6
:1008900002DD01A8805D00E03020D4E9012190470D
:1008A000206A401C2062761CAAF101005FEA000A5F
:1008B0000AD100F047F8C0680168405CD4E9012122
:1008C0009047206A401C2062281EA5F10105DCDC4F
:1008D00007E0D4E9012118F8010B9047206A401C79
:1008E0002062381EA7F10107F3DC2046AFF3008039
:1008F000032011B041E6000001694A1C026108783A
:10090000704700B58FB0CDE901310021059105494F
:100910007944CDE9031011466846FFF7DBFC0FB0C0
:1009200000BD0000E5FFFFFF0A6802F8010B0A6046
:100930007047D1E900239A4202D2531C0B60107019
:100940007047000000487047D006002030B5B0F175
:100950000A024FEA900E71F100034EEA817EB0EB7D
:100960000E0061EB91014FEA101E4EEA017E10EB82
:100970000E0041EB11114FEA102E4EEA016E10EB02
:100980000E0041EB11214FEA104E4EEA014E10EBE2
:100990000E0041EB1141401841F100014FEAD00037
:1009A00040EA41704FEAD10110EB80054FEA810423
:1009B00044EA907444EB01046D1944EB0404521BA7
:1009C000A3414FF0000348BF0A3200D530BD401CA0
:1009D00041F1000130BD00002DE9F0411F46044601
:1009E00003260168072A01F4006004DB08B116A59C
:1009F00005E016A503E008B115A500E015A521F056
:100A000010002060A069C01EA0610FB1401EA0614F
:100A10002046AFF300804FB1D4E90121384690471A
:100A2000206A401C2062C01C206206E0206AFAE7AF
:100A3000D4E9012115F8010B9047761EF8D2204623
:100A4000AFF30080BDE8F0814E414E006E616E0054
:100A5000494E4600696E66002DE9F047814616460C
:100A60008AB0354878440DC88DE80D003248784486
:100A7000801C03AC0DC884E80D0041F69B3008448F
:100A8000372190FBF1F290FBF1F5A5F1800501FB18
:100A900012041B3C02D56442012000E00020DFF874
:100AA00098A080460027FA44AAF1BE0A0EE0E007AB
:100AB0000AD03246684607EB470101230AEB810161
:100AC00000F046FB8DE8070064107F1C002CEED17F
:100AD000194F7F44AE3F19E0E80715D007EB04102B
:100AE0000DF1180A90E80E008AE80E00C068F04286
:100AF00001D1981908903246012306A903A800F0F5
:100B000027FB03AB83E807006D10641C002DE3D1C5
:100B10004FF0010332466946B8F1000F03A802D036
:100B200000F001FB01E000F013FBC9E90001C9F886
:100B300008200AB0BDE8F087043A0000004870477A
:100B4000B00600207546FFF7F9FFAE46050069467E
:100B5000534620F00700854618B020B5FFF752FB3A
:100B6000BDE820404FF000064FF000074FF00008AE
:100B70004FF0000B21F00701AC46ACE8C009ACE82F
:100B8000C009ACE8C009ACE8C0098D46704710B593
:100B90000446AFF300802046BDE81040FFF71DBBC0
:100BA0004FF0013C50F8042B51F8043B9A4221D1FC
:100BB000A2EB0C03934313EACC1317D150F8042B88
:100BC00051F8043B9A4215D1A2EB0C03934313EA6C
:100BD000CC130BD150F8042B51F8043B9A4209D1A5
:100BE000A2EB0C03934313EACC13DBD04FF00000CD
:100BF000704700BFD01A01BAB1FA81F101F01801B3
:100C000022FA01F0CB40C1F12001DBB2C0B2C01A20
:100C10002CFA01F3D11A914311EAC311E6D17047BE
:100C200001491820ABBEFEE72600020070475FEACC
:100C3000400C08BF91F0000F4FEA8C234FEAC1220D
:100C400043EA51514FEA1C5018BF00F5F0404FEAFB
:100C5000300018BF41F000415FEA6C5C00F0298071
:100C6000BCF1FF3F08BF40F080407047130C06BF47
:100C700012044FF0100C4FF0000C130E04BF1202C0
:100C80000CF1080C130F04BF12010CF1040C930FAC
:100C900004BF92000CF1020CD30F04BF52000CF100
:100CA000010C11464FF00002A0F11F00A0EB0C0058
:100CB000704711F0004F08BF704731F000413FF41A
:100CC000D5AF0B0C06BF09044FF0100C4FF0000C11
:100CD0000B0E04BF09020CF1080C0B0F04BF090135
:100CE0000CF1040C8B0F04BF89000CF1020CCB0F2C
:100CF00004BF49000CF1010CCCF12003A0EB0C0067
:100D000022FA03F302FA0CF241EA030100F10100B6
:100D1000704720F07F4C80EA030023F07F47ACEB64
:100D2000070303F57C5300F0004003F1FF032DE9B6
:100D300080494FEA154B09B44FEA144325EA0B4E9C
:100D400024EA03480FF2042606EB132749083E78ED
:100D50005FEA320203FB0667C7F5000707FB06F6EA
:100D60004FEA54374FEAD64606F1020607FB066CF7
:100D7000CCF1005C4FEA1C472CEA074C07FB06F459
:100D80000CFB06F504EB15464FEA961634BF00201F
:100D90004FF000404FEAD13706FB07FC4FEA1C4CEE
:100DA0000CFB0BF7D21B03FB0CF761EB07010CFBF1
:100DB0000EF7B0EB074072EB17420CFB08F734BF9D
:100DC000A2EB0742B2EB074261EB17414FEA0C443A
:100DD0004FEA910706FB07FC4FEA1C4C0CFB0BF794
:100DE000B0EBC74072EB573203FB0CF734BFA2EBFA
:100DF000C742B2EBC74261EB57310CFB0EF7B0EBC9
:100E0000C70072EB57720CFB08F734BFA2EBC702A6
:100E1000B2EBC70261EB5771039F4FEA816141EA70
:100E2000921104EBCC044FEAD1374FEA826206FB01
:100E300007FC42EA90124FEA80604FEA1C4C0CFB20
:100E40000BF7D21B03FB0CF761EB07010CFB0EF752
:100E5000B0EB074072EB17420CFB08F734BFA2EB74
:100E60000742B2EB074261EB17414FEA8C554FEA5C
:100E7000910704EB9C2406FB07FC4FEA1C4C0CFB7F
:100E80000BF7B0EBC74072EB573203FB0CF734BFE4
:100E9000A2EBC742B2EBC74261EB57310CFB0EF736
:100EA000B0EBC70072EB57720CFB08F734BFA2EB34
:100EB000C702B2EBC70261EB577115EB4C254FEA45
:100EC000816141EA92114FEA82624FEAD13742EAE8
:100ED000901206FB07FC44F100044FEA80604FEAE1
:100EE0001C4C0CFB0BF7D21B03FB0CF761EB07014F
:100EF0000CFB0EF7B0EB074072EB17420CFB08F748
:100F000034BFA2EB0742B2EB074261EB174115EB8E
:100F10001C154FEA813141EA92414FEA823242EA9E
:100F200090424FEA80304FEA0C7644F1000448EAE0
:100F300003434EEA0B484FF0000EB2EB080C71EB86
:100F4000030724BF624639464EEB0E0E4FF0000BEE
:100F50000018524149414BEB0B0BB2EB080C71EB03
:100F600003077BF1000B24BF624639464EEB0E0EA1
:100F70004FF0000B0018524149414BEB0B0BB2EB09
:100F8000080C71EB03077BF1000B24BF6246394666
:100F90004EEB0E0E51EA020718BF46F0010616EBA3
:100FA0000E7655F1000254F1000103D5BDE8890128
:100FB000BDE80088BDE88901BDE80048B619524186
:100FC00041EB0101A3F10103704780807F7E7D7CAE
:100FD0007B7A7978777676757473727171706F6ECB
:100FE0006E6D6C6C6B6A6A69686867666665646476
:100FF000636362616160605F5F5E5E5D5D5C5C5B00
:101000005B5A5A595958585757565655555554546E
:10101000535352525251515050504F4F4F4E4E4DCC
:101020004D4D4C4C4C4B4B4B4A4A4A494949484818
:101030004847474747464646454545444444444358
:1010400043434342424242414141002B9C4630D4FB
:1010500077002BD01CB54FEA370703B44FF01000D0
:101060004FF01001BAF1000F06D0BCF1000FDCBF49
:1010700040F0080040F008014FF000000FBCBDE850
:1010800010400BF1010BBBF1010F08BF5FEA17071E
:1010900022BF12F1010211F101014FF0004143F1B1
:1010A000000300F0004043EA00007047F9D35708FE
:1010B000D0E746EA064613F1400F4FEA16461FDD19
:1010C00013F1200FDFBF16430A46002120335B4295
:1010D000BED0C3F1200746EA064602FA07F74FEAF8
:1010E000164646EA0706C3F1200722FA03F201FA80
:1010F00007F721FA03F14FF0000342EA0702A7E7DE
:1011000046EA020646EA06464FEA164646EA01065F
:10111000BCBF46EA0646360C4FF000034FF0000213
:101120004FF0000194E72DE9804C9A46934670B445
:1011300091E8380007C831EA400C48BF34EA430C54
:1011400003D5FFF7E6FDFFF780FFF0BCBDE8008C9C
:101150002DE9804C9A46934670B491E8380007C850
:1011600010F0804F08BF13F0804F03D100F005F856
:10117000FFF76BFFF0BCBDE8008C20F07F4780EAF2
:10118000030023F07F4C07EB0C03A3F57C5300F026
:101190000040A3F1FE0392F0000F00F0B38095F041
:1011A000000F00F077802DE901494FEA11404FEA26
:1011B000144621EA004800FB06FC24EA064708FB27
:1011C00006F607FB08F800FB07F718EB06484CEBA0
:1011D000164C4FEA124B18EB07484FEA15464CEBFA
:1011E000174022EA0B4E0BFB06FC25EA06470EFBD6
:1011F00006F607FB0EFE0BFB07F71EEB064E4CEB4D
:10120000164C4FF000061EEB074E4CEB174B18EB3D
:101210000B0840F1000018EB0E0B58EB000840F1F2
:1012200000008F1A4FF000013CBFC943661B14BF7A
:10123000B5EB040C00213CBFC943F61B4FEA174431
:101240004EEA8E0E27EA04454FEA1C4704FB07626C
:101250002CEA074C05FB07F70CFB05F604FB0CFC1E
:1012600016EB074642EB174216EB0C4642EB1C42CC
:101270001BEB060658EB0202414146EA9E0601D5E9
:10128000BDE80189B619524141EB0101A3F1010307
:10129000BDE801894FEA14454FEA114724EA0546A3
:1012A00021EA074C05FB07F406FB07F70CFB06F1E8
:1012B00005FB0CFC11EB074144EB17444FEA1247C6
:1012C00011EB0C4144EB1C4422EA074C05FB07F2EE
:1012D00006FB07F70CFB06F605FB0CFC16EB0746B6
:1012E00042EB174216EB0C4642EB1C456A1854F1D0
:1012F000000148BF7047B619524141EB0101A3F10B
:101300000103704795F0000F37D04FEA11424FEAC2
:10131000144721EA024624EA074C02FB07F106FBC8
:1013200007F70CFB06F402FB0CFC14EB074441EB43
:1013300017414FEA154714EB0C4441EB1C4125EAD9
:10134000074C02FB07F506FB07F70CFB06F602FB52
:101350000CFC16EB074645EB174516EB0C4645EB28
:101360001C42121951F1000148BF7047B619524191
:1013700041EB0101A3F1010370474FEA14454FEA25
:10138000114724EA054621EA074C05FB07F106FB55
:1013900007F70CFB06F24FF0000605FB0CFC12EB06
:1013A000074241EB174112EB0C4251EB1C4148BF85
:1013B0007047921841EB0101A3F10103704721B17D
:1013C000826842F00102826003E0826822F001023A
:1013D0008260704721B1826842F48072826003E0CB
:1013E000826822F4807282607047014600208A6819
:1013F00002F004020AB1012000E00020704701461B
:1014000000208A6802F008020AB1012000E00020F2
:101410007047000030B502460020002350680F4C92
:1014200020400D790C6844EA052420435060906800
:101430000B4C2040D1E902542C434D7944EA450439
:1014400020439060D06A20F470000C7C641EE4B2EB
:10145000234340EA0350D06230BD0000FFFEF0FF9E
:10146000FDF7F1FFF0B504460D4600200021092DDF
:1014700011DDE068A5F10A0606EB4607072606FA25
:1014800007F18843A5F10A0606EB460603FA06F1C2
:101490000843E0600CE0206905EB4507072606FAE3
:1014A00007F1884305EB450603FA06F1084320617E
:1014B000072A0FDA606B561E06EB86071F2606FA10
:1014C00007F18843561E06EB860605FA06F1084327
:1014D000606322E00D2A0FDA206BD61F06EB860729
:1014E0001F2606FA07F18843D61F06EB860605FA83
:1014F00006F10843206310E0E06AA2F10D0606EB56
:1015000086071F2606FA07F18843A2F10D0606EBAF
:10151000860605FA06F10843E062F0BD816841F0F5
:1015200008018160704721B1826842F4A0028260A4
:1015300003E0826822F4A00282607047816841F073
:101540000401816070470021016001714171816077
:10155000C16001210174704700BFFEE721B102683C
:1015600042F00102026004E002684FF6FE731A4086
:101570000260704710B50022026847F6F0739A4384
:101580000C6A8B6823430C6923434C6923438C69A1
:101590002343CC6923434C6A23438C6A23431A4375
:1015A0000260CB6843600B6883604B68C36010BD0A
:1015B0000021016041608160C16001614161816120
:1015C000C1610162416281627047704700B50346A4
:1015D00003E04FF47A7000F005F8181EA3F1010340
:1015E000F7D100BD00EBC001C9004FF0E02251610E
:1015F000002191610521116100BF4FF0E0210969CF
:1016000001F480310029F8D004214FF0E02211616B
:10161000704710B54FF4004000F01AF8012804D1CB
:10162000C00300F00FF801F09DF810BD10B51020B8
:1016300000F00EF8012804D1102000F003F800F0AB
:10164000B3FA10BD0149086070470000140401405E
:10165000014600200022074B1B6803EA0102054BEC
:1016600014331B680B4013B10AB1012000E00020C5
:101670007047000000040140002123498279002ABC
:101680003AD00A46126803689A430B461A600A1D4C
:10169000126803689A430B1D1A60027911440A68A4
:1016A00003681A430A60184A0832126803689A43AA
:1016B000154B08331A601A1D126803689A43124BBF
:1016C0000C331A604279102A0ED11A1F126803686F
:1016D0001A430D4B08331A601A1D126803681A4327
:1016E000094B0C331A600DE00749427911440A682E
:1016F00003681A430A6005E0027911440A68036826
:101700009A430A6070470000000401400021016014
:1017100001710C21417100218171704730B50022A7
:101720008B071C0F0F2303FA04F20B4B8C1053F89A
:1017300024309343084C8D1044F8253023468C10F8
:1017400053F824308C07240F00FA04F42343024C8E
:101750008D1044F8253030BD080001402DE9F041DE
:10176000024600250026002000230024002791F8CF
:1017700003C00CF00F0591F803C00CF0100CBCF185
:10178000000F03D091F802C04CEA050591F800C0A3
:10179000BCF1000F31D0146800202BE04FF0010C99
:1017A0000CFA00F3B1F800C00CEA03069E4220D107
:1017B00083004FF00F0C0CFA03F7BC4305FA03FC4F
:1017C0004CEA040491F803C0BCF1280F06D14FF095
:1017D000010C0CFA00FCC2F814C00AE091F803C036
:1017E000BCF1480F05D14FF0010C0CFA00FCC2F817
:1017F00010C0401C0828D1D31460B1F800C0BCF15F
:10180000FF0F34DD546800202EE000F1080C4FF08B
:10181000010808FA0CF3B1F800C00CEA03069E4276
:1018200021D183004FF00F0C0CFA03F7BC4305FAEB
:1018300003FC4CEA040491F803C0BCF1280F05D165
:1018400000F1080C08FA0CF8C2F8148091F803C0F3
:10185000BCF1480F07D100F1080C4FF0010808FA5D
:101860000CF8C2F81080401C0828CED35460BDE8A4
:10187000F0810246002093680B400BB1012000E08C
:1018800000207047016170474FF6FF71018002210F
:1018900081700421C17070470AB1016100E04161AB
:1018A000704700BFFEE700BFFEE7000010B590B034
:1018B00004464FF4004001F009FC0BA8FFF743FE7B
:1018C00001208DF8310000200E904FF460200D9023
:1018D00000200B908DF83C4001208DF830000BA9C2
:1018E0002148FFF797FD01211F48FFF773FD684668
:1018F000FFF75EFE1C484C300090801506900020DB
:1019000004901A4801904FF4806007908020059061
:101910000020029003940A9020200890C0010990B2
:1019200069461348FFF726FE01210F48FFF747FDE0
:1019300001210F48FFF712FE0B48FFF7EFFD00BF34
:101940000948FFF75CFD0128FAD00748FFF7F6FDCC
:1019500000BF0548FFF749FD0128FAD001210248E0
:10196000FFF7E1FD10B010BD00240140E4010020AC
:101970000800024008B56846FFF786FF10208DF882
:1019800003004002ADF8000003208DF80200694614
:101990000248FFF7E3FE00F003F808BD000C014029
:1019A00010B54FF400510248FFF76CFF10BD000066
:1019B000000C014010B506480078012802D100F063
:1019C000EFF804E00248007808B900F0E5F810BD2F
:1019D000A401002010B50C48006840B90B4801F084
:1019E00010FE0B490968401A0A4908600AE00748D6
:1019F00001F007FE42F21071084405490968401AD7
:101A00000449086010BD00008C0100200004004063
:101A1000A00100209C01002010B5044801F0F1FD58
:101A20000349086000200349086010BD000400401D
:101A3000A00100208C01002004480078012804D176
:101A400003480068401C0249086070478801002074
:101A50008C0100207CB5002000900190002400261D
:101A6000002500BF15E000210FE01D4A165D1DF89E
:101A70000020C1F1070306FA03F31A43D2B20DF8AE
:101A80000020621CD4B24A1CD1B20729EDDD411CF2
:101A9000C8B20428E7DD002005E01DF80010294445
:101AA000CDB2411CC8B20328F7DD9DF80400A8425E
:101AB00012D1002005E01DF800100A4A1154411C03
:101AC000C8B20328F7DD0748807807490870054841
:101AD00000780649087001E000F05EF87CBD000067
:101AE0004806002098010020A6010020A701002040
:101AF00038B504460D4614201749C87010200880D8
:101B0000032088701548FFF729FE04210020FFF705
:101B100005FE012210211148FFF7BEFE10201049DA
:101B2000086000200871082048710020887108466C
:101B3000FFF7A2FD0A208DF8000000208DF80100BB
:101B40008DF8020001208DF80300684601F05CF971
:101B500000F0F8F838BD00007C01002000080140CA
:101B60008001002010B50A48007801280FD10948EB
:101B70000078401C0749087008460078042806DBF6
:101B8000FFF718FF0020034908700149087010BDD5
:101B900090010020A801002010B500F099F810BDB8
:101BA00010B500F095F810BD10B53E480078062835
:101BB00074D2DFE800F00304730D205F6FE00120B2
:101BC00039490870FFF728FF03203649087066E09E
:101BD000FFF700FF35480068642809D333480068E0
:101BE000B42805D804202F490870FFF715FF01E03D
:101BF000FFF7D2FF53E0FFF7EDFE2C4800683C28CA
:101C000018D32A4800685A2814D8FFF705FF002186
:101C1000274802780078401C254B187025488154CD
:101C200018460078282824DB05201E49087000F09B
:101C30006BF81EE01D4800686E2818D31B4800682A
:101C4000822814D8FFF7E8FE0122194801780078AD
:101C5000401C174B18701748425418460078282823
:101C600007DB05200F49087000F04EF801E0FFF790
:101C700093FF14E0FFF7AEFE0C48006828280AD353
:101C80000A4800683C2806D801200B490870FFF775
:101C9000E1FE02E002E0FFF77FFF00E000BF00BFCF
:101CA00010BD00009B010020880100209C01002045
:101CB000A501002048060020A401002010B5002046
:101CC0000249087000F016F810BD0000A5010020C0
:101CD00010B500F023F8002003490870034908708C
:101CE0000349087010BD00009B01002088010020FE
:101CF000A401002010B50C20024948710846FFF7E6
:101D0000BBFC10BD8001002010B5082002494871BD
:101D10000846FFF7B1FC10BD8001002010B5482037
:101D20000549C8700548FFF719FD0120044988716D
:101D30000846FFF7A1FC10BD7C010020000801400F
:101D40008001002010B50020054988710846FFF782
:101D500093FC10200349C8700348FFF7FFFC10BD37
:101D6000800100207C0100200008014010B5012006
:101D700007490870002007490870FFF7E3FF0020BB
:101D800005490870FFF79AFF01200449087010BD4B
:101D900091010020920100209B0100209001002071
:101DA00010B51A48007801282ED119480068401C47
:101DB000174908601748007810B1012823D10DE0B9
:101DC000FFF7C0FF002210211348FFF765FD012037
:101DD0001049087000200E49086014E00C480068A3
:101DE00000EB800044F6206188420BD3FFF796FF9A
:101DF00001200A490870FFF77DFF0020054908709F
:101E00000249087000BF00BF10BD00009101002012
:101E10009401002092010020000801409B01002055
:101E200038B5044618208DF803004FF48060ADF8F3
:101E3000000003208DF8020069460F48FFF78EFC72
:101E40000E4801F05CFD00200C498881602008806C
:101E50000020C8814881888001204880601EC88099
:101E6000074801F0A7FC0121054801F0BBFB082150
:101E7000034801F0EFFC38BD000801409006002047
:101E8000002C01402DE9F04104460D4600260020BB
:101E900003E035F810100E44401CA042F9DB204648
:101EA00002F000FA0746304602F0FCF98046394657
:101EB00002F016F9BDE8F0812DE9F04106460D4625
:101EC00006B11DB94FF0FF30BDE8F081287808B9A0
:101ED0000120F9E73046FEF784FA07462846FEF768
:101EE00080FA0446A74201D20020EDE7002210E06C
:101EF000002106E05018305C6B5C984200D002E094
:101F0000491CA142F6D300BFA14201D10120DBE769
:101F1000521C381B9042EBD20020D5E710B50B467F
:101F2000002105E04C1C30F8144020F81140491CF9
:101F3000541E8C42F6DC511E20F8113010BD704743
:101F400010B5414890F9000020B1012803D00228C3
:101F500077D14CE075E03D480068401C3B49086083
:101F60003B483C4991F9001050F821003749096875
:101F700001EB4102C2EBC111B0EBC10F06D800204A
:101F8000314908700120344908702FE03348C07887
:101F900001282BD132482F4A92F9002050F8221004
:101FA0003048FFF789FF01281AD12A4890F900002C
:101FB0000A2808DB002027490870022022490870FF
:101FC0002549087012E023480078401C40B221499E
:101FD000087000201C49087001201F49087005E0A6
:101FE00000201949087001201B49087029E01B488E
:101FF000C078012824D11C491A48FFF75DFF012849
:1020000004D11AA11A4801F0CEF919E0194915486E
:10201000FFF752FF012804D117A1154801F0C3F9B9
:102020000EE017490F48FFF747FF012808D1FFF7D7
:1020300086FF03200849087012A10D4801F0B3F98A
:1020400000BF00BF10BD0000380100205801002073
:102050003C00002039010020370100202A00002028
:102060006800002000020020400100204F4B0000CB
:1020700000440040430100204552524F52000000EE
:1020800049010020524543560000000010B51C488D
:1020900090F9000030B1012805D0022813D00328A0
:1020A0002CD11FE02AE01748174A92F9002050F877
:1020B0002210164801F077F9012015490870002018
:1020C0000F4908701AE000F09DF812490F4801F01E
:1020D0006AF911490D4801F066F910A1114801F0A3
:1020E00062F90BE01049094801F05DF9022004494A
:1020F00008700EA10B4801F056F900BF00BF10BDDB
:1021000037010020940000203901002000480040E1
:1021100038010020000400200005002050554252E4
:102120005054000000440040C0000020505542526E
:102130005350000010B508480068401C064908606C
:102140000846006805490988884204D3FFF79EFFC6
:1021500000200149086010BD380000203400002034
:1021600038B504466846FFF78FFB18208DF803004A
:102170004FF48070ADF8000003208DF8020069462E
:102180000F48FFF7EBFA0F4801F0B9FB00200D49AB
:102190008881602008800020C881488188800120D3
:1021A0004880601EC880084801F04EFA01210648A8
:1021B00001F018FA0821044801F092FA38BD000035
:1021C0000008014070060020002C014008B5684658
:1021D000FFF75AFB00208DF803000220ADF8000045
:1021E00003208DF8020069460448FFF7B7FA05237B
:1021F000042209210248FFF735F908BD000C01400F
:10220000002401402DE9F04F8BB03148006801F007
:102210003BFF04460D462F49888801F024FE064600
:102220002D4A2E4B01F032FE8046894629494888C6
:1022300001F019FE0646284A294B01F027FE824686
:102240008B462848007828490978CDE90645CDE92C
:10225000081026480088CDE900ABCDE9028904903A
:1022600023480388234A4FF480712348FDF7DCFF9D
:102270002248006801F008FF04460D462048006827
:1022800001F002FF06460F461249C88801F0EBFD37
:102290008246114A114B01F0F9FD804689461948E2
:1022A000007819490978194A1278CDE90089CDE9F1
:1022B0000267CDE90445CDE906210890144A4FF4A0
:1022C00080711448FDF7B0FF0BB0BDE8F08F00003F
:1022D000D8010020E401002014AE47E17AF07240FA
:1022E0007A2C7B40ED010020EC01002074010020DD
:1022F000BE0100208846000800040020E001002004
:10230000DC010020A7010020A6010020D001002050
:10231000CC4500080005002038B5044618208DF88B
:1023200003004FF40060ADF8000003208DF80200B8
:1023300069460F48FFF712FA0E4801F0E0FA002054
:102340000C498881602008800020C88148818880ED
:1023500001204880601EC880074801F085FA0121ED
:10236000054801F03FF90821034801F0BBFA38BDE8
:1023700000080140A0060020002C014008B5684676
:10238000FFF782FA00208DF803000120ADF800006D
:1023900003208DF8020069460448FFF7DFF90523A2
:1023A000032208210248FFF75DF808BD000C014038
:1023B000002401407FB505460C461C4801F03EF95B
:1023C00001A801F0F9FA0020ADF80A00ADF8060006
:1023D0004720ADF8040044F61F60ADF80800002067
:1023E0008DF80C0001A9114801F094FA01210F4861
:1023F00001F0E6F8012211460C4801F016F901211E
:102400000A4801F0D1F819208DF8000001208DF85C
:1024100003008DF801508DF80240684600F0F4FC8E
:102420000021024801F0D2F87FBD0000002C0140DD
:102430007FB505460C464FF0804001F0FFF801A83B
:1024400001F0BAFA0020ADF80A00ADF80600472006
:10245000ADF804000420ADF8080000208DF80C0051
:1024600001A94FF0804001F055FA0121880701F0E1
:10247000A7F801221146900701F0D7F8012188073B
:1024800001F092F81C208DF8000001208DF8030067
:102490008DF801508DF80240684600F0B5FC00212F
:1024A0004FF0804001F092F87FBD000010B5044667
:1024B00007480088401C0649088008460088A0425A
:1024C00005DB0020088000F0FDF9FFF74FFC10BD90
:1024D0002400002010B5044606480088401C054929
:1024E000088008460088A04203DB0020088000F036
:1024F00023FC10BD260000207FB505460C461A4877
:1025000001F09CF801A801F057FA0020ADF80A008C
:10251000ADF806004720ADF8040042F20F70ADF8A8
:10252000080000208DF80C0001A90F4801F0F2F915
:1025300001210D4801F044F8012211460A4801F03A
:1025400074F81D208DF8000001208DF803008DF82F
:1025500001508DF80240684600F056FC0021024808
:1025600001F034F87FBD0000000400407FB505464F
:102570000C461A4801F062F801A801F01DFA00208B
:10258000ADF80A00ADF8060040F2CF20ADF8040027
:102590000920ADF8080000208DF80C0001A90F48B3
:1025A00001F0B8F901210D4801F00AF801221146A5
:1025B0000A4801F03AF81E208DF8000001208DF83D
:1025C00003008DF801508DF80240684600F01CFCB5
:1025D0000021024800F0FAFF7FBD00000008004023
:1025E00010B504460121204600F0F0FF10BD0000A8
:1025F00008B510208DF803002020ADF8000003205E
:102600008DF8020069460348FFF7A8F800F004F8C7
:1026100008BD0000000C014010B501222021024835
:10262000FFF73AF910BD0000000C014008B56846FC
:10263000FFF72AF910208DF803000002ADF8000022
:1026400003208DF8020069460248FFF787F800F082
:1026500003F808BD000C014010B54FF4805102484A
:10266000FFF710F910BD0000000C014038B504461A
:102670006846FFF709F918208DF803004FF4007041
:10268000ADF8000003208DF8020069460F48FFF7FF
:1026900065F80F4801F033F900200D49888160206A
:1026A00008800020C8814881888001204880601E01
:1026B000C880084801F01EF80121064800F092FF8A
:1026C0000821044801F068F838BD00000008014006
:1026D00080060020002C014008B56846FFF7D4F8BA
:1026E00000208DF803000220ADF8000003208DF8D3
:1026F000020069460448FFF731F805230222012150
:102700000248FEF7AFFE08BD00080140002401406A
:1027100010B50F480078032804DA0D480078401CF3
:102720000B4908700B48008881B203220A48FFF762
:10273000F5FB094906480078FFF7A4FB044601F0C1
:1027400091FD0649088000F07DF80549088010BD1C
:10275000C8010020B8010020CA010020BC010020EF
:10276000BE01002010B515480078012824D1144876
:10277000007858B9134800F044FF134908600C2052
:1027800000F07AF801200E49087015E00C48007836
:10279000012811D10B4800F034FF0B490968401A99
:1027A0000A490860FFF7B4FF082000F065F8002030
:1027B000034908700149087010BD0000B6010020EF
:1027C000C201002000040040C4010020B801002024
:1027D0007CB505460C4601A8FFF756F848208DF851
:1027E00007004FF40040ADF8040003208DF8060008
:1027F00001A91248FEF7B2FF0F210120FEF78EFF5C
:102800000F48FEF783FF4FF400400D490860012098
:10281000887100200871082048710846FEF72CFFD7
:1028200028208DF8000001208DF803008DF801505C
:102830008DF80240684600F0E7FA7CBD000C0140CC
:10284000AC0100202DE9F0410848008801F02AFD84
:10285000804601F019FC0646054A064B01F016FBBE
:10286000044601F0D3FA80B2BDE8F081BC0100203B
:10287000C1CAA145B6F3C53F10B50446024844712C
:10288000FEF7FAFE10BD0000AC01002010B50B48A9
:102890000078012811D100F037F809480078401C71
:1028A0000749087008460078022806DB00F014F893
:1028B0000020024908700249087010BDB4010020D0
:1028C000C1010020012002490870024908707047C8
:1028D000B4010020B501002010B500224FF4805152
:1028E0000648FEF7D9FF0120054908700020054978
:1028F00008700820FFF7C0FF10BD0000000801406D
:10290000B6010020B701002010B506480078012864
:1029100007D1012201030448FEF7BEFF0020014950
:10292000087010BDB50100200008014008B56846D8
:10293000FEF7AAFF10208DF803000002ADF800009A
:1029400003208DF8020069460448FEF707FF0022C5
:102950004FF480510148FEF79FFF08BD0008014079
:1029600010B50121042000F0DDFB14200449C870DB
:1029700020200880032088700248FEF7EFFE10BD7B
:102980005C010020000801400020144A108000BFB4
:1029900009E0134A125C8240104B1B881A430F4B0C
:1029A0001A80421CD0B21028F3DB0C4800880122A8
:1029B000B2EBE03F05D109480088C043401C074AFC
:1029C0001080064800880011064A10800F21034835
:1029D00000880840044A10807047000072010020FF
:1029E00000060020740100207601002010B5C048C8
:1029F000C0490978405C072805D2DFE800F073A6DB
:102A0000EA05FCFB040071E1BB480068401CBA49C0
:102A10000860BA48BA490978405C30B1012817D03B
:102A200002282AD003285BD144E001222021B548A6
:102A3000FEF732FF00222021B248FEF72DFF0020D2
:102A4000AD490860AE480078401CAD49087047E0C9
:102A5000A948006800EB8000B0F5FA7F0CD3012292
:102A60002021A848FEF718FF0020A3490860A448C9
:102A70000078401CA249087032E09F48006800EBD3
:102A80008000A1490978884213D320219D48FEF790
:102A9000F0FE58B901209D49087000209649086051
:102AA00097480078401C9649087002E0002097493A
:102AB000087015E09448007840F23A21081A8E49CF
:102AC000096801EB8101884209D800208A49086021
:102AD0008B49087087480078401C8649087000BF01
:102AE00000BF03E184480068401C834908608848AF
:102AF00088490978405C10B1012824D10DE00022FA
:102B000020218048FEF7C8FE00207B4908608148EC
:102B10000078401C7F49087015E07748006800EB9A
:102B200080003C280ED3012220217648FEF7B4FE17
:102B3000002071490860774908706E480078401C91
:102B40006C49087000BF00BFD0E06B480068401CB3
:102B500069490860704871490978405C20B10128D2
:102B600010D0022833D121E0002220216548FEF751
:102B700093FE00206049086068480078401C67495F
:102B8000087024E05C48006800EB80000A280CD341
:102B9000012220215B48FEF77FFE00205649086095
:102BA0005E480078401C5D49087010E0524800689B
:102BB00000EB8000322809D300204F4908605749B4
:102BC00008704C480078401C4A49087000BF00BF9C
:102BD0008CE049480068401C47490860504851490A
:102BE0000978405C40B1012814D0022826D003287F
:102BF0005CD14AE071E05BE0002220214148FEF711
:102C00004BFE00203C49086046480078401C45497E
:102C100008704BE03848006800EB800005280CD3B2
:102C2000012220213748FEF737FE00203249086094
:102C30003C480078401C3B49087037E02E4800684B
:102C400000EB800005281FD320212E48FEF711FE3F
:102C500048B10121344802780078401C324B18708A
:102C60003248815408E000212F4802780078401C47
:102C70002D4B18702D48815400201F4908602948A9
:102C80000078401C2749087010E01B48006800EBE2
:102C900080002D2809D300201749086021490870B9
:102CA00014480078401C1349087000BF00BF1DE0A5
:102CB00011480068401C104908600846006800EB95
:102CC00080001B49884207D300200B49086009484F
:102CD0000078401C0749087008E0FFF755FE012006
:102CE0001449087000200349087000BF00BF10BDE0
:102CF000644300086001002064010020E1430008F3
:102D000069010020000801406A0100206B010020D9
:102D1000E54300086C010020E74300086D01002036
:102D2000EA4300086E010020700100200006002028
:102D3000B0710B006801002001200C4908700C499B
:102D4000087000200B49088082200B490870002081
:102D50000A4908700A4908700A4908700A49087047
:102D60000A4908700A490870704700006001002095
:102D70006F010020780100206A0100206801002016
:102D8000690100206C0100206D0100206E0100200F
:102D90007001002010B50D480078012814D10C48AE
:102DA0000088401C0A4908800846008840F27121CA
:102DB00048430849B1EB001F06DC00F00DF8002085
:102DC000034908800149087010BD00006F01002010
:102DD0007801002080841E0010B505480078012885
:102DE00003D104480078012801D000F005F810BD97
:102DF000680100206B010020002001490870704725
:102E0000600100207047000070B5002100230F22F0
:102E1000C47804B3154C246804F4E064C4F5E06499
:102E2000210AC1F10403CA40447804FA03F184780A
:102E30001440214309010E4C0678A155047804F092
:102E40001F050124AC4005786D11AD0005F1E025AA
:102E5000C5F8004109E0047804F01F050124AC40E6
:102E6000044D0678761145F8264070BD0CED00E063
:102E700000E400E080E100E002490143024A116001
:102E8000704700000000FA050CED00E070B500246A
:102E90000EE00021204600F0E6F8002504E00020C6
:102EA00000F002F9681CC5B2802DF8DB601CC4B2CA
:102EB000082CEEDB70BD000008B50121102000F0E9
:102EC00031F914208DF8030003208DF802004FF42F
:102ED0008040ADF8000069460A48FEF73FFC4FF419
:102EE0000040ADF8000069460648FEF737FC0122B5
:102EF00091030448FEF7D0FC0122D1030148FEF7FC
:102F0000CBFC08BD0010014070B50546002415E05B
:102F10008020204100EA05024FF400410E48FEF7F0
:102F2000BBFC012291030C48FEF7B6FC00224FF4D3
:102F300080410948FEF7B0FC601CC4B2082CE7DBF6
:102F4000012291030448FEF7A7FC00224FF48041C0
:102F50000148FEF7A1FC70BD0010014010B5012230
:102F6000D1030A48FEF798FC012291030748FEF7B7
:102F700093FC00224FF400410448FEF78DFC002230
:102F80004FF480410148FEF787FC10BD001001405E
:102F900010B500224FF400410648FEF77DFC0122E7
:102FA00091030448FEF778FC0122D1030148FEF7A3
:102FB00073FC10BD0010014070B5002406E0002530
:102FC00000E06D1CB5F57A7FFBD3641CB4F57A7F05
:102FD000F5D3FFF771FFAE2000F056F8D52000F0D2
:102FE00053F8802000F050F8A82000F04DF83F2062
:102FF00000F04AF8D32000F047F8002000F044F831
:10300000402000F041F8A12000F03EF8C82000F078
:103010003BF8DA2000F038F8122000F035F8812073
:1030200000F032F8CF2000F02FF8D92000F02CF873
:10303000F12000F029F8DB2000F026F8302000F025
:1030400023F8A42000F020F8A62000F01DF88D2021
:1030500000F01AF8142000F017F8AF2000F014F870
:10306000FFF714FF70BD70B505460C4645F0B00083
:1030700000F00AF8102141EA141000F005F804F0FD
:103080000F0000F001F870BD10B50446FFF766FFB1
:103090007820FFF739FF0020FFF736FF2046FFF7C3
:1030A00033FFFFF775FF10BD10B50446FFF756FF5D
:1030B0007820FFF729FF4020FFF726FF2046FFF783
:1030C00023FFFFF765FF10BD704700000146002099
:1030D000034A506820F440400843506070470000A5
:1030E0000010024029B1064A52690243044B5A615A
:1030F00004E0034A52698243014B5A617047000061
:103100000010024029B1064AD2690243044BDA6139
:1031100004E0034AD2698243014BDA617047000040
:103120000010024029B1064A92690243044B9A6199
:1031300004E0034A92698243014B9A6170470000A0
:103140000010024030B500210022002400232D4D44
:103150006D6805F00C0121B1042905D0082923D19F
:1031600005E0294D056022E0274D05601FE0254D53
:103170006D6805F47012234D6D6805F480340225E6
:1031800005EB92421CB9214D554305600BE01D4DE6
:103190006D6805F400351DB11C4D5543056002E016
:1031A000194D5543056002E0174D056000BF00BF93
:1031B000144D6D6805F0F0010909154D6B5C05684B
:1031C000DD4045600F4D6D6805F4E061090A104D62
:1031D0006B5C4568DD4085600A4D6D6805F46051A3
:1031E000C90A0B4D6B5C4568DD40C560054D6D68D7
:1031F00005F44041890B074D6B5CC568B5FBF3F5E1
:10320000056130BD0010024000127A0000093D0047
:103210000000002010000020704700002DE9F0475A
:103220008146884616461C46DDE9087A484600F085
:10323000DDFC0546307820B101280FD0022830D1BE
:103240001FE01A4810F8080038B90120307000203B
:1032500020702278501C2070BD5423E00D2D06D123
:103260002278501C2070BD540220307008E0217874
:10327000AAF10100814203DA2278501C2070BD546B
:1032800010E00A2D0CD12278501C2070BD54002073
:1032900030702178785420700120044901F808002A
:1032A00000E000BF00BFBDE8F08700002A0000205A
:1032B0002DE9FF4F83B004468A4693462D48844249
:1032C00007D12D4D2F4606154FF400684FF0270902
:1032D00009E02A48844206D1294D2F4604264FF0A2
:1032E00008084FF0260901A8FEF7CEFA18208DF83D
:1032F0000700ADF8046003208DF8060001A92846F8
:10330000FEF72CFA48208DF80700ADF80480032062
:103310008DF8060001A93846FEF720FA194800F09A
:103320006EFC1848C0F800A00020164988810C20C7
:10333000488100200881C8808880204600F0EAFB90
:10334000012240F22551204600F0BFFB8DF8089085
:1033500001208DF80B008DF809B006988DF80A0051
:1033600002A8FFF751FD0121204600F06BFB07B0DA
:10337000BDE8F08F00480040000C014000440040D0
:1033800000080140F001002070B504460D4600BF62
:103390008021204600F062FB0028F9D02946204613
:1033A00000F029FC70BD70B505460C4604E014F829
:1033B000011B2846FFF7E8FF20780028F7D170BDF1
:1033C00010B500F001F810BD0CB500200190009080
:1033D0003348006840F480303149086000BF30480D
:1033E000006800F4003000900198401C01900098A3
:1033F00018B90198B0F5A06FF1D12948006800F420
:10340000003010B10120009001E0002000900098F1
:10341000012843D12348006840F01000214908608A
:103420000846006820F0030008600846006840F085
:10343000020008601A484068194948600846406818
:1034400048600846406840F480604860084640682C
:1034500020F47C1048600846406840F4E81048605A
:103460000846006840F08070086000BF0C480068A3
:1034700000F000700028F9D00948406820F00300EF
:10348000074948600846406840F00200486000BFB5
:103490000348406800F00C000828F9D10CBD00007A
:1034A00000100240002002407047000010B5134891
:1034B000006840F001001149086008464068104962
:1034C00008400E494860084600680E4908400B490C
:1034D00008600846006820F48020086008464068BC
:1034E00020F4FE0048604FF41F008860FFF768FF7B
:1034F0004FF000600449086010BD00000010024059
:103500000000FFF8FFFFF6FE08ED00E010B5012116
:10351000044800F079F8012803D10121014800F0A6
:1035200052F810BD002C014010B50121880700F0B1
:103530006BF8012809D10121800700F044F8FFF75A
:10354000A5F9FEF72DFCFFF751FA10BD10B50121CA
:103550000C4800F059F8012812D10121094800F067
:1035600032F86420FEF7A2FFFEF766FAFEF7FAFAD9
:103570004FF49670FEF7AEFFFFF70CFCFEF7DAFD96
:1035800010BD00000004004010B50121054800F006
:103590003BF8012805D10121024800F014F8FEF79C
:1035A000CFFC10BD0008004021B1028842F080022B
:1035B000028004E002884FF67F731A400280704751
:1035C000CA4302827047CA430282704721B102880F
:1035D00042F00102028004E002884FF6FE731A40B6
:1035E0000280704731B1B0F8442042F40042A0F8A4
:1035F000442005E0B0F84420C2F30E02A0F84420B5
:1036000070470146888C704730B502460020002381
:103610000024158A05EA0103958905EA010413B11E
:103620000CB1012000E0002030BD1AB183890B43AA
:10363000838102E083898B438381704701894FF640
:10364000F87211400181704770B5002400220023F8
:10365000058C4FF6FE7635400584028C8388048BFA
:103660004FF68F752C40B51E2C400D882C43751ECF
:103670002A400D892A434D882A43144DA8420BD075
:10368000134DA84208D0134DA84205D0124DA842B0
:1036900002D0124DA84213D14FF6F7752A404D893A
:1036A0002A434FF6FB752A408D882A434FF6FF6563
:1036B0002B404FF6FF552B408D892B43CD892B4353
:1036C00083800483CD888586028470BD002C0140F0
:1036D00000340140004001400044014000480140E6
:1036E0000A460021018B4FF6F773194011430183FD
:1036F0007047000070B5002400220023058C4FF6AF
:10370000EF7635400584028C8388048B48F6FF757C
:103710002C404FF6FF452C400D884FF6FF7606EA09
:1037200005252C434FF6DF752A400D8906EA05155D
:103730002A434D8806EA05152A43154DA84202D0B2
:10374000144DA8421DD14FF67F752A404D894FF682
:10375000FF7606EA05152A434FF6BF752A408D8885
:1037600006EA05152A434FF6FF352B404FF2FF7549
:103770002B408D8906EA85052B43CD8906EA850510
:103780002B4383800483CD880587028470BD0000AD
:10379000002C0140003401400A460021018B4FF209
:1037A000FF7319404FF6FF7303EA022319430183A5
:1037B0007047000070B5002400220023058C4FF6EE
:1037C000FF6635400584028C8388848B4FF68F75A5
:1037D0002C404FF6FC752C400D882C434FF6FF55BE
:1037E0002A400D894FF6FF7606EA05252A434D88C3
:1037F00006EA05252A43154DA84202D0144DA842D9
:103800001DD14FF2FF752A404D894FF6FF7606EA2B
:1038100005252A434FF6FF352A408D8806EA0525FF
:103820002A434EF6FF752B404DF6FF752B408D89D0
:1038300006EA05152B43CD8906EA05152B4383803F
:103840008483CD888587028470BD0000002C0140F0
:10385000003401400A460021818B4FF6F77319406E
:10386000114381837047000070B5002200230024BB
:10387000058C4EF6FF7635400584038C8488828B58
:1038800048F6FF752A404FF6FF452A400D884FF64F
:10389000FF7606EA05252A434DF6FF752B400D8974
:1038A00006EA05352B434D8806EA05352B430B4DBB
:1038B000A84202D00A4DA84208D14BF6FF752C4011
:1038C0008D894FF6FF7606EA85152C438480828326
:1038D000CD88A0F84050038470BD0000002C01404A
:1038E000003401400A460021818B4FF2FF731940DA
:1038F0004FF6FF7303EA02231943818370470021C7
:10390000018041808180C180018141818181C181AB
:1039100070470000002202881D4B98420ED01D4BBC
:1039200098420BD0B0F1804F08D01B4B984205D085
:103930001A4B984202D01A4B984204D14FF68F731B
:103940001A404B881A43174B984207D0164B98429F
:1039500004D04FF6FF431A40CB881A4302808B886D
:1039600083850B8803850A4B98420BD0094B9842FC
:1039700008D00E4B984205D00D4B984202D00D4B0B
:10398000984201D10B7A038601238382704700009D
:10399000002C0140003401400004004000080040B9
:1039A000000C0040001000400014004000400140A6
:1039B00000440140004801404FF6FF718180002122
:1039C0000180C18041800172704700001CB540F247
:1039D0002551094800F04FF801280BD10402E0B24C
:1039E0000649074B074ACDE9001002210248FFF7BC
:1039F00015FC00BF1CBD0000004400400003002077
:103A000031000020300000201CB540F2255109484B
:103A100000F031F801280BD10402E0B20649074B4F
:103A2000074ACDE9001003210248FFF7F7FB00BF6A
:103A30001CBD000000480040000200202F000020B4
:103A40002E00002021B1828942F40052828104E0DC
:103A500082894DF6FF731A4082817047024600202A
:103A6000B1F5007F00D100BF13880B400BB10120DE
:103A700000E00020704770B50246002400230025B6
:103A8000002040F66A16B14200D100BFC1F34215D2
:103A900001F01F03012606FA03F3012D02D19689D6
:103AA000334006E0022D02D1168A334001E0968AA7
:103AB00033400C12012606FA04F41688344013B180
:103AC0000CB1012000E0002070BDF0B503460024D9
:103AD00000260025002040F66A17B94200D100BF39
:103AE0001846C1F3421401F01F06012707FA06F534
:103AF000012C01D10C3004E0022C01D1103000E087
:103B000014301AB107682F43076002E00768AF431B
:103B10000760F0BD2DE9F04786B005460E4600244B
:103B2000A24600BFA1460027B08900B100BF2F46C2
:103B30002C8A4CF6FF700440F08804432C82AC8938
:103B40004EF6F3100440B088318908437189084368
:103B50000443AC81AC8A4FF6FF400440B089044373
:103B6000AC8201A8FFF7EEFA1F48874202D1DDF8C8
:103B700010A001E0DDF80CA0A88900F4004040B1DD
:103B80000AEBCA0000EB0A1031684900B0FBF1F8FB
:103B900007E00AEBCA0000EB0A1031688900B0FBAD
:103BA000F1F86420B8FBF0F004012009642101FB66
:103BB0001089A88900F4004040B1322000EBC90010
:103BC000B0FBF1F000F00700044308E0322000EB06
:103BD00009106421B0FBF1F000F00F0004432C81C8
:103BE00006B0BDE8F0870000003801400146888833
:103BF000C0F308007047C1F30802828070474FF499
:103C00001651016000218180C18001810C21418118
:103C100000218181704700BFFEE7490050EAC120C2
:103C200018BF04204A0D18BF40F0010040F2FF7297
:103C3000B2EB515F08BF40F00200012808BF052029
:103C4000704730380A2801D20120704700207047A1
:103C50004FF47A70FDF7BAFC01214804FFF752FADD
:103C600001218804FFF74EFA0121C802FFF75AFA32
:103C700001210846FFF746FA01210220FFF742FA28
:103C800001210420FFF73EFA01210420FFF74AFA40
:103C900001210820FFF746FA01211020FFF742FA20
:103CA00001210846FFF73EFA01214802FFF73AFAE0
:103CB00001210846FFF716FA4FF4A060FFF7DCF881
:103CC000FEF796FC00231A464FF4E1313448FFF723
:103CD000EFFA34A13248FFF766FB00231A464FF48F
:103CE000E1313448FFF7E4FA33A13248FFF75BFBD8
:103CF000FFF762F9FFF7CAF803210846FEF75AFBFF
:103D000001210846FEF794FB01210846FEF7F4FB6B
:103D100000210846FEF72AFC2B48FEF761FC4FF015
:103D20008040FEF75DFC2948FEF75AFC2848FEF764
:103D300057FCFEF715FE01210846FDF7D9FEFEF7F8
:103D4000F5FD02210846FEF743FD4FF4FA70FEF739
:103D500007FA2048006800F085FA84B22046FEF792
:103D600085FC1D48006800F07DFA84B22046FEF70D
:103D700057F81A48006800F075FA84B22046FEF73A
:103D8000CBFAFEF7A9FCFEF7F9FAFEF71FFA0420BA
:103D9000FDF78CFDFDF7EEFDFEF748FC00BFFEE7EA
:103DA0000048004053657269616C335F4F6E0D0AC5
:103DB000000000000044004053657269616C325F8E
:103DC0004F6E0D0A00000000002C0140000400406E
:103DD00000080040D8010020DC010020E0010020A4
:103DE00010B500290AD00878002807D00548784483
:103DF000FCF7D6FE002801D0002010BD0248784410
:103E000010BD0000260A00001E0A00004FEA1153F0
:103E1000A3F58063D3F11E03A8BFD3F1200C08DB08
:103E20004FF0004242EAC12252EA505232FA03F005
:103E3000704709420BD4102BC4BF0020704703F514
:103E4000787CBCF1FF3F05D04FF0FF3070474FF05A
:103E50000000704770B500F0C3F800BF499224809D
:103E600000207047F0E7B0FA80F310FA03F10AD0AF
:103E7000C3F11D0303F580634FEA41504FEA03523B
:103E800002EBD12170474FF000007047DFF848C1C6
:103E900070B51CEA111E1EBF1CEA13159EEA0C0F1A
:103EA00095EA0C0F00F06F8081EA030423EA4C13BB
:103EB0004EEAD47E21EA4C1141F4801143F4801380
:103EC000AE44A1FB024CA0FB0365AEF17F7E361928
:103ED00055EB0C05A1FB034C4CF10003A0FB021CAD
:103EE00016EB0C06654153F10003094218BF46F07A
:103EF000010613F4007F0BD14FEA03314FEA05307E
:103F0000340341EA155140EA16506FF003020AE00B
:103F10004FEAC3214FEAC520F40241EA555140EA75
:103F200056506FF0020202EB2E4201EB025585EA79
:103F3000CE710AD05FEA440C18BF24F0004450F15F
:103F4000000041F1000120EAD47040F2FE7C62459D
:103F500000D270BDA84214BF4FF080444FF04044DF
:103F6000002E08BF0024BEF1806FA8BFA1F1C041A0
:103F7000BDE8704080F282804FF0000001F1C04146
:103F800001F0004170479EEA0C0F0CEA131518BFB0
:103F900095EA0C0F06D04FF0000081EA030E0EF0F8
:103FA000004170BD00F01CF88900013E00F007B828
:103FB00000F009B84FEA430C5FEA5C5C08D081EA84
:103FC000030100F05BB84FEA410C5FEA5C5CF6D19C
:103FD0004FF00000014970470000FF070000F87F24
:103FE0000EF1020E2EF0030E5EF8046B364205D47D
:103FF000012A43EB030515F5001F12D8012841EBF8
:10400000010C1CF5001F0CD80ED14FEAD17C15F520
:10401000001F0CEB4C0C0CF1020C08BF4CEBD37CDA
:1040200004E04FF0080C01E04FEAD37C0CEB4C05A8
:1040300026FA05F606F00706B6F1040C06D20EEBDA
:10404000860CBDE870404CF0010C6047DFE80CF0D6
:10405000090B02024FF000414FF00000A1F50021D2
:1040600070BD19461046012851EB010418BFD4F564
:10407000001484BF002001F0004170BD0808A0F5C5
:1040800000114FEA3101704743004FEAD30C4FEA69
:104090003C0C43401FBF40070CF1605113F0FE4F32
:1040A00070471CF0006F03D100200CF000417047F6
:1040B0000CF0004343EA507010B540EACC0000F029
:1040C00004F900BF000000924FEA0001FFF7D6BFDD
:1040D0004FF000414FF00000A1F5002170470000B3
:1040E0004FF47F0C1CEAD0121EBF1CEAD11392EAD7
:1040F0000C0F93EA0C0F00F0858090EA010F48BF87
:1041000042F4807240F4000C41F400002CF07F4136
:1041100020F07F4000B58142A2EB03020FF2081CA1
:10412000ACEB504EC0F100009EF800E04FEA4E0E9E
:1041300000FB0EFC38BF49004FEA2C1C02F5FA02C6
:104140000CFB0EF34FEACE1E4FEA112C4FEAC121B1
:104150000EEB635E42EB22420EFB0CFC4FEA1C535B
:1041600000FB03114FEA112C4FEA01310EFB0CFC4E
:104170004FEADC4C00FB0C11C14228BF09184CEB84
:1041800003335DF804EB10EB410143EBC250B2F591
:104190007C0F38BF704729D512F0F00F1CBF00F11B
:1041A000C04000F00040704700818283848586878C
:1041B00088898B8C8D8E8F919293959697999A9CE6
:1041C0009D9FA0A2A3A5A7A8AAACAEB0B2B3B5B755
:1041D000B9BCBEC0C2C5C7C9CCCED1D4D7D9DCDF2B
:1041E000E2E6E9ECF0F3F7FAFE0000004FEA400CDB
:1041F0000CF1807CBCF17E4F28BF7047B0F1C0400D
:1042000000F0A9B890EA010F0CEAD11348BF42F4BC
:104210008072624538BF634507D213F47F0F16D012
:1042200080EA010000F00040704710B500F04DF842
:10423000097EFC3E00F005B880EA010000F0004075
:10424000704780EA010000F0004000F084B812F4EA
:104250007F0F04BF0248704780EA010000F07BB87E
:104260000000C07FC10DD1F19E0206DB4FEA0023A2
:1042700043F0004323FA02F07047004207D54FEAAB
:104280004001B1F1FE4F02D24FF00000704710B56F
:1042900000F01BF849922480002070476FEA20004C
:1042A00070470000B0FA80F310FA03F2C3F19D03E7
:1042B0000AD0D90501EB1220530638BF704700F130
:1042C000010008BF20F0010070470EF1020E2EF031
:1042D000030E5EF8044B244204D44FEA4102B2F1CB
:1042E0007F4F11D84FEA4003B3F17F4F0CD80ED166
:1042F0004FEAD07CB2F17F4F0CEB4C0C0CF1020C6E
:1043000008BF4CEBD17C04E04FF0080C01E04FEA11
:10431000D17C0CEB4C0324FA03F404F00704B4F151
:10432000040C06D20EEB840CBDE810404CF0010CDE
:104330006047DFE80CF0070802024FF00040A0F5EC
:10434000800010BD0846420018BFD2F1807288BFBD
:1043500000F0004010BDFF2141EAD050C005704779
:10436000FCF793B906030000010100000101000001
:104370000100000001000403000001010000010130
:104380000001010101010001020202020202020217
:104390000202020202020202050000000000000008
:1043A000000000000000000000000000000000000D
:1043B00000000000000000000000000000000000FD
:1043C00000000000000000000000000000000000ED
:1043D00000000000000000000000000000000000DD
:1043E00000000102030001000102000102030000BD
:1043F00002400000000000A0000000000540000096
:10440000000000C8000000000C4000000000409CBC
:1044100000000000194000000020BCBE00000000A9
:1044200034400000BFC91B8E00000004B5400000EE
:10443000504BCFD06607E2CF010000006C41000076
:104440003E8251AADFEEA73401000000D9420000ED
:10445000DCB5A0E23A301F97FFFFFFFFB445000034
:10446000FD25A0C8E9A3C14FFFFFFFFFFF3F0000EC
:104470000000008000000000FF3F000000000080FE
:104480000000000041542B4D5154545553455243A4
:1044900046473D305C2C315C2C224E554C4C225C06
:1044A0002C22363765323263393432393032353185
:1044B000366538363661626232395F415141513278
:1044C00036303332353031225C2C2235333662358A
:1044D000383638366266326235336639323365666D
:1044E00036636561663030393461646661646232B6
:1044F00064613534393131613530383536306232C6
:104500003533393865646639303937225C2C305C94
:104510002C305C2C2222000041542B4D515454432A
:104520004C49454E5449443D305C2C223637653267
:1045300032633934323930323531366538363661A6
:10454000626232395F415141513236303332353057
:10455000315F305F305F32303235303332373130B7
:104560002200000041542B4D5154545355423D30CC
:104570005C2C22246F632F646576696365732F3624
:104580003765323263393432393032353136653855
:10459000363661626232395F4151415132363033D1
:1045A000323530312F7379732F636F6D6D616E64A7
:1045B000732F23225C2C300041542B4349504D551E
:1045C000583D3000415445300000000041542B4D0F
:1045D0005154545055423D302C22246F632F646552
:1045E00076696365732F4151415132353033323929
:1045F00030312F7379732F70726F706572746965C3
:10460000732F7265706F7274222C227B2273657215
:104610007669636573223A5B7B22736572766963A0
:10462000655F6964223A22416C6C225C2C227072B4
:104630006F70657274696573223A7B224953562202
:104640003A252E32665C2C22414C5652223A252EB7
:1046500032665C2C2250474C5652223A252E326646
:104660005C2C22465253223A25645C2C224154226F
:104670003A25645C2C224148223A25647D7D5D7D8B
:10468000222C302C3100000041542B4D51545450F9
:1046900055423D302C22246F632F64657669636533
:1046A000732F4151415132353033323930312F730C
:1046B00079732F70726F706572746965732F72658C
:1046C000706F7274222C227B227365727669636527
:1046D00073223A5B7B22736572766963655F6964F6
:1046E000223A22416C6C225C2C2270726F706572CF
:1046F00074696573223A7B22575344223A25645CDD
:104700002C2257515356223A252E32665C2C2253C6
:104710004D5356223A252E32665C2C225754223AAB
:1047200025645C2C2257505652223A252E32665C64
:104730002C2241505253223A25645C2C2257485275
:1047400053223A25647D7D5D7D222C302C31000082
:1047500041542B4D515454434F4E4E3D305C2C220E
:10476000616430636535633731662E7374312E6949
:104770006F7464612D6465766963652E636E2D6E5A
:104780006F7274682D342E6D796875617765696311
:104790006C6F75642E636F6D225C2C313838335C1E
:1047A0002C31000041542B43574A41503D223332B3
:1047B00031222C22313131303030313131000000A2
:1047C00041542B43574D4F44453D310041542B52EA
:1047D0004553544F524500004F4B000041542B436A
:1047E000575141500000000041540000726561645F
:1047F000790000003048000800000020F0010000AF
:104800002801000810490008F0010020200B0000DA
:10481000840100081C00000043000000F8FFFFFFB7
:104820000C0000000E0000000F0000002E00000031
:10483000412D0102030404000920060708090204AF
:10484000060872640C13C0C62D04FC8096981413DD
:10485000EC470B2508D8041ACC0413C4451B08E800
:10486000081AC0041ADC041AB8101AA408138444E5
:104870001B08180C1A500C1A6408183D41542B4D93
:104880005154545055423D302C22246F632F64659F
:1048900076696365732F4151415132353033323976
:1048A00030312F7379732F636F6D6D616E64732F69
:1048B000726573706F6E73650960387175657374B6
:1048C0005F69643D61663464323361322D3732632F
:1048D000302D343661612D386238622D32396634BC
:1048E0003637333531633330222C227B7D222C3016
:1048F0002C311440420F134F4B164552524F522940
:10490000860008165355425245435602854600001C
:04000005080000ED02
:00000001FF
