:020000040800F2
:1000000090120020C9010008ED1C0008030B000835
:10001000070B0008E105000803300008000000009D
:10002000000000000000000000000000092200089D
:100030002908000800000000B9200008FD2600087B
:10004000E3010008E3010008E3010008E301000800
:10005000E3010008E3010008E3010008E3010008F0
:10006000E3010008E30100088B080008E301000831
:10007000E5050008E3010008E3010008E3010008CA
:10008000E3010008E3010008E3010008E3010008C0
:10009000E3010008E3010008E3010008E3010008B0
:1000A000E301000861270008E3010008E3010008FC
:1000B0007D270008A1270008DD270008E3010008CC
:1000C000E3010008E3010008E3010008E301000880
:1000D000E3010008E30100081D2C0008552C00086E
:1000E00071080008E3010008E301000800F002F8CD
:1000F00000F05AF80AA090E8000C82448344AAF168
:100100000107DA4501D100F04FF8AFF2090EBAE865
:100110000F0013F0010F18BFFB1A43F0010318473B
:10012000103B0000303B00000A444FF0000C10F878
:10013000013B13F0070408BF10F8014B1D1108BF65
:1001400010F8015B641E05D010F8016B641E01F805
:10015000016BF9D113F0080F1EBF10F8014BAD1C55
:100160000C1B09D16D1E58BF01F801CBFAD505E073
:1001700014F8016B01F8016B6D1EF9D59142D6D3CD
:10018000704700000023002400250026103A28BFF5
:1001900078C1FBD8520728BF30C148BF0B607047F9
:1001A0001FB51FBD10B510BD00F062F81146FFF776
:1001B000F7FF02F029FF00F080F803B4FFF7F2FF29
:1001C00003BC00F087F80000094880470948004751
:1001D000FEE7FEE7FEE7FEE7FEE7FEE7FEE7FEE7F7
:1001E000FEE7FEE704480549054A064B7047000054
:1001F00001270008ED000008900C0020901200205C
:10020000900E0020900E002030B505460B462A4681
:1002100013F8014B12F8010B08B1A042F8D01CB141
:10022000002802D06D1CF1E7284630BD10B5431CF4
:1002300002E010F8011B71B18107FAD14FF00132D1
:1002400002C88C1A8C4314EAC211F9D0C01A0A06EB
:1002500003D0C01E10BDC01A10BD0A0401D0801EFC
:1002600010BD0902FCD0401E10BD7047704770479A
:10027000754600F02BF8AE4605006946534620F05F
:100280000700854618B020B5FFF7ACFFBDE8204059
:100290004FF000064FF000074FF000084FF0000B42
:1002A00021F00701AC46ACE8C009ACE8C009ACE8F5
:1002B000C009ACE8C0098D46704710B50446AFF3DD
:1002C00000802046BDE81040FFF777BF0048704728
:1002D0002C0C002001491820ABBEFEE726000200CE
:1002E000704721B1826842F00102826003E08268B7
:1002F00022F001028260704721B1826842F480726C
:10030000826003E0826822F4807282607047014656
:1003100000208A6802F004020AB1012000E00020F7
:100320007047014600208A6802F008020AB10120E5
:1003300000E000207047000030B502460020002396
:1003400050680F4C20400D790C6844EA0524204386
:10035000506090680B4C2040D1E902542C434D79F9
:1003600044EA450420439060D06A20F470000C7C7D
:10037000641EE4B2234340EA0350D06230BD000063
:10038000FFFEF0FFFDF7F1FFF0B504460D4600203B
:100390000021092D11DDE068A5F10A0606EB4607EC
:1003A000072606FA07F18843A5F10A0606EB46067A
:1003B00003FA06F10843E0600CE0206905EB45070D
:1003C000072606FA07F1884305EB450603FA06F10E
:1003D00008432061072A0FDA606B561E06EB86077A
:1003E0001F2606FA07F18843561E06EB860605FA15
:1003F00006F10843606322E00D2A0FDA206BD61F56
:1004000006EB86071F2606FA07F18843D61F06EB80
:10041000860605FA06F10843206310E0E06AA2F1BF
:100420000D0606EB86071F2606FA07F18843A2F1A0
:100430000D0606EB860605FA06F10843E062F0BDFC
:10044000816841F008018160704721B1826842F4FF
:10045000A002826003E0826822F4A00282607047FA
:10046000816841F0040181607047002101600171E1
:1004700041718160C16001210174704710B57F2214
:1004800022A1264800F02EFE7F2225A1234800F05D
:1004900029FE7F222349214800F024FE7F2222A149
:1004A0001E4800F01FFE7F2222A1294800F01AFEFC
:1004B0007F2228A1264800F015FE7F2226A135487C
:1004C00000F010FE7F2234A1324800F00BFE7F22A4
:1004D0000EA1344800F006FE7F2233A1314800F01F
:1004E00001FEFF2209A1324800F0FCFDFF22314944
:1004F0002F4800F0F7FDFF2204A12F4800F0F2FD85
:10050000FF222EA12C4800F0EDFD10BD41514151BC
:10051000323530333239303100000000AC00002079
:10052000222C2200983B0008222C302C302C222236
:100530000D0A0000415141513235303332393031EA
:100540005F305F305F323032353033323930370030
:100550002B010020220D0A0061643063653563378A
:1005600031662E7374312E696F7464612D64657603
:100570006963652E636E2D6E6F7274682D342E6DF7
:1005800079687561776569636C6F75642E636F6DEB
:1005900000000000AA010020222C313838332C3111
:1005A0000D0A000029020020222C300D0A00000054
:1005B000A8020020DC3B0008A70300202F737973FA
:1005C0002F636F6D6D616E64732F726573706F6EE4
:1005D00073652F726571756573745F69643D0000A2
:1005E00000BFFEE710B5202000F0D2F840B1002097
:1005F00001F02AFF012003490870202000F004F8D0
:1006000010BD00003300002000F0805111B10349FB
:10061000086001E00249486070470000040402409D
:100620000000024021B1026842F00102026004E0D1
:1006300002684FF6FE731A400260704701684FF679
:10064000FE72114001600021016041608160C16063
:100650004B49884208D14A490839496841F00F019D
:10066000474A083A51608AE045491431884208D126
:1006700043490839496841F0F001414A083A51605C
:100680007DE03F492831884208D13D490839496811
:1006900041F470613A4A083A516070E038493C319F
:1006A000884208D136490839496841F47041344AD2
:1006B000083A516063E032495031884208D13049EC
:1006C0000839496841F470212D4A083A516056E0D2
:1006D0002B496431884208D129490839496841F4D5
:1006E0007001274A083A516049E02549783188422B
:1006F00008D123490839496841F07061204A083A15
:1007000051603CE01F49884206D1011F096841F051
:100710000F01021F116032E01A491431884208D1DA
:100720001849091F096841F0F001164A121F1160AB
:1007300025E014492831884208D11249091F096867
:1007400041F470610F4A121F116018E00D493C31ED
:10075000884208D10B49091F096841F47041094AD0
:10076000121F11600BE007495031884207D105493B
:10077000091F096841F47021024A121F1160704775
:1007800008000240080402400146486880B27047F1
:1007900001460020002201F0805313B1054B1A6876
:1007A00001E0054B1A6802EA01030BB1012000E0E9
:1007B0000020704700040240000002401AB10368A4
:1007C0000B43036002E003688B430360704710B57E
:1007D0000022026847F6F0739A430C6A8B68234341
:1007E0000C6923434C6923438C692343CC6923431D
:1007F0004C6A23438C6A23431A430260CB684360EC
:100800000B6883604B68C36010BD41607047002176
:10081000016041608160C160016141618161C161CC
:100820000162416281627047704700B5034603E090
:100830004FF47A7000F005F8181EA3F10103F7D108
:1008400000BD00EBC001C9004FF0E0225161002162
:1008500091610521116100BF4FF0E021096901F4A8
:1008600080310029F8D004214FF0E0221161704757
:1008700010B54FF4004000F01BF8012804D1C0036C
:1008800000F010F800F0FCFE10BD10B5102000F0D4
:100890000FF8012804D1102000F004F800F0B4FA99
:1008A00010BD0000014908607047000014040140B9
:1008B000014600200022074B1B6803EA0102054B9A
:1008C00014331B680B4013B10AB1012000E0002073
:1008D0007047000000040140002123498279002A6A
:1008E0003AD00A46126803689A430B461A600A1DFA
:1008F000126803689A430B1D1A60027911440A6852
:1009000003681A430A60184A0832126803689A4357
:10091000154B08331A601A1D126803689A43124B6C
:100920000C331A604279102A0ED11A1F126803681C
:100930001A430D4B08331A601A1D126803681A43D4
:10094000094B0C331A600DE00749427911440A68DB
:1009500003681A430A6005E0027911440A680368D3
:100960009A430A60704700000004014000210160C2
:1009700001710C21417100218171704730B5002255
:100980008B071C0F0F2303FA04F20B4B8C1053F848
:1009900024309343084C8D1044F8253023468C10A6
:1009A00053F824308C07240F00FA04F42343024C3C
:1009B0008D1044F8253030BD080001402DE9F0418C
:1009C000024600250026002000230024002791F87D
:1009D00003C00CF00F0591F803C00CF0100CBCF133
:1009E000000F03D091F802C04CEA050591F800C051
:1009F000BCF1000F31D0146800202BE04FF0010C47
:100A00000CFA00F3B1F800C00CEA03069E4220D1B4
:100A100083004FF00F0C0CFA03F7BC4305FA03FCFC
:100A20004CEA040491F803C0BCF1280F06D14FF042
:100A3000010C0CFA00FCC2F814C00AE091F803C0E3
:100A4000BCF1480F05D14FF0010C0CFA00FCC2F8C4
:100A500010C0401C0828D1D31460B1F800C0BCF10C
:100A6000FF0F34DD546800202EE000F1080C4FF039
:100A7000010808FA0CF3B1F800C00CEA03069E4224
:100A800021D183004FF00F0C0CFA03F7BC4305FA99
:100A900003FC4CEA040491F803C0BCF1280F05D113
:100AA00000F1080C08FA0CF8C2F8148091F803C0A1
:100AB000BCF1480F07D100F1080C4FF0010808FA0B
:100AC0000CF8C2F81080401C0828CED35460BDE852
:100AD000F0810246002093680B400BB1012000E03A
:100AE00000207047016170474FF6FF7101800221BD
:100AF00081700421C17070470AB1016100E0416159
:100B0000704700BFFEE700BFFEE7000010B590B0E1
:100B100004464FF4004001F0D1FA0BA8FFF7A5FC02
:100B200001208DF8310000200E904FF460200D90D0
:100B300000200B908DF83C4001208DF830000BA96F
:100B40002148FFF7F9FB01211F48FFF7D5FB684655
:100B5000FFF75DFE1C484C30009080150690002089
:100B600004901A4801904FF480600790802005900F
:100B70000020029003940A9020200890C001099060
:100B800069461348FFF723FE01210F48FFF7A9FB31
:100B900001210F48FFF746FD0B48FFF751FC00BF4E
:100BA0000948FFF7BEFB0128FAD00748FFF758FCB9
:100BB00000BF0548FFF7ABFB0128FAD0012102482E
:100BC000FFF743FC10B010BD0024014014050020C5
:100BD0000800024008B56846FFF786FF10208DF830
:100BE00003004002ADF8000003208DF802006946C2
:100BF0000248FFF7E3FE00F003F808BD000C0140D7
:100C000010B54FF400510248FFF76CFF10BD000013
:100C1000000C014010B506480078012802D100F010
:100C2000EFF804E00248007808B900F0E5F810BDDC
:100C3000DC04002010B50C48006840B90B4801F0F6
:100C400008FE0B490968401A0A4908600AE007488B
:100C500001F0FFFD42F21071084405490968401A8D
:100C60000449086010BD0000C404002000040040D6
:100C7000D8040020D404002010B5044801F0E9FD98
:100C80000349086000200349086010BD00040040CB
:100C9000D8040020C404002004480078012804D1AE
:100CA00003480068401C024908607047C0040020E7
:100CB000C40400207CB50020009001900024002690
:100CC000002500BF15E000210FE01D4A165D1DF84C
:100CD0000020C1F1070306FA03F31A43D2B20DF85C
:100CE0000020621CD4B24A1CD1B20729EDDD411CA0
:100CF000C8B20428E7DD002005E01DF800102944F3
:100D0000CDB2411CC8B20328F7DD9DF80400A8420B
:100D100012D1002005E01DF800100A4A1154411CB0
:100D2000C8B20328F7DD07488078074908700548EE
:100D300000780649087001E000F05EF87CBD000014
:100D4000C40B0020D0040020DE040020DF040020BB
:100D500038B504460D4614201749C8701020088085
:100D6000032088701548FFF729FE04210020FFF7B3
:100D700005FE012210211148FFF7BEFE1020104988
:100D8000086000200871082048710020887108461A
:100D9000FFF7A2FD0A208DF8000000208DF8010069
:100DA0008DF8020001208DF80300684600F0A0FFD6
:100DB00000F0F8F838BD0000B4040020000801403D
:100DC000B804002010B50A48007801280FD109485E
:100DD0000078401C0749087008460078042806DBA4
:100DE000FFF718FF0020034908700149087010BD83
:100DF000C8040020E004002010B500F099F810BDF0
:100E000010B500F095F810BD10B53E4800780628E2
:100E100074D2DFE800F00304730D205F6FE001205F
:100E200039490870FFF728FF03203649087066E04B
:100E3000FFF700FF35480068642809D3334800688D
:100E4000B42805D804202F490870FFF715FF01E0EA
:100E5000FFF7D2FF53E0FFF7EDFE2C4800683C2877
:100E600018D32A4800685A2814D8FFF705FF002134
:100E7000274802780078401C254B1870254881547B
:100E800018460078282824DB05201E49087000F049
:100E90006BF81EE01D4800686E2818D31B480068D8
:100EA000822814D8FFF7E8FE01221948017800785B
:100EB000401C174B187017484254184600782828D1
:100EC00007DB05200F49087000F04EF801E0FFF73E
:100ED00093FF14E0FFF7AEFE0C48006828280AD301
:100EE0000A4800683C2806D801200B490870FFF723
:100EF000E1FE02E002E0FFF77FFF00E000BF00BF7D
:100F000010BD0000D3040020C0040020D404002041
:100F1000DD040020C40B0020DC04002010B50020FC
:100F20000249087000F016F810BD0000DD04002032
:100F300010B500F023F80020034908700349087039
:100F40000349087010BD0000D3040020C004002035
:100F5000DC04002010B50C20024948710846FFF758
:100F6000BBFC10BDB804002010B508200249487130
:100F70000846FFF7B1FC10BDB804002010B54820AA
:100F80000549C8700548FFF719FD0120044988711B
:100F90000846FFF7A1FC10BDB40400200008014082
:100FA000B804002010B50020054988710846FFF7F5
:100FB00093FC10200349C8700348FFF7FFFC10BDE5
:100FC000B8040020B40400200008014010B501203E
:100FD00007490870002007490870FFF7E3FF002069
:100FE00005490870FFF79AFF01200449087010BDF9
:100FF000C9040020CA040020D3040020C804002033
:1010000010B51A48007801282ED119480068401CF4
:10101000174908601748007810B1012823D10DE066
:10102000FFF7C0FF002210211348FFF765FD0120E4
:101030001049087000200E49086014E00C48006850
:1010400000EB800044F6206188420BD3FFF796FF47
:1010500001200A490870FFF77DFF0020054908704C
:101060000249087000BF00BF10BD0000C904002085
:10107000CC040020CA04002000080140D304002052
:1010800038B5044618208DF803004FF48060ADF8A1
:10109000000003208DF8020069460F48FFF78EFC20
:1010A0000E4801F054FD00200C4988816020088022
:1010B0000020C8814881888001204880601EC88047
:1010C000074801F09FFC0121054801F0B3FB08210E
:1010D000034801F0E7FC38BD000801400C0C00207B
:1010E000002C01402DE9F04105460C4616462846E5
:1010F000FFF79CF887B22046FFF798F81FFA80F8B0
:10110000F01B404503DA4FF0FF30BDE8F0810020CE
:1011100004E0215C3A18A954411CC8B2215C0029A2
:10112000F7D10120F1E72DE9F04104460D460026F4
:10113000002003E035F810100E44401CA042F9DBFB
:10114000204602F065F90746304602F061F9804614
:10115000394602F07BF8BDE8F08110B50B4600215E
:1011600005E04C1C30F8144020F81140491C541E76
:101170008C42F6DC511E20F8113010BD38B5044603
:101180006846FFF7B1FC18208DF803004FF480701B
:10119000ADF8000003208DF8020069460F48FFF704
:1011A0000DFC0F4801F0D3FC00200D498881602020
:1011B00008800020C8814881888001204880601E06
:1011C000C880084801F068FB0121064801F032FBA5
:1011D0000821044801F0ACFB38BD000000080140C4
:1011E000EC0B0020002C014008B56846FFF77CFCA2
:1011F00000208DF803000220ADF8000003208DF8D8
:10120000020069460448FFF7D9FB0523042209219F
:101210000248FFF7B9F808BD000C01400024014066
:1012200038B5044618208DF803004FF40060ADF87F
:10123000000003208DF8020069460F48FFF7BEFB4F
:101240000E4801F084FC00200C4988816020088051
:101250000020C8814881888001204880601EC880A5
:10126000074801F029FC0121054801F0E3FA0821B3
:10127000034801F05FFC38BD000801401C0C002051
:10128000002C014008B56846FFF72EFC00208DF8C1
:1012900003000120ADF8000003208DF8020069462C
:1012A0000448FFF78BFB0523032208210248FFF7C0
:1012B0006BF808BD000C0140002401407FB50546D5
:1012C0000C461C4801F0E2FA01A801F09DFC002048
:1012D000ADF80A00ADF806004720ADF8040044F66A
:1012E0001F60ADF8080000208DF80C0001A911481E
:1012F00001F038FC01210F4801F08AFA0122114661
:101300000C4801F0BAFA01210A4801F075FA1920D7
:101310008DF8000001208DF803008DF801508DF844
:101320000240684600F0E4FC0021024801F076FA31
:101330007FBD0000002C01407FB505460C464FF0F4
:10134000804001F0A3FA01A801F05EFC0020ADF896
:101350000A00ADF806004720ADF804000420ADF8FF
:10136000080000208DF80C0001A94FF0804001F02A
:10137000F9FB0121880701F04BFA01221146900781
:1013800001F07BFA0121880701F036FA1C208DF864
:10139000000001208DF803008DF801508DF8024007
:1013A000684600F0A5FC00214FF0804001F036FABD
:1013B0007FBD000010B507480088401C0549088023
:1013C000084600880A2803DB0020088000F0EEF9B8
:1013D00010BD00002400002010B504460648008817
:1013E000401C0549088008460088A04203DB002015
:1013F0000880FFF7EBFD10BD2600002010B5044665
:1014000006480088401C0549088008460088A0421C
:1014100003DB0020088000F003FC10BD2800002042
:101420007FB505460C461A4801F030FA01A801F0D4
:10143000EBFB0020ADF80A00ADF806004720ADF840
:10144000040042F20F70ADF8080000208DF80C0087
:1014500001A90F4801F086FB01210D4801F0D8F9E0
:10146000012211460A4801F008FA1D208DF80000FB
:1014700001208DF803008DF801508DF80240684678
:1014800000F036FC0021024801F0C8F97FBD0000E1
:10149000000400407FB505460C461A4801F0F6F9F5
:1014A00001A801F0B1FB0020ADF80A00ADF806007C
:1014B00040F2CF20ADF804000920ADF8080000206C
:1014C0008DF80C0001A90F4801F04CFB01210D48DB
:1014D00001F09EF9012211460A4801F0CEF91E20C2
:1014E0008DF8000001208DF803008DF801508DF873
:1014F0000240684600F0FCFB0021024801F08EF932
:101500007FBD00000008004010B5044601212046C0
:1015100001F084F910BD000008B510208DF803001B
:101520002020ADF8000003208DF802006946034832
:10153000FFF744FA00F004F808BD0000000C014079
:1015400010B5012220210248FFF7D6FA10BD000095
:10155000000C014008B56846FFF7C6FA10208DF868
:1015600003000002ADF8000003208DF80200694678
:101570000248FFF723FA00F003F808BD000C014011
:1015800010B54FF480510248FFF7ACFA10BD0000CF
:10159000000C014038B504466846FFF7A5FA18204C
:1015A0008DF803004FF40070ADF8000003208DF8B3
:1015B000020069460F48FFF701FA0F4801F0C7FA29
:1015C00000200D498881602008800020C881488162
:1015D000888001204880601EC880084801F0B2F968
:1015E0000121064801F026F90821044801F0FCF920
:1015F00038BD000000080140FC0B0020002C014019
:1016000008B56846FFF770FA00208DF80300022045
:10161000ADF8000003208DF8020069460448FFF78A
:10162000CDF90523022201210248FEF7ADFE08BDD7
:10163000000801400024014010B50D48007803283F
:1016400004DA0B480078401C0949087009480088F2
:1016500081B203220848FFF780FD0749044800785B
:10166000FFF761FD044601F0B3FE0449088010BD98
:1016700000050020F004002002050020F4040020F2
:1016800010B515480078012824D11448007858B9BD
:10169000134801F0DEF8134908600C2000F060F8F0
:1016A00001200E49087015E00C480078012811D17E
:1016B0000B4801F0CEF80B490968401A0A49086046
:1016C000FFF7BAFF082000F04BF80020034908702C
:1016D0000149087010BD0000EE040020F80400204D
:1016E00000040040FC040020F00400207CB5054606
:1016F0000C4601A8FFF7F8F948208DF807004FF4D1
:101700000040ADF8040003208DF8060001A912483E
:10171000FFF754F90F210120FFF730F90F48FFF7C9
:1017200025F94FF400400D49086001208871002020
:101730000871082048710846FFF7CEF828208DF878
:10174000000001208DF803008DF801508DF8024053
:10175000684600F0CDFA7CBD000C0140E404002096
:1017600010B5044602484471FFF7B6F810BD0000FA
:10177000E404002010B50B480078012811D100F0D6
:1017800037F809480078401C074908700846007877
:10179000022806DB00F014F8002002490870024914
:1017A000087010BDEC040020F7040020012002495D
:1017B0000870024908707047EC040020ED04002016
:1017C00010B500224FF480510648FFF795F901202B
:1017D000054908700020054908700820FFF7C0FF80
:1017E00010BD000000080140EE040020EF040020BE
:1017F00010B506480078012807D1012201030448EA
:10180000FFF77AF900200149087010BDED040020AF
:101810000008014008B56846FFF766F910208DF80A
:1018200003000002ADF8000003208DF802006946B5
:101830000448FFF7C3F800224FF480510148FFF736
:101840005BF908BD0008014010B50121042000F03B
:1018500061FC14200449C87020200880032088708F
:101860000248FFF7ABF810BD9404002000080140C7
:101870000020144A108000BF09E0134A125C824025
:10188000104B1B881A430F4B1A80421CD0B21028F1
:10189000F3DB0C4800880122B2EBE03F05D1094898
:1018A0000088C043401C074A108006480088001189
:1018B000064A10800F21034800880840044A10801F
:1018C00070470000AA0400207C0B0020AC0400201C
:1018D000AE04002010B5C048C0490978405C072814
:1018E00005D2DFE800F073A6EA05FCFB040071E115
:1018F000BB480068401CBA490860BA48BA49097830
:10190000405C30B1012817D002282AD003285BD1CF
:1019100044E001222021B548FFF7EEF80022202103
:10192000B248FFF7E9F80020AD490860AE480078FA
:10193000401CAD49087047E0A948006800EB8000F2
:10194000B0F5FA7F0CD301222021A848FFF7D4F884
:101950000020A3490860A4480078401CA2490870F0
:1019600032E09F48006800EB8000A1490978884276
:1019700013D320219D48FFF7ACF858B901209D49A9
:10198000087000209649086097480078401C9649E6
:10199000087002E000209749087015E0944800782C
:1019A00040F23A21081A8E49096801EB8101884208
:1019B00009D800208A4908608B4908708748007858
:1019C000401C8649087000BF00BF03E184480068DE
:1019D000401C83490860884888490978405C10B1F8
:1019E000012824D10DE0002220218048FFF784F84F
:1019F00000207B49086081480078401C7F490870BE
:101A000015E07748006800EB80003C280ED30122E7
:101A100020217648FFF770F8002071490860774967
:101A200008706E480078401C6C49087000BF00BF09
:101A3000D0E06B480068401C6949086070487149F3
:101A40000978405C20B1012810D0022833D121E070
:101A5000002220216548FFF74FF800206049086008
:101A600068480078401C6749087024E05C480068BA
:101A700000EB80000A280CD3012220215B48FFF7ED
:101A80003BF80020564908605E480078401C5D49DC
:101A9000087010E05248006800EB8000322809D33B
:101AA00000204F490860574908704C480078401C96
:101AB0004A49087000BF00BF8CE049480068401CDC
:101AC00047490860504851490978405C40B10128B5
:101AD00014D0022826D003285CD14AE071E05BE0F4
:101AE000002220214148FFF707F800203C49086008
:101AF00046480078401C454908704BE0384800686B
:101B000000EB800005280CD3012220213748FEF786
:101B1000F3FF0020324908603C480078401C3B49F4
:101B2000087037E02E48006800EB800005281FD3BE
:101B300020212E48FEF7CDFF48B10121344802781C
:101B40000078401C324B18703248815408E0002164
:101B50002F4802780078401C2D4B18702D48815476
:101B600000201F49086029480078401C2749087058
:101B700010E01B48006800EB80002D2809D30020EE
:101B8000174908602149087014480078401C13491F
:101B9000087000BF00BF1DE011480068401C1049DC
:101BA00008600846006800EB80001B49884207D3A4
:101BB00000200B49086009480078401C074908705C
:101BC00008E0FFF755FE0120144908700020034982
:101BD000087000BF00BF10BD0C3B00089804002037
:101BE0009C040020893B0008A1040020000801405B
:101BF000A2040020A30400208D3B0008A4040020C0
:101C00008F3B0008A5040020923B0008A60400209A
:101C1000A80400207C0B0020B0710B00A004002061
:101C200001200C4908700C49087000200B490880FD
:101C300082200B49087000200A4908700A49087080
:101C40000A4908700A4908700A4908700A49087068
:101C50007047000098040020A7040020B004002072
:101C6000A2040020A0040020A1040020A40400205D
:101C7000A5040020A6040020A804002010B50D48EB
:101C80000078012814D10C480088401C0A490880BB
:101C90000846008840F2712148430849B1EB001F13
:101CA00006DC00F00DF800200349088001490870A7
:101CB00010BD0000A7040020B004002080841E0096
:101CC00010B505480078012803D1044800780128A0
:101CD00001D000F005F810BDA0040020A3040020EE
:101CE00000200149087070479804002070470000E8
:101CF00070B5002100230F22C47804B3154C24686A
:101D000004F4E064C4F5E064210AC1F10403CA40AC
:101D1000447804FA03F184781440214309010E4CFD
:101D20000678A155047804F01F050124AC4005781D
:101D30006D11AD0005F1E025C5F8004109E004781A
:101D400004F01F050124AC40044D0678761145F8D7
:101D5000264070BD0CED00E000E400E080E100E012
:101D600002490143024A1160704700000000FA0571
:101D70000CED00E070B500240EE00021204600F0DC
:101D8000F0F8002504E0002000F068F9681CC5B2F6
:101D9000802DF8DB601CC4B2082CEEDB70BD0000A7
:101DA00008B50121102000F0B5F914208DF80300CA
:101DB00003208DF802004FF48040ADF80000694622
:101DC0000A48FEF7FBFD4FF40040ADF800006946FD
:101DD0000648FEF7F3FD012291030448FEF78CFE4E
:101DE0000122D1030148FEF787FE08BD0010014023
:101DF00070B50546002415E08020204100EA050268
:101E00004FF400410E48FEF777FE012291030C4883
:101E1000FEF772FE00224FF480410948FEF76CFE87
:101E2000601CC4B2082CE7DB012291030448FEF7D2
:101E300063FE00224FF480410148FEF75DFE70BD55
:101E40000010014010B50122D1030A48FEF754FEEC
:101E5000012291030748FEF74FFE00224FF4004194
:101E60000448FEF749FE00224FF480410148FEF786
:101E700043FE10BD0010014010B500224FF4004198
:101E80000648FEF739FE012291030448FEF734FEAE
:101E90000122D1030148FEF72FFE10BD00100140C2
:101EA00070B5002406E0002500E06D1CB5F57A7FD2
:101EB000FBD3641CB4F57A7FF5D3FFF771FFAE2036
:101EC00000F0BCF8D52000F0B9F8802000F0B6F89A
:101ED000A82000F0B3F83F2000F0B0F8D32000F0C5
:101EE000ADF8002000F0AAF8402000F0A7F8A120EB
:101EF00000F0A4F8C82000F0A1F8DA2000F09EF865
:101F0000122000F09BF8812000F098F8CF2000F01C
:101F100095F8D92000F092F8F12000F08FF8DB203E
:101F200000F08CF8302000F089F8A42000F086F84A
:101F3000A62000F083F88D2000F080F8142000F037
:101F40007DF8AF2000F07AF8FFF714FF70BD10B5F0
:101F50000246012000E050430B1EA1F10101FAD11D
:101F600010BD70B505460C4645F0B00000F066F8AF
:101F7000102141EA141000F061F804F00F0000F0A5
:101F80005DF870BD2DE9F04105460E461746721EFC
:101F9000D206110E6A1E5206100EFFF7E2FF002451
:101FA00009E0A7F12001134A02EB0111085D00F0DE
:101FB00055F8601CC4B2082CF3DB721ED206110E59
:101FC0006A1E012303EB4202D0B2FFF7CAFF0024CE
:101FD0000BE0A7F12001074A02EB011204F108010E
:101FE000505C00F03BF8601CC4B2082CF1DBBDE88B
:101FF000F08100001C3500082DE9F04780460E46B0
:1020000017461D46002415E0281B411E0A20FFF735
:102010009EFFB7FBF0F00A21B0FBF1F201FB1200CA
:1020200000F130093019C1B24A464046FFF7AAFF15
:10203000601CC4B2AC42E7DBBDE8F08710B50446D3
:10204000FFF700FF7820FFF7D3FE0020FFF7D0FE58
:102050002046FFF7CDFEFFF70FFF10BD10B5044679
:10206000FFF7F0FE7820FFF7C3FE4020FFF7C0FE29
:102070002046FFF7BDFEFFF7FFFE10BD2DE9F04142
:1020800006460F4600240CE0094800EBC405304624
:102090002968FEF7B9F810B1A879BDE8F081601C95
:1020A000C4B2044800788442EEDB0020F5E700006B
:1020B000CC3400088D040020704700000146002049
:1020C000034A506820F440400843506070470000C5
:1020D0000010024029B1064A52690243044B5A617A
:1020E00004E0034A52698243014B5A617047000081
:1020F0000010024029B1064AD2690243044BDA615A
:1021000004E0034AD2698243014BDA617047000060
:102110000010024029B1064A92690243044B9A61B9
:1021200004E0034A92698243014B9A6170470000C0
:102130000010024030B500210022002400232D4D64
:102140006D6805F00C0121B1042905D0082923D1BF
:1021500005E0294D056022E0274D05601FE0254D73
:102160006D6805F47012234D6D6805F48034022506
:1021700005EB92421CB9214D554305600BE01D4D06
:102180006D6805F400351DB11C4D5543056002E036
:10219000194D5543056002E0174D056000BF00BFB3
:1021A000144D6D6805F0F0010909154D6B5C05686B
:1021B000DD4045600F4D6D6805F4E061090A104D82
:1021C0006B5C4568DD4085600A4D6D6805F46051C3
:1021D000C90A0B4D6B5C4568DD40C560054D6D68F7
:1021E00005F44041890B074D6B5CC568B5FBF3F501
:1021F000056130BD0010024000127A0000093D0068
:102200000000002010000020704710B501214FF49D
:10221000E13000F011F8012000F0D8F8002201218F
:10222000084600F089F801220021084600F05CF819
:10223000012000F027F810BD70B504460D460121BD
:102240000820FFF767FF01218804FFF753FF0121F2
:102250000846FFF73FFF09480460002007498881CE
:102260000C20488100200881C8808880044800F044
:1022700047FE2946024800F0D2FD70BD140B002035
:102280000048004010B5044601224021124800F0E9
:10229000D2FD1248FEF7D2F94FF400701049C86021
:1022A0000020886088620F4848600020C861802054
:1022B0004861202008620848001D086000208861ED
:1022C00008614FF4405048620448FEF780FA214606
:1022D0000248FEF7A7F910BD004800403000024058
:1022E000500B00201409002070B504460D46164618
:1022F00004200D49C87040020880032088700B48F4
:10230000FEF75CFB012240F22441094800F0D3FDB6
:102310002720084908700120C8700846447085705D
:10232000FFF7E6FC70BD00003C000020000C0140FF
:10233000004800404400002070B506460C46154693
:10234000012280211B4800F076FD1B48FEF776F93C
:1023500000201A49C8601020886000208862184850
:1023600048600020C8618020486100200862114850
:10237000001D08600020886108614FF40050486229
:102380000D48FEF724FA012202210B48FEF716FA47
:102390000C200C4908700120C870084646708470F3
:1023A000FFF7A6FC29460448FEF73CF90120064940
:1023B000087070BD004800401C000240240B002043
:1023C00014070020400000203300002010B5044610
:1023D00001210846FFF79EFE18200549C8704FF4FA
:1023E00080600880032088700248FEF7E7FA10BD7D
:1023F00038000020000C014070B505460C461CB1A9
:1024000015B1B4F57A7F02DB4FF0FF3070BD00BF2D
:102410000A4800780028FBD0002000F015F8084892
:102420004560C46001460748FEF7D1F9012000F07D
:102430000BF8012000F012F80120E7E7330000203C
:10244000240B00201C00024010B50446214602481F
:10245000FEF7E8F810BD00001C00024010B504466D
:102460002146024800F0DBFC10BD0000004800409F
:102470002DE9F0478146884616461C46DDE9087A74
:10248000484600F0A9FD0546307820B101280FD05C
:10249000022830D11FE01A4810F8080038B901208E
:1024A0003070002020702278501C2070BD5423E032
:1024B0000D2D06D12278501C2070BD5402203070A2
:1024C00008E02178AAF10100814203DA2278501C49
:1024D0002070BD5410E00A2D0CD12278501C2070C1
:1024E000BD540020307021787854207001200449B8
:1024F00001F8080000E000BF00BFBDE8F087000061
:102500002A0000202DE9FF4F83B004468A469346F7
:102510002D48844207D12D4D2F4606154FF40068F3
:102520004FF0270909E02A48844206D1294D2F4659
:1025300004264FF008084FF0260901A8FEF7D4FA48
:1025400018208DF80700ADF8046003208DF8060010
:1025500001A92846FEF732FA48208DF80700ADF8A9
:10256000048003208DF8060001A93846FEF726FAFC
:10257000194800F03AFD1848C0F800A0002016499C
:1025800088810C20488100200881C88088802046EE
:1025900000F0B6FC012240F22551204600F08BFCF1
:1025A0008DF8089001208DF80B008DF809B0069881
:1025B0008DF80A0002A8FFF79BFB0121204600F0DE
:1025C0002EFC07B0BDE8F08F00480040000C014031
:1025D00000440040000801401C05002070B504467E
:1025E0000D4600BF8021204600F02EFC0028F9D0C7
:1025F0002946204600F0F5FC70BD70B505460C4636
:1026000004E014F8011B2846FFF7E8FF20780028B3
:10261000F7D170BD10B500F001F810BD0CB5002069
:10262000019000903348006840F4803031490860E0
:1026300000BF3048006800F4003000900198401C52
:102640000190009818B90198B0F5A06FF1D1294810
:10265000006800F4003010B10120009001E000207B
:1026600000900098012843D12348006840F01000F2
:10267000214908600846006820F003000860084609
:10268000006840F0020008601A4840681949486034
:102690000846406848600846406840F480604860EA
:1026A0000846406820F47C1048600846406840F4C2
:1026B000E81048600846006840F08070086000BF7D
:1026C0000C48006800F000700028F9D00948406804
:1026D00020F00300074948600846406840F00200C7
:1026E000486000BF0348406800F00C000828F9D19A
:1026F0000CBD0000001002400020024070470000A6
:1027000010B51348006840F0010011490860084600
:102710004068104908400E494860084600680E4964
:1027200008400B4908600846006820F480200860D3
:102730000846406820F4FE0048604FF41F0088609F
:10274000FFF768FF4FF000600449086010BD00000B
:10275000001002400000FFF8FFFFF6FE08ED00E069
:1027600010B50121044800F077F8012803D10121B8
:10277000014800F050F810BD002C014010B50121B7
:10278000880700F069F8012809D10121800700F0CD
:1027900042F8FEF7EFFFFEF733FCFFF79BF810BDA2
:1027A00010B501210C4800F057F8012812D1012181
:1027B000094800F030F8FEF7FDFD6420FEF70CFE3E
:1027C000FEF76AFAFEF7FEFA4FF49670FEF716FE71
:1027D000FFF754FA10BD00000004004010B50121BD
:1027E000044800F039F8012803D10121014800F024
:1027F00012F810BD0008004021B1028842F08002AA
:10280000028004E002884FF67F731A40028070470E
:10281000CA4302827047CA430282704721B10288CC
:1028200042F00102028004E002884FF6FE731A4073
:102830000280704731B1B0F8442042F40042A0F861
:10284000442005E0B0F84420C2F30E02A0F8442072
:1028500070470146888C704730B50246002000233F
:102860000024158A05EA0103958905EA010413B1DC
:102870000CB1012000E0002030BD1AB183890B4368
:10288000838102E083898B438381704701894FF6FE
:10289000F87211400181704770B5002400220023B6
:1028A000058C4FF6FE7635400584028C8388048BB8
:1028B0004FF68F752C40B51E2C400D882C43751E8D
:1028C0002A400D892A434D882A43144DA8420BD033
:1028D000134DA84208D0134DA84205D0124DA8426E
:1028E00002D0124DA84213D14FF6F7752A404D89F8
:1028F0002A434FF6FB752A408D882A434FF6FF6521
:102900002B404FF6FF552B408D892B43CD892B4310
:1029100083800483CD888586028470BD002C0140AD
:1029200000340140004001400044014000480140A3
:102930000A460021018B4FF6F773194011430183BA
:102940007047000070B5002400220023058C4FF66C
:10295000EF7635400584028C8388048B48F6FF753A
:102960002C404FF6FF452C400D884FF6FF7606EAC7
:1029700005252C434FF6DF752A400D8906EA05151B
:102980002A434D8806EA05152A43154DA84202D070
:10299000144DA8421DD14FF67F752A404D894FF640
:1029A000FF7606EA05152A434FF6BF752A408D8843
:1029B00006EA05152A434FF6FF352B404FF2FF7507
:1029C0002B408D8906EA85052B43CD8906EA8505CE
:1029D0002B4383800483CD880587028470BD00006B
:1029E000002C0140003401400A460021018B4FF2C7
:1029F000FF7319404FF6FF7303EA02231943018363
:102A00007047000070B5002400220023058C4FF6AB
:102A1000FF6635400584028C8388848B4FF68F7562
:102A20002C404FF6FC752C400D882C434FF6FF557B
:102A30002A400D894FF6FF7606EA05252A434D8880
:102A400006EA05252A43154DA84202D0144DA84296
:102A50001DD14FF2FF752A404D894FF6FF7606EAE9
:102A600005252A434FF6FF352A408D8806EA0525BD
:102A70002A434EF6FF752B404DF6FF752B408D898E
:102A800006EA05152B43CD8906EA05152B438380FD
:102A90008483CD888587028470BD0000002C0140AE
:102AA000003401400A460021818B4FF6F77319402C
:102AB000114381837047000070B500220023002479
:102AC000058C4EF6FF7635400584038C8488828B16
:102AD00048F6FF752A404FF6FF452A400D884FF60D
:102AE000FF7606EA05252A434DF6FF752B400D8932
:102AF00006EA05352B434D8806EA05352B430B4D79
:102B0000A84202D00A4DA84208D14BF6FF752C40CE
:102B10008D894FF6FF7606EA85152C4384808283E3
:102B2000CD88A0F84050038470BD0000002C014007
:102B3000003401400A460021818B4FF2FF73194097
:102B40004FF6FF7303EA0223194381837047002184
:102B5000018041808180C180018141818181C18169
:102B600070470000002202881D4B98420ED01D4B7A
:102B700098420BD0B0F1804F08D01B4B984205D043
:102B80001A4B984202D01A4B984204D14FF68F73D9
:102B90001A404B881A43174B984207D0164B98425D
:102BA00004D04FF6FF431A40CB881A4302808B882B
:102BB00083850B8803850A4B98420BD0094B9842BA
:102BC00008D00E4B984205D00D4B984202D00D4BC9
:102BD000984201D10B7A038601238382704700005B
:102BE000002C014000340140000400400008004077
:102BF000000C004000100040001400400040014064
:102C000000440140004801404FF6FF7181800021DF
:102C10000180C18041800172704700001CB540F204
:102C20002551084800F01DF901280AD1F42406486E
:102C3000064B074A0221CDE900040248FFF718FCC1
:102C400000BF1CBD004400402006002031000020D1
:102C50003000002038B540F224413F4800F001F92F
:102C6000012877D13C48008800903B48001D00882F
:102C7000009000213948FDF7D5FC3848FDF784FD68
:102C8000C0F5007084B2002035490855012035494F
:102C90000870601C81B23248FFF7F0F932490870C1
:102CA000084600780B2839D2DFE800F0060B101533
:102CB0001A381F24292E330006212CA0FFF79CFB75
:102CC00031E009212BA0FFF797FB2CE004212CA079
:102CD000FFF792FB27E007212BA0FFF78DFB22E0F7
:102CE0000B212BA0FFF788FB1DE00E212BA0FFF787
:102CF00083FB18E00E212DA0FFF77EFB13E01321CC
:102D00002EA0FFF779FB0EE0132131A0FFF774FB33
:102D100009E0092133A0FFF76FFB04E0092134A08B
:102D2000FFF76AFB00BF00BF4FF400710B48FDF7CF
:102D30006CFD32490948FDF74AFD01210748FDF7BE
:102D400071FC0120FFF78AFB40F22441024800F0A9
:102D500057F800BF38BD0000004800403000024076
:102D600014090020320000208C0400204E4F4E45F4
:102D70000D0A0000504F5745524F4E0D0A000000FB
:102D80004F4B0D0A000000004552524F520D0A00F1
:102D9000574946495F434F4E4E0D0A005749464931
:102DA0005F444953434F4E4E0D0A00004D51545459
:102DB0005F444953434F4E4E0D0A00004D51545449
:102DC0005F434F4E4E5F535543434553530D0A00E7
:102DD000574946495F434F4E4E5F53554343455312
:102DE000530D0A00444F574E434D440D0A00000056
:102DF000554E4B4E4F574E0D0A000000500B002011
:102E000010B50022002340F66A14A14200D100BF91
:102E10000A1201249440A3B2DC43048010BD21B106
:102E2000828942F40052828104E082894DF6FF7368
:102E30001A40828170471AB1838A0B43838202E071
:102E4000838A8B438382704702460020B1F5007F5E
:102E500000D100BF13880B400BB1012000E000201F
:102E6000704770B50246002400230025002040F67C
:102E70006A16B14200D100BFC1F3421501F01F0331
:102E8000012606FA03F3012D02D19689334006E0AC
:102E9000022D02D1168A334001E0968A33400C128B
:102EA000012606FA04F41688344013B10CB101204F
:102EB00000E0002070BDF0B5034600240026002588
:102EC000002040F66A17B94200D100BF1846C1F38E
:102ED000421401F01F06012707FA06F5012C01D163
:102EE0000C3004E0022C01D1103000E014301AB193
:102EF00007682F43076002E00768AF430760F0BD33
:102F00002DE9F04786B005460E460024A24600BFD4
:102F1000A1460027B08900B100BF2F462C8A4CF68D
:102F2000FF700440F08804432C82AC894EF6F31005
:102F30000440B08831890843718908430443AC8157
:102F4000AC8A4FF6FF400440B0890443AC8201A82C
:102F5000FFF7F0F81F48874202D1DDF810A001E02A
:102F6000DDF80CA0A88900F4004040B10AEBCA00CB
:102F700000EB0A1031684900B0FBF1F807E00AEBFA
:102F8000CA0000EB0A1031688900B0FBF1F8642038
:102F9000B8FBF0F004012009642101FB1089A88925
:102FA00000F4004040B1322000EBC900B0FBF1F06A
:102FB00000F00700044308E0322000EB0910642110
:102FC000B0FBF1F000F00F0004432C8106B0BDE827
:102FD000F08700000038014001468888C0F30800EF
:102FE0007047C1F30802828070474FF416510160A8
:102FF00000218180C18001810C21418100218181DA
:10300000704700BFFEE700004FF47A70FDF70DFC3B
:1030100001214804FFF76EF801218804FFF76AF8E0
:103020000121C802FFF776F801210846FFF762F890
:1030300001210220FFF75EF801210420FFF75AF872
:1030400001210420FFF766F801210820FFF762F84C
:1030500001211020FFF75EF801210846FFF75AF81A
:1030600001214802FFF756F801210846FFF732F820
:103070004FF4A060FEF774FEFEF74EFA00231A46E6
:103080004FF4E1315E48FFF73DFA5EA15C48FFF77F
:10309000B4FAFEF705FFFEF76DFE03210846FEF7C2
:1030A0000DF901210846FEF747F901210846FEF710
:1030B000B7F900210846FEF7EDF95648FEF724FA65
:1030C0004FF08040FEF720FA5348FEF71DFA5348B0
:1030D000FEF71AFAFEF7B8FB01210846FDF738FEA5
:1030E000FEF798FB00210846FEF700FB4FF4FA704C
:1030F000FEF744F84A480088FEF74CFA4948006851
:1031000000F066F984B22046FDF7BAFF4648006831
:1031100000F05EF984B22046FEF782F8FEF770FAFE
:10312000FEF7B0F8FEF760F80420FDF7EFFCFDF7BE
:1031300051FDFEF70FFAFDF7A1F9FFF766F85DE024
:103140003A480078012812D152212D48FFF746FA5B
:103150000D212B48FFF742FA0A212948FFF73EFAD2
:1031600033492748FFF749FA0020304908703148B1
:10317000807801280AD13048FDF758F884B22146FA
:103180002D48FFF739F900202A4988702B4802881A
:10319000042301210846FEF72FFF28484288042314
:1031A00001210220FEF728FF244882880423012100
:1031B0000320FEF721FF2148C2880423012118467D
:1031C000FEF71AFF02231E48028809210120FEF79C
:1031D00013FF1C480278022309211846FEF70CFF52
:1031E00018488278022309210320FEF705FF0423F3
:1031F0001548028809211846FEF7FEFEA0E70000E8
:103200000044004053657269616C325F4F6E0D0A75
:1032100000000000002C01400004004000080040B5
:10322000080500200C0500201005002032000020B9
:10323000140900202A000020200600201405002088
:10324000AC040020D0040020F40400204FF47F0CD4
:103250001CEAD0121EBF1CEAD11392EA0C0F93EAAB
:103260000C0F00F0858090EA010F48BF42F4807295
:1032700040F4000C41F400002CF07F4120F07F402E
:1032800000B58142A2EB03020FF2081CACEB504EDA
:10329000C0F100009EF800E04FEA4E0E00FB0EFC6D
:1032A00038BF49004FEA2C1C02F5FA020CFB0EF362
:1032B0004FEACE1E4FEA112C4FEAC1210EEB635E9E
:1032C00042EB22420EFB0CFC4FEA1C5300FB0311A5
:1032D0004FEA112C4FEA01310EFB0CFC4FEADC4C9B
:1032E00000FB0C11C14228BF09184CEB03335DF8F9
:1032F00004EB10EB410143EBC250B2F57C0F38BF39
:10330000704729D512F0F00F1CBF00F1C04000F04B
:1033100000407047008182838485868788898B8CF2
:103320008D8E8F919293959697999A9C9D9FA0A22E
:10333000A3A5A7A8AAACAEB0B2B3B5B7B9BCBEC07E
:10334000C2C5C7C9CCCED1D4D7D9DCDFE2E6E9EC1F
:10335000F0F3F7FAFE0000004FEA400C0CF1807C1D
:10336000BCF17E4F28BF7047B0F1C04000F0A9B853
:1033700090EA010F0CEAD11348BF42F48072624513
:1033800038BF634507D213F47F0F16D080EA0100DF
:1033900000F00040704710B500F04DF8097EFC3E8B
:1033A00000F005B880EA010000F00040704780EAB4
:1033B000010000F0004000F084B812F47F0F04BF59
:1033C0000248704780EA010000F07BB80000C07F2F
:1033D000C10DD1F19E0206DB4FEA002343F000430A
:1033E00023FA02F07047004207D54FEA4001B1F1DD
:1033F000FE4F02D24FF00000704710B500F01BF8EE
:1034000049922480002070476FEA20007047000036
:10341000B0FA80F310FA03F2C3F19D030AD0D90584
:1034200001EB1220530638BF704700F1010008BFBE
:1034300020F0010070470EF1020E2EF0030E5EF830
:10344000044B244204D44FEA4102B2F17F4F11D819
:103450004FEA4003B3F17F4F0CD80ED14FEAD07C36
:10346000B2F17F4F0CEB4C0C0CF1020C08BF4CEB93
:10347000D17C04E04FF0080C01E04FEAD17C0CEB6A
:103480004C0324FA03F404F00704B4F1040C06D24C
:103490000EEB840CBDE810404CF0010C6047DFE8F7
:1034A0000CF0070802024FF00040A0F5800010BDAC
:1034B0000846420018BFD2F1807288BF00F0004079
:1034C00010BDFF2141EAD050C005704738040020EC
:1034D0000500060032040020050004003E04002020
:1034E0000400070026040020030001002A04002035
:1034F000020002002D040020040003004304002009
:10350000380008007C04002003000900800400202B
:1035100005000A00860400200500050000000000E8
:10352000000000000000000000000000000000F8A3
:1035300000000000000000333000000000100C0606
:10354000100C0600000000000000000040C07840A1
:10355000C0784000043F04043F040400007088FC6D
:1035600008300000001820FF211E0000F008F000C5
:10357000E018000000211C031E211E0000F0088836
:10358000700000001E2123241927211010160E00A0
:10359000000000000000000000000000000000E04B
:1035A0001804020000000007182040000002041860
:1035B000E00000000040201807000000404080F0BC
:1035C000804040000202010F01020200000000F0F2
:1035D000000000000101011F0101010000000000C6
:1035E0000000000080B0700000000000000000003B
:1035F00000000000000101010101010100000000C4
:10360000000000000030300000000000000000005A
:1036100080601804006018060100000000E0100837
:103620000810E000000F102020100F00001010F80C
:10363000000000000020203F20200000007008084B
:1036400008887000003028242221300000300888CB
:10365000884830000018202020110E000000C020F3
:1036600010F8000000070424243F240000F8088814
:10367000880808000019212020110E0000E01088A1
:1036800088180000000F112020110E0000380808D3
:10369000C83808000000003F0000000000708808E3
:1036A00008887000001C222121221C0000E0100864
:1036B0000810E0000000312222110F00000000C0BD
:1036C000C00000000000003030000000000000805A
:1036D000000000000000806000000000000080404A
:1036E0002010080000010204081020004040404063
:1036F00040404000040404040404040000081020B6
:1037000040800000002010080402010000704808FA
:103710000808F0000000003036010000C030C82862
:10372000E810E0000718272423140B000000C0381D
:10373000E0000000203C23020227382008F8888897
:1037400088700000203F202020110E00C0300808A3
:1037500008083800071820202010080008F808087A
:103760000810E000203F202020100F0008F8888873
:10377000E8081000203F20202320180008F888883F
:10378000E8081000203F200003000000C0300808B7
:103790000838000007182020221E020008F8080040
:1037A0000008F808203F210101213F20000808F807
:1037B000080800000020203F20200000000008082A
:1037C000F8080800C08080807F00000008F888C0EA
:1037D00028180800203F20012638200008F808009B
:1037E00000000000203F20202020300008F8F800D2
:1037F000F8F80800203F003F003F200008F830C0E4
:103800000008F808203F200007183F00E0100808D3
:103810000810E0000F10202020100F0008F8080802
:103820000808F000203F210101010000E010080815
:103830000810E0000F18242438504F0008F888883A
:1038400088887000203F2000030C3020007088081A
:10385000080838000038202121221C00180808F828
:10386000080818000000203F2000000008F80800A9
:103870000008F808001F202020201F00087888007A
:1038800000C83808000007380E010000F80800F8EA
:103890000008F800033C0700073C03000818688094
:1038A0008068180820302C03032C30200838C8000A
:1038B000C83808000000203F200000001008080859
:1038C000C83808002038262120201800000000FEFB
:1038D000020202000000007F40404000000C30C0A7
:1038E00000000000000000010638C00000020202D3
:1038F000FE000000004040407F0000000000040285
:1039000002020400000000000000000000000000AF
:10391000000000008080808080808080000202049F
:103920000000000000000000000000000000808097
:10393000808000000019242222223F2008F8008005
:1039400080000000003F112020110E0000000080C8
:1039500080800000000E1120202011000000008057
:103960008088F800000E112020103F200000808089
:1039700080800000001F222222221300008080F09D
:10398000888888180020203F2020000000008080C8
:1039900080808000006B94949493600008F800800D
:1039A00080800000203F210000203F200080989868
:1039B000000000000020203F2020000000000080C8
:1039C0009898000000C08080807F000008F8000008
:1039D00080808000203F24022D302000000808F85D
:1039E000000000000020203F202000008080808018
:1039F00080808000203F20003F20003F80800080AA
:103A000080800000203F210000203F2000008080B7
:103A100080800000001F202020201F008080008068
:103A20008000000080FFA12020110E000000008017
:103A300080808000000E112020A0FF808080800008
:103A40008080800020203F21200001000000808035
:103A5000808080000033242424241900008080E02A
:103A6000808000000000001F2020000080800000F7
:103A700000808000001F202020103F2080808000D8
:103A80000080808000010E300806010080800080E8
:103A9000008080800F300C030C300F00008080000D
:103AA000808080000020312E0E3120008080800038
:103AB0000080808080818E701806010000808080E8
:103AC000808080000021302C222130000000000086
:103AD000807C020200000000003F40400000000027
:103AE000FF00000000000000FF0000000002027C58
:103AF000800000000040403F00000000000601017F
:103B000002020404000000000000000006030000A0
:103B10000101000001010000010000000100040398
:103B2000000001010000010100010101010100018B
:103B30000202020202020202020202020202020265
:103B40000500000000000000000000000000000070
:103B50000000000000000000000000000000000065
:103B60000000000000000000000000000000000055
:103B70000000000000000000000000000000000045
:103B8000000000000000000000000102030001002E
:103B90000102000102030000356565636565313887
:103BA000363133653839333063313966623933340D
:103BB000363963383962313533666434386133629B
:103BC0006232666236303665316365366232376638
:103BD0006433356166353331000000002F7379732B
:103BE0002F70726F706572746965732F7265706F74
:103BF0007274222C227B5C22736572766963657312
:103C00005C223A5B7B5C22736572766963655F69EF
:103C1000645C223A5C22416C6C5C225C2C5C2270FD
:103C2000726F706572746965735C223A00000000FF
:103C3000503C0008000000201C050000280100087E
:103C4000643D00081C050020740D0000840100087C
:103C5000412D010203040400093806070809020483
:103C60000608162B2B2B0D0A3D4154453007680AD8
:103C70002B43574D4F44453D310E7C5141500D7FF4
:103C800049504D55583D291A4A1B0115691E4A3F96
:103C90002A0019644D515454555345524346473DEB
:103CA000302C312C224E554C4C222C22597F180995
:103CB000434C49454E54494480096377E97F0C6E73
:103CC0004F4E4E7B997F0C725355427E697F4A500E
:103CD0007F000DE5246F632F646576696365732F3C
:103CE000001B6541542B4D5154545055423D302CCE
:103CF00022246F632F646576696365732F144553BF
:103D000050134F4B154552524F3D46492043061321
:103D100044491B5454054816616430636535633764
:103D200031662E7374312E696F7464612D9F101E7D
:103D30002E636E2D6E6F7274682D342E6D796875DA
:103D400061776569636C6F75642E636F6D143332D0
:103D5000312E53554252454E23474F04120A0D0A45
:043D6000027946009E
:04000005080000ED02
:00000001FF
