:020000040800F2
:10000000581800207D02000895410008D72E0008EE
:10001000DB2E000885290008F557000800000000C5
:10002000000000000000000000000000B5460008CD
:10003000F92B00080000000025450008754C000859
:10004000970200089702000897020008970200082C
:10005000970200089702000897020008970200081C
:1000600097020008970200085B2C0008970200081E
:1000700089290008970200089702000897020008E3
:1000800097020008AD2900089702000897020008AF
:1000900097020008970200089702000897020008DC
:1000A00097020008D94C0008970200089702000840
:1000B000F54C0008194D0008554D0008970200083E
:1000C00097020008970200089702000897020008AC
:1000D0009702000897020008AD5100082952000855
:1000E000412C0008970200089702000800F002F86F
:1000F00000F0B4F80AA090E8000C82448344AAF10E
:100100000107DA4501D100F0A9F8AFF2090EBAE80B
:100110000F0013F0010F18BFFB1A43F0010318473B
:10012000A4650000C465000010F8013B0A4413F008
:10013000030408BF10F8014B1D1108BF10F8015B44
:10014000641E05D010F8016B641E01F8016BF9D133
:10015000002D15D010F8014B03F00C030C2BA1EB74
:1001600004040ABF10F8013BA4EB8314A4EB03249E
:1001700005F1010314F8016B5B1E01F8016BF9D561
:10018000914238BF10F8013BD1D3704700230024BF
:1001900000250026103A28BF78C1FBD8520728BF97
:1001A00030C148BF0B6070476E2900F0278370296B
:1001B00000F08784662905F0A985652905F0A685E4
:1001C000672905F0A385612905F0A28503681B0A4C
:1001D00028BF41F08001692900F0D280642900F035
:1001E000CF80752900F0CC806F2900F01484782925
:1001F00000F05384E92900F0AF83E42900F0AC83D8
:10020000F52900F0A983EF2900F01184F82900F006
:1002100052840368DB0928BF41F08001632900F0A4
:100220003083732900F03583E32901F0CF80F3296F
:1002300001F0D480002070471FB501F067F9040079
:100240000020002105F0DAFB401C60600020002146
:1002500005F0EAFBE0601FBD10B510BD01F031F9FB
:100260001146FFF7E9FF05F0E3FA01F013FA03B4D2
:10027000FFF7F2FF03BC01F057FA0000094880477E
:1002800009480047FEE7FEE7FEE7FEE7FEE7FEE778
:10029000FEE7FEE7FEE7FEE704480549054A064B90
:1002A00070470000794C0008ED000008581200204B
:1002B0005818002058140020581400200FB47CB5A2
:1002C0000C0009AA009001D02044401E084B7B443A
:1002D00069460190089800F0AAFA05461CB1002072
:1002E000694600F0B7FA28467CBC5DF814FB0000B4
:1002F0008D0500000FB47CB50C0009AA009001D058
:100300002044401E084B7B4469460190089800F049
:100310008EFA05461CB10020694600F09BFA28467B
:100320007CBC5DF814FB00005505000070B50C4660
:100330000546012A05D02878800600D5EA69002301
:1003400002E0012305E05B1C934202D2E05C00283E
:10035000F9D1A869E618C01AA861286A1844286269
:10036000284600F0B9F904E0D5E9012114F8010BA1
:100370009047B442F8D3284600F0C4F970BD00009D
:100380002DE9F0410646002410687529314616A56E
:1003900010D000F0C8F9002802DA404213A507E0A7
:1003A00031688A0701D512A502E0490704D511A5D5
:1003B000012401E000F0C0F900210A2206F124071F
:1003C00009E0B0FBF2FCB0FBF2F302FB1C003030A2
:1003D00078541846491C0028F3D123462A46304653
:1003E000BDE8F04100F0B1B9000000002D000000B0
:1003F0002B000000200000002DE9F05F8946044634
:100400004FF0000ADFF874B1FB44C0F820A020468A
:10041000E1688847002874D0252806D0D4E9012156
:100420009047206A401C2062F1E700265F46204684
:10043000E16888472028054607DB312D05D2781969
:1004400010F8200C08B10643F1E7B00701D526F0FB
:100450000406C4F81CA00027C4F818A02A2D09D04F
:10046000284605F0DDF938B304EB8708303DC8F8BD
:10047000185019E059F8041B204604EB87029161DB
:10048000E1688847012F054618D1E069002820DA85
:1004900026F020061DE0D8F8180000EB800005EBE0
:1004A00040003038C8F818002046E1688847054603
:1004B00005F0B6F90028EED1012F0AD02E2D08D173
:1004C0002046E16888477F1C0546022F46F020063B
:1004D000C4DBA069002803DA404246F00106A061AF
:1004E000F00701D026F010066C2D0BD0682D09D036
:1004F0004C2D39D06A2D35D0742D35D07A2D33D08E
:1005000016E038E0E1682F4620468847B8420546A5
:1005100009D16C2F26D04FF48060E1680643204655
:100520008847054604E06C2F1AD04FF480700643CC
:100530000DB3A5F14100192802D8203546F4006614
:100540004A462946204626604E46FFF72DFE80B1DA
:1005500001280BD0F61D26F0070000F1080956E728
:100560004020E4E78020D8E70020D6E706F1040920
:100570004DE7284652E7206ABDE8F09F0260000080
:1005800070B5064600F0A4F80468054630460A2215
:10059000002100F0A1FA2C6070BD30B505460B4675
:1005A0002A4613F8014B12F8010B08B1A042F8D00B
:1005B0001CB1002802D06D1CF1E7284630BD10B5F3
:1005C000431C02E010F8011B71B18107FAD14FF012
:1005D000013202C88C1A8C4314EAC211F9D0C01A35
:1005E0000A0603D0C01E10BDC01A10BD0A0401D0F7
:1005F000801E10BD0902FCD0401E10BD032A40F22F
:10060000308010F0030C00F0158011F8013BBCF1B4
:10061000020F624498BF11F801CB00F8013B38BFCC
:1006200011F8013BA2F1040298BF00F801CB38BFDA
:1006300000F8013B11F0030300F08682083AC0F095
:10064000088051F8043B083A51F804CBA0E80810A0
:10065000F5E7121D5CBF51F8043B40F8043BAFF3D3
:100660000080D20724BF11F8013B11F801CB48BF2D
:1006700011F8012B24BF00F8013B00F801CB48BF63
:1006800000F8012B70474FF000020429C0F01280DF
:1006900010F0030C00F08C82CCF1040CBCF1020FC2
:1006A00018BF00F8012BA8BF20F8022BA1EB0C010A
:1006B00000F07EBA5FEAC17C24BF00F8012B00F88D
:1006C000012B48BF00F8012B7047704770477047F7
:1006D00000487047F411002070B504468569006831
:1006E000C10601D5302600E02026C00707D070BD26
:1006F000D4E9012130469047206A401C20626D1EDB
:10070000F6D570BD70B5044685690078C00707D17D
:1007100070BDD4E9012120209047206A401C20624E
:100720006D1EF6D570BD09684A0501D540B2704707
:10073000C905FCD500B2704709684A0501D5C0B2A9
:100740007047C905FCD580B270472DE9F0470D46CA
:1007500099469246044600F124080168880604D5AB
:10076000E06921F01001216000E00120A84201DDD4
:10077000471B00E00027A1697A1902EB0900081A5B
:10078000A0612078C00602D42046FFF7A5FF00260E
:1007900008E0D4E901211AF806009047206A401CBD
:1007A000761C20624E45F4DB2078C0060AD5204630
:1007B000FFF792FF06E0D4E9012130209047206A3C
:1007C000401C2062381EA7F10107F4DC07E0D4E9E1
:1007D000012118F805009047206A401C2062281E5D
:1007E000A5F10105F3DC2046FFF78CFF2078000619
:1007F00002D50220BDE8F0870120FBE711680268FE
:10080000006A530501D508700AE0D30501D50880B8
:1008100006E0130603D5C217C1E9000200E0086034
:100820000120704701694A1C02610878704700B5D1
:100830008FB0CDE901310021059105497944CDE919
:10084000031011466846FFF7D7FD0FB000BD00004A
:10085000E5FFFFFF0A6802F8010B0A607047D1E963
:1008600000239A4202D2531C0B601070704710B5DF
:10087000436913B1AFF3008001E0FFF757FD01209A
:1008800010BD127800F124010A7000224A70012282
:10089000EDE711684FF0FF32E9E700002DE9FF5F57
:1008A00015468A460446DFF8AC80F8440027D8E9AC
:1008B00000103E46CDE9001010E03AF816106A46E6
:1008C00002A800F0DEFD411C07D02178890603D57F
:1008D000E269391891420DD80744761C20788006C9
:1008E00002D5E069B84205DDAE42E6DB3AF8160013
:1008F0000028E2D1A069C01BA0612046FFF7ECFEF2
:10090000D8E90010CDE90010002017E03AF81810DF
:100910006A4602A800F0B5FDB0F1FF3F81460BD05A
:1009200000250DF1080B05E0D4E901211BF80500B5
:1009300090476D1C4D45F7D308F10100B042804649
:10094000E4DB206A384420622046FFF7DBFEBDE886
:10095000FF9F0000725B00002DE9F0418046D21D30
:1009600022F007020025D2E90002F52915A614D0CD
:10097000011E72F1000106DA0023D0EB030063EBE5
:10098000020211A608E0D8F800108B0701D50FA6C7
:1009900002E0490701D50EA601251146002408F101
:1009A000240704E000F036F930323A55641C50EA6E
:1009B0000102F7D12B46324621464046BDE8F041C0
:1009C000FFF7C3BE000000002D0000002B00000058
:1009D0002000000030B4002100F1240408E002F0FF
:1009E0000705D208303542EA4372DB086554491CDA
:1009F00052EA0305F3D10468002310A2250707D5A6
:100A0000A40600D421B1C46901230DA2641EC461EF
:100A100030BCFFF79ABE10B5044621461068FFF7B8
:100A20008BFE02462046BDE810400023D2E7D21DCF
:100A300022F00701D1E90023CCE70000000000000C
:100A400030000000F0B40D460188090502D5214CA4
:100A50007C4402E01F4C7C440E34002100F124064B
:100A600008E002F00F071209E75D42EA03721B0972
:100A70007754491C52EA0307F3D102780023120786
:100A800004D5702D06D009B1022311342246F0BCE2
:100A9000FFF75BBE01231034F8E770B504460D463E
:100AA00021461068FFF748FE024629462046BDE869
:100AB00070400023C6E7D21D22F00703D3E90023CC
:100AC000C0E70368126843F0200303600823C36192
:100AD0000023B7E7D45900002DE9F04791460F46AF
:100AE00080460446002614F8015B2DB100F08AF818
:100AF0000068405DC007F6D12B2D02D02D2D18D0F7
:100B0000641E4A463946204600F06CFC27B139681D
:100B1000A14201D1C7F800804FF0020471050BD546
:100B20004042002803DDFFF7D3FD0460A007BDE8C5
:100B3000F08746F48066E4E70028F8DAFFF7C8FD9E
:100B400004606FF00040F2E710B5203AC0F00B806F
:100B5000B1E81850203AA0E81850B1E81850A0E8C1
:100B60001850BFF4F5AF5FEA027C24BFB1E818501B
:100B7000A0E8185044BF18C918C0BDE810405FEA8B
:100B8000827C24BF51F8043B40F8043B08BF704707
:100B9000D20728BF31F8023B48BF11F8012B28BF0C
:100BA00020F8023B48BF00F8012B70474FF00002CD
:100BB00000B5134694469646203922BFA0E80C5053
:100BC000A0E80C50B1F12001BFF4F7AF090728BF2E
:100BD000A0E80C5048BF0CC05DF804EB890028BFAA
:100BE00040F8042B08BF704748BF20F8022B11F0D3
:100BF000804F18BF00F8012B704700000048704775
:100C0000F411002010B500F081FC001D10BD00BFE4
:100C1000ED4D000030B5B0F10A024FEA900E71F1CF
:100C200000034EEA817EB0EB0E0061EB91014FEACA
:100C3000101E4EEA017E10EB0E0041EB11114FEA3F
:100C4000102E4EEA016E10EB0E0041EB11214FEA1F
:100C5000104E4EEA014E10EB0E0041EB11414018D0
:100C600041F100014FEAD00040EA41704FEAD10162
:100C700010EB80054FEA810444EA907444EB0104D0
:100C80006D1944EB0404521BA3414FF0000348BF0D
:100C90000A3200D530BD401C41F1000130BD704723
:100CA0002DE9FF4F0C461E464FF0FF378BB0D2E9BF
:100CB0000001DDF860800A908A46C1F30A5505B943
:100CC0003D46002108464FF00000BAF1000F00F445
:100CD000400005DA00EB80004FF4400101EA5000CB
:100CE0004FEA9059B9F1010F00DDB9460A9850EA70
:100CF0004A000ED044F61050A5F2FF3545432F149C
:100D0000B8F1000F1ED07542291E1EDDC9F1000288
:100D10001CE0B8F1010F4FF0000001D0302103E0DA
:100D2000F24305E02154401CB042FBDB3046002278
:100D3000002121540B99C1F80880C1E900200FB0AF
:100D4000BDE8F08FBD1B6D1CDEE74A4600DA694244
:100D500006A800F02DFC06AB93E8070003AB83E880
:100D6000070050460A9900F0E6FC8DE80700A0F560
:100D700000501F3800900398002D0ADD42F21F0139
:100D80004A460844002303A90390684600F04FFF39
:100D900009E0A0F500504A461F38002303A903903C
:100DA000684600F059FF8DE807000004000C03D0EE
:100DB0004FF0FF30410800E01046B8F1000F03D0BB
:100DC0000022009215461EE0751E05D4FFF722FF93
:100DD000303262556D1EF9D5B3460122084302D068
:100DE00000227F1C04E02078302801D100227F1EE1
:100DF000002A099784D01DE0112D07DAFFF70AFFBA
:100E0000303262556D1C50EA0102F5D1084302D020
:100E10000098C8B10EE00021681E05E0235C625C0A
:100E200063542254401E491C8142F7DBAB46A81B89
:100E3000401E0990002004F80B000B98099AC0F896
:100E40000880C0E9002B7AE711264FF0000857E729
:100E50002DE9F04F88460446D21D22F0070191B0DB
:100E6000D1E90001CDE90A0104F0C6FC02460B9865
:100E7000C00F01D02D2007E02068810701D52B206D
:100E800002E0202101EAC000032A099001D0072ACC
:100E900005DB03464146204600F03CFB0BE1207891
:100EA000800601D5E06900E00620B8F1650F8146B3
:100EB00006D0B8F1660F18D0B8F1670F70D131E0E5
:100EC0000020B9F1110F009001DB112301E009F1BD
:100ED00001030AAA01A90CA8FFF7E2FEDDE90C70E4
:100EE000002609F10105834647E001204B460090AA
:100EF0004FF000470AAA01A90CA8FFF7D1FEDDE9CF
:100F00000DB00C995D46002610B909F101000D18CD
:100F1000B9EB050003D4C0F1FF3609F10105A5EBDB
:100F200009002BE0B9F1010F01DA4FF001090020AF
:100F3000B9F1110F0090484601DD112300E003468E
:100F40000AAA01A90CA8FFF7ABFEDDE90C704D461B
:100F500000268346207800070AD4AB4500DA5D46B8
:100F600001A8012D04DD411911F8011C302907D019
:100F70004F4502DA17F1040F04DA012082460FE030
:100F80006D1EEEE7002F02DCED1B3E4403E0781CF3
:100F9000A84200DD7D1CB81B00F1010A4FF000479C
:100FA0002078000703D4AA4501DB4FF0FF3A002167
:100FB000B7F1004F0DF143088DF8431024D0022003
:100FC0002B23002F01DA7F422D230A21021EA0F1DC
:100FD000010000DC5FB197FBF1FC97FBF1F201FB34
:100FE0001C7C17460CF1300C08F801CDEEE7A8F197
:100FF000010003702188090501D5452100E0652124
:10100000A0F1010800F8011C09980FA9A1EB08073D
:10101000FF1D00B10120411901EBEA70A1693844BC
:10102000081A401EA0612078C00602D42046FFF7AF
:1010300053FB099828B1D4E901219047206A401C4C
:1010400020622078C00622D52046FFF745FB1EE02F
:10105000002E04DBB34502DD01A8805D00E03020F6
:10106000D4E901219047206A401C2062761CAAF135
:1010700001005FEA000A0AD100F048FAC06801687E
:10108000405CD4E901219047206A401C2062281E60
:10109000A5F10105DCDC07E0D4E9012118F8010B1A
:1010A0009047206A401C2062381EA7F10107F3DC3C
:1010B0002046FFF727FB032011B041E62DE9F04F52
:1010C00004460D46D21D22F0070089B0D0E90097F2
:1010D0004846394604F090FB0246F80F01D02D2314
:1010E00007E02068810701D52B2302E0202101EAD7
:1010F000C0038DF820300BB1012000E00020032A4E
:10110000824601D0072A04DB2946204600F002FA75
:101110003FE12078800601D40D2500E0E569C7F3A2
:101120000A560D2D49DA00214FEA175B08464FF0A9
:101130000000002F00F4400007DA00EB80004FF4BD
:10114000400100EBD07001EA60008115012901DD4A
:101150004FF0FF3100224FEA850CBCF1180F06D387
:101160001346ACF118004FF08052C24003E04FF438
:10117000801323FA0CF30CF10C0CBCF1200F04D3F8
:10118000ACF1200C09FA0CF001E007FA0CF0002990
:101190004FF0004801DD18B90FE00ED140450CD3E7
:1011A00019EB02095F4121B9404502D19F4329EA69
:1011B0000209BBEB175F00D0761C2088000502D522
:1011C0007B48784402E07A487844193808AA3023EA
:1011D00002F80A30037C0AF10101002E0AF1020A2A
:1011E00053546A4602DC4FF0300101E04FF0310108
:1011F0004FF001088DF8001002D0A6F2FF3603E090
:1012000059EA470100D06B4E002D02DC2178090716
:1012100004D54FF002082E218DF80110C44600219C
:101220000BE0C7F303433F01C35C491C6D1E02F88A
:101230000830052908F1010801DA002DF1DC002150
:101240000CE000EB1973491C1B786D1E082902F88D
:1012500008304FEA091908F1010801DA002DF0DC25
:1012600021688B0602D516E0A8F10108E04505DDEE
:1012700002EB080313F8013C302BF5D0B8F1000F56
:1012800009DD02EB080313F8013C2E2B03D10907FB
:1012900001D4A8F10108002D05DD3E2102F8081057
:1012A0006D1E08F10108407C002E02F8080008F1CC
:1012B000010804DA2D20764202F8080002E02B2013
:1012C00002F808000A214FF47A70864208F10108FA
:1012D0000BDB96FBF0F3303302F8083096FBF0F3AB
:1012E00008F1010800FB136601E0642E0CDB6420AA
:1012F00096FBF0F3303302F8083096FBF0F308F178
:10130000010800FB136601E00A2E06DB96FBF1F0F4
:10131000303002F8080008F1010896FBF1F001FBFB
:101320001060303002F80800A16908F1010808EBEC
:10133000050202EB0A00081AA0612078C00602D458
:101340002046FFF7C9F9216A08AE01EB0A002062C6
:1013500004E0D4E9012116F8010B9047BAF1010A23
:10136000F7D22078C00602D52046FFF7B5F96E46C1
:1013700009E016F8010B3E280FD0D4E9012190476F
:10138000206A401C2062B8F10108F2D22046FFF723
:10139000B9F909B00320BDE8F08F206A2844206223
:1013A00003E0D4E90121302090476D1EEBD3F8E72C
:1013B0009D52000002FCFFFF10B5436913B1AFF36B
:1013C000008001E0FFF76AFA012010BD128800F1E9
:1013D000240182840022C2840122EDE711684FF0CB
:1013E000FF32E9E72DE9F05F824615468B4600277C
:1013F0000AF10104B9460078302801D09DB113E00C
:1014000014F8010B0127782803D0582801D045B1E2
:101410000AE00DB1102D07D1002714F8010B10259B
:1014200002E0082500E00A250026B0460EE005FB94
:10143000080005FB06F101271FFA80F801EB1046B2
:10144000B6F5803F00D3B94614F8010B294600F0E9
:10145000A1F80028EBDABBF1000F05D00FB1641E34
:1014600000E05446CBF80040B9F1000F06D0FFF77A
:101470002FF902210160C81EBDE8F09F48EA06402E
:10148000FAE770B516460C460546FFF7BBFB036846
:1014900093F80101012806D0FF2C0FD8185D68B120
:1014A00001202C7070BDD3F807013246214603F2AB
:1014B000071303442846BDE8704018474FF0FF303B
:1014C00070BD7546FFF79AFBAE4605006946534668
:1014D00020F00700854618B020B5FEF7DDFEBDE818
:1014E00020404FF000064FF000074FF000084FF08B
:1014F000000B21F00701AC46ACE8C009ACE8C0091C
:10150000ACE8C009ACE8C0098D4670470048704798
:10151000141200202DE9F0411F46044603260168FD
:10152000072A01F4006004DB08B116A505E016A542
:1015300003E008B115A500E015A521F0100020601A
:10154000A069C01EA0610FB1401EA0612046FFF738
:10155000C3F84FB1D4E9012138469047206A401CB6
:101560002062C01C206206E0206AFAE7D4E901216B
:1015700015F8010B9047761EF8D22046FFF7C2F807
:10158000BDE8F0814E414E006E616E00494E46004E
:10159000696E66003A2800D2303820F02002412AD5
:1015A00001D3A2F13700884201D34FF0FF307047DA
:1015B0002DE9F047814616468AB0354878440DC873
:1015C0008DE80D0032487844801C03AC0DC884E8D7
:1015D0000D0041F69B300844372190FBF1F290FB5F
:1015E000F1F5A5F1800501FB12041B3C02D5644214
:1015F000012000E00020DFF898A080460027FA4490
:10160000AAF1BE0A0EE0E0070AD03246684607EBB0
:10161000470101230AEB810100F01EFB8DE8070062
:1016200064107F1C002CEED1194F7F44AE3F19E0AF
:10163000E80715D007EB04100DF1180A90E80E002A
:101640008AE80E00C068F04201D19819089032462D
:10165000012306A903A800F0FFFA03AB83E8070003
:101660006D10641C002DE3D14FF001033246694632
:10167000B8F1000F03A802D000F0D9FA01E000F0A1
:10168000EBFAC9E90001C9F808200AB0BDE8F08703
:10169000344F000010B50446AFF300802046BDE88B
:1016A0001040FEF7E4BD00004FF0013C50F8042B61
:1016B00051F8043B9A4221D1A2EB0C03934313EA65
:1016C000CC1317D150F8042B51F8043B9A4215D192
:1016D000A2EB0C03934313EACC130BD150F8042B69
:1016E00051F8043B9A4209D1A2EB0C03934313EA4D
:1016F000CC13DBD04FF00000704700BFD01A01BA06
:10170000B1FA81F101F0180122FA01F0CB40C1F1E8
:101710002001DBB2C0B2C01A2CFA01F3D11A9143F6
:1017200011EAC311E6D1704701491820ABBEFEE7AC
:101730002600020070475FEA400C08BF91F0000FDE
:101740004FEA8C234FEAC12243EA51514FEA1C5021
:1017500018BF00F5F0404FEA300018BF41F00041DB
:101760005FEA6C5C00F02980BCF1FF3F08BF40F0ED
:1017700080407047130C06BF12044FF0100C4FF05E
:10178000000C130E04BF12020CF1080C130F04BF5F
:1017900012010CF1040C930F04BF92000CF1020C27
:1017A000D30F04BF52000CF1010C11464FF00002A0
:1017B000A0F11F00A0EB0C00704711F0004F08BF14
:1017C000704731F000413FF4D5AF0B0C06BF090460
:1017D0004FF0100C4FF0000C0B0E04BF09020CF17F
:1017E000080C0B0F04BF09010CF1040C8B0F04BF94
:1017F00089000CF1020CCB0F04BF49000CF1010C65
:10180000CCF12003A0EB0C0022FA03F302FA0CF255
:1018100041EA030100F10100704720F07F4C80EAAB
:10182000030023F07F47ACEB070303F57C5300F084
:10183000004003F1FF032DE980494FEA154B09B43D
:101840004FEA144325EA0B4E24EA03480FF204261C
:1018500006EB132749083E785FEA320203FB06676E
:10186000C7F5000707FB06F64FEA54374FEAD6469E
:1018700006F1020607FB066CCCF1005C4FEA1C4740
:101880002CEA074C07FB06F40CFB06F504EB1546A7
:101890004FEA961634BF00204FF000404FEAD13790
:1018A00006FB07FC4FEA1C4C0CFB0BF7D21B03FB9F
:1018B0000CF761EB07010CFB0EF7B0EB074072EB86
:1018C00017420CFB08F734BFA2EB0742B2EB07420A
:1018D00061EB17414FEA0C444FEA910706FB07FC06
:1018E0004FEA1C4C0CFB0BF7B0EBC74072EB5732C6
:1018F00003FB0CF734BFA2EBC742B2EBC74261EB6C
:1019000057310CFB0EF7B0EBC70072EB57720CFBB4
:1019100008F734BFA2EBC702B2EBC70261EB577105
:10192000039F4FEA816141EA921104EBCC044FEA34
:10193000D1374FEA826206FB07FC42EA90124FEA77
:1019400080604FEA1C4C0CFB0BF7D21B03FB0CF71F
:1019500061EB07010CFB0EF7B0EB074072EB17428F
:101960000CFB08F734BFA2EB0742B2EB074261EB76
:1019700017414FEA8C554FEA910704EB9C2406FB74
:1019800007FC4FEA1C4C0CFB0BF7B0EBC74072EBAB
:10199000573203FB0CF734BFA2EBC742B2EBC7428E
:1019A00061EB57310CFB0EF7B0EBC70072EB5772CF
:1019B0000CFB08F734BFA2EBC702B2EBC70261EB26
:1019C000577115EB4C254FEA816141EA92114FEABC
:1019D00082624FEAD13742EA901206FB07FC44F1DB
:1019E00000044FEA80604FEA1C4C0CFB0BF7D21B43
:1019F00003FB0CF761EB07010CFB0EF7B0EB0740A4
:101A000072EB17420CFB08F734BFA2EB0742B2EBB4
:101A1000074261EB174115EB1C154FEA813141EA92
:101A200092414FEA823242EA90424FEA80304FEAD6
:101A30000C7644F1000448EA03434EEA0B484FF0A9
:101A4000000EB2EB080C71EB030724BF6246394667
:101A50004EEB0E0E4FF0000B0018524149414BEB7C
:101A60000B0BB2EB080C71EB03077BF1000B24BFEF
:101A7000624639464EEB0E0E4FF0000B00185241F5
:101A800049414BEB0B0BB2EB080C71EB03077BF1FD
:101A9000000B24BF624639464EEB0E0E51EA020798
:101AA00018BF46F0010616EB0E7655F1000254F110
:101AB000000103D5BDE88901BDE80088BDE88901C2
:101AC000BDE80048B619524141EB0101A3F1010301
:101AD000704780807F7E7D7C7B7A7978777676759B
:101AE0007473727171706F6E6E6D6C6C6B6A6A6913
:101AF0006868676666656464636362616160605FAD
:101B00005F5E5E5D5D5C5C5B5B5A5A595958585725
:101B1000575656555555545453535252525151508D
:101B200050504F4F4F4E4E4D4D4D4C4C4C4B4B4BE0
:101B30004A4A4A4949494848484747474746464626
:101B40004545454444444443434343424242424161
:101B50004141002B9C4630D477002BD01CB54FEA76
:101B6000370703B44FF010004FF01001BAF1000F27
:101B700006D0BCF1000FDCBF40F0080040F00801C7
:101B80004FF000000FBCBDE810400BF1010BBBF1A2
:101B9000010F08BF5FEA170722BF12F1010211F11E
:101BA00001014FF0004143F1000300F0004043EA1F
:101BB00000007047F9D35708D0E746EA064613F10C
:101BC000400F4FEA16461FDD13F1200FDFBF16430B
:101BD0000A46002120335B42BED0C3F1200746EA0B
:101BE000064602FA07F74FEA164646EA0706C3F129
:101BF000200722FA03F201FA07F721FA03F14FF066
:101C0000000342EA0702A7E746EA020646EA06465A
:101C10004FEA164646EA0106BCBF46EA0646360CBF
:101C20004FF000034FF000024FF0000194E72DE960
:101C3000804C9A46934670B491E8380007C831EA60
:101C4000400C48BF34EA430C03D5FFF7E6FDFFF72D
:101C500080FFF0BCBDE8008C2DE9804C9A4693468D
:101C600070B491E8380007C810F0804F08BF13F037
:101C7000804F03D100F005F8FFF76BFFF0BCBDE823
:101C8000008C20F07F4780EA030023F07F4C07EBB5
:101C90000C03A3F57C5300F00040A3F1FE0392F087
:101CA000000F00F0B38095F0000F00F077802DE971
:101CB00001494FEA11404FEA144621EA004800FB6F
:101CC00006FC24EA064708FB06F607FB08F800FBBB
:101CD00007F718EB06484CEB164C4FEA124B18EB83
:101CE00007484FEA15464CEB174022EA0B4E0BFB18
:101CF00006FC25EA06470EFB06F607FB0EFE0BFB6D
:101D000007F71EEB064E4CEB164C4FF000061EEB91
:101D1000074E4CEB174B18EB0B0840F1000018EB8B
:101D20000E0B58EB000840F100008F1A4FF0000135
:101D30003CBFC943661B14BFB5EB040C00213CBF7C
:101D4000C943F61B4FEA17444EEA8E0E27EA0445B4
:101D50004FEA1C4704FB07622CEA074C05FB07F718
:101D60000CFB05F604FB0CFC16EB074642EB174296
:101D700016EB0C4642EB1C421BEB060658EB02022C
:101D8000414146EA9E0601D5BDE80189B619524196
:101D900041EB0101A3F10103BDE801894FEA1445BC
:101DA0004FEA114724EA054621EA074C05FB07F4F0
:101DB00006FB07F70CFB06F105FB0CFC11EB0741DA
:101DC00044EB17444FEA124711EB0C4144EB1C441F
:101DD00022EA074C05FB07F206FB07F70CFB06F6A9
:101DE00005FB0CFC16EB074642EB174216EB0C46C4
:101DF00042EB1C456A1854F1000148BF7047B61900
:101E0000524141EB0101A3F10103704795F0000F2E
:101E100037D04FEA11424FEA144721EA024624EA3A
:101E2000074C02FB07F106FB07F70CFB06F402FB6D
:101E30000CFC14EB074441EB17414FEA154714EB38
:101E40000C4441EB1C4125EA074C02FB07F506FB5D
:101E500007F70CFB06F602FB0CFC16EB074645EBFE
:101E6000174516EB0C4645EB1C42121951F10001C7
:101E700048BF7047B619524141EB0101A3F101037C
:101E800070474FEA14454FEA114724EA054621EA14
:101E9000074C05FB07F106FB07F70CFB06F24FF0BA
:101EA000000605FB0CFC12EB074241EB174112EB5D
:101EB0000C4251EB1C4148BF7047921841EB0101A5
:101EC000A3F10103704721B1826842F001028260F0
:101ED00003E0826822F001028260704721B18268CB
:101EE00042F48072826003E0826822F48072826031
:101EF0007047014600208A6802F004020AB10120FE
:101F000000E000207047014600208A6802F00802C5
:101F10000AB1012000E000207047000030B5024601
:101F20000020002350680F4C20400D790C6844EAD3
:101F300005242043506090680B4C2040D1E90254A6
:101F40002C434D7944EA450420439060D06A20F444
:101F500070000C7C641EE4B2234340EA0350D0625C
:101F600030BD0000FFFEF0FFFDF7F1FFF0B50446C5
:101F70000D4600200021092D11DDE068A5F10A06BB
:101F800006EB4607072606FA07F18843A5F10A067D
:101F900006EB460603FA06F10843E0600CE0206910
:101FA00005EB4507072606FA07F1884305EB4506CA
:101FB00003FA06F108432061072A0FDA606B561E08
:101FC00006EB86071F2606FA07F18843561E06EB26
:101FD000860605FA06F10843606322E00D2A0FDA4F
:101FE000206BD61F06EB86071F2606FA07F18843EB
:101FF000D61F06EB860605FA06F10843206310E0BB
:10200000E06AA2F10D0606EB86071F2606FA07F125
:102010008843A2F10D0606EB860605FA06F1084391
:10202000E062F0BD816841F008018160704721B134
:10203000826842F4A002826003E0826822F4A00277
:1020400082607047816841F004018160704700211F
:102050000160017141718160C160012101747047AB
:1020600008B51D48A0F114031CA23C210090214892
:10207000FEF740F9204821A324A27F2100902F4899
:10208000FEF738F92E4B2FA27F213548FEF732F9A3
:102090003448A0F17C0334A27F2100903948FEF738
:1020A00029F9304B103338A27F214448FEF722F93A
:1020B00043A02C4B1033434AFF2100904248FEF7C7
:1020C00019F93FA0274B1033404A7F210090404828
:1020D000FEF710F908BD00003904002041542B43DD
:1020E000574A41503D222573222C222573220D0A86
:1020F00000000000D5040020D8650008415141517E
:1021000032353033323930310000000041542B4D2C
:10211000515454555345524346473D302C312C229F
:102120004E554C4C222C222573222C222573222C16
:10213000302C302C22220D0A00000000040900205F
:102140005C02002041542B4D515454434C49454EA0
:102150005449443D302C222573220D0A0000000012
:1021600083090020D403002041542B4D5154544383
:102170004F4E4E3D302C222573222C25732C310DD1
:102180000A000000020A002041542B4D51545453C0
:1021900055423D302C22246F632F64657669636558
:1021A000732F25732F7379732F636F6D6D616E6459
:1021B000732F23222C300D0A00000000810A00201A
:1021C000257300000C650008000B002088650008DE
:1021D000FB0F00202DE9FF4F83B092461C464B2198
:1021E0002046FEF750FA31A10398FEF7D6F90546CE
:1021F0001DB9002007B0BDE8F08F6D1D2DA1284648
:10220000FEF7CBF906460EB90020F3E7B61E701BA9
:1022100000F1010B5A4629462046FEF7EFF900204F
:1022200004F80B000290814614E05AF83910039824
:10223000FEF7B3F907464FB10AEBC900807984F87D
:1022400040000AEBC9008088029007E009F1010014
:1022500000F0FF09184800788145E6DB00BF0FB9A0
:102260000020C7E702983844801C019013A138462B
:10227000FEF793F98046B8F1000F01D10020B9E7CD
:10228000A8F101080198A8EB0000401C80B2009062
:1022900004F14100DDE90021FEF7B0F9002204F16C
:1022A000410100980A540020A4E70000745F6964AB
:1022B0003D0000002C000000950500207D2C000052
:1022C0002DE9F04107468846154600240BE005EB52
:1022D000C40638463168FEF760F910B1B079BDE840
:1022E000F081601CC4B2034800788442EFDB012017
:1022F000F5E70000940500203EB525480078012848
:1023000042D1244890F9000010B1012839D11BE0D6
:1023100021480178214802782148008800B2CDE99F
:10232000012100901F48808802B21E48408801B2F7
:102330001D48008803B21D48008800B200F042F832
:102340000120144908701CE01948006803F044FC9F
:1023500004B21848006803F03FFC05B21648007844
:1023600016490978CDE900100E49C98808B2144908
:102370000B782246294600F0ABF80020054908708A
:1023800000BF00BF01203EBD4FF0FF30FBE7000063
:10239000600400209905002029060020280600205E
:1023A0001606002020060020B4050020FC050020B1
:1023B0001C06002018060020E7050020E605002086
:1023C000100600202DE9F04F87B004460D46164652
:1023D0001F46DDE9119ADDF84080002C00DA002468
:1023E000B4F57A6F01DD4FF47A64002D00DA002530
:1023F00040F6FF70854200DD0546002E00DA00261B
:1024000040F6FF70864200DD064617F1370F01DA0D
:102410006FF036077D2F00DD7D27B8F1000F01DA60
:102420004FF00008B8F1640F01DD4FF06408B9F116
:10243000000F01DA4FF00009B9F10A0F01DD4FF08A
:102440000A09BAF1000F01DA4FF0000ABAF10A0FD7
:1024500001DD4FF00A0A4FF0000BFF211848FEF78C
:1024600012F92346174AFF2117488DE8E007FDF7C8
:1024700041FF0FFA80FBBBF1000F02DBBBF1FF0F46
:1024800004D34FF0FF3007B0BDE8F08F0E4B0F4A7A
:10249000FF210B48FDF712FF0948FEF790F80146AF
:1024A0000690074802F010FA0548FEF788F880B257
:1024B00001460690024802F029FB0120E3E70000F4
:1024C000FF0B002068660008FD0D0020000B0020B7
:1024D0002DE9F04F85B004460D4616461F46DDE94E
:1024E0000E89002C00DA002440F6FF70844200DDE3
:1024F0000446002D00DA0025642D00DD6425002E41
:1025000000DA0026642E00DD6426002F00DA0027A2
:102510000A2F00DD0A27B8F1000F01DA4FF000089A
:10252000B8F1320F01DD4FF03208B9F1000F01DAD6
:102530004FF00009B9F1640F01DD4FF064094FF06D
:10254000000AFF211848FEF79EF82346174AFF218C
:1025500017488DE8E003FDF7CDFE0FFA80FABAF1D7
:10256000000F02DBBAF1FF0F04D34FF0FF3005B0CC
:10257000BDE8F08F0E4B0F4AFF210B48FDF79EFE82
:102580000948FEF71CF883465946074802F09CF9B3
:102590000548FEF714F81FFA80FB5946024802F07E
:1025A000B5FA0120E3E70000FE0C00201C660008DD
:1025B000FC0E0020000B00202DE9F04104460E46E1
:1025C00015466068401C606020780D2874D2DFE8F2
:1025D00000F007733D88898A8B8CD1FAF9F8F700EF
:1025E000D4E901014843D349884204DB022020702A
:1025F0000120207329E095F8010230B1022806D0AD
:1026000005280BD006281AD10EE0BDE8F081002085
:10261000606085F8010285F8010215E0002086F867
:10262000280085F801020FE0002086F8280002202B
:10263000207001202073002085F8010204E01E2193
:10264000BDA002F041F900BF00BF70E1207B78B966
:10265000C148FDF7B4FF87B23946BF4802F056FAC9
:10266000002085F801020120207300206060CCE783
:10267000D4E901014843AF4988420CDBB648FDF775
:102680009EFF87B23946B44802F040FA002085F830
:1026900001026060B9E795F8010220B1032803D078
:1026A000042810D110E0B0E70020207396F828002D
:1026B00018B90720207002E034E1032020700020C8
:1026C00085F80102A1E700BFA348FDF778FF87B2B4
:1026D0003946A14802F01AFA0020606085F801022C
:1026E00093E724E123E122E121E1207B70B99B48BB
:1026F000FDF765FF07463946984802F0E5F80120E6
:102700002073002085F8010260607EE7D4E90101B2
:102710004843884988420EDB9048FDF750FF074642
:1027200039468E4802F0D0F801202073002085F849
:102730000102606069E795F8010210B1032808D131
:1027400000E062E7082020700020207385F8010275
:102750000EE08248FDF733FF074639467F4802F016
:10276000B3F801202073002085F8010260604CE777
:1027700000BFDCE0207B70B97948FDF720FF0746F9
:102780003946774802F0A0F801202073002085F830
:102790000102606039E7D4E9010148436549884294
:1027A00012DB6F48FDF70BFF074639466C4802F015
:1027B0008BF801202073002085F80102606024E777
:1027C000AFE0ADE064E01EE095F8010210B103282F
:1027D00008D100E019E7092020700020207385F857
:1027E00001020EE05E48FDF7EAFE074639465C4806
:1027F00002F06AF801202073002085F80102606071
:1028000003E700BF93E0207B70B95648FDF7D7FE81
:1028100007463946534802F057F80120207300203C
:1028200085F801026060F0E6D4E9010148434149BE
:1028300088420EDB4B48FDF7C2FE07463946494841
:1028400002F042F801202073002085F80102606048
:10285000DBE695F8010210B1032808D100E0D4E6C8
:102860000A2020700020207385F801020EE03D4808
:10287000FDF7A5FE074639463A4802F025F8012043
:102880002073002085F801026060BEE600BF4EE0C4
:10289000207B70B93448FDF792FE0746394632482E
:1028A00002F012F801202073002085F80102606018
:1028B000ABE6D4E9010148431E4988420EDB2A48B1
:1028C000FDF77DFE07463946274801F0FDFF012050
:1028D0002073002085F80102606096E695F80102F9
:1028E00010B103280BD100E08FE60B2020700120EF
:1028F0001E4908700020207385F801020EE01A4876
:10290000FDF75DFE07463946174801F0DDFF01205F
:102910002073002085F80102606076E600BF06E0C3
:1029200005E004E0132112A001F0CEFF00BF00BFBC
:1029300000BF6AE680969800737769746368285FC1
:102940007278335F6D73672D3E74797065293A64D0
:10295000656661756C74000067040020040900203E
:1029600083090020020A0020810A00206004002060
:1029700041545F534D207374617465206572726FAA
:10298000720D0A0000BFFEE710B5202000F0E8F845
:1029900040B1002002F0E6F8012003490870202031
:1029A00000F01AF810BD00002C02002010B54FF006
:1029B000007000F0D5F848B10021054800F01AF881
:1029C000012004490870400600F006F810BD000020
:1029D000800002405002002000F0805111B10349F4
:1029E000086001E0024948607047000004040240AA
:1029F0000000024021B1026842F00102026004E0DE
:102A000002684FF6FE731A400260704701684FF685
:102A1000FE72114001600021016041608160C1606F
:102A20004B49884208D14A490839496841F00F01A9
:102A3000474A083A51608AE045491431884208D132
:102A400043490839496841F0F001414A083A516068
:102A50007DE03F492831884208D13D49083949681D
:102A600041F470613A4A083A516070E038493C31AB
:102A7000884208D136490839496841F47041344ADE
:102A8000083A516063E032495031884208D13049F8
:102A90000839496841F470212D4A083A516056E0DE
:102AA0002B496431884208D129490839496841F4E1
:102AB0007001274A083A516049E025497831884237
:102AC00008D123490839496841F07061204A083A21
:102AD00051603CE01F49884206D1011F096841F05E
:102AE0000F01021F116032E01A491431884208D1E7
:102AF0001849091F096841F0F001164A121F1160B8
:102B000025E014492831884208D11249091F096873
:102B100041F470610F4A121F116018E00D493C31F9
:102B2000884208D10B49091F096841F47041094ADC
:102B3000121F11600BE007495031884207D1054947
:102B4000091F096841F47021024A121F1160704781
:102B500008000240080402400146486880B27047FD
:102B600001460020002201F0805313B1054B1A6882
:102B700001E0054B1A6802EA01030BB1012000E0F5
:102B80000020704700040240000002401AB10368B0
:102B90000B43036002E003688B430360704710B58A
:102BA0000022026847F6F0739A430C6A8B6823434D
:102BB0000C6923434C6923438C692343CC69234329
:102BC0004C6A23438C6A23431A430260CB684360F8
:102BD0000B6883604B68C36010BD41607047002183
:102BE000016041608160C160016141618161C161D9
:102BF0000162416281627047704700B5034603E09D
:102C00004FF47A7000F005F8181EA3F10103F7D114
:102C100000BD00EBC001C9004FF0E022516100216E
:102C200091610521116100BF4FF0E021096901F4B4
:102C300080310029F8D004214FF0E0221161704763
:102C400010B54FF4004000F01BF8012804D1C00378
:102C500000F010F800F068FF10BD10B5102000F073
:102C60000FF8012804D1102000F004F800F0CCFA8D
:102C700010BD0000014908607047000014040140C5
:102C8000014600200022074B1B6803EA0102054BA6
:102C900014331B680B4013B10AB1012000E000207F
:102CA0007047000000040140002123498279002A76
:102CB0003AD00A46126803689A430B461A600A1D06
:102CC000126803689A430B1D1A60027911440A685E
:102CD00003681A430A60184A0832126803689A4364
:102CE000154B08331A601A1D126803689A43124B79
:102CF0000C331A604279102A0ED11A1F1268036829
:102D00001A430D4B08331A601A1D126803681A43E0
:102D1000094B0C331A600DE00749427911440A68E7
:102D200003681A430A6005E0027911440A680368DF
:102D30009A430A60704700000004014000210160CE
:102D400001710C21417100218171704730B5002261
:102D50008B071C0F0F2303FA04F20B4B8C1053F854
:102D600024309343084C8D1044F8253023468C10B2
:102D700053F824308C07240F00FA04F42343024C48
:102D80008D1044F8253030BD080001402DE9F04198
:102D9000024600250026002000230024002791F889
:102DA00003C00CF00F0591F803C00CF0100CBCF13F
:102DB000000F03D091F802C04CEA050591F800C05D
:102DC000BCF1000F31D0146800202BE04FF0010C53
:102DD0000CFA00F3B1F800C00CEA03069E4220D1C1
:102DE00083004FF00F0C0CFA03F7BC4305FA03FC09
:102DF0004CEA040491F803C0BCF1280F06D14FF04F
:102E0000010C0CFA00FCC2F814C00AE091F803C0EF
:102E1000BCF1480F05D14FF0010C0CFA00FCC2F8D0
:102E200010C0401C0828D1D31460B1F800C0BCF118
:102E3000FF0F34DD546800202EE000F1080C4FF045
:102E4000010808FA0CF3B1F800C00CEA03069E4230
:102E500021D183004FF00F0C0CFA03F7BC4305FAA5
:102E600003FC4CEA040491F803C0BCF1280F05D11F
:102E700000F1080C08FA0CF8C2F8148091F803C0AD
:102E8000BCF1480F07D100F1080C4FF0010808FA17
:102E90000CF8C2F81080401C0828CED35460BDE85E
:102EA000F0810246002093680B400BB1012000E046
:102EB0000020704741617047016170474FF6FF7114
:102EC0000180022181700421C17070470AB1016143
:102ED00000E04161704700BFFEE700BFFEE7000071
:102EE00010B590B004464FF4004001F01DFB0BA854
:102EF000FFF7ADF801208DF8310000200E904FF45F
:102F000060200D9000200B908DF83C4001208DF842
:102F100030000BA92148FFF701F801211F48FEF7F7
:102F2000DDFF6846FFF75BFE1C484C3000908015C3
:102F30000690002004901A4801904FF4806007909A
:102F4000802005900020029003940A902020089091
:102F5000C001099069461348FFF721FE01210F487F
:102F6000FEF7B1FF01210F48FFF744FD0B48FFF7C3
:102F700059F800BF0948FEF7C6FF0128FAD00748F4
:102F8000FFF760F800BF0548FEF7B3FF0128FAD04D
:102F900001210248FFF74BF810B010BD002401409A
:102FA000200600200800024008B56846FFF786FFAB
:102FB00010208DF803004002ADF8000003208DF8CA
:102FC000020069460248FFF7E1FE00F003F808BD81
:102FD000000C014010B54FF400510248FFF76CFFA0
:102FE00010BD0000000C014010B5044607480470F5
:102FF0002CB94FF400510648FFF75CFF05E0012CA7
:1030000003D161030248FFF757FF10BD28060020D7
:10301000000C014010B506480078012802D100F0EC
:10302000EFF804E00248007808B900F0E5F810BDB8
:10303000E405002010B50C48006840B90B4801F0C9
:10304000D0FE0B490968401A0A4908600AE007489F
:1030500001F0C7FE42F21071084405490968401AA0
:103060000449086010BD0000CC05002000040040A9
:10307000E0050020DC05002010B5044801F0B1FE99
:103080000349086000200349086010BD00040040A7
:10309000E0050020CC05002004480078012804D178
:1030A00003480068401C024908607047C8050020BA
:1030B000CC0500207CB50020009001900024002663
:1030C000002500BF15E000210FE01D4A165D1DF828
:1030D0000020C1F1070306FA03F31A43D2B20DF838
:1030E0000020621CD4B24A1CD1B20729EDDD411C7C
:1030F000C8B20428E7DD002005E01DF800102944CF
:10310000CDB2411CC8B20328F7DD9DF80400A842E7
:1031100012D1002005E01DF800100A4A1154411C8C
:10312000C8B20328F7DD07488078074908700548CA
:1031300000780649087001E000F05EF87CBD0000F0
:103140008C110020D8050020E6050020E7050020AE
:1031500038B504460D4614201749C8701020088061
:10316000032088701548FFF711FE04210020FFF7A7
:10317000EDFD012210211148FFF7A8FE1020104993
:1031800008600020087108204871002088710846F6
:10319000FFF78AFD0A208DF8000000208DF801005D
:1031A0008DF8020001208DF80300684600F0F4FF5E
:1031B00000F0F8F838BD0000BC0500200008014010
:1031C000C005002010B50A48007801280FD1094831
:1031D0000078401C0749087008460078042806DB80
:1031E000FFF718FF0020034908700149087010BD5F
:1031F000D0050020E805002010B500F099F810BDBA
:1032000010B500F095F810BD10B53E4800780628BE
:1032100074D2DFE800F00304730D205F6FE001203B
:1032200039490870FFF728FF03203649087066E027
:10323000FFF700FF35480068642809D33348006869
:10324000B42805D804202F490870FFF715FF01E0C6
:10325000FFF7D2FF53E0FFF7EDFE2C4800683C2853
:1032600018D32A4800685A2814D8FFF705FF002110
:10327000274802780078401C254B18702548815457
:1032800018460078282824DB05201E49087000F025
:103290006BF81EE01D4800686E2818D31B480068B4
:1032A000822814D8FFF7E8FE012219480178007837
:1032B000401C174B187017484254184600782828AD
:1032C00007DB05200F49087000F04EF801E0FFF71A
:1032D00093FF14E0FFF7AEFE0C48006828280AD3DD
:1032E0000A4800683C2806D801200B490870FFF7FF
:1032F000E1FE02E002E0FFF77FFF00E000BF00BF59
:1033000010BD0000DB050020C8050020DC05002002
:10331000E50500208C110020E405002010B50020F8
:103320000249087000F016F810BD0000E505002005
:1033300010B500F023F80020034908700349087015
:103340000349087010BD0000DB050020C8050020FF
:10335000E405002010B50C20024948710846FFF72B
:10336000A3FC10BDC005002010B50820024948711B
:103370000846FFF799FC10BDC005002010B5482095
:103380000549C8700548FFF701FD0120044988710F
:103390000846FFF789FC10BDBC050020000801406D
:1033A000C005002010B50020054988710846FFF7C8
:1033B0007BFC10200349C8700348FFF7E7FC10BDF1
:1033C000C0050020BC0500200008014010B5012008
:1033D00007490870002007490870FFF7E3FF002045
:1033E00005490870FFF79AFF01200449087010BDD5
:1033F000D1050020D2050020DB050020D0050020EB
:1034000010B51A48007801282ED119480068401CD0
:10341000174908601748007810B1012823D10DE042
:10342000FFF7C0FF002210211348FFF74FFD0120D6
:103430001049087000200E49086014E00C4800682C
:1034400000EB800044F6206188420BD3FFF796FF23
:1034500001200A490870FFF77DFF00200549087028
:103460000249087000BF00BF10BD0000D105002058
:10347000D4050020D205002000080140DB05002013
:1034800038B5044618208DF803004FF48060ADF87D
:10349000000003208DF8020069460F48FFF776FC14
:1034A0000E4801F01CFE00200C4988816020088035
:1034B0000020C8814881888001204880601EC88023
:1034C000074801F067FD0121054801F07BFC082158
:1034D000034801F0AFFD38BD00080140D4110020C1
:1034E000002C014010B50446601E0349C880034803
:1034F00001F050FD10BD0000D4110020002C01404F
:1035000010B50446204602F0A3FB04490860C82118
:1035100004FB01F0FFF7E6FF10BD000018060020D5
:103520002DE9F04104460D460026002003E035F861
:1035300010100E44401CA042F9DB204602F088FB2C
:103540000746304602F084FB8046394602F082FA94
:10355000BDE8F08110B50B46002105E04C1C30F8A9
:10356000144020F81140491C541E8C42F6DC511EB8
:1035700020F8113010BD000038B504466846FFF74A
:103580009DFC18208DF803004FF48070ADF800000A
:1035900003208DF8020069460F48FFF7F7FB0F483C
:1035A00001F09DFD00200D498881602008800020E9
:1035B000C8814881888001204880601EC8800848F2
:1035C00001F032FC0121064801F0FCFB082104480F
:1035D00001F076FC38BD000000080140B411002065
:1035E000002C014010B50446601E0349C880034802
:1035F00001F01AFC10BD0000B4110020002C0140A5
:1036000010B5044607490C70012C0AD10846007811
:10361000012806D00846007818B903480088FFF74B
:10362000E1FF10BD100600201206002008B5684614
:10363000FFF744FC00208DF803000220ADF80000E5
:1036400003208DF8020069460448FFF79FFB05231D
:10365000042209210248FEF789FC08BD000C014044
:103660000024014038B5044618208DF803004FF4BB
:103670000060ADF8000003208DF8020069460F4895
:10368000FFF784FB0E4801F02AFD00200C498881D9
:10369000602008800020C8814881888001204880FF
:1036A000601EC880074801F0CFFC0121054801F0E9
:1036B00089FB0821034801F005FD38BD00080140E1
:1036C000E4110020002C014010B50446601E03499F
:1036D000C880034801F0B8FC10BD0000E4110020D0
:1036E000002C014010B50446204602F0B1FA04490E
:1036F0000860C82104FB01F0FFF7E6FF10BD0000E1
:103700001C06002008B56846FFF7D8FB00208DF89E
:1037100003000120ADF8000003208DF80200694687
:103720000448FFF733FB0523032208210248FEF774
:103730001DFC08BD000C0140002401407FB505467A
:103740000C461C4801F06AFB01A801F025FD002091
:10375000ADF80A00ADF806004720ADF8040044F6C5
:103760001F60ADF8080000208DF80C0001A9114879
:1037700001F0C0FC01210F4801F012FB01221146AB
:103780000C4801F042FB01210A4801F0FDFA192022
:103790008DF8000001208DF803008DF801508DF8A0
:1037A0000240684600F0F8FC0021024801F0FEFAF1
:1037B0007FBD0000002C01407FB505460C464FF050
:1037C000804001F02BFB01A801F0E6FC0020ADF8E1
:1037D0000A00ADF806004720ADF804000420ADF85B
:1037E000080000208DF80C0001A94FF0804001F086
:1037F00081FC0121880701F0D3FA012211469007CC
:1038000001F003FB0121880701F0BEFA1C208DF8AE
:10381000000001208DF803008DF801508DF8024062
:10382000684600F0B9FC00214FF0804001F0BEFA7C
:103830007FBD000010B507480088401C054908807E
:10384000084600880A2803DB0020088000F002FAFE
:1038500010BD00002400002010B504460648008872
:10386000401C0549088008460088A04203DB002070
:103870000880FFF7ABFD10BD2600002010B5044600
:1038800007480088401C0649088008460088A04276
:1038900005DB0020088000F017FCFEF72DFD10BDB1
:1038A000280000207FB505460C461A4801F0B6FAFC
:1038B00001A801F071FC0020ADF80A00ADF8060087
:1038C0004720ADF8040042F20F70ADF80800002068
:1038D0008DF80C0001A90F4801F00CFC01210D48E6
:1038E00001F05EFA012211460A4801F08EFA1D200D
:1038F0008DF8000001208DF803008DF801508DF83F
:103900000240684600F048FC0021024801F04EFAEF
:103910007FBD0000000400407FB505460C461A48F4
:1039200001F07CFA01A801F037FC0020ADF80A0094
:10393000ADF8060040F2CF20ADF804000920ADF844
:10394000080000208DF80C0001A90F4801F0D2FBFF
:1039500001210D4801F024FA012211460A4801F024
:1039600054FA1E208DF8000001208DF803008DF818
:1039700001508DF80240684600F00EFC002102481C
:1039800001F014FA7FBD00000008004010B50446A5
:103990000121204601F00AFA10BD000008B5684672
:1039A000FFF78CFA10208DF803000002ADF800003C
:1039B00003208DF8020069460248FFF7E7F900F09E
:1039C00003F808BD000C014010B54FF480510248C7
:1039D000FFF772FA10BD0000000C014010B504465C
:1039E00007480470012C04D121030648FFF764FA4C
:1039F00005E024B94FF480510248FFF75BFA10BD8F
:103A000029060020000C014038B504466846FFF73F
:103A100055FA18208DF803004FF40070ADF800003F
:103A200003208DF8020069460F48FFF7AFF90F48F1
:103A300001F055FB00200D4988816020088000209E
:103A4000C8814881888001204880601EC88008485D
:103A500001F040FA0121064801F0B4F908210448B8
:103A600001F08AFA38BD000000080140C4110020AE
:103A7000002C014010B50446601E0349C88003486D
:103A800001F028FA10BD0000C4110020002C0140F4
:103A900010B5044603480480C82104FB01F0FFF779
:103AA000E9FF10BD1606002008B56846FFF706FAC4
:103AB00000208DF803000220ADF8000003208DF8EF
:103AC000020069460448FFF761F90523022201213B
:103AD0000248FEF74BFA08BD0008014000240140EF
:103AE00010B50D480078032804DA0B480078401C14
:103AF000094908700948008881B203220848FFF785
:103B000029FD074904480078FFF70AFD044602F042
:103B10007FF80449088010BD08060020F805002041
:103B20000A060020FC05002010B515480078012881
:103B300024D11448007858B9134801F052F91349B8
:103B400008600C2000F060F801200E49087015E0B4
:103B50000C480078012811D10B4801F042F90B49BB
:103B60000968401A0A490860FFF7BAFF082000F008
:103B70004BF80020034908700149087010BD00008F
:103B8000F605002000060020000400400406002086
:103B9000F80500207CB505460C4601A8FFF78EF914
:103BA00048208DF807004FF40040ADF804000320D2
:103BB0008DF8060001A91248FFF7E8F80F2101204F
:103BC000FFF7C4F80F48FFF7B9F84FF400400D496C
:103BD000086001208871002008710820487108469B
:103BE000FFF762F828208DF8000001208DF803000F
:103BF0008DF801508DF80240684600F0CDFA7CBD8A
:103C0000000C0140EC05002010B504460248447148
:103C1000FFF74AF810BD0000EC05002010B50B4876
:103C20000078012811D100F037F809480078401CCD
:103C30000749087008460078022806DB00F014F8EF
:103C40000020024908700249087010BDF4050020E8
:103C5000FF050020012002490870024908707047E2
:103C6000F4050020F505002010B500224FF4805126
:103C70000648FFF72BF90120054908700020054987
:103C800008700820FFF7C0FF10BD000000080140C9
:103C9000F6050020F705002010B506480078012839
:103CA00007D1012201030448FFF710F90020014960
:103CB000087010BDF50500200008014008B56846F1
:103CC000FFF7FCF810208DF803000002ADF80000AB
:103CD00003208DF8020069460448FFF757F80022D8
:103CE0004FF480510148FFF7F1F808BD000801408A
:103CF00010B50121042000F053FC14200449C870C1
:103D000020200880032088700248FFF73FF810BD8C
:103D10009C050020000801400020144A108000BFCC
:103D200009E0134A125C8240104B1B881A430F4B68
:103D30001A80421CD0B21028F3DB0C480088012204
:103D4000B2EBE03F05D109480088C043401C074A58
:103D50001080064800880011064A10800F21034891
:103D600000880840044A108070470000B205002017
:103D700044110020B4050020B605002010B5C0484D
:103D8000C0490978405C072805D2DFE800F073A637
:103D9000EA05FCFB040071E1BB480068401CBA491D
:103DA0000860BA48BA490978405C30B1012817D098
:103DB00002282AD003285BD144E001222021B54803
:103DC000FFF784F800222021B248FFF77FF8002097
:103DD000AD490860AE480078401CAD49087047E026
:103DE000A948006800EB8000B0F5FA7F0CD30122EF
:103DF0002021A848FFF76AF80020A3490860A448DA
:103E00000078401CA249087032E09F48006800EB2F
:103E10008000A1490978884213D320219D48FFF7EB
:103E200040F858B901209D49087000209649086063
:103E300097480078401C9649087002E00020974996
:103E4000087015E09448007840F23A21081A8E492B
:103E5000096801EB8101884209D800208A4908607D
:103E60008B49087087480078401C8649087000BF5D
:103E700000BF03E184480068401C8349086088480B
:103E800088490978405C10B1012824D10DE0002256
:103E900020218048FFF71AF800207B4908608148FC
:103EA0000078401C7F49087015E07748006800EBF7
:103EB00080003C280ED3012220217648FFF706F827
:103EC000002071490860774908706E480078401CEE
:103ED0006C49087000BF00BFD0E06B480068401C10
:103EE00069490860704871490978405C20B101282F
:103EF00010D0022833D121E0002220216548FEF7AE
:103F0000E5FF00206049086068480078401C674968
:103F1000087024E05C48006800EB80000A280CD39D
:103F2000012220215B48FEF7D1FF0020564908609E
:103F30005E480078401C5D49087010E052480068F7
:103F400000EB8000322809D300204F490860574910
:103F500008704C480078401C4A49087000BF00BFF8
:103F60008CE049480068401C474908605048514966
:103F70000978405C40B1012814D0022826D00328DB
:103F80005CD14AE071E05BE0002220214148FEF76D
:103F90009DFF00203C49086046480078401C454988
:103FA00008704BE03848006800EB800005280CD30F
:103FB000012220213748FEF789FF0020324908609E
:103FC0003C480078401C3B49087037E02E480068A8
:103FD00000EB800005281FD320212E48FEF761FF4B
:103FE00048B10121344802780078401C324B1870E7
:103FF0003248815408E000212F4802780078401CA4
:104000002D4B18702D48815400201F490860294805
:104010000078401C2749087010E01B48006800EB3E
:1040200080002D2809D30020174908602149087015
:1040300014480078401C1349087000BF00BF1DE001
:1040400011480068401C104908600846006800EBF1
:1040500080001B49884207D300200B4908600948AB
:104060000078401C0749087008E0FFF755FE012062
:104070001449087000200349087000BF00BF10BD3C
:1040800084630008A0050020A40500200164000846
:10409000A905002000080140AA050020AB0500206A
:1040A00005640008AC05002007640008AD05002089
:1040B0000A640008AE050020B0050020441100206D
:1040C000B0710B00A805002001200C4908700C49B4
:1040D000087000200B49088082200B4908700020DE
:1040E0000A4908700A4908700A4908700A490870A4
:1040F0000A4908700A49087070470000A0050020AE
:10410000AF050020B8050020AA050020A805002062
:10411000A9050020AC050020AD050020AE0500205B
:10412000B005002010B50D480078012814D10C48C6
:104130000088401C0A4908800846008840F2712126
:1041400048430849B1EB001F06DC00F00DF80020E1
:10415000034908800149087010BD0000AF05002028
:10416000B805002080841E0010B50548007801289D
:1041700003D104480078012801D000F005F810BDF3
:10418000A8050020AB0500200020014908707047F9
:10419000A00500207047000070B5002100230F2209
:1041A000C47804B3154C246804F4E064C4F5E064F6
:1041B000210AC1F10403CA40447804FA03F1847867
:1041C0001440214309010E4C0678A155047804F0EF
:1041D0001F050124AC4005786D11AD0005F1E02507
:1041E000C5F8004109E0047804F01F050124AC4043
:1041F000044D0678761145F8264070BD0CED00E0C0
:1042000000E400E080E100E002490143024A11605D
:10421000704700000000FA050CED00E070B50024C6
:104220000EE00021204600F0F0F8002504E0002018
:1042300000F068F9681CC5B2802DF8DB601CC4B2C0
:10424000082CEEDB70BD000008B50121102000F045
:10425000A7F914208DF8030003208DF802004FF415
:104260008040ADF8000069460A48FEF78FFD4FF424
:104270000040ADF8000069460648FEF787FD0122C0
:1042800091030448FEF722FE0122D1030148FEF704
:104290001DFE08BD0010014070B50546002415E064
:1042A0008020204100EA05024FF400410E48FEF74D
:1042B0000DFE012291030C48FEF708FE00224FF488
:1042C00080410948FEF702FE601CC4B2082CE7DBFF
:1042D000012291030448FEF7F9FD00224FF48041CA
:1042E0000148FEF7F3FD70BD0010014010B501223A
:1042F000D1030A48FEF7EAFD012291030748FEF7C1
:10430000E5FD00224FF400410448FEF7DFFD0022E6
:104310004FF480410148FEF7D9FD10BD0010014067
:1043200010B500224FF400410648FEF7CFFD0122F0
:1043300091030448FEF7CAFD0122D1030148FEF7AC
:10434000C5FD10BD0010014070B5002406E0002539
:1043500000E06D1CB5F57A7FFBD3641CB4F57A7F61
:10436000F5D3FFF771FFAE2000F0BCF8D52000F0C8
:10437000B9F8802000F0B6F8A82000F0B3F83F208C
:1043800000F0B0F8D32000F0ADF8002000F0AAF85B
:10439000402000F0A7F8A12000F0A4F8C82000F009
:1043A000A1F8DA2000F09EF8122000F09BF881209E
:1043B00000F098F8CF2000F095F8D92000F092F89E
:1043C000F12000F08FF8DB2000F08CF8302000F0B6
:1043D00089F8A42000F086F8A62000F083F88D204C
:1043E00000F080F8142000F07DF8AF2000F07AF89B
:1043F000FFF714FF70BD10B50246012000E05043E6
:104400000B1EA1F10101FAD110BD70B505460C4695
:1044100045F0B00000F066F8102141EA141000F0F9
:1044200061F804F00F0000F05DF870BD2DE9F04177
:1044300005460E461746721ED206110E6A1E520619
:10444000100EFFF7E2FF002409E0A7F12001134A54
:1044500002EB0111085D00F055F8601CC4B2082C95
:10446000F3DB721ED206110E6A1E012303EB420219
:10447000D0B2FFF7CAFF00240BE0A7F12001074AE2
:1044800002EB011204F10801505C00F03BF8601CE3
:10449000C4B2082CF1DBBDE8F0810000945D000897
:1044A0002DE9F04780460E4617461D46002415E0CC
:1044B000281B411E0A20FFF79EFFB7FBF0F00A21E0
:1044C000B0FBF1F201FB120000F130093019C1B26A
:1044D0004A464046FFF7AAFF601CC4B2AC42E7DB85
:1044E000BDE8F08710B50446FFF700FF7820FFF71E
:1044F000D3FE0020FFF7D0FE2046FFF7CDFEFFF7EA
:104500000FFF10BD10B50446FFF7F0FE7820FFF74F
:10451000C3FE4020FFF7C0FE2046FFF7BDFEFFF7B9
:10452000FFFE10BD7047000001460020034A50689E
:1045300020F44040084350607047000000100240E3
:1045400029B1064A52690243044B5A6104E0034A06
:1045500052698243014B5A617047000000100240CB
:1045600029B1064AD2690243044BDA6104E0034AE6
:10457000D2698243014BDA617047000000100240AB
:1045800029B1064A12690243044B1A6104E0034A46
:1045900012698243014B1A6170470000001002400B
:1045A00029B1064A92690243044B9A6104E0034A26
:1045B00092698243014B9A617047000000100240EB
:1045C00029B1064AD2680243044BDA6004E0034A88
:1045D000D2688243014BDA6070470000001002404D
:1045E00030B500210022002400232D4D6D6805F018
:1045F0000C0121B1042905D0082923D105E0294D5A
:10460000056022E0274D05601FE0254D6D6805F42B
:104610007012234D6D6805F48034022505EB92423B
:104620001CB9214D554305600BE01D4D6D6805F427
:1046300000351DB11C4D5543056002E0194D554331
:10464000056002E0174D056000BF00BF144D6D68A6
:1046500005F0F0010909154D6B5C0568DD4045600A
:104660000F4D6D6805F4E061090A104D6B5C4568FB
:10467000DD4085600A4D6D6805F46051C90A0B4D37
:104680006B5C4568DD40C560054D6D6805F44041D3
:10469000890B074D6B5CC568B5FBF3F5056130BD53
:1046A0000010024000127A0000093D0000000020C6
:1046B00010000020704710B501214FF4E13000F0E8
:1046C00013F800F0EDF800231A4619464FF4805015
:1046D00000F09AF80121084600F06CF84FF4805081
:1046E00000F032F810BD000070B504460D460121FF
:1046F0000420FFF755FF01210846FFF751FF012174
:104700004804FFF72DFF01210846FFF719FF0C4869
:1047100000F05AFF0B4801F061F80A4804600020DD
:10472000084988810C20488100200881C880888041
:10473000034800F0E7FF2946014800F030FF70BD54
:10474000004400409406002010B504460122402198
:10475000144800F030FF1448FEF758F94FF4007089
:104760001249C860002088608862114848600020B3
:10477000C86180204861202008620A48001D086046
:10478000002088610861084644620748FEF707FA7E
:1047900001210548FEF72EF90020054981F80402A1
:1047A00010BD0000004400406C000240D006002014
:1047B000FC06002070B505460C460F48FEF77EFB50
:1047C00004200D49C87008200880032088700B4819
:1047D000FEF7DCFA012240F22441094800F06CFFA8
:1047E0002620084908700120C8704D708C7008465A
:1047F000FFF7D2FC70BD0000440200200008014019
:10480000004400404C0200202DE9F04104460D46D2
:1048100016461F461D48FEF7F9F81D48FEF7DFF95A
:1048200000201B49C8601020886000208862486012
:10483000C861802048610020086216480860002096
:1048400088610861084644621048FEF7A8F9112003
:10485000114908700120C870084645708670FFF73E
:104860009BFC012280210B48001F00F0A4FE0122C6
:1048700002210648FEF78AF939460448FEF7BAF8DD
:10488000012006490870BDE8F08100008000024068
:10489000A4060020044400404802002050020020EA
:1048A00010B50748FEF70AFB18200549C870042018
:1048B0000880032088700348FEF768FA10BD0000E6
:1048C000400200200008014070B505460C461DB1AD
:1048D00014B1B4F5806F02D34FF0FF3070BD00BF4C
:1048E0000B4800780028FBD000210A48FEF782F828
:1048F00009484560C46001460648FEF750F90121A9
:104900000448FEF777F80020014908700120E5E728
:104910005002002080000240A406002010B50121B2
:104920004FF4E13000F014F8012000F0D9F8002332
:104930001A4619464FF4005000F08AF80122114639
:10494000104600F05DF80121480300F027F810BD83
:1049500070B504460D4601210820FFF721FE012114
:104960008804FFF7FDFD01210846FFF7E9FD09482E
:1049700004600020074988810C20488100200881BC
:10498000C8808880044800F0BDFE2946024800F037
:1049900006FE70BD2C0600200048004070B504469D
:1049A0000D4601224021124800F005FE1148FEF795
:1049B0002DF84FF400701049C860002088608862AC
:1049C0000E4848600020C8618020486120200862AD
:1049D0000748001D0860002088610861084644629D
:1049E0000448FEF7DCF829460248FEF703F870BDDC
:1049F0000048004030000240680600202B000020E4
:104A000070B504460D46164604200D49C870400294
:104A10000880032088700B48FEF7B8F9012240F2A5
:104A20002441094800F048FE272008490870012069
:104A3000C870084644708570FFF7AEFB70BD00007B
:104A400032020020000C0140004800403A020020E1
:104A50002DE9F04104460D4616461F4601228021ED
:104A60001A4800F0A8FD1A48FDF7D0FF00201949A8
:104A7000C86010208860002088624860C86180207B
:104A80004861002008621148001D0860002088610C
:104A90000861084644620E48FEF781F801220221AF
:104AA0000B48FEF773F80C200B4908700120C87002
:104AB000084645708670FFF76FFB39460448FDF7DE
:104AC00099FF012005490870BDE8F08100480040C9
:104AD0001C0002403C060020360200202C02002070
:104AE00010B5044601210846FFF75AFD1820054974
:104AF000C8704FF480600880032088700248FEF779
:104B000045F910BD2E020020000C014070B505468D
:104B10000C46002C03DD15B1B4F57A7F02DB4FF0B3
:104B2000FF3070BD00BF0C4800780028FBD000208B
:104B300000F018F809484560C46001460848FEF7CF
:104B40002EF8012000F00EF8012000F015F80020EA
:104B5000014908700120E4E72C0200203C060020F7
:104B60001C00024010B5044621460248FDF742FFF2
:104B700010BD00001C00024010B50446214602484A
:104B800000F00DFD10BD00000048004010B500F021
:104B900001F810BD0CB5002001900090334800686A
:104BA00040F480303149086000BF3048006800F4AC
:104BB000003000900198401C0190009818B90198AD
:104BC000B0F5A06FF1D12948006800F4003010B1B1
:104BD0000120009001E0002000900098012843D1BE
:104BE0002348006840F0100021490860084600682A
:104BF00020F0030008600846006840F002000860EA
:104C00001A484068194948600846406848600846A4
:104C1000406840F4806048600846406820F47C109A
:104C200048600846406840F4E8104860084600685C
:104C300040F08070086000BF0C48006800F0007011
:104C40000028F9D00948406820F00300074948606F
:104C50000846406840F00200486000BF03484068D2
:104C600000F00C000828F9D10CBD00000010024033
:104C7000002002407047000010B51348006840F063
:104C800001001149086008464068104908400E4973
:104C90004860084600680E4908400B49086008460D
:104CA000006820F4802008600846406820F4FE0078
:104CB00048604FF41F008860FFF768FF4FF0006006
:104CC0000449086010BD0000001002400000FFF819
:104CD000FFFFF6FE08ED00E010B50121044800F0EA
:104CE00083F8012803D10121014800F05CF810BDD0
:104CF000002C014010B50121880700F075F801284B
:104D000009D10121800700F04EF8FEF787FFFEF77A
:104D100077FBFFF733F810BD10B501210C4800F008
:104D200063F8012812D10121094800F03CF8FEF790
:104D300081FD6420FEF790FDFEF7AEF9FEF742FA22
:104D40004FF49670FEF79AFDFFF7ECF910BD0000E6
:104D50000004004010B50121074800F045F8012883
:104D600008D10121044800F01EF8044A044905480E
:104D7000FDF722FC10BD0000000800402A000020C2
:104D8000250400205004002021B1028842F0800256
:104D9000028004E002884FF67F731A400280704759
:104DA000CA4302827047CA430282704721B1028817
:104DB00042F00102028004E002884FF6FE731A40BE
:104DC0000280704731B1B0F8442042F40042A0F8AC
:104DD000442005E0B0F84420C2F30E02A0F84420BD
:104DE00070470146888C704730B50246002000238A
:104DF0000024158A05EA0103958905EA010413B127
:104E00000CB1012000E0002030BD1AB183890B43B2
:104E1000838102E083898B438381704701894FF648
:104E2000F87211400181704770B500240022002300
:104E3000058C4FF6FE7635400584028C8388048B02
:104E40004FF68F752C40B51E2C400D882C43751ED7
:104E50002A400D892A434D882A43144DA8420BD07D
:104E6000134DA84208D0134DA84205D0124DA842B8
:104E700002D0124DA84213D14FF6F7752A404D8942
:104E80002A434FF6FB752A408D882A434FF6FF656B
:104E90002B404FF6FF552B408D892B43CD892B435B
:104EA00083800483CD888586028470BD002C0140F8
:104EB00000340140004001400044014000480140EE
:104EC0000A460021018B4FF6F77319401143018305
:104ED0007047000070B5002400220023058C4FF6B7
:104EE000EF7635400584028C8388048B48F6FF7585
:104EF0002C404FF6FF452C400D884FF6FF7606EA12
:104F000005252C434FF6DF752A400D8906EA051565
:104F10002A434D8806EA05152A43154DA84202D0BA
:104F2000144DA8421DD14FF67F752A404D894FF68A
:104F3000FF7606EA05152A434FF6BF752A408D888D
:104F400006EA05152A434FF6FF352B404FF2FF7551
:104F50002B408D8906EA85052B43CD8906EA850518
:104F60002B4383800483CD880587028470BD0000B5
:104F7000002C0140003401400A460021018B4FF211
:104F8000FF7319404FF6FF7303EA022319430183AD
:104F90007047000070B5002400220023058C4FF6F6
:104FA000FF6635400584028C8388848B4FF68F75AD
:104FB0002C404FF6FC752C400D882C434FF6FF55C6
:104FC0002A400D894FF6FF7606EA05252A434D88CB
:104FD00006EA05252A43154DA84202D0144DA842E1
:104FE0001DD14FF2FF752A404D894FF6FF7606EA34
:104FF00005252A434FF6FF352A408D8806EA052508
:105000002A434EF6FF752B404DF6FF752B408D89D8
:1050100006EA05152B43CD8906EA05152B43838047
:105020008483CD888587028470BD0000002C0140F8
:10503000003401400A460021818B4FF6F773194076
:10504000114381837047000070B5002200230024C3
:10505000058C4EF6FF7635400584038C8488828B60
:1050600048F6FF752A404FF6FF452A400D884FF657
:10507000FF7606EA05252A434DF6FF752B400D897C
:1050800006EA05352B434D8806EA05352B430B4DC3
:10509000A84202D00A4DA84208D14BF6FF752C4019
:1050A0008D894FF6FF7606EA85152C43848082832E
:1050B000CD88A0F84050038470BD0000002C014052
:1050C000003401400A460021818B4FF2FF731940E2
:1050D0004FF6FF7303EA02231943818370470021CF
:1050E000018041808180C180018141818181C181B4
:1050F00070470000002202881D4B98420ED01D4BC5
:1051000098420BD0B0F1804F08D01B4B984205D08D
:105110001A4B984202D01A4B984204D14FF68F7323
:105120001A404B881A43174B984207D0164B9842A7
:1051300004D04FF6FF431A40CB881A4302808B8875
:1051400083850B8803850A4B98420BD0094B984204
:1051500008D00E4B984205D00D4B984202D00D4B13
:10516000984201D10B7A03860123838270470000A5
:10517000002C0140003401400004004000080040C1
:10518000000C0040001000400014004000400140AE
:1051900000440140004801404FF6FF71818000212A
:1051A0000180C180418001727047000008B540F263
:1051B00024411A4800F056FA78B318480088009045
:1051C0001648001D0088009000211548FDF712FCCC
:1051D0001348FDF7C1FCC0F500701249C1F8000288
:1051E0000020D1F800120F4A50541046D0F80002A7
:1051F000401C1146C1F80002012081F8040241025E
:105200000748FDF7EAFC01210548FDF7F3FB40F2F2
:105210002441024800F0B4F900BF08BD004400403A
:105220006C000240FC06002038B540F224418C4856
:1052300000F018FA012875D1894800880090884844
:10524000001D0088009000218648FDF7D3FB8548AB
:10525000FDF782FCC0F5007084B2601C84B2601E51
:10526000B0F5007F02DA00227F490A5401207E490E
:10527000491E08707D4A21467B48FDF721F87A498E
:10528000491E81F80102084690F801020C286FD2ED
:10529000DFE800F0C8060B10151A1F24292E33383A
:1052A000062173A0FFF710FBC1E0092172A0FFF7F0
:1052B0000BFBBCE0042173A0FFF706FBB7E007215E
:1052C00072A0FFF701FBB2E00B2172A0FFF7FCFA1E
:1052D000ADE00C216FA0FFF7F7FAA8E00E2170A057
:1052E000FFF7F2FAA3E00E2171A0FFF7EDFA9EE0BE
:1052F000132173A0FFF7E8FA99E0132175A0FFF7D7
:10530000E3FA94E0092178A0FFF7DEFA794B7A4AB4
:1053100021465548FCF75EFF764890F84000072884
:105320005BD200E09AE0DFE800F004091624313E89
:105330004B000D2171A0FFF7C7FA53E00A2173A0BB
:10534000FFF7C2FA6B484130FBF71AF9C5B228469D
:10535000FEF79EFB46E00A216FA0FFF7B5FA65480D
:105360004130FBF70DF9C5B22846FDF73DFE39E0A7
:1053700058E00A216BA0FFF7A7FA5E484130FBF71F
:10538000FFF8C5B22846FEF729FB2BE00A2168A0EA
:10539000FFF79AFA57484130FBF7F2F8C5B22846B2
:1053A000FEF7AEF81EE00B2164A0FFF78DFA51481E
:1053B0004130FBF7E5F8C5B22846FEF793F911E056
:1053C000082161A0FFF780FA4A484130FBF7D8F87E
:1053D00045B22846FEF714F904E00E215DA0FFF760
:1053E00073FA00BF00BF434890F84000C8B17F2166
:1053F0005C48FBF748F93F4B5B4A7F215948FAF775
:105400005DFF5848FBF7DBF885B229465548FFF7A2
:105410007DFB5448FBF7D3F8054629465148FFF772
:1054200053FA04E00C2151A0FFF74EFA00BF00BF71
:105430004FF400710B48FDF7D0FB50490948FDF7C8
:10544000AEFB01210748FDF7D5FA0120FFF794FBD9
:1054500040F22441024800F093F800BF38BD00003C
:1054600000480040300002402B000020145D00087E
:105470004E4F4E450D0A0000504F5745524F4E0DAE
:105480000A0000004F4B0D0A000000004552524F29
:10549000520D0A00574946495F434F4E4E0D0A00D0
:1054A000574946495F444953434F4E4E0D0A000049
:1054B0004D5154545F444953434F4E4E0D0A000022
:1054C0004D5154545F434F4E4E5F535543434553E4
:1054D000530D0A00574946495F434F4E4E5F53559F
:1054E00043434553530D0A00444F574E434D440D1B
:1054F0000A000000F9100020645D0008434D445F7D
:10550000554E4B4E4F574E0D0A000000434D445F21
:10551000575056520D0A0000434D445F41505253BC
:105520000D0A0000434D445F574852530D0A0000D6
:10553000434D445F414C56520D0A0000434D445FB9
:1055400050474C56520D0A00434D445F46540D0AD5
:1055500000000000434D44545950454552524F52AB
:105560000D0A00007A100020FB0F00204D53475514
:105570004E4B4E4F574E0D0A0000000068060020AB
:1055800010B50022002340F66A14A14200D100BFEA
:105590000A1201249440A3B2DC43048010BD21B15F
:1055A000828942F40052828104E082894DF6FF73C1
:1055B0001A40828170471AB1838A0B43838202E0CA
:1055C000838A8B438382704710B504462048844207
:1055D00009D101218803FEF7F3FF00214FF4804039
:1055E000FEF7EEFF32E01B48844209D10121480456
:1055F000FEF7C6FF00214FF40030FEF7C1FF25E0A3
:105600001548844209D101218804FEF7B9FF002121
:105610004FF48020FEF7B4FF18E01048844209D10F
:105620000121C804FEF7ACFF00214FF40020FEF773
:10563000A7FF0BE00A48844208D101210805FEF7C4
:105640009FFF00214FF48010FEF79AFF10BD00006D
:10565000003801400044004000480040004C004039
:105660000050004070B502460024002300250020B1
:1056700040F66A16B14200D100BFC1F3421501F0F5
:105680001F03012606FA03F3012D02D19689334048
:1056900006E0022D02D1168A334001E0968A33409B
:1056A0000C12012606FA04F41688344013B10CB12A
:1056B000012000E0002070BDF0B503460024002664
:1056C0000025002040F66A17B94200D100BF1846F5
:1056D000C1F3421401F01F06012707FA06F5012C59
:1056E00001D10C3004E0022C01D1103000E0143064
:1056F0001AB107682F43076002E00768AF430760ED
:10570000F0BD00002DE9F04786B005460E460024A6
:10571000A24600BFA1460027B08900B100BF2F46B6
:105720002C8A4CF6FF700440F08804432C82AC892C
:105730004EF6F3100440B08831890843718908435C
:105740000443AC81AC8A4FF6FF400440B089044367
:10575000AC8201A8FEF744FF1F48874202D1DDF862
:1057600010A001E0DDF80CA0A88900F4004040B1D1
:105770000AEBCA0000EB0A1031684900B0FBF1F8EF
:1057800007E00AEBCA0000EB0A1031688900B0FBA1
:10579000F1F86420B8FBF0F004012009642101FB5A
:1057A0001089A88900F4004040B1322000EBC90004
:1057B000B0FBF1F000F00700044308E0322000EBFA
:1057C00009106421B0FBF1F000F00F0004432C81BC
:1057D00006B0BDE8F0870000003801404FF41651D4
:1057E000016000218180C18001810C214181002163
:1057F0008181704700BFFEE7490050EAC12018BF11
:1058000004204A0D18BF40F0010040F2FF72B2EBD5
:10581000515F08BF40F00200012808BF0520704713
:1058200030380A2801D2012070470020704700005C
:105830004FF47A70FDF7E1F901214804FEF790FE7C
:1058400001218804FEF78CFE0121C802FEF7A8FEA4
:1058500001210846FEF784FE01210220FEF780FEAA
:1058600001210420FEF77CFE01210420FEF798FEB2
:1058700001210820FEF794FE01211020FEF790FE82
:1058800001210846FEF78CFE01214802FEF788FE42
:1058900001210846FEF754FE4FF4A060FEF7B4FC69
:1058A000FEF752FDFEF7BAFC03210846FDF746FF5E
:1058B00001210846FDF780FF01210846FDF7F2FFB0
:1058C00000210846FEF728F83F48FEF75FF84FF042
:1058D0008040FEF75BF83D48FEF758F83C48FEF77D
:1058E00055F8FEF705FA01210846FDF731FCFEF7F1
:1058F000E5F900210846FEF74DF94FF4FA70FDF77F
:105900003BFE34480088FEF77FF83348006800F01B
:105910007FF984B22046FDF7B3FD3048006800F0FF
:1059200077F984B22046FDF79DFEFEF7BDF8FDF73E
:10593000E9FEFDF77BFE0420FDF7D2FAFDF734FB0C
:10594000FEF72CF8FEF7EAFFFEF7B5FEFCF788FB42
:105950000C2123A0FEF7B8FF34E004231D48028881
:1059600001210846FEF79CFD04232148027801210D
:105970000220FEF795FD04231E4802780121032032
:10598000FEF78EFD1448006800F042F90446042337
:10599000224601211846FEF783FD1048006800F0FA
:1059A00037F904460423224609210120FEF778FD39
:1059B00004231148027809210220FEF771FD6420BA
:1059C000FDF727F9C9E70000002C01400004004062
:1059D0000008004016060020180600201C060020C3
:1059E00053657269616C325F4F6E0D0A00000000F2
:1059F00028060020290600201006002010B50029E6
:105A00000AD00878002807D005487844FBF74CFEF8
:105A1000002801D0002010BD0248784410BD0000CD
:105A2000DA0C0000D20C000010B500290AD008786A
:105A3000002807D005487844FBF736FE002801D03F
:105A4000002010BD0248784410BD0000BE0D0000CB
:105A5000B60D00004FF47F0C1CEAD0121EBF1CEAEA
:105A6000D11392EA0C0F93EA0C0F00F0858090EAB4
:105A7000010F48BF42F4807240F4000C41F4000072
:105A80002CF07F4120F07F4000B58142A2EB030261
:105A90000FF2081CACEB504EC0F100009EF800E085
:105AA0004FEA4E0E00FB0EFC38BF49004FEA2C1C9B
:105AB00002F5FA020CFB0EF34FEACE1E4FEA112C50
:105AC0004FEAC1210EEB635E42EB22420EFB0CFC5F
:105AD0004FEA1C5300FB03114FEA112C4FEA01312E
