:020000040800F2
:10000000580E0020D1010008D52100084B0F000830
:100010004F0F000861040008DB2F000800000000FB
:10002000000000000000000000000000E9250008BA
:10003000D304000800000000992400087928000873
:10004000EB010008EB010008EB010008EB010008E0
:10005000EB010008EB010008EB010008EB010008D0
:10006000EB010008EB010008D30C0008EB010008CD
:10007000EB010008EB010008EB010008EB010008B0
:10008000EB010008EB010008EB010008EB010008A0
:10009000EB010008EB010008EB010008EB01000890
:1000A000EB010008DD280008EB010008EB01000867
:1000B000F92800081D29000855290008EB0100084F
:1000C000EB010008EB010008EB010008EB01000860
:1000D000EB010008EB010008992D0008D12D000864
:1000E000B90C0008EB010008EB01000800F002F871
:1000F00000F05EF80AA090E8000C82448344AAF164
:100100000107DA4501D100F053F8AFF2090EBAE861
:100110000F0013F0010F18BFFB1A43F0010318473B
:10012000BC360000DC36000010F8013B0A4413F036
:10013000030408BF10F8014B1D1108BF10F8015B44
:10014000641E05D010F8016B641E01F8016BF9D133
:10015000002D15D010F8014B03F00C030C2BA1EB74
:1001600004040ABF10F8013BA4EB8314A4EB03249E
:1001700005F1010314F8016B5B1E01F8016BF9D561
:10018000914238BF10F8013BD1D3704700230024BF
:1001900000250026103A28BF78C1FBD8520728BF97
:1001A00030C148BF0B6070471FB51FBD10B510BDF3
:1001B00000F050F81146FFF7F7FF02F011FF00F0D2
:1001C0006EF803B4FFF7F2FF03BC00F075F800000F
:1001D0000948804709480047FEE7FEE7FEE7FEE7DB
:1001E000FEE7FEE7FEE7FEE7FEE7FEE70448054917
:1001F000054A064B704700007D280008ED00000806
:1002000058080020580E0020580A0020580A0020E4
:1002100010B5431C02E010F8011B71B18107FAD13F
:100220004FF0013202C88C1A8C4314EAC211F9D083
:10023000C01A0A0603D0C01E10BDC01A10BD0A04A1
:1002400001D0801E10BD0902FCD0401E10BD7047B9
:1002500070477047754600F02BF8AE4605006946BA
:10026000534620F00700854618B020B5FFF7BEFFC3
:10027000BDE820404FF000064FF000074FF00008A7
:100280004FF0000B21F00701AC46ACE8C009ACE828
:10029000C009ACE8C009ACE8C0098D46704710B58C
:1002A0000446AFF300802046BDE81040FFF789BF49
:1002B00000487047F807002001491820ABBEFEE750
:1002C00026000200704721B1826842F0010282607C
:1002D00003E0826822F001028260704721B18268E7
:1002E00042F48072826003E0826822F4807282604D
:1002F0007047014600208A6802F004020AB101201A
:1003000000E000207047014600208A6802F00802E1
:100310000AB1012000E000207047000030B502461D
:100320000020002350680F4C20400D790C6844EAEF
:1003300005242043506090680B4C2040D1E90254C2
:100340002C434D7944EA450420439060D06A20F460
:1003500070000C7C641EE4B2234340EA0350D06278
:1003600030BD0000FFFEF0FFFDF7F1FFF0B50446E1
:100370000D4600200021092D11DDE068A5F10A06D7
:1003800006EB4607072606FA07F18843A5F10A0699
:1003900006EB460603FA06F10843E0600CE020692C
:1003A00005EB4507072606FA07F1884305EB4506E6
:1003B00003FA06F108432061072A0FDA606B561E24
:1003C00006EB86071F2606FA07F18843561E06EB42
:1003D000860605FA06F10843606322E00D2A0FDA6B
:1003E000206BD61F06EB86071F2606FA07F1884307
:1003F000D61F06EB860605FA06F10843206310E0D7
:10040000E06AA2F10D0606EB86071F2606FA07F141
:100410008843A2F10D0606EB860605FA06F10843AD
:10042000E062F0BD816841F008018160704721B150
:10043000826842F4A002826003E0826822F4A00293
:1004400082607047816841F004018160704700213B
:100450000160017141718160C160012101747047C7
:1004600000BFFEE721B1026842F00102026004E031
:1004700002684FF6FE731A400260704710B5002202
:10048000026847F6F0739A430C6A8B6823430C6941
:1004900023434C6923438C692343CC6923434C6A2F
:1004A00023438C6A23431A430260CB6843600B6882
:1004B00083604B68C36010BD0021016041608160B2
:1004C000C160016141618161C1610162416281621A
:1004D0007047704700B5034603E04FF47A7000F0B0
:1004E00005F8181EA3F10103F7D100BD00EBC00110
:1004F000C9004FF0E0225161002191610521116195
:1005000000BF4FF0E021096901F480310029F8D0E3
:1005100004214FF0E02211617047000010B5F5484A
:100520000068401CF3490860F34890F90000102867
:1005300019D2DFE800F008195863646FA8B3F1FC22
:10054000EEED181818EC00F005FB00231A464FF4E6
:10055000E131EA4802F094F8E9A1ED4802F00BF924
:100560000120E5490870E3E2E248006800EBC001C1
:1005700001EB0010E749B1EB800F07D8E6A1E44892
:1005800002F0F9F80220DC4908702BE0E848C07856
:10059000012827D1E749DE4802F0EDF8E649E548B1
:1005A00000F0FFFF01280AD1E4A1D94802F0E3F8E6
:1005B0000120E74908700420CF4908700FE0E548A2
:1005C00090F90000012804DBE3A1D14802F0D3F840
:1005D00005E0E0480078401C40B2DE490870002089
:1005E000D349C870A4E2E449C44802F0C4F8032027
:1005F000C14908700020BF49086099E298E2DF49CC
:10060000C34802F0B8F80520BB4908700020B9497A
:1006100008608DE2B748006800EBC00101EB0010F4
:10062000BC49B1EB800F0AD80420B3490870D4A1AB
:10063000B74802F0A0F80020AE49086022E0BC48AC
:10064000807801281ED1D349BA4800F0AAFF0128BA
:1006500003D10620A849087014E0CF49B54800F03E
:10066000A0FF012807D10420A3490870CBA1A84806
:1006700002F081F806E004209F490870CCA1A4484C
:1006800002F079F854E2D049A14802F074F807204A
:100690009949087000209749086049E29548006828
:1006A00000EBC00101EB00109A49B1EB800F0AD8B2
:1006B000062091490870C5A1954802F05CF8002019
:1006C0008C49086022E09A48C07801281ED1B149BF
:1006D000984800F066FF012803D108208649087079
:1006E00014E0AD49934800F05CFF012807D10620D3
:1006F00081490870BBA1864802F03DF806E006205B
:100700007D490870BDA1824802F035F810E2C6E0CC
:1007100060E045E00BE0FFE7BF497D4802F02BF8C1
:1007200009207549087000207249086000E271488C
:10073000006800EBC00101EB00107649B1EB800FBF
:100740000AD808206C490870B4A1714802F013F867
:1007500000206849086022E07548C07801281ED151
:100760008C49744800F01DFF012803D10A2062491A
:10077000087014E088496F4800F013FF012807D182
:1007800008205D490870AAA1614801F0F4FF06E065
:10079000082059490870ABA15D4801F0ECFFC7E1A2
:1007A0006B480078012806D10B20534908700020BF
:1007B000504908600DE06648007830B90F204E4976
:1007C000087000204B49086003E0A4A1504801F0E4
:1007D000D2FFADE14748006800EBC00101EB00101B
:1007E000A549B1EB800F21D8A44890F90000012859
:1007F00002D0022810D107E0A149454801F0BBFF13
:1008000002209E4908700CE09D49414801F0B3FF69
:1008100001209A49087004E09AA13D4801F0ABFF1D
:1008200000BF00BF00203349086037E04048C0786F
:10083000012833D19B493F4800F0B3FE01280DD178
:1008400099A1334801F097FF0020414908700F201B
:10085000294908700020274908601FE0974935485A
:1008600000F09FFE012819D04A49324800F099FE55
:10087000012804D192A1264801F07DFF0EE04649EF
:100880002C4800F08EFE012804D191A1204801F0EF
:1008900072FF03E093A11E4801F06DFF48E1154887
:1008A000006800EBC00101EB00107349B1EB800F51
:1008B00007D891A1164801F05EFF00200D4908609D
:1008C00035E11B48C078012813D11B49194800F0B5
:1008D00068FE01280CD11E4908708DA10C4801F05A
:1008E0004AFF0B20044908700020024908601BE100
:1008F00016E11CE1C0040020BF04002000480040B5
:1009000053657269616C335F4F6E0D0A0000000021
:1009100000440040404B4C0053746174655F536564
:100920007269616C5F4E6F5253500D0A00000000F7
:100930002800002060050020A904002057494649EE
:1009400020434F4E4E45435445440D0A00000000DD
:10095000C4040020C504002053746174655F506FA7
:100960007765724F6E436865636B5F4D7367556E55
:100970006B6E6F770D0A00003000002090000020A1
:100980004D515454555345524346475F4E6F525351
:10099000500D0A00A6040020A00400204D5154541C
:1009A000555345524346475F4552524F520D0A0038
:1009B0004D515454555345524346475F5253505539
:1009C0006E4B6E6F770D0A000F0100204D5154548D
:1009D000434C49454E5449445F4E6F5253500D0AA3
:1009E000000000004D515454434C49454E54494475
:1009F0005F4552524F520D0A000000004D515454B1
:100A0000434C49454E5449445F525350556E4B6ECA
:100A10006F770D0A000000008E0100204D515454E4
:100A2000434F4E4E5F4E6F5253500D0A0000000070
:100A30004D515454434F4E4E5F4552524F520D0A42
:100A4000000000004D515454434F4E4E5F525350DE
:100A5000556E4B6E6F770D0A0000000049735769A1
:100A60004669436F6E6E65637465645F5061726161
:100A70004572726F720D0A00C0C62D00C6040020B8
:100A80008C02002057697463685265706F727454E9
:100A90006F53656E645F506172614572726F720D63
:100AA0000A000000B0040020576946695F4469737A
:100AB000636F6E6E6563740D0A000000B70400205A
:100AC000524F5554494E455F52784F4B0D0A000026
:100AD000524F5554494E455F52784552524F520D30
:100AE0000A000000524F5554494E455F5278556EEA
:100AF0006B6E6F776E0D0A0057694669497373759F
:100B0000655F57616974696E6752780D0A0000006D
:100B100057694669436F6E6E65637465640D0A00BC
:100B200004A10A4801F027FE00200949C87000BF4F
:100B300000BF10BD5769466949737375655F527888
:100B4000556E6B6E6F770D0A000000000044004088
:100B50002800002010B57F2222A1264800F0E6FCE4
:100B60007F2225A1234800F0E1FC7F222349214870
:100B700000F0DCFC7F2222A11E4800F0D7FC7F227F
:100B800022A1294800F0D2FC7F2228A1264800F0AB
:100B9000CDFC7F2226A1354800F0C8FC7F2234A17D
:100BA000324800F0C3FC7F220EA1344800F0BEFCA6
:100BB0007F2233A1314800F0B9FCFF2209A132485D
:100BC00000F0B4FCFF2231492F4800F0AFFC7F2237
:100BD00004A12F4800F0AAFC7F222EA12C4800F08F
:100BE000A5FC10BD415141513235303332393031DD
:100BF0000000000090000020222C22004C3700084A
:100C0000222C302C302C22220D0A0000415141515F
:100C100032353033323930315F305F305F3230322D
:100C200035303332393037000F010020220D0A00F1
:100C3000616430636535633731662E7374312E69B4
:100C40006F7464612D6465766963652E636E2D6EC5
:100C50006F7274682D342E6D79687561776569637C
:100C60006C6F75642E636F6D000000008E010020B4
:100C7000222C313838332C310D0A00000D020020AF
:100C8000222C300D0A0000008C0200209037000852
:100C9000210400202F7379732F636F6D6D616E6473
:100CA000732F726573706F6E73652F7265717565E2
:100CB00073745F69643D000010B54FF4004000F0AC
:100CC0001BF8012804D1C00300F010F800F032FF37
:100CD00010BD10B5102000F00FF8012804D110202D
:100CE00000F004F800F0B4FA10BD000001490860FB
:100CF0007047000014040140014600200022074B09
:100D00001B6803EA0102054B14331B680B4013B147
:100D10000AB1012000E000207047000000040140FB
:100D2000002123498279002A3AD00A4612680368D2
:100D30009A430B461A600A1D126803689A430B1DFA
:100D40001A60027911440A6803681A430A60184A53
:100D50000832126803689A43154B08331A601A1D4B
:100D6000126803689A43124B0C331A604279102AB6
:100D70000ED11A1F126803681A430D4B08331A600C
:100D80001A1D126803681A43094B0C331A600DE0F0
:100D90000749427911440A6803681A430A6005E06A
:100DA000027911440A6803689A430A607047000098
:100DB000000401400021016001710C2141710021FA
:100DC0008171704730B500228B071C0F0F2303FA87
:100DD00004F20B4B8C1053F824309343084C8D10C5
:100DE00044F8253023468C1053F824308C07240F08
:100DF00000FA04F42343024C8D1044F8253030BD32
:100E0000080001402DE9F04102460025002600209F
:100E100000230024002791F803C00CF00F0591F87F
:100E200003C00CF0100CBCF1000F03D091F802C00D
:100E30004CEA050591F800C0BCF1000F31D01468F0
:100E400000202BE04FF0010C0CFA00F3B1F800C0C9
:100E50000CEA03069E4220D183004FF00F0C0CFADF
:100E600003F7BC4305FA03FC4CEA040491F803C001
:100E7000BCF1280F06D14FF0010C0CFA00FCC2F8AF
:100E800014C00AE091F803C0BCF1480F05D14FF03F
:100E9000010C0CFA00FCC2F810C0401C0828D1D389
:100EA0001460B1F800C0BCF1FF0F34DD54680020BD
:100EB0002EE000F1080C4FF0010808FA0CF3B1F82D
:100EC00000C00CEA03069E4221D183004FF00F0CB4
:100ED0000CFA03F7BC4305FA03FC4CEA040491F84E
:100EE00003C0BCF1280F05D100F1080C08FA0CF87A
:100EF000C2F8148091F803C0BCF1480F07D100F18B
:100F0000080C4FF0010808FA0CF8C2F81080401CD9
:100F10000828CED35460BDE8F081024600209368D3
:100F20000B400BB1012000E00020704701617047C9
:100F30004FF6FF710180022181700421C17070475A
:100F40000AB1016100E04161704700BFFEE700BFE8
:100F5000FEE7000010B590B004464FF4004001F0E9
:100F60009DFA0BA8FFF773FA01208DF831000020DD
:100F70000E904FF460200D9000200B908DF83C40B7
:100F800001208DF830000BA92148FFF7C7F9012196
:100F90001F48FFF7A3F96846FFF78EFA1C484C304C
:100FA000009080150690002004901A4801904FF49C
:100FB00080600790802005900020029003940A90A2
:100FC00020200890C001099069461348FFF756FA9F
:100FD00001210F48FFF777F901210F48FFF742FA87
:100FE0000B48FFF71FFA00BF0948FFF78CF90128EB
:100FF000FAD00748FFF726FA00BF0548FFF779F94E
:101000000128FAD001210248FFF711FA10B010BDF3
:1010100000240140480500200800024008B5684649
:10102000FFF786FF10208DF803004002ADF80000A6
:1010300003208DF8020069460248FFF7E3FE00F046
:1010400003F808BD000C014010B54FF400510248F0
:10105000FFF76CFF10BD0000000C014010B5064802
:101060000078012802D100F0EFF804E0024800788F
:1010700008B900F0E5F810BD1005002010B50C48C7
:10108000006840B90B4801F0A2FC0B490968401AFE
:101090000A4908600AE0074801F099FC42F2107121
:1010A000084405490968401A0449086010BD000059
:1010B000F8040020000400400C0500200805002072
:1010C00010B5044801F083FC03490860002003497F
:1010D000086010BD000400400C050020F80400204A
:1010E00004480078012804D103480068401C0249E4
:1010F00008607047F4040020F80400207CB500204C
:101100000090019000240026002500BF15E000217A
:101110000FE01D4A165D1DF80020C1F1070306FA15
:1011200003F31A43D2B20DF80020621CD4B24A1C59
:10113000D1B20729EDDD411CC8B20428E7DD00204B
:1011400005E01DF800102944CDB2411CC8B20328A7
:10115000F7DD9DF80400A84212D1002005E01DF83B
:1011600000100A4A1154411CC8B20328F7DD074891
:10117000807807490870054800780649087001E042
:1011800000F05EF87CBD0000900700200405002000
:10119000120500201305002038B504460D46142022
:1011A0001749C87010200880032088701548FFF781
:1011B00029FE04210020FFF705FE0122102111481D
:1011C000FFF7BEFE102010490860002008710820BB
:1011D0004871002088710846FFF7A2FD0A208DF8AB
:1011E000000000208DF801008DF8020001208DF82C
:1011F0000300684600F0F0FF00F0F8F838BD00008A
:10120000E804002000080140EC04002010B50A4862
:10121000007801280FD109480078401C0749087060
:1012200008460078042806DBFFF718FF0020034972
:1012300008700149087010BDFC040020140500204E
:1012400010B500F099F810BD10B500F095F810BD7C
:1012500010B53E480078062874D2DFE800F0030499
:10126000730D205F6FE0012039490870FFF728FFF8
:1012700003203649087066E0FFF700FF3548006834
:10128000642809D333480068B42805D804202F49BE
:101290000870FFF715FF01E0FFF7D2FF53E0FFF7FB
:1012A000EDFE2C4800683C2818D32A4800685A28CC
:1012B00014D8FFF705FF0021274802780078401C6A
:1012C000254B18702548815418460078282824DBBF
:1012D00005201E49087000F06BF81EE01D480068EC
:1012E0006E2818D31B480068822814D8FFF7E8FE40
:1012F0000122194801780078401C174B18701748D4
:10130000425418460078282807DB05200F4908704A
:1013100000F04EF801E0FFF793FF14E0FFF7AEFE98
:101320000C48006828280AD30A4800683C2806D8D8
:1013300001200B490870FFF7E1FE02E002E0FFF731
:101340007FFF00E000BF00BF10BD000007050020C8
:10135000F40400200805002011050020900700205B
:101360001005002010B500200249087000F016F8A2
:1013700010BD00001105002010B500F023F800207A
:1013800003490870034908700349087010BD000044
:1013900007050020F40400201005002010B50C20E3
:1013A000024948710846FFF7BBFC10BDEC04002061
:1013B00010B50820024948710846FFF7B1FC10BD7E
:1013C000EC04002010B548200549C8700548FFF717
:1013D00019FD0120044988710846FFF7A1FC10BDE2
:1013E000E804002000080140EC04002010B50020B3
:1013F000054988710846FFF793FC10200349C8701F
:101400000348FFF7FFFC10BDEC040020E8040020B7
:101410000008014010B50120074908700020074965
:101420000870FFF7E3FF002005490870FFF79AFFF7
:1014300001200449087010BDFD040020FE040020B6
:1014400007050020FC04002010B51A480078012888
:101450002ED119480068401C1749086017480078C9
:1014600010B1012823D10DE0FFF7C0FF00221021A9
:101470001348FFF765FD01201049087000200E4950
:10148000086014E00C48006800EB800044F620611E
:1014900088420BD3FFF796FF01200A490870FFF737
:1014A0007DFF0020054908700249087000BF00BF99
:1014B00010BD0000FD04002000050020FE040020F7
:1014C000000801400705002038B5044618208DF8B3
:1014D00003004FF48060ADF8000003208DF8020097
:1014E00069460F48FFF78EFC0E4801F0EEFB002026
:1014F0000C498881602008800020C881488188804C
:1015000001204880601EC880074801F039FB012196
:10151000054801F04DFA0821034801F081FB38BD70
:1015200000080140D8070020002C01402DE9F041BF
:1015300005460C4616462846FEF76AFE87B2204648
:10154000FEF766FE1FFA80F8F01B404503DA4FF005
:10155000FF30BDE8F081002004E0215C3A18A95476
:10156000411CC8B2215C0029F7D10120F1E72DE927
:10157000F04104460D460026002003E035F8101027
:101580000E44401CA042F9DB204602F03BF807461F
:10159000304602F037F88046394601F051FFBDE889
:1015A000F0812DE9F04107460D4607B11DB94FF016
:1015B000FF30BDE8F081287808B90120F9E74FF441
:1015C00080783846FEF724FE06462846FEF720FEC1
:1015D0000446B6F5807F02D8B4F5807F02D94FF07B
:1015E000FF30E6E7A64201D20020E2E7002112E048
:1015F0000122002008E00B18FB5C15F800C06345D1
:1016000001D0002202E0401CA042F4D300BF0AB186
:101610000120CEE7491C301B8842E9D20020C8E7F0
:1016200010B50B46002105E04C1C30F8144020F8A2
:101630001140491C541E8C42F6DC511E20F811301A
:1016400010BD000038B504466846FFF771FC18204D
:101650008DF803004FF48070ADF8000003208DF882
:10166000020069460F48FFF7CDFB0F4801F02DFB44
:1016700000200D498881602008800020C8814881B1
:10168000888001204880601EC880084801F0C2F9A7
:101690000121064801F08CF90821044801F006FAFE
:1016A00038BD000000080140B8070020002C0140B0
:1016B00008B56846FFF73CFC00208DF803000220C7
:1016C000ADF8000003208DF8020069460448FFF7DA
:1016D00099FB0523042209210248FEF747FE08BDB5
:1016E000000C01400024014038B5044618208DF854
:1016F00003004FF40060ADF8000003208DF80200F5
:1017000069460F48FFF77EFB0E4801F0DEFA002025
:101710000C498881602008800020C8814881888029
:1017200001204880601EC880074801F083FA01212B
:10173000054801F03DF90821034801F0B9FA38BD28
:1017400000080140E8070020002C014008B5684669
:10175000FFF7EEFB00208DF803000120ADF800003C
:1017600003208DF8020069460448FFF74BFB052370
:10177000032208210248FEF7F9FD08BD000C0140D4
:10178000002401407FB505460C461C4801F03CF999
:1017900001A801F0F7FA0020ADF80A00ADF8060044
:1017A0004720ADF8040044F61F60ADF808000020A3
:1017B0008DF80C0001A9114801F092FA01210F489F
:1017C00001F0E4F8012211460C4801F014F901215E
:1017D0000A4801F0CFF819208DF8000001208DF89B
:1017E00003008DF801508DF80240684600F0F4FCCB
:1017F0000021024801F0D0F87FBD0000002C01401C
:101800007FB505460C464FF0804001F0FDF801A879
:1018100001F0B8FA0020ADF80A00ADF80600472044
:10182000ADF804000420ADF8080000208DF80C008D
:1018300001A94FF0804001F053FA0121880701F01F
:10184000A5F801221146900701F0D5F8012188077B
:1018500001F090F81C208DF8000001208DF80300A5
:101860008DF801508DF80240684600F0B5FC00216B
:101870004FF0804001F090F87FBD000010B50446A5
:1018800007480088401C0649088008460088A04296
:1018900005DB0020088000F0FDF9FFF7BBFD10BD5F
:1018A0002400002010B5044606480088401C054965
:1018B000088008460088A04203DB0020088000F072
:1018C00023FC10BD260000207FB505460C461A48B3
:1018D00001F09AF801A801F055FA0020ADF80A00CD
:1018E000ADF806004720ADF8040042F20F70ADF8E5
:1018F000080000208DF80C0001A90F4801F0F0F954
:1019000001210D4801F042F8012211460A4801F078
:1019100072F81D208DF8000001208DF803008DF86D
:1019200001508DF80240684600F056FC0021024844
:1019300001F032F87FBD0000000400407FB505468D
:101940000C461A4801F060F801A801F01BFA0020CB
:10195000ADF80A00ADF8060040F2CF20ADF8040063
:101960000920ADF8080000208DF80C0001A90F48EF
:1019700001F0B6F901210D4801F008F801221146E5
:101980000A4801F038F81E208DF8000001208DF87B
:1019900003008DF801508DF80240684600F01CFCF1
:1019A0000021024800F0F8FF7FBD00000008004061
:1019B00010B504460121204600F0EEFF10BD0000E6
:1019C00008B510208DF803002020ADF8000003209A
:1019D0008DF8020069460348FFF714FA00F004F896
:1019E00008BD0000000C014010B501222021024872
:1019F000FFF7A6FA10BD0000000C014008B56846CC
:101A0000FFF796FA10208DF803000002ADF80000F1
:101A100003208DF8020069460248FFF7F3F900F051
:101A200003F808BD000C014010B54FF48051024886
:101A3000FFF77CFA10BD0000000C014038B50446E9
:101A40006846FFF775FA18208DF803004FF4007010
:101A5000ADF8000003208DF8020069460F48FFF73B
:101A6000D1F90F4801F031F900200D49888160203B
:101A700008800020C8814881888001204880601E3D
:101A8000C880084801F01CF80121064800F090FFCA
:101A90000821044801F066F838BD00000008014044
:101AA000C8070020002C014008B56846FFF740FA3F
:101AB00000208DF803000220ADF8000003208DF80F
:101AC000020069460448FFF79DF90523022201211F
:101AD0000248FEF74BFC08BD00080140002401400D
:101AE00010B50F480078032804DA0D480078401C30
:101AF0000B4908700B48008881B203220A48FFF79F
:101B00008FFD094906480078FFF731FD044601F0D2
:101B100059FD0649088000F07DF80549088010BD90
:101B2000340500202405002036050020280500206B
:101B30002A05002010B515480078012824D1144842
:101B4000007858B9134800F042FF134908600C2090
:101B500000F07AF801200E49087015E00C48007872
:101B6000012811D10B4800F032FF0B490968401AD7
:101B70000A490860FFF7B4FF082000F065F800206C
:101B8000034908700149087010BD000022050020BB
:101B90002E05002000040040300500202405002010
:101BA0007CB505460C4601A8FFF7C2F948208DF820
:101BB00007004FF40040ADF8040003208DF8060044
:101BC00001A91248FFF71EF90F210120FFF7FAF8CB
:101BD0000F48FFF7EFF84FF400400D49086001206F
:101BE000887100200871082048710846FFF798F8AE
:101BF00028208DF8000001208DF803008DF8015099
:101C00008DF80240684600F0E7FA7CBD000C014008
:101C1000180500202DE9F0410848008801F0F2FC89
:101C2000804601F0E1FB0646054A064B01F0DEFA6C
:101C3000044601F0ADFA80B2BDE8F081280500202D
:101C4000C1CAA145B6F3C53F10B504460248447168
:101C5000FFF766F810BD00001805002010B50B480E
:101C60000078012811D100F037F809480078401CAD
:101C70000749087008460078022806DB00F014F8CF
:101C80000020024908700249087010BD200500209C
:101C90002D05002001200249087002490870704794
:101CA000200500202105002010B500224FF48051AE
:101CB0000648FFF745F9012005490870002005494D
:101CC00008700820FFF7C0FF10BD000000080140A9
:101CD000220500202305002010B5064800780128C1
:101CE00007D1012201030448FFF72AF90020014926
:101CF000087010BD210500200008014008B56846A5
:101D0000FFF716F910208DF803000002ADF800006F
:101D100003208DF8020069460448FFF773F800229B
:101D20004FF480510148FFF70BF908BD000801404E
:101D300010B50121042000F0DDFB14200449C87017
:101D400020200880032088700248FFF75BF810BD50
:101D5000C8040020000801400020144A108000BF81
:101D600009E0134A125C8240104B1B881A430F4B48
:101D70001A80421CD0B21028F3DB0C4800880122E4
:101D8000B2EBE03F05D109480088C043401C074A38
:101D90001080064800880011064A10800F21034871
:101DA00000880840044A108070470000DE040020CC
:101DB00048070020E0040020E204002010B5C048DD
:101DC000C0490978405C072805D2DFE800F073A617
:101DD000EA05FCFB040071E1BB480068401CBA49FD
:101DE0000860BA48BA490978405C30B1012817D078
:101DF00002282AD003285BD144E001222021B548E3
:101E0000FFF79EF800222021B248FFF799F8002042
:101E1000AD490860AE480078401CAD49087047E005
:101E2000A948006800EB8000B0F5FA7F0CD30122CE
:101E30002021A848FFF784F80020A3490860A4489F
:101E40000078401CA249087032E09F48006800EB0F
:101E50008000A1490978884213D320219D48FFF7CB
:101E60005CF858B901209D49087000209649086027
:101E700097480078401C9649087002E00020974976
:101E8000087015E09448007840F23A21081A8E490B
:101E9000096801EB8101884209D800208A4908605D
:101EA0008B49087087480078401C8649087000BF3D
:101EB00000BF03E184480068401C834908608848EB
:101EC00088490978405C10B1012824D10DE0002236
:101ED00020218048FFF734F800207B4908608148C2
:101EE0000078401C7F49087015E07748006800EBD7
:101EF00080003C280ED3012220217648FFF720F8ED
:101F0000002071490860774908706E480078401CCD
:101F10006C49087000BF00BFD0E06B480068401CEF
:101F200069490860704871490978405C20B101280E
:101F300010D0022833D121E0002220216548FEF78D
:101F4000FFFF00206049086068480078401C67492E
:101F5000087024E05C48006800EB80000A280CD37D
:101F6000012220215B48FEF7EBFF00205649086064
:101F70005E480078401C5D49087010E052480068D7
:101F800000EB8000322809D300204F4908605749F0
:101F900008704C480078401C4A49087000BF00BFD8
:101FA0008CE049480068401C474908605048514946
:101FB0000978405C40B1012814D0022826D00328BB
:101FC0005CD14AE071E05BE0002220214148FEF74D
:101FD000B7FF00203C49086046480078401C45494E
:101FE00008704BE03848006800EB800005280CD3EF
:101FF000012220213748FEF7A3FF00203249086064
:102000003C480078401C3B49087037E02E48006887
:1020100000EB800005281FD320212E48FEF77DFF0E
:1020200048B10121344802780078401C324B1870C6
:102030003248815408E000212F4802780078401C83
:102040002D4B18702D48815400201F4908602948E5
:102050000078401C2749087010E01B48006800EB1E
:1020600080002D2809D300201749086021490870F5
:1020700014480078401C1349087000BF00BF1DE0E1
:1020800011480068401C104908600846006800EBD1
:1020900080001B49884207D300200B49086009488B
:1020A0000078401C0749087008E0FFF755FE012042
:1020B0001449087000200349087000BF00BF10BD1C
:1020C000C0360008CC040020D00400203D370008B2
:1020D000D504002000080140D6040020D7040020C9
:1020E00041370008D804002043370008D9040020F5
:1020F00046370008DA040020DC04002048070020EE
:10210000B0710B00D404002001200C4908700C4968
:10211000087000200B49088082200B4908700020BD
:102120000A4908700A4908700A4908700A49087083
:102130000A4908700A49087070470000CC04002062
:10214000DB040020E4040020D6040020D404002096
:10215000D5040020D8040020D9040020DA0400208F
:10216000DC04002010B50D480078012814D10C487B
:102170000088401C0A4908800846008840F2712106
:1021800048430849B1EB001F06DC00F00DF80020C1
:10219000034908800149087010BD0000DB040020DD
:1021A000E404002080841E0010B505480078012852
:1021B00003D104480078012801D000F005F810BDD3
:1021C000D4040020D7040020002001490870704783
:1021D000CC0400207047000070B5002100230F22BE
:1021E000C47804B3154C246804F4E064C4F5E064D6
:1021F000210AC1F10403CA40447804FA03F1847847
:102200001440214309010E4C0678A155047804F0CE
:102210001F050124AC4005786D11AD0005F1E025E6
:10222000C5F8004109E0047804F01F050124AC4022
:10223000044D0678761145F8264070BD0CED00E09F
:1022400000E400E080E100E002490143024A11603D
:10225000704700000000FA050CED00E070B50024A6
:102260000EE00021204600F0E6F8002504E0002002
:1022700000F002F9681CC5B2802DF8DB601CC4B206
:10228000082CEEDB70BD000008B50121102000F025
:1022900031F914208DF8030003208DF802004FF46B
:1022A0008040ADF8000069460A48FEF7ABFD4FF4E8
:1022B0000040ADF8000069460648FEF7A3FD012284
:1022C00091030448FEF73CFE0122D1030148FEF7CA
:1022D00037FE08BD0010014070B50546002415E02A
:1022E0008020204100EA05024FF400410E48FEF72D
:1022F00027FE012291030C48FEF722FE00224FF434
:1023000080410948FEF71CFE601CC4B2082CE7DBC4
:10231000012291030448FEF713FE00224FF480418E
:102320000148FEF70DFE70BD0010014010B50122FE
:10233000D1030A48FEF704FE012291030748FEF785
:10234000FFFD00224FF400410448FEF7F9FD002292
:102350004FF480410148FEF7F3FD10BD001001402D
:1023600010B500224FF400410648FEF7E9FD0122B6
:1023700091030448FEF7E4FD0122D1030148FEF772
:10238000DFFD10BD0010014070B5002406E00025FF
:1023900000E06D1CB5F57A7FFBD3641CB4F57A7F41
:1023A000F5D3FFF771FFAE2000F056F8D52000F00E
:1023B00053F8802000F050F8A82000F04DF83F209E
:1023C00000F04AF8D32000F047F8002000F044F86D
:1023D000402000F041F8A12000F03EF8C82000F0B5
:1023E0003BF8DA2000F038F8122000F035F88120B0
:1023F00000F032F8CF2000F02FF8D92000F02CF8B0
:10240000F12000F029F8DB2000F026F8302000F061
:1024100023F8A42000F020F8A62000F01DF88D205D
:1024200000F01AF8142000F017F8AF2000F014F8AC
:10243000FFF714FF70BD70B505460C4645F0B000BF
:1024400000F00AF8102141EA141000F005F804F039
:102450000F0000F001F870BD10B50446FFF766FFED
:102460007820FFF739FF0020FFF736FF2046FFF7FF
:1024700033FFFFF775FF10BD10B50446FFF756FF99
:102480007820FFF729FF4020FFF726FF2046FFF7BF
:1024900023FFFFF765FF10BD7047000001460020D5
:1024A000034A506820F440400843506070470000E1
:1024B0000010024029B1064A52690243044B5A6196
:1024C00004E0034A52698243014B5A61704700009D
:1024D0000010024029B1064AD2690243044BDA6176
:1024E00004E0034AD2698243014BDA61704700007D
:1024F0000010024029B1064A92690243044B9A61D6
:1025000004E0034A92698243014B9A6170470000DC
:102510000010024030B500210022002400232D4D80
:102520006D6805F00C0121B1042905D0082923D1DB
:1025300005E0294D056022E0274D05601FE0254D8F
:102540006D6805F47012234D6D6805F48034022522
:1025500005EB92421CB9214D554305600BE01D4D22
:102560006D6805F400351DB11C4D5543056002E052
:10257000194D5543056002E0174D056000BF00BFCF
:10258000144D6D6805F0F0010909154D6B5C056887
:10259000DD4045600F4D6D6805F4E061090A104D9E
:1025A0006B5C4568DD4085600A4D6D6805F46051DF
:1025B000C90A0B4D6B5C4568DD40C560054D6D6813
:1025C00005F44041890B074D6B5CC568B5FBF3F51D
:1025D000056130BD0010024000127A0000093D0084
:1025E0000000002010000020704700002DE9F04797
:1025F0008146884616461C46DDE9087A484600F0C2
:10260000D7FC0546307820B101280FD0022830D100
:102610001FE01A4810F8080038B901203070002077
:1026200020702278501C2070BD5423E00D2D06D15F
:102630002278501C2070BD540220307008E02178B0
:10264000AAF10100814203DA2278501C2070BD54A7
:1026500010E00A2D0CD12278501C2070BD540020AF
:1026600030702178785420700120044901F8080066
:1026700000E000BF00BFBDE8F08700002800002098
:102680002DE9FF4F83B004468A4693462D48844285
:1026900007D12D4D2F4606154FF400684FF027093E
:1026A00009E02A48844206D1294D2F4604264FF0DE
:1026B00008084FF0260901A8FEF73AFC18208DF80B
:1026C0000700ADF8046003208DF8060001A9284634
:1026D000FEF798FB48208DF80700ADF80480032032
:1026E0008DF8060001A93846FEF78CFB194800F06A
:1026F00068FC1848C0F800A00020164988810C200A
:10270000488100200881C8808880204600F0E4FBD2
:10271000012240F22551204600F0B9FB8DF80890C7
:1027200001208DF80B008DF809B006988DF80A008D
:1027300002A8FFF751FD0121204600F065FB07B01C
:10274000BDE8F08F00480040000C0140004400400C
:10275000000801405005002070B504460D4600BF3A
:102760008021204600F05CFB0028F9D02946204655
:1027700000F023FC70BD70B505460C4604E014F86B
:10278000011B2846FFF7E8FF20780028F7D170BD2D
:1027900010B500F001F810BD0CB5002001900090BC
:1027A0003348006840F480303149086000BF304849
:1027B000006800F4003000900198401C01900098DF
:1027C00018B90198B0F5A06FF1D12948006800F45C
:1027D000003010B10120009001E00020009000982E
:1027E000012843D12348006840F0100021490860C7
:1027F0000846006820F0030008600846006840F0C2
:10280000020008601A484068194948600846406854
:1028100048600846406840F4806048600846406868
:1028200020F47C1048600846406840F4E810486096
:102830000846006840F08070086000BF0C480068DF
:1028400000F000700028F9D00948406820F003002B
:10285000074948600846406840F00200486000BFF1
:102860000348406800F00C000828F9D10CBD0000B6
:1028700000100240002002407047000010B51348CD
:10288000006840F00100114908600846406810499E
:1028900008400E494860084600680E4908400B4948
:1028A00008600846006820F48020086008464068F8
:1028B00020F4FE0048604FF41F008860FFF768FFB7
:1028C0004FF000600449086010BD00000010024095
:1028D0000000FFF8FFFFF6FE08ED00E010B5012153
:1028E000044800F077F8012803D10121014800F0E5
:1028F00050F810BD002C014010B50121880700F0F0
:1029000069F8012809D10121800700F042F8FFF79A
:10291000A5F9FEF799FDFFF751FA10BD10B5012199
:102920000B4800F057F8012810D10121084800F0A9
:1029300030F86420FEF7A2FFFEF7D2FBFEF766FC3C
:102940004FF49670FEF7AEFFFFF70CFC10BD0000D1
:102950000004004010B50121054800F03BF80128B3
:1029600005D10121024800F014F8FDF7D7FD10BD94
:102970000008004021B1028842F08002028004E099
:1029800002884FF67F731A4002807047CA43028262
:102990007047CA430282704721B1028842F00102A7
:1029A000028004E002884FF6FE731A4002807047EE
:1029B00031B1B0F8442042F40042A0F8442005E0D0
:1029C000B0F84420C2F30E02A0F84420704701463C
:1029D000888C704730B50246002000230024158AF9
:1029E00005EA0103958905EA010413B10CB1012040
:1029F00000E0002030BD1AB183890B43838102E0DF
:102A000083898B438381704701894FF6F8721140A7
:102A10000181704770B5002400220023058C4FF619
:102A2000FE7635400584028C8388048B4FF68F75C3
:102A30002C40B51E2C400D882C43751E2A400D8954
:102A40002A434D882A43144DA8420BD0134DA84267
:102A500008D0134DA84205D0124DA84202D0124D05
:102A6000A84213D14FF6F7752A404D892A434FF6F5
:102A7000FB752A408D882A434FF6FF652B404FF6A1
:102A8000FF552B408D892B43CD892B4383800483B5
:102A9000CD888586028470BD002C01400034014041
:102AA0000040014000440140004801400A46002126
:102AB000018B4FF6F77319401143018370470000F3
:102AC00070B5002400220023058C4FF6EF763540C8
:102AD0000584028C8388048B48F6FF752C404FF6E2
:102AE000FF452C400D884FF6FF7606EA05252C435E
:102AF0004FF6DF752A400D8906EA05152A434D88F1
:102B000006EA05152A43154DA84202D0144DA842E5
:102B10001DD14FF67F752A404D894FF6FF7606EAA4
:102B200005152A434FF6BF752A408D8806EA05151C
:102B30002A434FF6FF352B404FF2FF752B408D890E
:102B400006EA85052B43CD8906EA85052B4383805C
:102B50000483CD880587028470BD0000002C0140ED
:102B6000003401400A460021018B4FF2FF731940E7
:102B70004FF6FF7303EA02231943018370470000F5
:102B800070B5002400220023058C4FF6FF66354007
:102B90000584028C8388848B4FF68F752C404FF60A
:102BA000FC752C400D882C434FF6FF552A400D89AB
:102BB0004FF6FF7606EA05252A434D8806EA0525E5
:102BC0002A43154DA84202D0144DA8421DD14FF200
:102BD000FF752A404D894FF6FF7606EA05252A4300
:102BE0004FF6FF352A408D8806EA05252A434EF622
:102BF000FF752B404DF6FF752B408D8906EA0515B4
:102C00002B43CD8906EA05152B4383808483CD8829
:102C10008587028470BD0000002C01400034014013
:102C20000A460021818B4FF6F773194011438183C7
:102C30007047000070B5002200230024058C4EF67A
:102C4000FF7635400584038C8488828B48F6FF75B7
:102C50002A404FF6FF452A400D884FF6FF7606EAD8
:102C600005252A434DF6FF752B400D8906EA0535EB
:102C70002B434D8806EA05352B430B4DA84202D065
:102C80000A4DA84208D14BF6FF752C408D894FF6AE
:102C9000FF7606EA85152C4384808283CD88A0F8D0
:102CA0004050038470BD0000002C014000340140FE
:102CB0000A460021818B4FF2FF7319404FF6FF73D4
:102CC00003EA022319438183704700210180418078
:102CD0008180C180018141818181C1817047000073
:102CE000002202881D4B98420ED01D4B98420BD0FB
:102CF000B0F1804F08D01B4B984205D01A4B984238
:102D000002D01A4B984204D14FF68F731A404B8869
:102D10001A43174B984207D0164B984204D04FF6EF
:102D2000FF431A40CB881A4302808B8883850B8827
:102D300003850A4B98420BD0094B984208D00E4BA2
:102D4000984205D00D4B984202D00D4B984201D1CC
:102D50000B7A03860123838270470000002C014018
:102D6000003401400004004000080040000C004016
:102D700000100040001400400040014000440140A9
:102D8000004801404FF6FF71818000210180C18021
:102D900041800172704700001CB540F2255108487F
:102DA00000F04BF801280AD1F4240648064B074AE4
:102DB0000221CDE900040248FFF718FC00BF1CBD4A
:102DC00000440040540600202F0000202E00002068
:102DD0001CB540F22551084800F02FF801280AD10F
:102DE000F4240648064B074A0321CDE900040248B3
:102DF000FFF7FCFB00BF1CBD004800406005002041
:102E00002D0000202C00002021B1828942F40052C4
:102E1000828104E082894DF6FF731A4082817047F7
:102E200002460020B1F5007F00D100BF13880B409F
:102E30000BB1012000E00020704770B5024600246D
:102E400000230025002040F66A16B14200D100BFE1
:102E5000C1F3421501F01F03012606FA03F3012D09
:102E600002D19689334006E0022D02D1168A334002
:102E700001E0968A33400C12012606FA04F4168803
:102E8000344013B10CB1012000E0002070BDF0B55A
:102E90000346002400260025002040F66A17B942A8
:102EA00000D100BF1846C1F3421401F01F060127EC
:102EB00007FA06F5012C01D10C3004E0022C01D1F7
:102EC000103000E014301AB107682F43076002E0A9
:102ED0000768AF430760F0BD2DE9F04786B00546AF
:102EE0000E460024A24600BFA1460027B08900B1CB
:102EF00000BF2F462C8A4CF6FF700440F088044334
:102F00002C82AC894EF6F3100440B0883189084316
:102F1000718908430443AC81AC8A4FF6FF400440FA
:102F2000B0890443AC8201A8FFF7F4FA1F48874236
:102F300002D1DDF810A001E0DDF80CA0A88900F4B2
:102F4000004040B10AEBCA0000EB0A1031684900AA
:102F5000B0FBF1F807E00AEBCA0000EB0A10316899
:102F60008900B0FBF1F86420B8FBF0F004012009FF
:102F7000642101FB1089A88900F4004040B132208F
:102F800000EBC900B0FBF1F000F00700044308E0DB
:102F9000322000EB09106421B0FBF1F000F00F00CB
:102FA00004432C8106B0BDE8F087000000380140E2
:102FB00001468888C0F308007047C1F30802828088
:102FC00070474FF41651016000218180C18001815A
:102FD0000C21418100218181704700BFFEE7000084
:102FE0004FF47A70FDF776FA01214804FFF772FA80
:102FF00001218804FFF76EFA0121C802FFF77AFA6F
:1030000001210846FFF766FA01210220FFF762FA64
:1030100001210420FFF75EFA01210420FFF76AFA7C
:1030200001210820FFF766FA01211020FFF762FA5C
:1030300001210846FFF75EFA01214802FFF75AFA1C
:1030400001210846FFF736FA4FF4A060FFF7FCF8BD
:10305000FEF7B6FC00231A464FF4E1313C48FFF777
:103060000FFB3CA13A48FFF786FBFFF78DF9FFF70E
:10307000F5F803210846FEF785FB01210846FEF717
:10308000BFFB01210846FEF71FFC00210846FEF7A2
:1030900055FC3448FEF78CFC4FF08040FEF788FC6E
:1030A0003148FEF785FC3148FEF782FCFEF740FE12
:1030B00001210846FEF770F8FEF720FE02210846BF
:1030C000FEF76EFD4FF4FA70FEF7BCFA2848006870
:1030D00000F078FA84B22046FEF7B0FC254800687C
:1030E00000F070FA84B22046FEF7EEF9224800683C
:1030F00000F068FA84B22046FEF7F6FAFEF7D4FC38
:10310000FEF724FBFEF7D4FA0420FDF723FFFDF7BA
:1031100085FFFEF773FC00231A464FF4E131174890
:10312000FFF7AEFA12E01648C07801280AD115A1BF
:103130000748FFF720FB15490548FFF71CFB002057
:103140000F49C8704FF47A70FDF7D0F9EBE7000033
:103150000044004053657269616C325F4F6E0D0A26
:1031600000000000002C0140000400400008004066
:103170003C05002040050020440500200048004098
:103180002800002038363A0D0A00000060050020B3
:103190004FEA1153A3F58063D3F11E03A8BFD3F107
:1031A000200C08DB4FF0004242EAC12252EA5052A2
:1031B00032FA03F0704709420BD4102BC4BF002031
:1031C000704703F5787CBCF1FF3F05D04FF0FF302E
:1031D00070474FF00000704770B500F0B1F800BFC5
:1031E0004992248000207047F0E70000DFF848C1D2
:1031F00070B51CEA111E1EBF1CEA13159EEA0C0FC7
:1032000095EA0C0F00F06F8081EA030423EA4C1367
:103210004EEAD47E21EA4C1141F4801143F480132C
:10322000AE44A1FB024CA0FB0365AEF17F7E3619D4
:1032300055EB0C05A1FB034C4CF10003A0FB021C59
:1032400016EB0C06654153F10003094218BF46F026
:10325000010613F4007F0BD14FEA03314FEA05302A
:10326000340341EA155140EA16506FF003020AE0B8
:103270004FEAC3214FEAC520F40241EA555140EA22
:1032800056506FF0020202EB2E4201EB025585EA26
:10329000CE710AD05FEA440C18BF24F0004450F10C
:1032A000000041F1000120EAD47040F2FE7C62454A
:1032B00000D270BDA84214BF4FF080444FF040448C
:1032C000002E08BF0024BEF1806FA8BFA1F1C0414D
:1032D000BDE8704080F282804FF0000001F1C041F3
:1032E00001F0004170479EEA0C0F0CEA131518BF5D
:1032F00095EA0C0F06D04FF0000081EA030E0EF0A5
:10330000004170BD00F01CF88900013E00F007B8D4
:1033100000F009B84FEA430C5FEA5C5C08D081EA30
:10332000030100F05BB84FEA410C5FEA5C5CF6D148
:103330004FF00000014970470000FF070000F87FD0
:103340000EF1020E2EF0030E5EF8046B364205D429
:10335000012A43EB030515F5001F12D8012841EBA4
:10336000010C1CF5001F0CD80ED14FEAD17C15F5CD
:10337000001F0CEB4C0C0CF1020C08BF4CEBD37C87
:1033800004E04FF0080C01E04FEAD37C0CEB4C0555
:1033900026FA05F606F00706B6F1040C06D20EEB87
:1033A000860CBDE870404CF0010C6047DFE80CF083
:1033B000090B02024FF000414FF00000A1F500217F
:1033C00070BD19461046012851EB010418BFD4F511
:1033D000001484BF002001F0004170BD0808A0F572
:1033E00000114FEA3101704743004FEAD30C4FEA16
:1033F0003C0C43401FBF40070CF1605113F0FE4FDF
:1034000070471CF0006F03D100200CF000417047A2
:103410000CF0004343EA507010B540EACC0000F0D5
:1034200004F900BF000000924FEA0001FFF7D6BF89
:103430004FF000414FF00000A1F50021704700005F
:103440004FF47F0C1CEAD0121EBF1CEAD11392EA83
:103450000C0F93EA0C0F00F0858090EA010F48BF33
:1034600042F4807240F4000C41F400002CF07F41E3
:1034700020F07F4000B58142A2EB03020FF2081C4E
:10348000ACEB504EC0F100009EF800E04FEA4E0E4B
:1034900000FB0EFC38BF49004FEA2C1C02F5FA0273
:1034A0000CFB0EF34FEACE1E4FEA112C4FEAC1215E
:1034B0000EEB635E42EB22420EFB0CFC4FEA1C5308
:1034C00000FB03114FEA112C4FEA01310EFB0CFCFB
:1034D0004FEADC4C00FB0C11C14228BF09184CEB31
:1034E00003335DF804EB10EB410143EBC250B2F53E
:1034F0007C0F38BF704729D512F0F00F1CBF00F1C8
:10350000C04000F000407047008182838485868738
:1035100088898B8C8D8E8F919293959697999A9C92
:103520009D9FA0A2A3A5A7A8AAACAEB0B2B3B5B701
:10353000B9BCBEC0C2C5C7C9CCCED1D4D7D9DCDFD7
:10354000E2E6E9ECF0F3F7FAFE0000004FEA400C87
:103550000CF1807CBCF17E4F28BF7047B0F1C040B9
:1035600000F0A9B890EA010F0CEAD11348BF42F469
:103570008072624538BF634507D213F47F0F16D0BF
:1035800080EA010000F00040704710B500F04DF8EF
:10359000097EFC3E00F005B880EA010000F0004022
:1035A000704780EA010000F0004000F084B812F497
:1035B0007F0F04BF0248704780EA010000F07BB82B
:1035C0000000C07FC10DD1F19E0206DB4FEA00234F
:1035D00043F0004323FA02F07047004207D54FEA58
:1035E0004001B1F1FE4F02D24FF00000704710B51C
:1035F00000F01BF849922480002070476FEA2000F9
:1036000070470000B0FA80F310FA03F2C3F19D0393
:103610000AD0D90501EB1220530638BF704700F1DC
:10362000010008BF20F0010070470EF1020E2EF0DD
:10363000030E5EF8044B244204D44FEA4102B2F177
:103640007F4F11D84FEA4003B3F17F4F0CD80ED112
:103650004FEAD07CB2F17F4F0CEB4C0C0CF1020C1A
:1036600008BF4CEBD17C04E04FF0080C01E04FEABE
:10367000D17C0CEB4C0324FA03F404F00704B4F1FE
:10368000040C06D20EEB840CBDE810404CF0010C8B
:103690006047DFE80CF0070802024FF00040A0F599
:1036A000800010BD0846420018BFD2F1807288BF6A
:1036B00000F0004010BDFF2141EAD050C005704726
:1036C00006030000010100000101000001000000EC
:1036D00001000403000001010000010100010101DB
:1036E00001010001020202020202020202020202BF
:1036F00002020202050000000000000000000000BD
:1037000000000000000000000000000000000000B9
:1037100000000000000000000000000000000000A9
:103720000000000000000000000000000000000099
:103730000000000000000000000000000000010286
:10374000030001000102000102030000356565630A
:103750006565313836313365383933306331396630
:10376000623933343639633839623135336664341B
:10377000386133626232666236303665316365368F
:1037800062323766643335616635333100000000DC
:103790002F7379732F70726F706572746965732FF0
:1037A0007265706F7274222C227B22736572766947
:1037B000636573223A5B7B22736572766963655F2A
:1037C0006964223A22416C6C225C2C2270726F7008
:1037D000657274696573223A00000000FC370008C6
:1037E00000000020500500002801000820390008D2
:1037F00050050020080900008C010008120001207B
:10380000050102030404000A190607080902040658
:10381000080001300B2B2B2B0D0A004154453007BB
:10382000600A2B43574D4F44453D310E70045141C2
:10383000500D700749504D55583D29124A1B011330
:1038400054611E423F45001A614D51545455534531
:10385000524346473D302C312C224E554C4C222CA5
:10386000220001517F1009434C49454E5449448080
:10387000016377E17F00046E4F4E4E7B917F000421
:10388000725355427E617F42507F000EE2246F6387
:103890002F646576696365732F000130177B2257AB
:1038A0005344223A343030305C2C22575153562244
:1038B0003A352E0D93534D0D20085754223A31328C
:1038C000352410045056520C3123200541505253D8
:1038D0000C211742480B127D5392494683414C2FCD
:1038E0009350470D72463B12415C32352C32482AC8
:1038F000067E7D951C144552524F52004F4B004E90
:103900004543544544004449531E031C0700524597
:103910004356006704553BD6FF4B067746CC000064
:04000005080000ED02
:00000001FF
