:020000040800F2
:10000000400E002089010008C91A0008FF080008F6
:1000100003090008DD030008BF2A000800000000F3
:10002000000000000000000000000000A91F000800
:100030000D06000800000000591E00088523000876
:10004000A3010008A3010008A3010008A301000800
:10005000A3010008A3010008A3010008A3010008F0
:10006000A3010008A301000887060008A3010008F7
:10007000E1030008A3010008A3010008A301000890
:10008000A3010008A3010008A3010008A3010008C0
:10009000A3010008A3010008A3010008A3010008B0
:1000A000A3010008E9230008A3010008A301000838
:1000B000052400082924000861240008A301000881
:1000C000A3010008A3010008A3010008A301000880
:1000D000A3010008A3010008A1280008A30100084B
:1000E0006D060008A3010008A301000800F002F853
:1000F00000F03AF80AA090E8000C82448344AAF188
:100100000107DA4501D100F02FF8AFF2090EBAE885
:100110000F0013F0010F18BFFB1A43F0010318473B
:100120000438000024380000103A24BF78C878C191
:10013000FAD8520724BF30C830C144BF04680C60ED
:10014000704700000023002400250026103A28BF35
:1001500078C1FBD8520728BF30C148BF0B60704739
:100160001FB51FBD10B510BD00F031F81146FFF7E7
:10017000F7FF02F0A7FC00F04FF803B4FFF7F2FF1F
:1001800003BC00F057F800000948804709480047C1
:10019000FEE7FEE7FEE7FEE7FEE7FEE7FEE7FEE737
:1001A000FEE7FEE704480549054A064B7047000094
:1001B00089230008ED00000840080020400E0020C0
:1001C000400A0020400A002070477047704775467B
:1001D00000F02CF8AE4605006946534620F00700B3
:1001E000854618B020B5FFF7DDFFBDE820404FF091
:1001F00000064FF000074FF000084FF0000B21F011
:100200000701AC46ACE8C009ACE8C009ACE8C009DD
:10021000ACE8C0098D46704710B50446AFF30080C6
:100220002046BDE81040FFF7A8BF00000048704717
:10023000E007002001491820ABBEFEE726000200BF
:10024000704721B1826842F00102826003E0826857
:1002500022F001028260704721B1826842F480720C
:10026000826003E0826822F48072826070470146F7
:1002700000208A6802F004020AB1012000E0002098
:100280007047014600208A6802F008020AB1012086
:1002900000E000207047000030B502460020002337
:1002A00050680F4C20400D790C6844EA0524204327
:1002B000506090680B4C2040D1E902542C434D799A
:1002C00044EA450420439060D06A20F470000C7C1E
:1002D000641EE4B2234340EA0350D06230BD000004
:1002E000FFFEF0FFFDF7F1FFF0B504460D460020DC
:1002F0000021092D11DDE068A5F10A0606EB46078D
:10030000072606FA07F18843A5F10A0606EB46061A
:1003100003FA06F10843E0600CE0206905EB4507AD
:10032000072606FA07F1884305EB450603FA06F1AE
:1003300008432061072A0FDA606B561E06EB86071A
:100340001F2606FA07F18843561E06EB860605FAB5
:1003500006F10843606322E00D2A0FDA206BD61FF6
:1003600006EB86071F2606FA07F18843D61F06EB21
:10037000860605FA06F10843206310E0E06AA2F160
:100380000D0606EB86071F2606FA07F18843A2F141
:100390000D0606EB860605FA06F10843E062F0BD9D
:1003A000816841F008018160704721B1826842F4A0
:1003B000A002826003E0826822F4A002826070479B
:1003C000816841F004018160704700210160017182
:1003D00041718160C16001210174704700BFFEE777
:1003E00010B5202000F0C8F828B1542001F074FEA8
:1003F000202000F001F810BD00F0805111B1034938
:10040000086001E0024948607047000004040240AF
:100410000000024021B1026842F00102026004E0E3
:1004200002684FF6FE731A400260704701684FF68B
:10043000FE72114001600021016041608160C16075
:100440004B49884208D14A490839496841F00F01AF
:10045000474A083A51608AE045491431884208D138
:1004600043490839496841F0F001414A083A51606E
:100470007DE03F492831884208D13D490839496823
:1004800041F470613A4A083A516070E038493C31B1
:10049000884208D136490839496841F47041344AE4
:1004A000083A516063E032495031884208D13049FE
:1004B0000839496841F470212D4A083A516056E0E4
:1004C0002B496431884208D129490839496841F4E7
:1004D0007001274A083A516049E02549783188423D
:1004E00008D123490839496841F07061204A083A27
:1004F00051603CE01F49884206D1011F096841F064
:100500000F01021F116032E01A491431884208D1EC
:100510001849091F096841F0F001164A121F1160BD
:1005200025E014492831884208D11249091F096879
:1005300041F470610F4A121F116018E00D493C31FF
:10054000884208D10B49091F096841F47041094AE2
:10055000121F11600BE007495031884207D105494D
:10056000091F096841F47021024A121F1160704787
:10057000080002400804024001460020002201F069
:10058000805313B1054B1A6801E0054B1A6802EA63
:1005900001030BB1012000E000207047000402407D
:1005A000000002401AB103680B43036002E00368D5
:1005B0008B430360704710B50022026847F6F07362
:1005C0009A430C6A8B6823430C6923434C69234389
:1005D0008C692343CC6923434C6A23438C6A2343AD
:1005E0001A430260CB6843600B6883604B68C3604A
:1005F00010BD0021016041608160C1600161416105
:100600008161C1610162416281627047704700B5DA
:10061000034603E04FF47A7000F011F8181EA3F1BE
:100620000103F7D100BD10B5044603E04FF47A7022
:10063000FFF7EDFF201EA4F10104F7D110BD00EB80
:10064000C001C9004FF0E0225161002191610521F4
:10065000116100BF4FF0E021096901F480310029E8
:10066000F8D004214FF0E0221161704710B54FF42B
:10067000004000F01BF8012804D1C00300F010F87E
:1006800000F0D2FE10BD10B5102000F00FF80128C8
:1006900004D1102000F004F800F0B4FA10BD0000FE
:1006A0000149086070470000140401400146002021
:1006B0000022074B1B6803EA0102054B14331B6839
:1006C0000B4013B10AB1012000E000207047000088
:1006D00000040140002123498279002A3AD00A46C9
:1006E000126803689A430B461A600A1D1268036871
:1006F0009A430B1D1A60027911440A6803681A4371
:100700000A60184A0832126803689A43154B083386
:100710001A601A1D126803689A43124B0C331A6050
:100720004279102A0ED11A1F126803681A430D4B22
:1007300008331A601A1D126803681A43094B0C33F8
:100740001A600DE00749427911440A6803681A43A8
:100750000A6005E0027911440A6803689A430A6056
:1007600070470000000401400021016001710C216C
:10077000417100218171704730B500228B071C0F39
:100780000F2303FA04F20B4B8C1053F824309343DD
:10079000084C8D1044F8253023468C1053F8243033
:1007A0008C07240F00FA04F42343024C8D1044F804
:1007B000253030BD080001402DE9F04102460025FA
:1007C0000026002000230024002791F803C00CF02D
:1007D0000F0591F803C00CF0100CBCF1000F03D012
:1007E00091F802C04CEA050591F800C0BCF1000F79
:1007F00031D0146800202BE04FF0010C0CFA00F30C
:10080000B1F800C00CEA03069E4220D183004FF0ED
:100810000F0C0CFA03F7BC4305FA03FC4CEA040482
:1008200091F803C0BCF1280F06D14FF0010C0CFA6F
:1008300000FCC2F814C00AE091F803C0BCF1480FF4
:1008400005D14FF0010C0CFA00FCC2F810C0401C9E
:100850000828D1D31460B1F800C0BCF1FF0F34DD1B
:10086000546800202EE000F1080C4FF0010808FA4F
:100870000CF3B1F800C00CEA03069E4221D18300BC
:100880004FF00F0C0CFA03F7BC4305FA03FC4CEADB
:10089000040491F803C0BCF1280F05D100F1080C45
:1008A00008FA0CF8C2F8148091F803C0BCF1480FA4
:1008B00007D100F1080C4FF0010808FA0CF8C2F853
:1008C0001080401C0828CED35460BDE8F081024659
:1008D000002093680B400BB1012000E0002070471E
:1008E000016170474FF6FF71018002218170042180
:1008F000C17070470AB1016100E04161704700BFFB
:10090000FEE700BFFEE7000010B590B004464FF4CC
:10091000004001F0A3FA0BA8FFF757FD01208DF866
:10092000310000200E904FF460200D9000200B90BD
:100930008DF83C4001208DF830000BA92148FFF7CD
:10094000ABFC01211F48FFF787FC6846FFF751FE0B
:100950001C484C30009080150690002004901A48E6
:1009600001904FF480600790802005900020029055
:1009700003940A9020200890C0010990694613480A
:10098000FFF719FE01210F48FFF75BFC01210F481B
:10099000FFF740FD0B48FFF703FD00BF0948FFF7D5
:1009A00070FC0128FAD00748FFF70AFD00BF054890
:1009B000FFF75DFC0128FAD001210248FFF7F5FCA2
:1009C00010B010BD00240140C80000200800024003
:1009D00008B56846FFF786FF10208DF80300400237
:1009E000ADF8000003208DF8020069460248FFF7C9
:1009F000E3FE00F003F808BD000C014010B54FF411
:100A000000510248FFF76CFF10BD0000000C0140D0
:100A100010B506480078012802D100F0EFF804E094
:100A20000248007808B900F0E5F810BD90000020F9
:100A300010B50C48006840B90B4801F04CFD0B495B
:100A40000968401A0A4908600AE0074801F043FDB6
:100A500042F21071084405490968401A04490860C7
:100A600010BD000078000020000400408C00002031
:100A70008800002010B5044801F02DFD03490860EE
:100A800000200349086010BD000400408C000020D5
:100A90007800002004480078012804D10348006849
:100AA000401C024908607047740000207800002054
:100AB0007CB500200090019000240026002500BF96
:100AC00015E000210FE01D4A165D1DF80020C1F160
:100AD000070306FA03F31A43D2B20DF80020621C92
:100AE000D4B24A1CD1B20729EDDD411CC8B204289A
:100AF000E7DD002005E01DF800102944CDB2411CBF
:100B0000C8B20328F7DD9DF80400A84212D10020E6
:100B100005E01DF800100A4A1154411CC8B2032810
:100B2000F7DD0748807807490870054800780649CE
:100B3000087001E000F05EF87CBD0000780700203E
:100B400084000020920000209300002038B5044665
:100B50000D4614201749C8701020088003208870A3
:100B60001548FFF729FE04210020FFF705FE0122AA
:100B700010211148FFF7BEFE102010490860002028
:100B8000087108204871002088710846FFF7A2FD0F
:100B90000A208DF8000000208DF801008DF8020079
:100BA00001208DF80300684600F090FF00F0F8F88F
:100BB00038BD000068000020000801406C000020E3
:100BC00010B50A48007801280FD109480078401C68
:100BD0000749087008460078042806DBFFF718FF6D
:100BE0000020034908700149087010BD7C000020F6
:100BF0009400002010B500F099F810BD10B500F079
:100C000095F810BD10B53E480078062874D2DFE88C
:100C100000F00304730D205F6FE001203949087074
:100C2000FFF728FF03203649087066E0FFF700FF52
:100C300035480068642809D333480068B42805D8CB
:100C400004202F490870FFF715FF01E0FFF7D2FFDE
:100C500053E0FFF7EDFE2C4800683C2818D32A48E3
:100C600000685A2814D8FFF705FF002127480278AA
:100C70000078401C254B1870254881541846007890
:100C8000282824DB05201E49087000F06BF81EE0C0
:100C90001D4800686E2818D31B480068822814D8A5
:100CA000FFF7E8FE0122194801780078401C174B35
:100CB00018701748425418460078282807DB05208A
:100CC0000F49087000F04EF801E0FFF793FF14E0C1
:100CD000FFF7AEFE0C48006828280AD30A480068CF
:100CE0003C2806D801200B490870FFF7E1FE02E01E
:100CF00002E0FFF77FFF00E000BF00BF10BD000073
:100D0000870000207400002088000020910000204F
:100D1000780700209000002010B5002002490870DC
:100D200000F016F810BD00009100002010B500F092
:100D300023F800200349087003490870034908702C
:100D400010BD0000870000207400002090000020EB
:100D500010B50C20024948710846FFF7BBFC10BDD6
:100D60006C00002010B50820024948710846FFF7C2
:100D7000B1FC10BD6C00002010B548200549C870BA
:100D80000548FFF719FD0120044988710846FFF75F
:100D9000A1FC10BD68000020000801406C0000208C
:100DA00010B50020054988710846FFF793FC102014
:100DB0000349C8700348FFF7FFFC10BD6C0000201A
:100DC000680000200008014010B5012007490870A4
:100DD000002007490870FFF7E3FF0020054908706D
:100DE000FFF79AFF01200449087010BD7D00002024
:100DF0007E000020870000207C00002010B51A48EB
:100E0000007801282ED119480068401C1749086055
:100E10001748007810B1012823D10DE0FFF7C0FF7B
:100E2000002210211348FFF765FD012010490870CA
:100E300000200E49086014E00C48006800EB8000B8
:100E400044F6206188420BD3FFF796FF01200A4940
:100E50000870FFF77DFF00200549087002490870FF
:100E600000BF00BF10BD00007D00002080000020FA
:100E70007E000020000801408700002038B50446AD
:100E800018208DF803004FF48060ADF800000320B7
:100E90008DF8020069460F48FFF78EFC0E4801F0FE
:100EA00098FC00200C498881602008800020C881BF
:100EB0004881888001204880601EC880074801F072
:100EC000E3FB0121054801F0F7FA0821034801F08E
:100ED0002BFC38BD00080140C0070020002C014059
:100EE0002DE9F04104460D460026002003E035F8C8
:100EF00010100E44401CA042F9DB204602F076F9A7
:100F00000746304602F072F98046394602F08CF806
:100F1000BDE8F08110B50B46002105E04C1C30F80F
:100F2000144020F81140491C541E8C42F6DC511E1E
:100F300020F8113010BD000038B504466846FFF7B0
:100F4000D1FC18208DF803004FF48070ADF800003C
:100F500003208DF8020069460F48FFF72DFC0F486B
:100F600001F037FC00200D498881602008800020B6
:100F7000C8814881888001204880601EC880084858
:100F800001F0CCFA0121064801F096FA0821044844
:100F900001F010FB38BD000000080140A007002050
:100FA000002C014008B56846FFF79CFC00208DF836
:100FB00003000220ADF8000003208DF8020069460E
:100FC0000448FFF7F9FB0523042209210248FFF733
:100FD0008BF908BD000C01400024014038B50446DF
:100FE00018208DF803004FF40060ADF800000320D6
:100FF0008DF8020069460F48FFF7DEFB0E4801F04E
:10100000E8FB00200C498881602008800020C8810E
:101010004881888001204880601EC880074801F010
:101020008DFB0121054801F047FA0821034801F032
:10103000C3FB38BD00080140D0070020002C014050
:1010400008B56846FFF74EFC00208DF8030001202C
:10105000ADF8000003208DF8020069460448FFF750
:10106000ABFB0523032208210248FFF73DF908BD29
:10107000000C0140002401407FB505460C461C4889
:1010800001F046FA01A801F001FC0020ADF80A00C9
:10109000ADF806004720ADF8040044F61F60ADF837
:1010A000080000208DF80C0001A9114801F09CFBFC
:1010B00001210F4801F0EEF9012211460C4801F020
:1010C0001EFA01210A4801F0D9F919208DF8000013
:1010D00001208DF803008DF801508DF8024068461C
:1010E00000F0F4FC0021024801F0DAF97FBD0000B5
:1010F000002C01407FB505460C464FF0804001F0C2
:1011000007FA01A801F0C2FB0020ADF80A00ADF813
:1011100006004720ADF804000420ADF808000020C8
:101120008DF80C0001A94FF0804001F05DFB01211A
:10113000880701F0AFF901221146900701F0DFF9AD
:101140000121880701F09AF91C208DF80000012088
:101150008DF803008DF801508DF80240684600F0CC
:10116000B5FC00214FF0804001F09AF97FBD0000EE
:1011700010B5044607480088401C06490880084608
:101180000088A04205DB0020088000F0FDF9FFF791
:101190001BFE10BD2400002010B504460648008840
:1011A000401C0549088008460088A04203DB002057
:1011B000088000F023FC10BD260000207FB5054606
:1011C0000C461A4801F0A4F901A801F05FFB0020C9
:1011D000ADF80A00ADF806004720ADF8040042F271
:1011E0000F70ADF8080000208DF80C0001A90F4821
:1011F00001F0FAFA01210D4801F04CF901221146E3
:101200000A4801F07CF91D208DF8000001208DF8BE
:1012100003008DF801508DF80240684600F056FC3E
:101220000021024801F03CF97FBD000000040040AD
:101230007FB505460C461A4801F06AF901A801F08D
:1012400025FB0020ADF80A00ADF8060040F2CF20E3
:10125000ADF804000920ADF8080000208DF80C005E
:1012600001A90F4801F0C0FA01210D4801F012F95F
:10127000012211460A4801F042F91E208DF80000B3
:1012800001208DF803008DF801508DF8024068466A
:1012900000F01CFC0021024801F002F97FBD0000B3
:1012A0000008004010B504460121204601F0F8F87E
:1012B00010BD000008B510208DF803002020ADF807
:1012C000000003208DF8020069460348FFF774FA16
:1012D00000F004F808BD0000000C014010B5012228
:1012E00020210248FFF706FB10BD0000000C014062
:1012F00008B56846FFF7F6FA10208DF803000002E3
:10130000ADF8000003208DF8020069460248FFF79F
:1013100053FA00F003F808BD000C014010B54FF47B
:1013200080510248FFF7DCFA10BD0000000C0140BC
:1013300038B504466846FFF7D5FA18208DF8030043
:101340004FF40070ADF8000003208DF802006946EC
:101350000F48FFF731FA0F4801F03BFA00200D4922
:101360008881602008800020C88148818880012011
:101370004880601EC880084801F026F9012106480F
:1013800001F09AF80821044801F070F938BD000016
:1013900000080140B0070020002C014008B5684655
:1013A000FFF7A0FA00208DF803000220ADF800003E
:1013B00003208DF8020069460448FFF7FDF9052374
:1013C000022201210248FEF78FFF08BD00080140FC
:1013D0000024014010B50F480078032804DA0D48B6
:1013E0000078401C0B4908700B48008881B203222A
:1013F0000A48FFF78FFD094906480078FFF770FD9E
:10140000044601F0D3FE0649088000F07DF8054946
:10141000088010BDB4000020A4000020B600002009
:10142000A8000020AA00002010B515480078012867
:1014300024D11448007858B9134801F04CF81349E6
:1014400008600C2000F07AF801200E49087015E0C1
:101450000C480078012811D10B4801F03CF80B49E9
:101460000968401A0A490860FFF7B4FF082000F035
:1014700065F80020034908700149087010BD00009C
:10148000A2000020AE00002000040040B0000020B8
:10149000A40000207CB505460C4601A8FFF722FAFF
:1014A00048208DF807004FF40040ADF804000320F9
:1014B0008DF8060001A91248FFF77EF90F210120DF
:1014C000FFF75AF90F48FFF74FF94FF400400D4965
:1014D00008600120887100200871082048710846C2
:1014E000FFF7F8F828208DF8000001208DF80300A0
:1014F0008DF801508DF80240684600F0E7FA7CBD97
:10150000000C0140980000202DE9F04108480088B7
:1015100001F06CFE804601F05BFD0646054A064B75
:1015200001F058FC044601F027FC80B2BDE8F081D0
:10153000A8000020C1CAA145B6F3C53F10B50446B6
:1015400002484471FFF7C6F810BD00009800002063
:1015500010B50B480078012811D100F037F8094880
:101560000078401C0749087008460078022806DB0E
:1015700000F014F80020024908700249087010BDFC
:10158000A0000020AD00002001200249087002499F
:1015900008707047A0000020A100002010B50022B4
:1015A0004FF480510648FFF7A5F90120054908705E
:1015B0000020054908700820FFF7C0FF10BD00009B
:1015C00000080140A2000020A300002010B506483A
:1015D0000078012807D1012201030448FFF78AF9A6
:1015E00000200149087010BDA10000200008014042
:1015F00008B56846FFF776F910208DF80300000261
:10160000ADF8000003208DF8020069460448FFF79A
:10161000D3F800224FF480510148FFF76BF908BD61
:101620000008014010B50121042000F043FC142003
:101630000449C87020200880032088700248FFF702
:10164000BBF810BD48000020000801400020144AEB
:10165000108000BF09E0134A125C8240104B1B88C7
:101660001A430F4B1A80421CD0B21028F3DB0C48EF
:1016700000880122B2EBE03F05D109480088C04351
:10168000401C074A1080064800880011064A108056
:101690000F21034800880840044A1080704700006A
:1016A0005E00002030070020600000206200002063
:1016B00010B5C048C0490978405C072805D2DFE86A
:1016C00000F073A6EA05FCFB040071E1BB4800686A
:1016D000401CBA490860BA48BA490978405C30B140
:1016E000012817D002282AD003285BD144E0012228
:1016F0002021B548FFF7FEF800222021B248FFF76D
:10170000F9F80020AD490860AE480078401CAD49AA
:10171000087047E0A948006800EB8000B0F5FA7F48
:101720000CD301222021A848FFF7E4F80020A349A8
:101730000860A4480078401CA249087032E09F4825
:10174000006800EB8000A1490978884213D320216A
:101750009D48FFF7BCF858B901209D49087000204A
:101760009649086097480078401C9649087002E046
:1017700000209749087015E09448007840F23A211B
:10178000081A8E49096801EB8101884209D80020B6
:101790008A4908608B49087087480078401C864950
:1017A000087000BF00BF03E184480068401C834903
:1017B0000860884888490978405C10B1012824D124
:1017C0000DE0002220218048FFF794F800207B499B
:1017D000086081480078401C7F49087015E0774810
:1017E000006800EB80003C280ED3012220217648BF
:1017F000FFF780F8002071490860774908706E484B
:101800000078401C6C49087000BF00BFD0E06B48F6
:101810000068401C69490860704871490978405C5B
:1018200020B1012810D0022833D121E0002220214C
:101830006548FFF75FF80020604908606848007855
:10184000401C6749087024E05C48006800EB800099
:101850000A280CD3012220215B48FFF74BF8002017
:10186000564908605E480078401C5D49087010E0E9
:101870005248006800EB8000322809D300204F490D
:101880000860574908704C480078401C4A49087065
:1018900000BF00BF8CE049480068401C4749086011
:1018A000504851490978405C40B1012814D00228C1
:1018B00026D003285CD14AE071E05BE000222021C1
:1018C0004148FFF717F800203C4908604648007877
:1018D000401C454908704BE03848006800EB800028
:1018E00005280CD3012220213748FFF703F80020F8
:1018F000324908603C480078401C3B49087037E09A
:101900002E48006800EB800005281FD320212E48B8
:10191000FEF7DDFF48B10121344802780078401C11
:10192000324B18703248815408E000212F48027869
:101930000078401C2D4B18702D48815400201F4901
:10194000086029480078401C2749087010E01B48AF
:10195000006800EB80002D2809D30020174908609B
:101960002149087014480078401C1349087000BFD2
:1019700000BF1DE011480068401C1049086008467F
:10198000006800EB80001B49884207D300200B4908
:10199000086009480078401C0749087008E0FFF714
:1019A00055FE01201449087000200349087000BF4B
:1019B00000BF10BD983800084C00002050000020E7
:1019C000153900085500002000080140560000208D
:1019D0005700002019390008580000201B39000862
:1019E000590000201E3900085A0000205C00002029
:1019F00030070020B0710B005400002001200C497A
:101A000008700C49087000200B49088082200B499F
:101A1000087000200A4908700A4908700A490870CD
:101A20000A4908700A4908700A490870704700009E
:101A30004C0000205B0000206400002056000020C5
:101A400054000020550000205800002059000020BC
:101A50005A0000205C00002010B50D4800780128D5
:101A600014D10C480088401C0A49088008460088A8
:101A700040F2712148430849B1EB001F06DC00F039
:101A80000DF80020034908800149087010BD0000CE
:101A90005B0000206400002080841E0010B5054813
:101AA0000078012803D104480078012801D000F013
:101AB00005F810BD54000020570000200020014907
:101AC000087070474C0000207047000070B500217E
:101AD00000230F22C47804B3154C246804F4E06496
:101AE000C4F5E064210AC1F10403CA40447804FA51
:101AF00003F184781440214309010E4C0678A15566
:101B0000047804F01F050124AC4005786D11AD0088
:101B100005F1E025C5F8004109E0047804F01F054F
:101B20000124AC40044D0678761145F8264070BD7E
:101B30000CED00E000E400E080E100E00249014338
:101B4000024A1160704700000000FA050CED00E049
:101B500070B500240EE00021204600F0F0F80025CA
:101B600004E0002000F068F9681CC5B2802DF8DBA5
:101B7000601CC4B2082CEEDB70BD000008B501216A
:101B8000102000F097F914208DF8030003208DF841
:101B900002004FF48040ADF8000069460A48FEF7A5
:101BA0000BFE4FF40040ADF8000069460648FEF712
:101BB00003FE012291030448FEF79CFE0122D1039B
:101BC0000148FEF797FE08BD0010014070B50546BC
:101BD000002415E08020204100EA05024FF4004176
:101BE0000E48FEF787FE012291030C48FEF782FEA5
:101BF00000224FF480410948FEF77CFE601CC4B20D
:101C0000082CE7DB012291030448FEF773FE002253
:101C10004FF480410148FEF76DFE70BD0010014099
:101C200010B50122D1030A48FEF764FE0122910398
:101C30000748FEF75FFE00224FF400410448FEF71C
:101C400059FE00224FF480410148FEF753FE10BDBB
:101C50000010014010B500224FF400410648FEF785
:101C600049FE012291030448FEF744FE0122D103FC
:101C70000148FEF73FFE10BD0010014070B5002482
:101C800006E0002500E06D1CB5F57A7FFBD3641CEF
:101C9000B4F57A7FF5D3FFF771FFAE2000F0BCF802
:101CA000D52000F0B9F8802000F0B6F8A82000F0A8
:101CB000B3F83F2000F0B0F8D32000F0ADF80020DA
:101CC00000F0AAF8402000F0A7F8A12000F0A4F846
:101CD000C82000F0A1F8DA2000F09EF8122000F0F1
:101CE0009BF8812000F098F8CF2000F095F8D920DB
:101CF00000F092F8F12000F08FF8DB2000F08CF873
:101D0000302000F089F8A42000F086F8A62000F02A
:101D100083F88D2000F080F8142000F07DF8AF20CB
:101D200000F07AF8FFF714FF70BD10B502460120ED
:101D300000E050430B1EA1F10101FAD110BD70B5B6
:101D400005460C4645F0B00000F066F8102141EA67
:101D5000141000F061F804F00F0000F05DF870BDA1
:101D60002DE9F04105460E461746721ED206110EA9
:101D70006A1E5206100EFFF7E2FF002409E0A7F1E9
:101D80002001134A02EB0111085D00F055F8601CB8
:101D9000C4B2082CF3DB721ED206110E6A1E012398
:101DA00003EB4202D0B2FFF7CAFF00240BE0A7F119
:101DB0002001074A02EB011204F10801505C00F017
:101DC0003BF8601CC4B2082CF1DBBDE8F0810000D8
:101DD000A83200082DE9F04780460E4617461D46FA
:101DE000002415E0281B411E0A20FFF79EFFB7FBC9
:101DF000F0F00A21B0FBF1F201FB120000F1300912
:101E00003019C1B24A464046FFF7AAFF601CC4B26F
:101E1000AC42E7DBBDE8F08710B50446FFF700FFF2
:101E20007820FFF7D3FE0020FFF7D0FE2046FFF713
:101E3000CDFEFFF70FFF10BD10B50446FFF7F0FE13
:101E40007820FFF7C3FE4020FFF7C0FE2046FFF7D3
:101E5000BDFEFFF7FFFE10BD7047000001460020E9
:101E6000034A506820F44040084350607047000027
:101E70000010024029B1064A52690243044B5A61DC
:101E800004E0034A52698243014B5A6170470000E3
:101E90000010024029B1064AD2690243044BDA61BC
:101EA00004E0034AD2698243014BDA6170470000C3
:101EB0000010024029B1064A92690243044B9A611C
:101EC00004E0034A92698243014B9A617047000023
:101ED0000010024030B500210022002400232D4DC7
:101EE0006D6805F00C0121B1042905D0082923D122
:101EF00005E0294D056022E0274D05601FE0254DD6
:101F00006D6805F47012234D6D6805F48034022568
:101F100005EB92421CB9214D554305600BE01D4D68
:101F20006D6805F400351DB11C4D5543056002E098
:101F3000194D5543056002E0174D056000BF00BF15
:101F4000144D6D6805F0F0010909154D6B5C0568CD
:101F5000DD4045600F4D6D6805F4E061090A104DE4
:101F60006B5C4568DD4085600A4D6D6805F4605125
:101F7000C90A0B4D6B5C4568DD40C560054D6D6859
:101F800005F44041890B074D6B5CC568B5FBF3F563
:101F9000056130BD0010024000127A0000093D00CA
:101FA0000000002010000020704710B501214FF400
:101FB000E13000F009F8012000F078F8002201215A
:101FC000084600F027F810BD70B504460D46012103
:101FD0000820FFF76FFF01218804FFF75BFF012155
:101FE0000846FFF747FF0948046000200749888139
:101FF0000C20488100200881C8808880044800F0B7
:10200000DDFC2946024800F067FC70BDC8060020D0
:102010000048004070B506460C4615460C201D4988
:1020200008700120C870084646708470FFF74EFDA6
:102030001948FEF7FBF900201849C8601020886095
:1020400000208862164848600020C86180204861EE
:102050000020086213480088086000208861086139
:102060004FF4005048620C48FEF7A5FA2A4680213A
:102070000C48001F00F03CFC2A4602210648FEF7EF
:1020800091FA29460448FEF7C5F90120064908706F
:1020900070BD00003E0000201C000240D806002059
:1020A000C8020020044800403000002010B504465B
:1020B00001210846FFF7FEFE18200549C8704FF4BD
:1020C00080600880032088700248FEF775FB10BD11
:1020D00036000020000C014010B5044600BF8021EE
:1020E000044800F00EFC0028F9D02146014800F019
:1020F000D6FC10BD004800402DE9F04781468846D7
:1021000016461C46DDE9087A484600F0C3FC054641
:10211000307820B101280FD0022830D11FE01A48B2
:1021200010F8080038B901203070002020702278A3
:10213000501C2070BD5423E00D2D06D12278501C78
:102140002070BD540220307008E02178AAF101000F
:10215000814203DA2278501C2070BD5410E00A2D11
:102160000CD12278501C2070BD5400203070217892
:10217000785420700120044901F8080000E000BFF5
:1021800000BFBDE8F0870000280000202DE9FF4FC8
:1021900083B004468A4693462D48844207D12D4D8C
:1021A0002F4606154FF400684FF0270909E02A482A
:1021B000844206D1294D2F4604264FF008084FF0DF
:1021C000260901A8FEF78EFB18208DF80700ADF850
:1021D000046003208DF8060001A92846FEF7ECFAFA
:1021E00048208DF80700ADF8048003208DF8060024
:1021F00001A93846FEF7E0FA194800F054FC1848E7
:10220000C0F800A00020164988810C2048810020D9
:102210000881C8808880204600F0D0FB012240F26F
:102220002551204600F0A4FB8DF8089001208DF880
:102230000B008DF809B006988DF80A0002A8FFF788
:1022400045FC0121204600F047FB07B0BDE8F08FB8
:1022500000480040000C01400044004000080140DC
:10226000D000002070B504460D4600BF80212046F6
:1022700000F047FB0028F9D02946204600F00FFC6B
:1022800070BD70B505460C4604E014F8011B2846E5
:10229000FFF7E8FF20780028F7D170BD10B500F0F7
:1022A00001F810BD0CB50020019000903348006883
:1022B00040F480303149086000BF3048006800F4C5
:1022C000003000900198401C0190009818B90198C6
:1022D000B0F5A06FF1D12948006800F4003010B1CA
:1022E0000120009001E0002000900098012843D1D7
:1022F0002348006840F01000214908600846006843
:1023000020F0030008600846006840F00200086002
:102310001A484068194948600846406848600846BD
:10232000406840F4806048600846406820F47C10B3
:1023300048600846406840F4E81048600846006875
:1023400040F08070086000BF0C48006800F000702A
:102350000028F9D00948406820F003000749486088
:102360000846406840F00200486000BF03484068EB
:1023700000F00C000828F9D10CBD0000001002404C
:10238000002002407047000010B51348006840F07C
:1023900001001149086008464068104908400E498C
:1023A0004860084600680E4908400B490860084626
:1023B000006820F4802008600846406820F4FE0091
:1023C00048604FF41F008860FFF768FF4FF000601F
:1023D0000449086010BD0000001002400000FFF832
:1023E000FFFFF6FE08ED00E010B50121044800F003
:1023F00075F8012803D10121014800F04EF810BD05
:10240000002C014010B50121880700F067F8012871
:1024100009D10121800700F040F8FFF799F8FEF795
:10242000EDFCFFF745F910BD10B501210B4800F098
:1024300055F8012810D10121084800F02EF8642039
:10244000FEF796FEFEF726FBFEF7BAFB4FF49670FA
:10245000FEF7A2FEFFF700FB10BD000000040040E5
:1024600010B50121044800F039F8012803D10121F9
:10247000014800F012F810BD0008004021B10288A8
:1024800042F08002028004E002884FF67F731A4017
:1024900002807047CA4302827047CA430282704773
:1024A00021B1028842F00102028004E002884FF666
:1024B000FE731A400280704731B1B0F8442042F4F4
:1024C0000042A0F8442005E0B0F84420C2F30E0218
:1024D000A0F8442070470146888C704730B502460A
:1024E000002000230024158A05EA0103958905EAE6
:1024F000010413B10CB1012000E0002030BD1AB17D
:1025000083890B43838102E083898B4383817047F6
:1025100001894FF6F87211400181704770B50024AF
:1025200000220023058C4FF6FE7635400584028C90
:102530008388048B4FF68F752C40B51E2C400D8878
:102540002C43751E2A400D892A434D882A43144D79
:10255000A8420BD0134DA84208D0134DA84205D075
:10256000124DA84202D0124DA84213D14FF6F77572
:102570002A404D892A434FF6FB752A408D882A430D
:102580004FF6FF652B404FF6FF552B408D892B43AF
:10259000CD892B4383800483CD888586028470BDDA
:1025A000002C014000340140004001400044014043
:1025B000004801400A460021018B4FF6F77319408D
:1025C000114301837047000070B5002400220023EE
:1025D000058C4FF6EF7635400584028C8388048B9A
:1025E00048F6FF752C404FF6FF452C400D884FF6FE
:1025F000FF7606EA05252C434FF6DF752A400D8944
:1026000006EA05152A434D8806EA05152A43154DA5
:10261000A84202D0144DA8421DD14FF67F752A4022
:102620004D894FF6FF7606EA05152A434FF6BF752A
:102630002A408D8806EA05152A434FF6FF352B40C0
:102640004FF2FF752B408D8906EA85052B43CD8916
:1026500006EA85052B4383800483CD8805870284A1
:1026600070BD0000002C0140003401400A460021EA
:10267000018B4FF2FF7319404FF6FF7303EA0223F9
:10268000194301837047000070B500240022002325
:10269000058C4FF6FF6635400584028C8388848B59
:1026A0004FF68F752C404FF6FC752C400D882C434F
:1026B0004FF6FF552A400D894FF6FF7606EA0525AD
:1026C0002A434D8806EA05252A43154DA84202D023
:1026D000144DA8421DD14FF2FF752A404D894FF687
:1026E000FF7606EA05252A434FF6FF352A408D88F6
:1026F00006EA05252A434EF6FF752B404DF6FF7579
:102700002B408D8906EA05152B43CD8906EA051570
:102710002B4383808483CD888587028470BD00002D
:10272000002C0140003401400A460021818B4FF605
:10273000F7731940114381837047000070B5002280
:1027400000230024058C4EF6FF7635400584038C6B
:102750008488828B48F6FF752A404FF6FF452A4051
:102760000D884FF6FF7606EA05252A434DF6FF75DC
:102770002B400D8906EA05352B434D8806EA0535C1
:102780002B430B4DA84202D00A4DA84208D14BF66C
:10279000FF752C408D894FF6FF7606EA85152C4390
:1027A00084808283CD88A0F84050038470BD0000EF
:1027B000002C0140003401400A460021818B4FF279
:1027C000FF7319404FF6FF7303EA02231943818315
:1027D00070470021018041808180C1800181418159
:1027E0008181C18170470000002202881D4B984200
:1027F0000ED01D4B98420BD0B0F1804F08D01B4B30
:10280000984205D01A4B984202D01A4B984204D1F4
:102810004FF68F731A404B881A43174B984207D0D4
:10282000164B984204D04FF6FF431A40CB881A4308
:1028300002808B8883850B8803850A4B98420BD0D6
:10284000094B984208D00E4B984205D00D4B984248
:1028500002D00D4B984201D10B7A0386012383826B
:1028600070470000002C014000340140000400408B
:1028700000080040000C0040001000400014004020
:102880000040014000440140004801404FF6FF7104
:10289000818000210180C180418001727047000069
:1028A0001CB540F22551084800F038F801280AD13B
:1028B000F4240648064B074A0221CDE900040248E9
:1028C000FFF71AFC00BF1CBD00440040D4010020EB
:1028D0002F0000202E00002021B1828942F40052F6
:1028E000828104E082894DF6FF731A40828170472D
:1028F0001AB1838A0B43838202E0838A8B438382EB
:10290000704702460020B1F5007F00D100BF138858
:102910000B400BB1012000E00020704770B502466B
:10292000002400230025002040F66A16B14200D1A1
:1029300000BFC1F3421501F01F03012606FA03F39D
:10294000012D02D19689334006E0022D02D1168A6C
:10295000334001E0968A33400C12012606FA04F453
:102960001688344013B10CB1012000E0002070BD86
:10297000F0B50346002400260025002040F66A1723
:10298000B94200D100BF1846C1F3421401F01F063E
:10299000012707FA06F5012C01D10C3004E0022CC6
:1029A00001D1103000E014301AB107682F430760DE
:1029B00002E00768AF430760F0BD00002DE9F04773
:1029C00086B005460E460024A24600BFA146002759
:1029D000B08900B100BF2F462C8A4CF6FF7004402E
:1029E000F08804432C82AC894EF6F3100440B08882
:1029F00031890843718908430443AC81AC8A4FF69E
:102A0000FF400440B0890443AC8201A8FFF762FA9A
:102A10001F48874202D1DDF810A001E0DDF80CA0CC
:102A2000A88900F4004040B10AEBCA0000EB0A108C
:102A300031684900B0FBF1F807E00AEBCA0000EB8F
:102A40000A1031688900B0FBF1F86420B8FBF0F09F
:102A500004012009642101FB1089A88900F40040C9
:102A600040B1322000EBC900B0FBF1F000F00700EC
:102A7000044308E0322000EB09106421B0FBF1F0C0
:102A800000F00F0004432C8106B0BDE8F087000081
:102A90000038014001468888C0F308007047C1F340
:102AA0000802828070474FF4165101600021818036
:102AB000C18001810C21418100218181704700BFCB
:102AC000FEE700008EB04FF47A70FDF7A0FD012103
:102AD0004804FFF7DFF901218804FFF7DBF9012142
:102AE000C802FFF7E7F901210846FFF7D3F90121F2
:102AF0000220FFF7CFF901210420FFF7CBF90121D4
:102B00000420FFF7D7F901210820FFF7D3F90121AD
:102B10001020FFF7CFF901210846FFF7CBF901217B
:102B20004802FFF7C7F901210846FFF7A3F94FF460
:102B3000A060FFF703F8FEF7BDFB00231A464FF431
:102B4000E1318048FFF722FB7FA17E48FFF799FB28
:102B5000FFF794F8FEF7FCFF03210846FEF78CFA16
:102B600001210846FEF7C6FA01210846FEF726FBBA
:102B700000210846FEF75CFB7748FEF793FB4FF019
:102B80008040FEF78FFB7548FEF78CFB7448FEF71C
:102B900089FBFEF747FD01210846FDF7D7FFFEF749
:102BA00027FD02210846FEF775FC4FF4FA70FEF788
:102BB000C3F96C48006800F0F9FA84B22046FEF7C9
:102BC000B7FB6948006800F0F1FA84B22046FEF7CE
:102BD00055F96648006800F0E9FA84B22046FEF72D
:102BE000FDF9FEF7DBFBFEF72BFAFEF7DBF904201D
:102BF000FDF78AFEFDF7ECFEFEF77AFBFFF7D5F94D
:102C000002200D905AA000680C9002239DF93420F8
:102C100001210846FFF7DEF89DF93020022301214B
:102C20001846FFF7D7F89DF93120022303211846F3
:102C3000FFF7D0F89DF93220022305211846FFF74F
:102C4000C9F89DF93320022307211846FFF7C2F87F
:102C50000120FDF7E8FC4748FDF7E8FB042004905D
:102C60001020039080020B900CA802900020089086
:102C700080200690002009900DA801900020079068
:102C800005904FF400500A9001A93A48FDF793FCD3
:102C9000012202213748FDF785FC01213548FDF767
:102CA000B9FB4EE05720FFF717FA02239DF93420B5
:102CB00001210846FFF78EF89DF9302002230121FB
:102CC0001846FFF787F89DF93120022303211846A3
:102CD000FFF780F89DF93220022305211846FFF7FF
:102CE00079F89DF93320022307211846FFF772F87F
:102CF0000320FDF798FC9DF830009DF83310084440
:102D000040B28DF830009DF83000401C40B28DF884
:102D100031009DF83100401C40B28DF832009DF822
:102D20003200401C40B28DF8330000211148FDF7FD
:102D300071FB01A90F48FDF73EFC01210D48FDF78D
:102D400069FBAFE70044004053657269616C325F14
:102D50004F6E0D0A00000000002C014000040040EE
:102D600000080040BC000020C0000020C40000207B
:102D7000010203041C0002404FEA1153A3F58063D3
:102D8000D3F11E03A8BFD3F1200C08DB4FF00042A3
:102D900042EAC12252EA505232FA03F07047094225
:102DA0000BD4102BC4BF0020704703F5787CBCF116
:102DB000FF3F05D04FF0FF3070474FF000007047E5
:102DC00070B500F0B1F800BF499224800020704730
:102DD000F0E70000DFF848C170B51CEA111E1EBF05
:102DE0001CEA13159EEA0C0F95EA0C0F00F06F8099
:102DF00081EA030423EA4C134EEAD47E21EA4C1103
:102E000041F4801143F48013AE44A1FB024CA0FBBB
:102E10000365AEF17F7E361955EB0C05A1FB034C23
:102E20004CF10003A0FB021C16EB0C06654153F1AC
:102E30000003094218BF46F0010613F4007F0BD1CE
:102E40004FEA03314FEA0530340341EA155140EAB5
:102E500016506FF003020AE04FEAC3214FEAC52083
:102E6000F40241EA555140EA56506FF0020202EB7B
:102E70002E4201EB025585EACE710AD05FEA440C7E
:102E800018BF24F0004450F1000041F1000120EA95
:102E9000D47040F2FE7C624500D270BDA84214BFDF
:102EA0004FF080444FF04044002E08BF0024BEF194
:102EB000806FA8BFA1F1C041BDE8704080F2828060
:102EC0004FF0000001F1C04101F0004170479EEA5F
:102ED0000C0F0CEA131518BF95EA0C0F06D04FF033
:102EE000000081EA030E0EF0004170BD00F01CF8F6
:102EF0008900013E00F007B800F009B84FEA430C22
:102F00005FEA5C5C08D081EA030100F05BB84FEA3D
:102F1000410C5FEA5C5CF6D14FF00000014970475C
:102F20000000FF070000F87F0EF1020E2EF0030EE6
:102F30005EF8046B364205D4012A43EB030515F510
:102F4000001F12D8012841EB010C1CF5001F0CD802
:102F50000ED14FEAD17C15F5001F0CEB4C0C0CF197
:102F6000020C08BF4CEBD37C04E04FF0080C01E0EE
:102F70004FEAD37C0CEB4C0526FA05F606F0070663
:102F8000B6F1040C06D20EEB860CBDE870404CF096
:102F9000010C6047DFE80CF0090B02024FF0004122
:102FA0004FF00000A1F5002170BD19461046012820
:102FB00051EB010418BFD4F5001484BF002001F0C8
:102FC000004170BD0808A0F500114FEA31017047BB
:102FD00043004FEAD30C4FEA3C0C43401FBF40076D
:102FE0000CF1605113F0FE4F70471CF0006F03D1DD
:102FF00000200CF0004170470CF0004343EA507091
:1030000010B540EACC0000F004F900BF00000092C7
:103010004FEA0001FFF7D6BF4FF000414FF000002C
:10302000A1F50021704700004FF47F0C1CEAD0127C
:103030001EBF1CEAD11392EA0C0F93EA0C0F00F0AA
:10304000858090EA010F48BF42F4807240F4000C82
:1030500041F400002CF07F4120F07F4000B5814218
:10306000A2EB03020FF2081CACEB504EC0F10000C3
:103070009EF800E04FEA4E0E00FB0EFC38BF490000
:103080004FEA2C1C02F5FA020CFB0EF34FEACE1E9F
:103090004FEA112C4FEAC1210EEB635E42EB224254
:1030A0000EFB0CFC4FEA1C5300FB03114FEA112CE2
:1030B0004FEA01310EFB0CFC4FEADC4C00FB0C111B
:1030C000C14228BF09184CEB03335DF804EB10EB49
:1030D000410143EBC250B2F57C0F38BF704729D590
:1030E00012F0F00F1CBF00F1C04000F0004070472C
:1030F000008182838485868788898B8C8D8E8F91D1
:103100009293959697999A9C9D9FA0A2A3A5A7A8F4
:10311000AAACAEB0B2B3B5B7B9BCBEC0C2C5C7C920
:10312000CCCED1D4D7D9DCDFE2E6E9ECF0F3F7FA84
:10313000FE0000004FEA400C0CF1807CBCF17E4F99
:1031400028BF7047B0F1C04000F0A9B890EA010F65
:103150000CEAD11348BF42F48072624538BF634520
:1031600007D213F47F0F16D080EA010000F0004070
:10317000704710B500F04DF8097EFC3E00F005B830
:1031800080EA010000F00040704780EA010000F092
:10319000004000F084B812F47F0F04BF024870476B
:1031A00080EA010000F07BB80000C07FC10DD1F1C2
:1031B0009E0206DB4FEA002343F0004323FA02F0AD
:1031C0007047004207D54FEA4001B1F1FE4F02D2ED
:1031D0004FF00000704710B500F01BF849922480B2
:1031E000002070476FEA200070470000B0FA80F3BB
:1031F00010FA03F2C3F19D030AD0D90501EB1220A6
:10320000530638BF704700F1010008BF20F00100ED
:1032100070470EF1020E2EF0030E5EF8044B2442AE
:1032200004D44FEA4102B2F17F4F11D84FEA400374
:10323000B3F17F4F0CD80ED14FEAD07CB2F17F4F63
:103240000CEB4C0C0CF1020C08BF4CEBD17C04E0F5
:103250004FF0080C01E04FEAD17C0CEB4C0324FA50
:1032600003F404F00704B4F1040C06D20EEB840C52
:10327000BDE810404CF0010C6047DFE80CF0070897
:1032800002024FF00040A0F5800010BD0846420049
:1032900018BFD2F1807288BF00F0004010BDFF213E
:1032A00041EAD050C0057047000000000000000057
:1032B0000000000000000000000000F80000000016
:1032C000000000333000000000100C06100C060057
:1032D000000000000000000040C07840C0784000BE
:1032E000043F04043F040400007088FC0830000020
:1032F000001820FF211E0000F008F000E018000078
:1033000000211C031E211E0000F008887000000030
:103310001E2123241927211010160E000000000082
:103320000000000000000000000000E0180402009F
:10333000000000071820400000020418E000000010
:103340000040201807000000404080F0804040000E
:103350000202010F01020200000000F00000000064
:103360000101011F01010100000000000000000038
:1033700080B07000000000000000000000000000AD
:103380000001010101010101000000000000000036
:1033900000303000000000000000000080601804D1
:1033A000006018060100000000E010080810E000AE
:1033B000000F102020100F00001010F80000000077
:1033C0000020203F202000000070080808887000BE
:1033D000003028242221300000300888884830003E
:1033E0000018202020110E000000C02010F800005E
:1033F00000070424243F240000F8088888080800F7
:103400000019212020110E0000E01088881800000B
:10341000000F112020110E0000380808C8380800DD
:103420000000003F0000000000708808088870005D
:10343000001C222121221C0000E010080810E000DE
:103440000000312222110F00000000C0C000000067
:10345000000000303000000000000080000000008C
:103460000000806000000000000080402010080084
:10347000000102040810200040404040404040004D
:103480000404040404040400000810204080000028
:103490000020100804020100007048080808F0002D
:1034A0000000003036010000C030C828E810E000FD
:1034B0000718272423140B000000C038E000000088
:1034C000203C23020227382008F8888888700000F2
:1034D000203F202020110E00C030080808083800C6
:1034E000071820202010080008F808080810E0003D
:1034F000203F202020100F0008F88888E8081000DE
:10350000203F20202320180008F88888E8081000B1
:10351000203F200003000000C030080808380000E9
:1035200007182020221E020008F808000008F808EA
:10353000203F210101213F20000808F80808000071
:103540000020203F2020000000000808F8080800A4
:10355000C08080807F00000008F888C0281808001C
:10356000203F20012638200008F808000000000055
:10357000203F20202020300008F8F800F8F808004C
:10358000203F003F003F200008F830C00008F80846
:10359000203F200007183F00E01008080810E00056
:1035A0000F10202020100F0008F808080808F0006D
:1035B000203F210101010000E01008080810E00090
:1035C0000F18242438504F0008F888888888700025
:1035D000203F2000030C30200070880808083800C5
:1035E0000038202121221C00180808F808081800BB
:1035F0000000203F2000000008F808000008F8083C
:10360000001F202020201F000878880000C83808EC
:10361000000007380E010000F80800F80008F80064
:10362000033C0700073C03000818688080681808FE
:1036300020302C03032C30200838C800C83808007C
:103640000000203F2000000010080808C8380800CB
:103650002038262120201800000000FE020202006F
:103660000000007F40404000000C30C0000000001F
:10367000000000010638C00000020202FE00000047
:10368000004040407F0000000000040202020400ED
:10369000000000000000000000000000000000002A
:1036A0008080808080808080000202040000000012
:1036B000000000000000000000008080808000000A
:1036C0000019242222223F2008F8008080000000F8
:1036D000003F112020110E000000008080800000BB
:1036E000000E112020201100000000808088F800CA
:1036F000000E112020103F200000808080800000FC
:10370000001F222222221300008080F0888888185F
:103710000020203F2020000000008080808080006A
:10372000006B94949493600008F8008080800000FF
:10373000203F210000203F200080989800000000DA
:103740000020203F2020000000000080989800000A
:1037500000C08080807F000008F80000808080002A
:10376000203F24022D302000000808F8000000004F
:103770000020203F2020000080808080808080000A
:10378000203F20003F20003F80800080808000009C
:10379000203F210000203F2000008080808000002A
:1037A000001F202020201F0080800080800000005B
:1037B00080FFA12020110E0000000080808080008A
:1037C000000E112020A0FF8080808000808080007B
:1037D00020203F21200001000000808080808000A8
:1037E0000033242424241900008080E0808000001D
:1037F0000000001F2020000080800000008080006A
:10380000001F202020103F208080800000808080CA
:1038100000010E300806010080800080008080805A
:103820000F300C030C300F0000808000808080007F
:103830000020312E0E3120008080800000808080AA
:1038400080818E701806010000808080808080005A
:103850000021302C2221300000000000807C020278
:1038600000000000003F404000000000FF0000009A
:1038700000000000FF0000000002027C8000000049
:103880000040403F00000000000601010202040465
:10389000000000000000000006030000010100001D
:1038A000010100000100000001000403000001010B
:1038B00000000101000101010101000102020202F8
:1038C00002020202020202020202020205000000DB
:1038D00000000000000000000000000000000000E8
:1038E00000000000000000000000000000000000D8
:1038F00000000000000000000000000000000000C8
:1039000000000000000000000000000000000000B7
:10391000000000000000010203000100010200019C
:10392000020300004439000800000020D00000001D
:1039300028010008143A0008D0000020700D000093
:103940004401000800000000010203040102030416
:103950000607080902040608000000000000000035
:103960000000000000000000000000000000000057
:103970000000000000000000000000000000000047
:103980000000000000000000000000000000000037
:1039900000000000000000000000460000000000E1
:1039A0000000000000000000000000000000000017
:1039B0000000000000000000000000000000000007
:1039C00000000000000000000000000000000000F7
:1039D00000000000000000000000000000000000E7
:1039E00000000000000000000000000000000000D7
:1039F00000000000000000000000000000000000C7
:103A000000000000000000000000000000000000B6
:043A100000000000B2
:04000005080000ED02
:00000001FF
