:020000040800F2
:10000000D00C002089010008D51A000867090008F3
:100010006B09000819040008812D00080000000089
:10002000000000000000000000000000291F000880
:100030008D06000800000000991D0008E924000852
:10004000A3010008A3010008A3010008A301000800
:10005000A3010008A3010008A3010008A3010008F0
:10006000A3010008A3010008EF060008A30100088F
:100070001D040008A3010008A3010008A301000853
:10008000A301000841040008A3010008A30100081F
:10009000A3010008A3010008A3010008A3010008B0
:1000A000A30100084D250008A3010008A3010008D2
:1000B000692500088D250008C9250008A30100084E
:1000C000A3010008A3010008A3010008A301000880
:1000D000A3010008A3010008092A0008852A0008D6
:1000E000D5060008A3010008A301000800F002F8EB
:1000F00000F03AF80AA090E8000C82448344AAF188
:100100000107DA4501D100F02FF8AFF2090EBAE885
:100110000F0013F0010F18BFFB1A43F0010318473B
:100120001C3100003C310000103A24BF78C878C16F
:10013000FAD8520724BF30C830C144BF04680C60ED
:10014000704700000023002400250026103A28BF35
:1001500078C1FBD8520728BF30C148BF0B60704739
:100160001FB51FBD10B510BD00F050F81146FFF7C8
:10017000F7FF02F007FE00F06EF803B4FFF7F2FF9E
:1001800003BC00F075F800000948804709480047A3
:10019000FEE7FEE7FEE7FEE7FEE7FEE7FEE7FEE737
:1001A000FEE7FEE704480549054A064B7047000094
:1001B000ED240008ED000008D0060020D00C00203F
:1001C000D0080020D008002010B5431C02E010F831
:1001D000011B71B18107FAD14FF0013202C88C1AAC
:1001E0008C4314EAC211F9D0C01A0A0603D0C01E0B
:1001F00010BDC01A10BD0A0401D0801E10BD090236
:10020000FCD0401E10BD704770477047754600F027
:100210002BF8AE4605006946534620F00700854698
:1002200018B020B5FFF7BEFFBDE820404FF0000634
:100230004FF000074FF000084FF0000B21F00701CE
:10024000AC46ACE8C009ACE8C009ACE8C009ACE811
:10025000C0098D46704710B50446AFF300802046B4
:10026000BDE81040FFF789BF004870476C060020CA
:1002700001491820ABBEFEE726000200704721B1FD
:10028000826842F00102826003E0826822F001028B
:100290008260704721B1826842F48072826003E01C
:1002A000826822F4807282607047014600208A686A
:1002B00002F004020AB1012000E00020704701466C
:1002C00000208A6802F008020AB1012000E0002044
:1002D0007047000030B502460020002350680F4CE4
:1002E00020400D790C6844EA052420435060906852
:1002F0000B4C2040D1E902542C434D7944EA45048B
:1003000020439060D06A20F470000C7C641EE4B23C
:10031000234340EA0350D06230BD0000FFFEF0FFEF
:10032000FDF7F1FFF0B504460D4600200021092D30
:1003300011DDE068A5F10A0606EB4607072606FA76
:1003400007F18843A5F10A0606EB460603FA06F113
:100350000843E0600CE0206905EB4507072606FA34
:1003600007F1884305EB450603FA06F108432061CF
:10037000072A0FDA606B561E06EB86071F2606FA61
:1003800007F18843561E06EB860605FA06F1084378
:10039000606322E00D2A0FDA206BD61F06EB86077A
:1003A0001F2606FA07F18843D61F06EB860605FAD4
:1003B00006F10843206310E0E06AA2F10D0606EBA7
:1003C00086071F2606FA07F18843A2F10D0606EB01
:1003D000860605FA06F10843E062F0BD816841F047
:1003E00008018160704721B1826842F4A0028260F6
:1003F00003E0826822F4A00282607047816841F0C5
:1004000004018160704700210160017141718160C8
:10041000C16001210174704700BFFEE710B52020C4
:1004200000F0E8F840B1002001F0D6FF01200349B8
:100430000870202000F01AF810BD00002A000020EB
:1004400010B54FF0007000F0D5F848B10021054814
:1004500000F01AF8012004490870400600F006F880
:1004600010BD0000800002404C00002000F08051D0
:1004700011B10349086001E002494860704700007B
:10048000040402400000024021B1026842F001026F
:10049000026004E002684FF6FE731A400260704783
:1004A00001684FF6FE721140016000210160416059
:1004B0008160C1604B49884208D14A49083949687E
:1004C00041F00F01474A083A51608AE0454914312A
:1004D000884208D143490839496841F0F001414A4E
:1004E000083A51607DE03F492831884208D13D49B2
:1004F0000839496841F470613A4A083A516070E03D
:1005000038493C31884208D136490839496841F4B4
:100510007041344A083A516063E0324950318842B0
:1005200008D130490839496841F470212D4A083A08
:10053000516056E02B496431884208D12949083975
:10054000496841F47001274A083A516049E0254959
:100550007831884208D123490839496841F07061EF
:10056000204A083A51603CE01F49884206D1011FE9
:10057000096841F00F01021F116032E01A4914317D
:10058000884208D11849091F096841F0F001164A4C
:10059000121F116025E014492831884208D1124900
:1005A000091F096841F470610F4A121F116018E0B9
:1005B0000D493C31884208D10B49091F096841F4B3
:1005C0007041094A121F11600BE0074950318842FF
:1005D00007D10549091F096841F47021024A121F19
:1005E0001160704708000240080402400146486854
:1005F00080B2704701460020002201F0805313B101
:10060000054B1A6801E0054B1A6802EA01030BB1B9
:10061000012000E00020704700040240000002407A
:100620001AB103680B43036002E003688B43036065
:10063000704710B50022026847F6F0739A430C6ABF
:100640008B6823430C6923434C6923438C69234300
:10065000CC6923434C6A23438C6A23431A430260C8
:10066000CB6843600B6883604B68C36010BD41601A
:1006700070470021016041608160C160016141619A
:100680008161C1610162416281627047704700B55A
:10069000034603E04FF47A7000F005F8181EA3F14A
:1006A0000103F7D100BD00EBC001C9004FF0E0220B
:1006B0005161002191610521116100BF4FF0E021DE
:1006C000096901F480310029F8D004214FF0E022BB
:1006D0001161704710B54FF4004000F01BF801287D
:1006E00004D1C00300F010F800F0BEFE10BD10B53C
:1006F000102000F00FF8012804D1102000F004F8B9
:1007000000F0B4FA10BD0000014908607047000015
:1007100014040140014600200022074B1B6803EA35
:100720000102054B14331B680B4013B10AB10120C1
:1007300000E0002070470000000401400021234930
:100740008279002A3AD00A46126803689A430B4617
:100750001A600A1D126803689A430B1D1A60027919
:1007600011440A6803681A430A60184A083212687A
:1007700003689A43154B08331A601A1D1268036800
:100780009A43124B0C331A604279102A0ED11A1F69
:10079000126803681A430D4B08331A601A1D126859
:1007A00003681A43094B0C331A600DE0074942797C
:1007B00011440A6803681A430A6005E0027911448B
:1007C0000A6803689A430A60704700000004014009
:1007D0000021016001710C2141710021817170477C
:1007E00030B500228B071C0F0F2303FA04F20B4BCA
:1007F0008C1053F824309343084C8D1044F8253066
:1008000023468C1053F824308C07240F00FA04F48C
:100810002343024C8D1044F8253030BD08000140C0
:100820002DE9F04102460025002600200023002487
:10083000002791F803C00CF00F0591F803C00CF0ED
:10084000100CBCF1000F03D091F802C04CEA050572
:1008500091F800C0BCF1000F31D0146800202BE0EB
:100860004FF0010C0CFA00F3B1F800C00CEA0306DB
:100870009E4220D183004FF00F0C0CFA03F7BC43CB
:1008800005FA03FC4CEA040491F803C0BCF1280FFC
:1008900006D14FF0010C0CFA00FCC2F814C00AE0BB
:1008A00091F803C0BCF1480F05D14FF0010C0CFAD0
:1008B00000FCC2F810C0401C0828D1D31460B1F865
:1008C00000C0BCF1FF0F34DD546800202EE000F1C1
:1008D000080C4FF0010808FA0CF3B1F800C00CEA5C
:1008E00003069E4221D183004FF00F0C0CFA03F750
:1008F000BC4305FA03FC4CEA040491F803C0BCF1C4
:10090000280F05D100F1080C08FA0CF8C2F8148081
:1009100091F803C0BCF1480F07D100F1080C4FF06B
:10092000010808FA0CF8C2F81080401C0828CED341
:100930005460BDE8F0810246002093680B400BB183
:10094000012000E000207047016170474FF6FF7101
:100950000180022181700421C17070470AB10161D8
:1009600000E04161704700BFFEE700BFFEE7000006
:1009700010B590B004464FF4004001F00FFA0BA8F8
:10098000FFF741FD01208DF8310000200E904FF45B
:1009900060200D9000200B908DF83C4001208DF8D8
:1009A00030000BA92148FFF795FC01211F48FFF7F4
:1009B00071FC6846FFF75DFE1C484C3000908015C6
:1009C0000690002004901A4801904FF48060079030
:1009D000802005900020029003940A902020089027
:1009E000C001099069461348FFF723FE01210F4813
:1009F000FFF745FC01210F48FFF746FD0B48FFF7C5
:100A0000EDFC00BF0948FFF75AFC0128FAD007485F
:100A1000FFF7F4FC00BF0548FFF747FC0128FAD0B8
:100A200001210248FFF7DFFC10B010BD0024014097
:100A3000D80000200800024008B56846FFF786FF8E
:100A400010208DF803004002ADF8000003208DF85F
:100A5000020069460248FFF7E3FE00F003F808BD14
:100A6000000C014010B54FF400510248FFF76CFF35
:100A700010BD0000000C014010B5064800780128A8
:100A800002D100F0EFF804E00248007808B900F065
:100A9000E5F810BDA000002010B50C48006840B972
:100AA0000B4801F0CCFD0B490968401A0A4908605F
:100AB0000AE0074801F0C3FD42F2107108440549FD
:100AC0000968401A0449086010BD00008800002031
:100AD000000400409C0000209800002010B504484D
:100AE00001F0ADFD0349086000200349086010BD16
:100AF000000400409C00002088000020044800788A
:100B0000012804D103480068401C0249086070476E
:100B100084000020880000207CB500200090019017
:100B200000240026002500BF15E000210FE01D4A2B
:100B3000165D1DF80020C1F1070306FA03F31A43FE
:100B4000D2B20DF80020621CD4B24A1CD1B20729DF
:100B5000EDDD411CC8B20428E7DD002005E01DF8EA
:100B600000102944CDB2411CC8B20328F7DD9DF81E
:100B70000400A84212D1002005E01DF800100A4A26
:100B80001154411CC8B20328F7DD07488078074993
:100B90000870054800780649087001E000F05EF82A
:100BA0007CBD00000406002094000020A20000206C
:100BB000A300002038B504460D4614201749C8701C
:100BC00010200880032088701548FFF729FE0421B3
:100BD0000020FFF705FE012210211148FFF7BEFE9D
:100BE000102010490860002008710820487100207A
:100BF00088710846FFF7A2FD0A208DF8000000204A
:100C00008DF801008DF8020001208DF80300684680
:100C100000F062FF00F0F8F838BD00007800002016
:100C2000000801407C00002010B50A480078012827
:100C30000FD109480078401C074908700846007821
:100C4000042806DBFFF718FF00200349087001495C
:100C5000087010BD8C000020A400002010B500F02A
:100C600099F810BD10B500F095F810BD10B53E48CC
:100C70000078062874D2DFE800F00304730D205FCB
:100C80006FE0012039490870FFF728FF032036493B
:100C9000087066E0FFF700FF35480068642809D354
:100CA00033480068B42805D804202F490870FFF79E
:100CB00015FF01E0FFF7D2FF53E0FFF7EDFE2C48F0
:100CC00000683C2818D32A4800685A2814D8FFF72F
:100CD00005FF0021274802780078401C254B18703A
:100CE0002548815418460078282824DB05201E4911
:100CF000087000F06BF81EE01D4800686E2818D3DD
:100D00001B480068822814D8FFF7E8FE0122194822
:100D100001780078401C174B187017484254184649
:100D20000078282807DB05200F49087000F04EF8EE
:100D300001E0FFF793FF14E0FFF7AEFE0C480068F8
:100D400028280AD30A4800683C2806D801200B4905
:100D50000870FFF7E1FE02E002E0FFF77FFF00E02E
:100D600000BF00BF10BD00009700002084000020DD
:100D700098000020A100002004060020A000002010
:100D800010B500200249087000F016F810BD0000F0
:100D9000A100002010B500F023F8002003490870DE
:100DA000034908700349087010BD00009700002037
:100DB00084000020A000002010B50C2002494871DA
:100DC0000846FFF7BBFC10BD7C00002010B50820D2
:100DD000024948710846FFF7B1FC10BD7C000020B5
:100DE00010B548200549C8700548FFF719FD0120D6
:100DF000044988710846FFF7A1FC10BD7800002067
:100E0000000801407C00002010B5002005498871D1
:100E10000846FFF793FC10200349C8700348FFF70A
:100E2000FFFC10BD7C00002078000020000801407D
:100E300010B5012007490870002007490870FFF726
:100E4000E3FF002005490870FFF79AFF01200449DD
:100E5000087010BD8D0000208E000020970000203B
:100E60008C00002010B51A48007801282ED11948AE
:100E70000068401C174908601748007810B1012825
:100E800023D10DE0FFF7C0FF002210211348FFF728
:100E900065FD01201049087000200E49086014E02B
:100EA0000C48006800EB800044F6206188420BD3B8
:100EB000FFF796FF01200A490870FFF77DFF002029
:100EC000054908700249087000BF00BF10BD00004E
:100ED0008D000020900000208E00002000080140BE
:100EE0009700002038B5044618208DF803004FF411
:100EF0008060ADF8000003208DF8020069460F48BD
:100F0000FFF78EFC0E4801F018FD00200C49888187
:100F1000602008800020C8814881888001204880A6
:100F2000601EC880074801F063FC0121054801F0FC
:100F300077FB0821034801F0ABFC38BD00080140F5
:100F40004C060020002C01402DE9F04104460D46DE
:100F50000026002003E035F810100E44401CA0428B
:100F6000F9DB204602F0C6F80746304602F0C2F828
:100F70008046394601F0DCFFBDE8F08110B50B4634
:100F8000002105E04C1C30F8144020F81140491CA9
:100F9000541E8C42F6DC511E20F8113010BD0000AA
:100FA00038B504466846FFF7D1FC18208DF80300D9
:100FB0004FF48070ADF8000003208DF80200694600
:100FC0000F48FFF72DFC0F4801F0B7FC00200D493A
:100FD0008881602008800020C881488188800120A5
:100FE0004880601EC880084801F04CFB012106487B
:100FF00001F016FB0821044801F090FB38BD000009
:10100000000801402C060020002C014008B568466D
:10101000FFF79CFC00208DF803000220ADF80000D3
:1010200003208DF8020069460448FFF7F9FB052309
:10103000042209210248FFF775F908BD000C0140A0
:101040000024014038B5044618208DF803004FF401
:101050000060ADF8000003208DF8020069460F48DB
:10106000FFF7DEFB0E4801F068FC00200C49888188
:10107000602008800020C881488188800120488045
:10108000601EC880074801F00DFC0121054801F0F1
:10109000C7FA0821034801F043FC38BD00080140AD
:1010A0005C060020002C014008B56846FFF74EFCA6
:1010B00000208DF803000120ADF8000003208DF81A
:1010C000020069460448FFF7ABFB05230322082111
:1010D0000248FFF727F908BD000C01400024014039
:1010E0007FB505460C461C4801F0C6FA01A801F080
:1010F00081FC0020ADF80A00ADF806004720ADF8ED
:10110000040044F61F60ADF8080000208DF80C00C4
:1011100001A9114801F01CFC01210F4801F06EFAF1
:10112000012211460C4801F09EFA01210A4801F003
:1011300059FA19208DF8000001208DF803008DF870
:1011400001508DF80240684600F0C6FC00210248BC
:1011500001F05AFA7FBD0000002C01407FB5054622
:101160000C464FF0804001F087FA01A801F042FCE4
:101170000020ADF80A00ADF806004720ADF80400E5
:101180000420ADF8080000208DF80C0001A94FF0F4
:10119000804001F0DDFB0121880701F02FFA0122D8
:1011A0001146900701F05FFA0121880701F01AFA51
:1011B0001C208DF8000001208DF803008DF80150EF
:1011C0008DF80240684600F087FC00214FF0804017
:1011D00001F01AFA7FBD000010B507480088401CD6
:1011E00005490880084600880A2803DB002008809B
:1011F00000F0D0F910BD00002400002010B5044616
:1012000006480088401C0549088008460088A0421E
:1012100003DB00200880FFF70BFE10BD2600002036
:1012200010B5044606480088401C05490880084659
:101230000088A04203DB0020088000F0E5FB10BD21
:10124000280000207FB505460C461A4801F014FA24
:1012500001A801F0CFFB0020ADF80A00ADF80600B0
:101260004720ADF8040042F20F70ADF808000020EE
:101270008DF80C0001A90F4801F06AFB01210D480F
:1012800001F0BCF9012211460A4801F0ECF91D20D9
:101290008DF8000001208DF803008DF801508DF8C5
:1012A0000240684600F018FC0021024801F0ACF949
:1012B0007FBD0000000400407FB505460C461A487B
:1012C00001F0DAF901A801F095FB0020ADF80A0061
:1012D000ADF8060040F2CF20ADF804000920ADF8CB
:1012E000080000208DF80C0001A90F4801F030FB28
:1012F00001210D4801F082F9012211460A4801F04E
:10130000B2F91E208DF8000001208DF803008DF841
:1013100001508DF80240684600F0DEFB00210248D3
:1013200001F072F97FBD00000008004010B50446CE
:101330000121204601F068F910BD000008B568469B
:10134000FFF704FB10208DF803000002ADF8000049
:1013500003208DF8020069460248FFF761FA00F0A9
:1013600003F808BD000C014010B54FF4805102484D
:10137000FFF7EAFA10BD0000000C014038B5044642
:101380006846FFF7E3FA18208DF803004FF4007069
:10139000ADF8000003208DF8020069460F48FFF702
:1013A0003FFA0F4801F0C9FA00200D4988816020FA
:1013B00008800020C8814881888001204880601E04
:1013C000C880084801F0B4F90121064801F028F965
:1013D0000821044801F0FEF938BD00000008014072
:1013E0003C060020002C014008B56846FFF7AEFA25
:1013F00000208DF803000220ADF8000003208DF8D6
:10140000020069460448FFF70BFA05230222012176
:101410000248FEF787FF08BD000801400024014094
:1014200010B50D480078032804DA0B480078401CFA
:10143000094908700948008881B203220848FFF76B
:101440009DFD074904480078FFF77EFD044601F042
:1014500031FE0449088010BDC4000020B400002003
:10146000C6000020B800002010B5154800780128FB
:1014700024D11448007858B9134801F0E0F8134912
:1014800008600C2000F060F801200E49087015E09B
:101490000C480078012811D10B4801F0D0F80B4915
:1014A0000968401A0A490860FFF7BAFF082000F0EF
:1014B0004BF80020034908700149087010BD000076
:1014C000B2000020BC00002000040040C00000204A
:1014D000B40000207CB505460C4601A8FFF736FA9B
:1014E00048208DF807004FF40040ADF804000320B9
:1014F0008DF8060001A91248FFF792F90F2101208B
:10150000FFF76EF90F48FFF763F94FF400400D49FC
:101510000860012088710020087108204871084681
:10152000FFF70CF928208DF8000001208DF803004A
:101530008DF801508DF80240684600F0CDFA7CBD70
:10154000000C0140A800002010B504460248447178
:10155000FFF7F4F810BD0000A800002010B50B48FC
:101560000078012811D100F037F809480078401CB4
:101570000749087008460078022806DB00F014F8D6
:101580000020024908700249087010BDB000002018
:10159000BB00002001200249087002490870704712
:1015A000B0000020B100002010B500224FF480519F
:1015B0000648FFF7D3F901200549087000200549C6
:1015C00008700820FFF7C0FF10BD000000080140B0
:1015D000B2000020B300002010B5064800780128B2
:1015E00007D1012201030448FFF7B8F9002001499F
:1015F000087010BDB10000200008014008B5684621
:10160000FFF7A4F910208DF803000002ADF80000E8
:1016100003208DF8020069460448FFF701F9002213
:101620004FF480510148FFF799F908BD00080140C7
:1016300010B50121042000F0EDFB14200449C8700E
:1016400020200880032088700248FFF7E9F810BDC9
:1016500058000020000801400020144A108000BFFC
:1016600009E0134A125C8240104B1B881A430F4B4F
:101670001A80421CD0B21028F3DB0C4800880122EB
:10168000B2EBE03F05D109480088C043401C074A3F
:101690001080064800880011064A10800F21034878
:1016A00000880840044A1080704700006E00002047
:1016B000BC050020700000207200002010B5C0485A
:1016C000C0490978405C072805D2DFE800F073A61E
:1016D000EA05FCFB040071E1BB480068401CBA4904
:1016E0000860BA48BA490978405C30B1012817D07F
:1016F00002282AD003285BD144E001222021B548EA
:10170000FFF72CF900222021B248FFF727F900202B
:10171000AD490860AE480078401CAD49087047E00C
:10172000A948006800EB8000B0F5FA7F0CD30122D5
:101730002021A848FFF712F90020A3490860A44817
:101740000078401CA249087032E09F48006800EB16
:101750008000A1490978884213D320219D48FFF7D2
:10176000EAF858B901209D490870002096490860A0
:1017700097480078401C9649087002E0002097497D
:10178000087015E09448007840F23A21081A8E4912
:10179000096801EB8101884209D800208A49086064
:1017A0008B49087087480078401C8649087000BF44
:1017B00000BF03E184480068401C834908608848F2
:1017C00088490978405C10B1012824D10DE000223D
:1017D00020218048FFF7C2F800207B49086081483B
:1017E0000078401C7F49087015E07748006800EBDE
:1017F00080003C280ED3012220217648FFF7AEF866
:10180000002071490860774908706E480078401CD4
:101810006C49087000BF00BFD0E06B480068401CF6
:1018200069490860704871490978405C20B1012815
:1018300010D0022833D121E0002220216548FFF793
:101840008DF800206049086068480078401C6749AE
:10185000087024E05C48006800EB80000A280CD384
:10186000012220215B48FFF779F8002056490860E3
:101870005E480078401C5D49087010E052480068DE
:1018800000EB8000322809D300204F4908605749F7
:1018900008704C480078401C4A49087000BF00BFDF
:1018A0008CE049480068401C47490860504851494D
:1018B0000978405C40B1012814D0022826D00328C2
:1018C0005CD14AE071E05BE0002220214148FFF753
:1018D00045F800203C49086046480078401C4549CE
:1018E00008704BE03848006800EB800005280CD3F6
:1018F000012220213748FFF731F8002032490860E3
:101900003C480078401C3B49087037E02E4800688E
:1019100000EB800005281FD320212E48FFF70BF88D
:1019200048B10121344802780078401C324B1870CD
:101930003248815408E000212F4802780078401C8A
:101940002D4B18702D48815400201F4908602948EC
:101950000078401C2749087010E01B48006800EB25
:1019600080002D2809D300201749086021490870FC
:1019700014480078401C1349087000BF00BF1DE0E8
:1019800011480068401C104908600846006800EBD8
:1019900080001B49884207D300200B490860094892
:1019A0000078401C0749087008E0FFF755FE012049
:1019B0001449087000200349087000BF00BF10BD23
:1019C000B03100085C000020600000202D320008CB
:1019D000650000200008014066000020670000202C
:1019E000313200086800002033320008690000200E
:1019F000363200086A0000206C000020BC05002080
:101A0000B0710B006400002001200C4908700C49E3
:101A1000087000200B49088082200B4908700020C4
:101A20000A4908700A4908700A4908700A4908708A
:101A30000A4908700A490870704700005C000020DD
:101A40006B0000207400002066000020640000206D
:101A50006500002068000020690000206A00002066
:101A60006C00002010B50D480078012814D10C48F6
:101A70000088401C0A4908800846008840F271210D
:101A800048430849B1EB001F06DC00F00DF80020C8
:101A9000034908800149087010BD00006B00002058
:101AA0007400002080841E0010B5054800780128CD
:101AB00003D104480078012801D000F005F810BDDA
:101AC0006400002067000020002001490870704772
:101AD0005C0000207047000070B5002100230F2239
:101AE000C47804B3154C246804F4E064C4F5E064DD
:101AF000210AC1F10403CA40447804FA03F184784E
:101B00001440214309010E4C0678A155047804F0D5
:101B10001F050124AC4005786D11AD0005F1E025ED
:101B2000C5F8004109E0047804F01F050124AC4029
:101B3000044D0678761145F8264070BD0CED00E0A6
:101B400000E400E080E100E002490143024A116044
:101B5000704700000000FA050CED00E070B50024AD
:101B60000EE00021204600F0E6F8002504E0002009
:101B700000F002F9681CC5B2802DF8DB601CC4B20D
:101B8000082CEEDB70BD000008B50121102000F02C
:101B900041F914208DF8030003208DF802004FF462
:101BA0008040ADF8000069460A48FEF739FE4FF460
:101BB0000040ADF8000069460648FEF731FE0122FC
:101BC00091030448FEF7CAFE0122D1030148FEF743
:101BD000C5FE08BD0010014070B50546002415E0A3
:101BE0008020204100EA05024FF400410E48FEF734
:101BF000B5FE012291030C48FEF7B0FE00224FF41F
:101C000080410948FEF7AAFE601CC4B2082CE7DB3D
:101C1000012291030448FEF7A1FE00224FF4804107
:101C20000148FEF79BFE70BD0010014010B5012277
:101C3000D1030A48FEF792FE012291030748FEF7FE
:101C40008DFE00224FF400410448FEF787FE00227B
:101C50004FF480410148FEF781FE10BD00100140A5
:101C600010B500224FF400410648FEF777FE01222E
:101C700091030448FEF772FE0122D1030148FEF7EA
:101C80006DFE10BD0010014070B5002406E0002577
:101C900000E06D1CB5F57A7FFBD3641CB4F57A7F48
:101CA000F5D3FFF771FFAE2000F056F8D52000F015
:101CB00053F8802000F050F8A82000F04DF83F20A5
:101CC00000F04AF8D32000F047F8002000F044F874
:101CD000402000F041F8A12000F03EF8C82000F0BC
:101CE0003BF8DA2000F038F8122000F035F88120B7
:101CF00000F032F8CF2000F02FF8D92000F02CF8B7
:101D0000F12000F029F8DB2000F026F8302000F068
:101D100023F8A42000F020F8A62000F01DF88D2064
:101D200000F01AF8142000F017F8AF2000F014F8B3
:101D3000FFF714FF70BD70B505460C4645F0B000C6
:101D400000F00AF8102141EA141000F005F804F040
:101D50000F0000F001F870BD10B50446FFF766FFF4
:101D60007820FFF739FF0020FFF736FF2046FFF706
:101D700033FFFFF775FF10BD10B50446FFF756FFA0
:101D80007820FFF729FF4020FFF726FF2046FFF7C6
:101D900023FFFFF765FF10BD7047000001460020DC
:101DA000034A506820F440400843506070470000E8
:101DB0000010024029B1064A52690243044B5A619D
:101DC00004E0034A52698243014B5A6170470000A4
:101DD0000010024029B1064AD2690243044BDA617D
:101DE00004E0034AD2698243014BDA617047000084
:101DF0000010024029B1064A12690243044B1A61DD
:101E000004E0034A12698243014B1A6170470000E3
:101E10000010024029B1064A92690243044B9A61BC
:101E200004E0034A92698243014B9A6170470000C3
:101E30000010024029B1064AD2680243044BDA601E
:101E400004E0034AD2688243014BDA607047000025
:101E50000010024030B500210022002400232D4D47
:101E60006D6805F00C0121B1042905D0082923D1A2
:101E700005E0294D056022E0274D05601FE0254D56
:101E80006D6805F47012234D6D6805F480340225E9
:101E900005EB92421CB9214D554305600BE01D4DE9
:101EA0006D6805F400351DB11C4D5543056002E019
:101EB000194D5543056002E0174D056000BF00BF96
:101EC000144D6D6805F0F0010909154D6B5C05684E
:101ED000DD4045600F4D6D6805F4E061090A104D65
:101EE0006B5C4568DD4085600A4D6D6805F46051A6
:101EF000C90A0B4D6B5C4568DD40C560054D6D68DA
:101F000005F44041890B074D6B5CC568B5FBF3F5E3
:101F1000056130BD0010024000127A0000093D004A
:101F20000000002010000020704710B501214FF480
:101F3000E13000F013F800F0EDF800231A461946DE
:101F40004FF4805000F09AF80121084600F06CF838
:101F50004FF4805000F032F810BD000070B5044618
:101F60000D4601210420FFF755FF01210846FFF728
:101F700051FF01214804FFF72DFF01210846FFF71B
:101F800019FF0C4800F0E6FD0B4800F0EDFE0A4892
:101F900004600020084988810C20488100200881C5
:101FA000C8808880034800F073FE2946014800F08D
:101FB000BCFD70BD004400404C03002010B5044639
:101FC00001224021144800F0BCFD1448FEF768FAD5
:101FD0004FF400701249C860002088608862114880
:101FE00048600020C86180204861202008620A48BB
:101FF000001D0860002088610861084644620748A7
:10200000FEF717FB01210548FEF73EFA00200549BF
:1020100081F8040210BD0000004400406C00024042
:1020200088030020B403002070B505460C460F4815
:10203000FEF78CFC04200D49C8700820088003209E
:1020400088700B48FEF7ECFB012240F2244109485E
:1020500000F0F8FD2620084908700120C8704D7076
:102060008C700846FFF738FD70BD0000400000206E
:102070000008014000440040480000202DE9F041E4
:1020800004460D4616461F461D48FEF709FA1D4830
:10209000FEF7EFFA00201B49C8601020886000207E
:1020A00088624860C8618020486100200862164844
:1020B0000860002088610861084644621048FEF705
:1020C000B8FA1120114908700120C87008464570FF
:1020D0008670FFF701FD012280210B48001F00F0F0
:1020E00030FD012202210648FEF79AFA39460448DB
:1020F000FEF7CAF9012006490870BDE8F08100002A
:10210000800002405C0300200444004044000020A2
:102110004C00002010B50748FEF718FC18200549B0
:10212000C87004200880032088700348FEF778FBFD
:1021300010BD00003C0000200008014070B50546BD
:102140000C461DB114B1B4F5806F02D34FF0FF30CF
:1021500070BD00BF0B4800780028FBD000210A4862
:10216000FEF792F909484560C46001460648FEF74B
:1021700060FA01210448FEF787F900200149087040
:102180000120E5E74C000020800002405C030020B5
:1021900010B501214FF4E13000F014F8012000F0F7
:1021A000D9F800231A4619464FF4005000F08AF877
:1021B00001221146104600F05DF80121480300F0AD
:1021C00027F810BD70B504460D4601210820FFF721
:1021D00021FE01218804FFF7FDFD01210846FFF7DC
:1021E000E9FD094804600020074988810C204881E6
:1021F00000200881C8808880044800F049FD2946F5
:10220000024800F092FC70BDE4020020004800404B
:1022100070B504460D4601224021124800F091FCA1
:102220001148FEF73DF94FF400701049C8600020D6
:10223000886088620E4848600020C861802048613C
:10224000202008620748001D08600020886108619E
:10225000084644620448FEF7ECF929460248FEF7B6
:1022600013F970BD004800403000024020030020F8
:10227000E100002070B504460D46164604200D49C5
:10228000C87040020880032088700B48FEF7C8FA27
:10229000012240F22441094800F0D4FC27200849DB
:1022A00008700120C870084644708570FFF714FC60
:1022B00070BD000030000020000C014000480040CC
:1022C000380000202DE9F04104460D4616461F4611
:1022D000012280211A4800F034FC1A48FEF7E0F889
:1022E00000201949C860102088600020886248607A
:1022F000C86180204861002008621148001D086004
:10230000002088610861084644620E48FEF791F992
:10231000012202210B48FEF783F90C200B490870BB
:102320000120C870084645708670FFF7D5FB394616
:102330000448FEF7A9F8012005490870BDE8F081BE
:10234000004800401C000240F4020020340000203D
:102350002A00002010B5044601210846FFF75AFD67
:1023600018200549C8704FF48060088003208870E9
:102370000248FEF755FA10BD2C000020000C014069
:1023800070B505460C46002C03DD15B1B4F57A7F17
:1023900002DB4FF0FF3070BD00BF0C480078002812
:1023A000FBD0002000F018F809484560C4600146E1
:1023B0000848FEF73EF9012000F00EF8012000F079
:1023C00015F80020014908700120E4E72A000020E8
:1023D000F40200201C00024010B5044621460248C9
:1023E000FEF752F810BD00001C00024010B5044674
:1023F0002146024800F099FB10BD00000048004053
:1024000010B500F001F810BD0CB50020019000904F
:102410003348006840F480303149086000BF3048DC
:10242000006800F4003000900198401C0190009872
:1024300018B90198B0F5A06FF1D12948006800F4EF
:10244000003010B10120009001E0002000900098C1
:10245000012843D12348006840F01000214908605A
:102460000846006820F0030008600846006840F055
:10247000020008601A4840681949486008464068E8
:1024800048600846406840F48060486008464068FC
:1024900020F47C1048600846406840F4E81048602A
:1024A0000846006840F08070086000BF0C48006873
:1024B00000F000700028F9D00948406820F00300BF
:1024C000074948600846406840F00200486000BF85
:1024D0000348406800F00C000828F9D10CBD00004A
:1024E00000100240002002407047000010B5134861
:1024F000006840F001001149086008464068104932
:1025000008400E494860084600680E4908400B49DB
:1025100008600846006820F480200860084640688B
:1025200020F4FE0048604FF41F008860FFF768FF4A
:102530004FF000600449086010BD00000010024028
:102540000000FFF8FFFFF6FE08ED00E010B50121E6
:10255000044800F077F8012803D10121014800F078
:1025600050F810BD002C014010B50121880700F083
:1025700069F8012809D10121800700F042F8FEF72F
:10258000EDFFFEF76FFCFFF799F810BD10B50121C4
:102590000C4800F057F8012812D10121094800F039
:1025A00030F8FEF719FE6420FEF728FEFEF7A6FAC3
:1025B000FEF73AFB4FF49670FEF732FEFFF752FA41
:1025C00010BD00000004004010B50121044800F0D7
:1025D00039F8012803D10121014800F012F810BD9B
:1025E0000008004021B1028842F08002028004E02D
:1025F00002884FF67F731A4002807047CA430282F6
:102600007047CA430282704721B1028842F001023A
:10261000028004E002884FF6FE731A400280704781
:1026200031B1B0F8442042F40042A0F8442005E063
:10263000B0F84420C2F30E02A0F8442070470146CF
:10264000888C704730B50246002000230024158A8C
:1026500005EA0103958905EA010413B10CB10120D3
:1026600000E0002030BD1AB183890B43838102E072
:1026700083898B438381704701894FF6F87211403B
:102680000181704770B5002400220023058C4FF6AD
:10269000FE7635400584028C8388048B4FF68F7557
:1026A0002C40B51E2C400D882C43751E2A400D89E8
:1026B0002A434D882A43144DA8420BD0134DA842FB
:1026C00008D0134DA84205D0124DA84202D0124D99
:1026D000A84213D14FF6F7752A404D892A434FF689
:1026E000FB752A408D882A434FF6FF652B404FF635
:1026F000FF552B408D892B43CD892B438380048349
:10270000CD888586028470BD002C014000340140D4
:102710000040014000440140004801400A460021B9
:10272000018B4FF6F7731940114301837047000086
:1027300070B5002400220023058C4FF6EF7635405B
:102740000584028C8388048B48F6FF752C404FF675
:10275000FF452C400D884FF6FF7606EA05252C43F1
:102760004FF6DF752A400D8906EA05152A434D8884
:1027700006EA05152A43154DA84202D0144DA84279
:102780001DD14FF67F752A404D894FF6FF7606EA38
:1027900005152A434FF6BF752A408D8806EA0515B0
:1027A0002A434FF6FF352B404FF2FF752B408D89A2
:1027B00006EA85052B43CD8906EA85052B438380F0
:1027C0000483CD880587028470BD0000002C014081
:1027D000003401400A460021018B4FF2FF7319407B
:1027E0004FF6FF7303EA0223194301837047000089
:1027F00070B5002400220023058C4FF6FF6635409B
:102800000584028C8388848B4FF68F752C404FF69D
:10281000FC752C400D882C434FF6FF552A400D893E
:102820004FF6FF7606EA05252A434D8806EA052578
:102830002A43154DA84202D0144DA8421DD14FF293
:10284000FF752A404D894FF6FF7606EA05252A4393
:102850004FF6FF352A408D8806EA05252A434EF6B5
:10286000FF752B404DF6FF752B408D8906EA051547
:102870002B43CD8906EA05152B4383808483CD88BD
:102880008587028470BD0000002C014000340140A7
:102890000A460021818B4FF6F7731940114381835B
:1028A0007047000070B5002200230024058C4EF60E
:1028B000FF7635400584038C8488828B48F6FF754B
:1028C0002A404FF6FF452A400D884FF6FF7606EA6C
:1028D00005252A434DF6FF752B400D8906EA05357F
:1028E0002B434D8806EA05352B430B4DA84202D0F9
:1028F0000A4DA84208D14BF6FF752C408D894FF642
:10290000FF7606EA85152C4384808283CD88A0F863
:102910004050038470BD0000002C01400034014091
:102920000A460021818B4FF2FF7319404FF6FF7367
:1029300003EA02231943818370470021018041800B
:102940008180C180018141818181C1817047000006
:10295000002202881D4B98420ED01D4B98420BD08E
:10296000B0F1804F08D01B4B984205D01A4B9842CB
:1029700002D01A4B984204D14FF68F731A404B88FD
:102980001A43174B984207D0164B984204D04FF683
:10299000FF431A40CB881A4302808B8883850B88BB
:1029A00003850A4B98420BD0094B984208D00E4B36
:1029B000984205D00D4B984202D00D4B984201D160
:1029C0000B7A03860123838270470000002C0140AC
:1029D000003401400004004000080040000C0040AA
:1029E000001000400014004000400140004401403D
:1029F000004801404FF6FF71818000210180C180B5
:102A0000418001727047000008B540F224411A4825
:102A100000F0EEF878B31848008800901648001DC2
:102A20000088009000211548FDF72EFD1348FDF7A2
:102A3000DDFDC0F500701249C1F800020020D1F898
:102A400000120F4A50541046D0F80002401C1146A4
:102A5000C1F80002012081F8040241020748FDF795
:102A600006FE01210548FDF70FFD40F22441024812
:102A700000F04CF800BF08BD004400406C0002406C
:102A8000B403002038B540F224411C4800F0B0F8EF
:102A9000012832D11948008800901848001D00888C
:102AA000009000211648FDF7EFFC1548FDF79EFD4C
:102AB000C0F5007084B2601C84B2601EB0F5007F67
:102AC00002DA00220F490A5401200E49491E0870FB
:102AD00041020B48FDF7CBFD0B490948FDF7A9FD65
:102AE00001210748FDF7D0FC0120FFF77FFC40F2F1
:102AF0002441024800F00AF800BF38BD00480040F9
:102B000030000240E10000202003002010B5002228
:102B1000002340F66A14A14200D100BF0A1201242A
:102B20009440A3B2DC43048010BD21B1828942F4F9
:102B30000052828104E082894DF6FF731A4082813F
:102B400070471AB1838A0B43838202E0838A8B43E6
:102B50008382704710B504462048844209D1012180
:102B60008803FFF767F900214FF48040FFF762F90F
:102B700032E01B48844209D101214804FFF73AF9A9
:102B800000214FF40030FFF735F925E01548844265
:102B900009D101218804FFF72DF900214FF480208D
:102BA000FFF728F918E01048844209D10121C80430
:102BB000FFF720F900214FF40020FFF71BF90BE08D
:102BC0000A48844208D101210805FFF713F90021C2
:102BD0004FF48010FFF70EF910BD000000380140DF
:102BE0000044004000480040004C004000500040BD
:102BF00070B50246002400230025002040F66A1626
:102C0000B14200D100BFC1F3421501F01F030126FC
:102C100006FA03F3012D02D19689334006E0022D16
:102C200002D1168A334001E0968A33400C12012605
:102C300006FA04F41688344013B10CB1012000E008
:102C4000002070BDF0B503460024002600250020BA
:102C500040F66A17B94200D100BF1846C1F34214CA
:102C600001F01F06012707FA06F5012C01D10C30EF
:102C700004E0022C01D1103000E014301AB10768D2
:102C80002F43076002E00768AF430760F0BD000014
:102C90002DE9F04786B005460E460024A24600BF47
:102CA000A1460027B08900B100BF2F462C8A4CF600
:102CB000FF700440F08804432C82AC894EF6F31078
:102CC0000440B08831890843718908430443AC81CA
:102CD000AC8A4FF6FF400440B0890443AC8201A89F
:102CE000FFF7B8F81F48874202D1DDF810A001E0D5
:102CF000DDF80CA0A88900F4004040B10AEBCA003E
:102D000000EB0A1031684900B0FBF1F807E00AEB6C
:102D1000CA0000EB0A1031688900B0FBF1F86420AA
:102D2000B8FBF0F004012009642101FB1089A88997
:102D300000F4004040B1322000EBC900B0FBF1F0DC
:102D400000F00700044308E0322000EB0910642182
:102D5000B0FBF1F000F00F0004432C8106B0BDE899
:102D6000F0870000003801404FF416510160002147
:102D70008180C18001810C214181002181817047C6
:102D800000BFFEE74FF47A70FDF781FC0121480493
:102D9000FFF720F801218804FFF71CF80121C80281
:102DA000FFF738F801210846FFF714F80121022047
:102DB000FFF710F801210420FFF70CF8012104208F
:102DC000FFF728F801210820FFF724F8012110203F
:102DD000FFF720F801210846FFF71CF801214802FF
:102DE000FFF718F801210846FEF7E4FF4FF4A06052
:102DF000FEF7AAFEFEF748FFFEF7B0FE03210846E5
:102E0000FEF76EF901210846FEF7A8F901210846F0
:102E1000FEF718FA00210846FEF74EFA3648FEF78C
:102E200085FA4FF08040FEF781FA3448FEF77EFACB
:102E30003348FEF77BFAFEF7FBFB01210846FDF75E
:102E4000B9FEFEF7DBFB00210846FEF743FB4FF41B
:102E5000FA70FEF7A5F82B480088FEF78FFA2A488B
:102E6000006800F027F984B22046FEF73BF82748B7
:102E7000006800F01FF984B22046FEF7E3F8FEF781
:102E8000B3FAFEF711F9FEF7C1F80420FDF770FD63
:102E9000FDF7D2FDFEF752FAFFF77AF9FFF745F892
:102EA0000C211BA0FFF74AF924E01D4890F804020A
:102EB00001280AD11A48B0F8000281B21848FFF779
:102EC0005FFA0020164981F80402164800780128AC
:102ED00010D1062114A0FFF731F91248401CFDF76C
:102EE00073F9044621460F48401CFFF727F90020DC
:102EF0000C490870D9E70000002C01400004004094
:102F000000080040CC000020D0000020D4000020A9
:102F100053657269616C325F4F6E0D0A00000000EC
:102F2000B4030020E00000207278333A0D0A00005C
:102F30004FF47F0C1CEAD0121EBF1CEAD11392EA98
:102F40000C0F93EA0C0F00F0858090EA010F48BF48
:102F500042F4807240F4000C41F400002CF07F41F8
:102F600020F07F4000B58142A2EB03020FF2081C63
:102F7000ACEB504EC0F100009EF800E04FEA4E0E60
:102F800000FB0EFC38BF49004FEA2C1C02F5FA0288
:102F90000CFB0EF34FEACE1E4FEA112C4FEAC12173
:102FA0000EEB635E42EB22420EFB0CFC4FEA1C531D
:102FB00000FB03114FEA112C4FEA01310EFB0CFC10
:102FC0004FEADC4C00FB0C11C14228BF09184CEB46
:102FD00003335DF804EB10EB410143EBC250B2F553
:102FE0007C0F38BF704729D512F0F00F1CBF00F1DD
:102FF000C04000F00040704700818283848586874E
:1030000088898B8C8D8E8F919293959697999A9CA7
:103010009D9FA0A2A3A5A7A8AAACAEB0B2B3B5B716
:10302000B9BCBEC0C2C5C7C9CCCED1D4D7D9DCDFEC
:10303000E2E6E9ECF0F3F7FAFE0000004FEA400C9C
:103040000CF1807CBCF17E4F28BF7047B0F1C040CE
:1030500000F0A9B890EA010F0CEAD11348BF42F47E
:103060008072624538BF634507D213F47F0F16D0D4
:1030700080EA010000F00040704710B500F04DF804
:10308000097EFC3E00F005B880EA010000F0004037
:10309000704780EA010000F0004000F084B812F4AC
:1030A0007F0F04BF0248704780EA010000F07BB840
:1030B0000000C07FC10DD1F19E0206DB4FEA002364
:1030C00043F0004323FA02F07047004207D54FEA6D
:1030D0004001B1F1FE4F02D24FF00000704710B531
:1030E00000F01BF849922480002070476FEA20000E
:1030F00070470000B0FA80F310FA03F2C3F19D03A9
:103100000AD0D90501EB1220530638BF704700F1F1
:10311000010008BF20F0010070470EF1020E2EF0F2
:10312000030E5EF8044B244204D44FEA4102B2F18C
:103130007F4F11D84FEA4003B3F17F4F0CD80ED127
:103140004FEAD07CB2F17F4F0CEB4C0C0CF1020C2F
:1031500008BF4CEBD17C04E04FF0080C01E04FEAD3
:10316000D17C0CEB4C0324FA03F404F00704B4F113
:10317000040C06D20EEB840CBDE810404CF0010CA0
:103180006047DFE80CF0070802024FF00040A0F5AE
:10319000800010BD0846420018BFD2F1807288BF7F
:1031A00000F0004010BDFF2141EAD050C00570473B
:1031B0000603000001010000010100000100000001
:1031C00001000403000001010000010100010101F0
:1031D00001010001020202020202020202020202D4
:1031E00002020202050000000000000000000000D2
:1031F00000000000000000000000000000000000CF
:1032000000000000000000000000000000000000BE
:1032100000000000000000000000000000000000AE
:10322000000000000000000000000000000001029B
:103230000300010001020001020300005C320008EB
:1032400000000020E0000000280100083C330008D6
:10325000E0000020F00B0000440100080000000026
:103260000102030401020304060708090204060818
:10327000000000000000000000000000000000004E
:10328000000000000000000000000000000000003E
:10329000000000000000000000000000000000002E
:1032A000000000000000000001000000000000001D
:1032B000000000000000000000000000000000000E
:1032C00000004600000000000000000000000000B8
:1032D00000000000000000000000000000000000EE
:1032E00000000000000000000000000000000000DE
:1032F00000000000000000000000000000000000CE
:1033000000000000000000000000000000000000BD
:1033100000000000000000000000000000000000AD
:10332000000000000000000000000000000000009D
:0C33300000000000000000000000000091
:04000005080000ED02
:00000001FF
