:020000040800F2
:10000000F8170020D9010008C9220008CF0F000806
:10001000D30F00087D0A0008D73700080000000051
:100020000000000000000000000000001D27000884
:10003000F10C0008000000008D250008A12C00082C
:10004000F3010008F3010008F3010008F3010008C0
:10005000F3010008F3010008F3010008F3010008B0
:10006000F3010008F3010008530D0008F301000834
:10007000810A0008F3010008F3010008F3010008F9
:10008000F3010008A50A0008F3010008F3010008C5
:10009000F3010008F3010008F3010008F301000870
:1000A000F3010008052D0008F3010008F301000822
:1000B000212D0008452D0008812D0008F3010008BE
:1000C000F3010008F3010008F3010008F301000840
:1000D000F3010008F3010008C1310008F9310008FC
:1000E000390D0008F3010008F301000800F002F8E0
:1000F00000F063F80AA090E8000C82448344AAF15F
:100100000107DA4501D100F058F8AFF2090EBAE85C
:100110000F0013F0010F18BFFB1A43F0010318473B
:10012000703C0000903C00000A444FF0000C10F8B6
:10013000013B13F0070408BF10F8014B1D1108BF65
:1001400010F8015B641E05D010F8016B641E01F805
:10015000016BF9D113F0080F1EBF10F8014BAD1C55
:100160000C1B09D16D1E58BF01F801CBFAD505E073
:1001700014F8016B01F8016B6D1EF9D59142D6D3CD
:10018000704700000023002400250026103A28BFF5
:1001900078C1FBD8520728BF30C148BF0B607047F9
:1001A0001FB500F0F7F904000020002103F0C8FBA0
:1001B000401C60601FBD10B510BD00F0C6F91146AF
:1001C000FFF7EEFF03F00AFB00F0F6F903B4FFF7C8
:1001D000F2FF03BC00F03AFA09488047094800479B
:1001E000FEE7FEE7FEE7FEE7FEE7FEE7FEE7FEE7E7
:1001F000FEE7FEE704480549054A064B7047000044
:10020000A52C0008ED000008F8110020F8170020C8
:10021000F8130020F813002070B5064600F0CCF863
:100220000468054630460A22002100F0C9F82C6017
:1002300070BD30B505460B462A4613F8014B12F83F
:10024000010B08B1A042F8D01CB1002802D06D1CEF
:10025000F1E7284630BD10B5431C02E010F8011B41
:1002600071B18107FAD14FF0013202C88C1A8C4368
:1002700014EAC211F9D0C01A0A0603D0C01E10BD7C
:10028000C01A10BD0A0401D0801E10BD0902FCD0A6
:10029000401E10BD032A40F2308010F0030C00F025
:1002A000158011F8013BBCF1020F624498BF11F8B0
:1002B00001CB00F8013B38BF11F8013BA2F1040269
:1002C00098BF00F801CB38BF00F8013B11F00303E1
:1002D00000F0AE80083AC0F0088051F8043B083ABC
:1002E00051F804CBA0E80810F5E7121D5CBF51F8E7
:1002F000043B40F8043BAFF30080D20724BF11F861
:10030000013B11F801CB48BF11F8012B24BF00F8C5
:10031000013B00F801CB48BF00F8012B70474FF0BC
:1003200000020429C0F0128010F0030C00F01B80C2
:10033000CCF1040CBCF1020F18BF00F8012BA8BFD0
:1003400020F8022BA1EB0C0100F00DB85FEAC17C94
:1003500024BF00F8012B00F8012B48BF00F8012B47
:1003600070474FF0000200B5134694469646203978
:1003700022BFA0E80C50A0E80C50B1F12001BFF45E
:10038000F7AF090728BFA0E80C5048BF0CC05DF8C4
:1003900004EB890028BF40F8042B08BF704748BF12
:1003A00020F8022B11F0804F18BF00F8012B704786
:1003B0007047704770470000004870479811002050
:1003C0002DE9F04791460F4680460446002614F872
:1003D000015B2DB100F062F80068405DC007F6D106
:1003E0002B2D02D02D2D18D0641E4A4639462046AA
:1003F00000F05CF827B13968A14201D1C7F800804C
:100400004FF0020471050BD54042002803DDFFF7D1
:10041000D3FF0460A007BDE8F08746F48066E4E7F8
:100420000028F8DAFFF7C8FF04606FF00040F2E739
:1004300010B5203AC0F00B80B1E81850203AA0E87F
:100440001850B1E81850A0E81850BFF4F5AF5FEAB3
:10045000027C24BFB1E81850A0E8185044BF18C966
:1004600018C0BDE810405FEA827C24BF51F8043B0D
:1004700040F8043B08BF7047D20728BF31F8023B61
:1004800048BF11F8012B28BF20F8023B48BF00F8F5
:10049000012B7047004870479811002010B500F0FC
:1004A00079F8001D10BD00BF993400002DE9F05F00
:1004B000824615468B4600270AF10104B9460078AA
:1004C000302801D09DB113E014F8010B01277828E2
:1004D00003D0582801D045B10AE00DB1102D07D145
:1004E000002714F8010B102502E0082500E00A257A
:1004F0000026B0460EE005FB080005FB06F10127CB
:100500001FFA80F801EB1046B6F5803F00D3B946DC
:1005100014F8010B294600F041F80028EBDABBF192
:10052000000F05D00FB1641E00E05446CBF8004028
:10053000B9F1000F06D0FFF73FFF02210160C81E8E
:10054000BDE8F09F48EA0640FAE77546FFF7A2FFCC
:10055000AE4605006946534620F00700854618B0B0
:1005600020B5FFF747FEBDE820404FF000064FF0F2
:1005700000074FF000084FF0000B21F00701AC46D8
:10058000ACE8C009ACE8C009ACE8C009ACE8C009F7
:100590008D46704700487047B81100203A2800D2B5
:1005A000303820F02002412A01D3A2F137008842DE
:1005B00001D34FF0FF30704710B50446AFF3008011
:1005C0002046BDE81040FFF701BE00004FF0013C9F
:1005D00050F8042B51F8043B9A4221D1A2EB0C03B2
:1005E000934313EACC1317D150F8042B51F8043B72
:1005F0009A4215D1A2EB0C03934313EACC130BD10F
:1006000050F8042B51F8043B9A4209D1A2EB0C0399
:10061000934313EACC13DBD04FF00000704700BFC8
:10062000D01A01BAB1FA81F101F0180122FA01F0F1
:10063000CB40C1F12001DBB2C0B2C01A2CFA01F3E9
:10064000D11A914311EAC311E6D17047014918202C
:10065000ABBEFEE726000200704721B1826842F07F
:100660000102826003E0826822F00102826070472A
:1006700021B1826842F48072826003E0826822F4D1
:10068000807282607047014600208A6802F004028E
:100690000AB1012000E000207047014600208A686E
:1006A00002F008020AB1012000E0002070470000BB
:1006B00030B502460020002350680F4C20400D79D1
:1006C0000C6844EA05242043506090680B4C20409D
:1006D000D1E902542C434D7944EA4504204390600B
:1006E000D06A20F470000C7C641EE4B2234340EA1C
:1006F0000350D06230BD0000FFFEF0FFFDF7F1FFB8
:10070000F0B504460D4600200021092D11DDE068FA
:10071000A5F10A0606EB4607072606FA07F1884305
:10072000A5F10A0606EB460603FA06F10843E06067
:100730000CE0206905EB4507072606FA07F1884318
:1007400005EB450603FA06F108432061072A0FDA94
:10075000606B561E06EB86071F2606FA07F18843D4
:10076000561E06EB860605FA06F10843606322E092
:100770000D2A0FDA206BD61F06EB86071F2606FA16
:1007800007F18843D61F06EB860605FA06F10843F3
:10079000206310E0E06AA2F10D0606EB86071F2633
:1007A00006FA07F18843A2F10D0606EB860605FA64
:1007B00006F10843E062F0BD816841F00801816004
:1007C000704721B1826842F4A002826003E082682F
:1007D00022F4A00282607047816841F004018160C8
:1007E000704700210160017141718160C160012188
:1007F0000174704710B57F2222A1264800F00CFF3B
:100800007F2225A1234800F007FF7F2223492148AA
:1008100000F002FF7F2222A11E4800F0FDFE7F2291
:1008200022A1294800F0F8FE7F2228A1264800F0E6
:10083000F3FE7F2226A1354800F0EEFE7F2234A190
:10084000324800F0E9FE7F220EA1344800F0E4FEB9
:100850007F2233A1314800F0DFFEFF2209A1324898
:1008600000F0DAFEFF2231492F4800F0D5FEFF22CA
:1008700004A12F4800F0D0FEFF222EA12C4800F04A
:10088000CBFE10BD41514151323530333239303118
:1008900000000000A8000020222C2200F83C0008E4
:1008A000222C302C302C22220D0A000041514151C3
:1008B00032353033323930315F305F305F32303291
:1008C000353033323930370027010020220D0A003D
:1008D000616430636535633731662E7374312E6918
:1008E0006F7464612D6465766963652E636E2D6E29
:1008F0006F7274682D342E6D7968756177656963E0
:100900006C6F75642E636F6D00000000A6010020FF
:10091000222C313838332C310D0A000025020020FA
:10092000222C300D0A000000A40200203C3D0008EB
:10093000A30300202F7379732F636F6D6D616E6455
:10094000732F726573706F6E73652F726571756545
:1009500073745F69643D00002DE9FF4F83B09246D8
:100960001C464B212046FFF7DAFC31A10398FFF724
:1009700060FC05461DB9002007B0BDE8F08F6D1D75
:100980002DA12846FFF755FC06460EB90020F3E7D7
:10099000B61E701B00F1010B5A4629462046FFF790
:1009A00079FC002004F80B000290814614E05AF80C
:1009B00039100398FFF73DFC07464FB10AEBC90019
:1009C000807984F840000AEBC9008088029007E033
:1009D00009F1010000F0FF09184800788145E6DBC5
:1009E00000BF0FB90020C7E702983844801C01906F
:1009F00013A13846FFF71DFC8046B8F1000F01D166
:100A00000020B9E7A8F101080198A8EB0000401CFC
:100A100080B2009004F14100DDE90021FFF73AFCCB
:100A2000002204F1410100980A540020A4E70000CC
:100A3000745F69643D0000002C000000A6040020E3
:100A40007D2C00002DE9F04107468846154600241C
:100A50000BE005EBC40638463168FFF7EAFB10B13E
:100A6000B079BDE8F081601CC4B2034800788442CC
:100A7000EFDB0020F5E70000A504002000BFFEE743
:100A800010B5202000F0E8F840B1002002F036F860
:100A9000012003490870202000F01AF810BD000062
:100AA0003300002010B54FF0007000F0D5F8012899
:100AB00009D10021044800F019F801200349087009
:100AC000400600F005F810BD800002404C050020F3
:100AD00000F0805111B10349086001E0024948600B
:100AE00070470000040402400000024021B1026887
:100AF00042F00102026004E002684FF6FE731A4001
:100B00000260704701684FF6FE72114001600021DB
:100B1000016041608160C1604B49884208D14A4907
:100B20000839496841F00F01474A083A51608AE0A4
:100B300045491431884208D143490839496841F090
:100B4000F001414A083A51607DE03F49283188422E
:100B500008D13D490839496841F470613A4A083A78
:100B6000516070E038493C31884208D13649083933
:100B7000496841F47041344A083A516063E03249AF
:100B80005031884208D130490839496841F4702110
:100B90002D4A083A516056E02B496431884208D109
:100BA00029490839496841F47001274A083A5160D7
:100BB00049E025497831884208D1234908394968F4
:100BC00041F07061204A083A51603CE01F49884278
:100BD00006D1011F096841F00F01021F116032E0C8
:100BE0001A491431884208D11849091F096841F08F
:100BF000F001164A121F116025E01449283188427D
:100C000008D11249091F096841F470610F4A121F87
:100C1000116018E00D493C31884208D10B49091F89
:100C2000096841F47041094A121F11600BE007493D
:100C30005031884207D10549091F096841F47021E4
:100C4000024A121F11607047080002400804024067
:100C50000146486880B2704701460020002201F03A
:100C6000805313B1054B1A6801E0054B1A6802EA7C
:100C700001030BB1012000E0002070470004024096
:100C8000000002401AB103680B43036002E00368EE
:100C90008B430360704710B50022026847F6F0737B
:100CA0009A430C6A8B6823430C6923434C692343A2
:100CB0008C692343CC6923434C6A23438C6A2343C6
:100CC0001A430260CB6843600B6883604B68C36063
:100CD00010BD416070470021016041608160C160CA
:100CE000016141618161C16101624162816270475C
:100CF000704700B5034603E04FF47A7000F005F842
:100D0000181EA3F10103F7D100BD00EBC001C9001B
:100D10004FF0E0225161002191610521116100BF76
:100D20004FF0E021096901F480310029F8D0042155
:100D30004FF0E0221161704710B54FF4004000F011
:100D40001BF8012804D1C00300F010F800F086FF62
:100D500010BD10B5102000F00FF8012804D11020AC
:100D600000F004F800F0CCFA10BD00000149086062
:100D70007047000014040140014600200022074B88
:100D80001B6803EA0102054B14331B680B4013B1C7
:100D90000AB1012000E0002070470000000401407B
:100DA000002123498279002A3AD00A461268036852
:100DB0009A430B461A600A1D126803689A430B1D7A
:100DC0001A60027911440A6803681A430A60184AD3
:100DD0000832126803689A43154B08331A601A1DCB
:100DE000126803689A43124B0C331A604279102A36
:100DF0000ED11A1F126803681A430D4B08331A608C
:100E00001A1D126803681A43094B0C331A600DE06F
:100E10000749427911440A6803681A430A6005E0E9
:100E2000027911440A6803689A430A607047000017
:100E3000000401400021016001710C214171002179
:100E40008171704730B500228B071C0F0F2303FA06
:100E500004F20B4B8C1053F824309343084C8D1044
:100E600044F8253023468C1053F824308C07240F87
:100E700000FA04F42343024C8D1044F8253030BDB1
:100E8000080001402DE9F04102460025002600201F
:100E900000230024002791F803C00CF00F0591F8FF
:100EA00003C00CF0100CBCF1000F03D091F802C08D
:100EB0004CEA050591F800C0BCF1000F31D0146870
:100EC00000202BE04FF0010C0CFA00F3B1F800C049
:100ED0000CEA03069E4220D183004FF00F0C0CFA5F
:100EE00003F7BC4305FA03FC4CEA040491F803C081
:100EF000BCF1280F06D14FF0010C0CFA00FCC2F82F
:100F000014C00AE091F803C0BCF1480F05D14FF0BE
:100F1000010C0CFA00FCC2F810C0401C0828D1D308
:100F20001460B1F800C0BCF1FF0F34DD546800203C
:100F30002EE000F1080C4FF0010808FA0CF3B1F8AC
:100F400000C00CEA03069E4221D183004FF00F0C33
:100F50000CFA03F7BC4305FA03FC4CEA040491F8CD
:100F600003C0BCF1280F05D100F1080C08FA0CF8F9
:100F7000C2F8148091F803C0BCF1480F07D100F10A
:100F8000080C4FF0010808FA0CF8C2F81080401C59
:100F90000828CED35460BDE8F08102460020936853
:100FA0000B400BB1012000E0002070474161704709
:100FB000016170474FF6FF710180022181700421A9
:100FC000C17070470AB1016100E04161704700BF24
:100FD000FEE700BFFEE7000010B590B004464FF4F6
:100FE000004001F0D5FA0BA8FFF7FBFB01208DF8BC
:100FF000310000200E904FF460200D9000200B90E7
:101000008DF83C4001208DF830000BA92148FFF7F6
:101010004FFB01211F48FFF72BFB6846FFF75BFEE4
:101020001C484C30009080150690002004901A480F
:1010300001904FF48060079080200590002002907E
:1010400003940A9020200890C00109906946134833
:10105000FFF721FE01210F48FFF7FFFA01210F489A
:10106000FFF744FD0B48FFF7A7FB00BF0948FFF758
:1010700014FB0128FAD00748FFF7AEFB00BF054874
:10108000FFF701FB0128FAD001210248FFF799FB85
:1010900010B010BD002401403005002008000240BF
:1010A00008B56846FFF786FF10208DF80300400260
:1010B000ADF8000003208DF8020069460248FFF7F2
:1010C000E1FE00F003F808BD000C014010B54FF43C
:1010D00000510248FFF76CFF10BD0000000C0140FA
:1010E00010B50446074804702CB94FF40051064867
:1010F000FFF75CFF05E0012C03D161030248FFF715
:1011000057FF10BD38050020000C014010B50648FF
:101110000078012802D100F0EFF804E002480078DE
:1011200008B900F0E5F810BDF404002010B50C4833
:10113000006840B90B4801F05EFE0B490968401A8F
:101140000A4908600AE0074801F055FE42F21071B2
:10115000084405490968401A0449086010BD0000A8
:10116000DC04002000040040F0040020EC04002017
:1011700010B5044801F03FFE034908600020034910
:10118000086010BD00040040F0040020DC040020D2
:1011900004480078012804D103480068401C024933
:1011A00008607047D8040020DC0400207CB50020D3
:1011B0000090019000240026002500BF15E00021CA
:1011C0000FE01D4A165D1DF80020C1F1070306FA65
:1011D00003F31A43D2B20DF80020621CD4B24A1CA9
:1011E000D1B20729EDDD411CC8B20428E7DD00209B
:1011F00005E01DF800102944CDB2411CC8B20328F7
:10120000F7DD9DF80400A84212D1002005E01DF88A
:1012100000100A4A1154411CC8B20328F7DD0748E0
:10122000807807490870054800780649087001E091
:1012300000F05EF87CBD0000C6100020E80400202D
:10124000F6040020F704002038B504460D461420AB
:101250001749C87010200880032088701548FFF7D0
:1012600011FE04210020FFF7EDFD0122102111489D
:10127000FFF7A8FE10201049086000200871082020
:101280004871002088710846FFF78AFD0A208DF812
:10129000000000208DF801008DF8020001208DF87B
:1012A0000300684601F012F800F0F8F838BD0000BD
:1012B000CC04002000080140D004002010B50A48EA
:1012C000007801280FD109480078401C07490870B0
:1012D00008460078042806DBFFF718FF00200349C2
:1012E00008700149087010BDE0040020F8040020D7
:1012F00010B500F099F810BD10B500F095F810BDCC
:1013000010B53E480078062874D2DFE800F00304E8
:10131000730D205F6FE0012039490870FFF728FF47
:1013200003203649087066E0FFF700FF3548006883
:10133000642809D333480068B42805D804202F490D
:101340000870FFF715FF01E0FFF7D2FF53E0FFF74A
:10135000EDFE2C4800683C2818D32A4800685A281B
:1013600014D8FFF705FF0021274802780078401CB9
:10137000254B18702548815418460078282824DB0E
:1013800005201E49087000F06BF81EE01D4800683B
:101390006E2818D31B480068822814D8FFF7E8FE8F
:1013A0000122194801780078401C174B1870174823
:1013B000425418460078282807DB05200F4908709A
:1013C00000F04EF801E0FFF793FF14E0FFF7AEFEE8
:1013D0000C48006828280AD30A4800683C2806D828
:1013E00001200B490870FFF7E1FE02E002E0FFF781
:1013F0007FFF00E000BF00BF10BD0000EB04002035
:10140000D8040020EC040020F5040020C6100020C1
:10141000F404002010B500200249087000F016F80E
:1014200010BD0000F504002010B500F023F80020E6
:1014300003490870034908700349087010BD000093
:10144000EB040020D8040020F404002010B50C2088
:10145000024948710846FFF7A3FC10BDD0040020E4
:1014600010B50820024948710846FFF799FC10BDE5
:10147000D004002010B548200549C8700548FFF782
:1014800001FD0120044988710846FFF789FC10BD61
:10149000CC04002000080140D004002010B500203A
:1014A000054988710846FFF77BFC10200349C87086
:1014B0000348FFF7E7FC10BDD0040020CC04002057
:1014C0000008014010B501200749087000200749B5
:1014D0000870FFF7E3FF002005490870FFF79AFF47
:1014E00001200449087010BDE1040020E20400203E
:1014F000EB040020E004002010B51A480078012811
:101500002ED119480068401C174908601748007818
:1015100010B1012823D10DE0FFF7C0FF00221021F8
:101520001348FFF74FFD01201049087000200E49B5
:10153000086014E00C48006800EB800044F620616D
:1015400088420BD3FFF796FF01200A490870FFF786
:101550007DFF0020054908700249087000BF00BFE8
:1015600010BD0000E1040020E4040020E20400209B
:1015700000080140EB04002038B5044618208DF81F
:1015800003004FF48060ADF8000003208DF80200E6
:1015900069460F48FFF776FC0E4801F0AAFD0020CF
:1015A0000C498881602008800020C881488188809B
:1015B00001204880601EC880074801F0F5FC012129
:1015C000054801F009FC0821034801F03DFD38BD44
:1015D000000801400E110020002C014010B5044607
:1015E000601E0349C880034801F0DEFC10BD000006
:1015F0000E110020002C014010B50446204602F0D8
:1016000097FA04490860C82104FB01F0FFF7E6FFE0
:1016100010BD0000280500202DE9F04105460C46CC
:1016200016462846FEF717FE87B22046FEF713FE41
:101630001FFA80F8F01B404503DA4FF0FF30BDE899
:10164000F081002004E0215C3A18A954411CC8B282
:10165000215C0029F7D10120F1E72DE9F041044692
:101660000D460026002003E035F810100E44401C03
:10167000A042F9DB204602F05BFA0746304602F052
:1016800057FA8046394602F071F9BDE8F08110B58D
:101690000B46002105E04C1C30F8144020F81140A6
:1016A000491C541E8C42F6DC511E20F8113010BD2E
:1016B00038B504466846FFF77DFC18208DF8030016
:1016C0004FF48070ADF8000003208DF802006946E9
:1016D0000F48FFF7D7FB0F4801F00BFD00200D4925
:1016E0008881602008800020C8814881888001208E
:1016F0004880601EC880084801F0A0FB0121064810
:1017000001F06AFB0821044801F0E4FB38BD000049
:1017100000080140EE100020002C014010B50446E6
:10172000601E0349C880034801F088FB10BD00001B
:10173000EE100020002C014010B5044607490C7043
:10174000012C0AD108460078012806D00846007806
:1017500018B903480088FFF7E1FF10BD20050020FD
:101760002205002008B56846FFF724FC00208DF80C
:1017700003000220ADF8000003208DF80200694646
:101780000448FFF77FFB0523042209210248FEF7E6
:10179000B7FF08BD000C01400024014038B50446E5
:1017A00018208DF803004FF40060ADF8000003200E
:1017B0008DF8020069460F48FFF764FB0E4801F000
:1017C00098FC00200C498881602008800020C88196
:1017D0004881888001204880601EC880074801F049
:1017E0003DFC0121054801F0F7FA0821034801F00A
:1017F00073FC38BD000801401E110020002C014080
:1018000010B50446601E0349C880034801F026FC59
:1018100010BD00001E110020002C014010B5044630
:10182000204602F085F904490860C82104FB01F054
:10183000FFF7E6FF10BD00002C05002008B5684644
:10184000FFF7B8FB00208DF803000120ADF8000081
:1018500003208DF8020069460448FFF713FB0523B7
:10186000032208210248FEF74BFF08BD000C01408F
:10187000002401407FB505460C461C4801F0D8FA0B
:1018800001A801F093FC0020ADF80A00ADF80600B5
:101890004720ADF8040044F61F60ADF808000020B2
:1018A0008DF80C0001A9114801F02EFC01210F4810
:1018B00001F080FA012211460C4801F0B0FA012132
:1018C0000A4801F06BFA19208DF8000001208DF80C
:1018D00003008DF801508DF80240684600F0F6FCD8
:1018E0000021024801F06CFA7FBD0000002C01408D
:1018F0007FB505460C464FF0804001F099FA01A8EB
:1019000001F054FC0020ADF80A00ADF806004720B5
:10191000ADF804000420ADF8080000208DF80C009C
:1019200001A94FF0804001F0EFFB0121880701F091
:1019300041FA01221146900701F071FA012188074E
:1019400001F02CFA1C208DF8000001208DF8030016
:101950008DF801508DF80240684600F0B7FC002178
:101960004FF0804001F02CFA7FBD000010B5074811
:101970000088401C05490880084600880A2803DBC7
:101980000020088000F000FA10BD000024000020B4
:1019900010B5044606480088401C054908800846E2
:1019A0000088A04203DB00200880FFF78BFD10BDFC
:1019B0002600002010B5044606480088401C054952
:1019C000088008460088A04203DB0020088000F061
:1019D00015FC10BD280000207FB505460C461A48AE
:1019E00001F026FA01A801F0E1FB0020ADF80A00A1
:1019F000ADF806004720ADF8040042F20F70ADF8D4
:101A0000080000208DF80C0001A90F4801F07CFBB4
:101A100001210D4801F0CEF9012211460A4801F0DA
:101A2000FEF91D208DF8000001208DF803008DF8CF
:101A300001508DF80240684600F048FC0021024841
:101A400001F0BEF97FBD0000000400407FB50546EF
:101A50000C461A4801F0ECF901A801F0A7FB0020A0
:101A6000ADF80A00ADF8060040F2CF20ADF8040052
:101A70000920ADF8080000208DF80C0001A90F48DE
:101A800001F042FB01210D4801F094F901221146B9
:101A90000A4801F0C4F91E208DF8000001208DF8DD
:101AA00003008DF801508DF80240684600F00EFCEE
:101AB0000021024801F084F97FBD000000080040C9
:101AC00010B504460121204601F07AF910BD00004E
:101AD00008B56846FFF76EFA10208DF80300000283
:101AE000ADF8000003208DF8020069460248FFF7B8
:101AF000C9F900F003F808BD000C014010B54FF41F
:101B000080510248FFF754FA10BD0000000C01405C
:101B100010B5044607480470012C04D1210306487F
:101B2000FFF746FA05E024B94FF480510248FFF769
:101B30003DFA10BD39050020000C014038B50446BF
:101B40006846FFF737FA18208DF803004FF400704D
:101B5000ADF8000003208DF8020069460F48FFF73A
:101B600091F90F4801F0C5FA00200D4988816020E5
:101B700008800020C8814881888001204880601E3C
:101B8000C880084801F0B0F90121064801F024F9A5
:101B90000821044801F0FAF938BD000000080140AE
:101BA000FE100020002C014010B50446601E0349C1
:101BB000C880034801F098F910BD0000FE10002015
:101BC000002C014010B5044603480480C82104FBE2
:101BD00001F0FFF7E9FF10BD2605002008B56846B3
:101BE000FFF7E8F900208DF803000220ADF80000AF
:101BF00003208DF8020069460448FFF743F90523E6
:101C0000022201210248FEF77BFD08BD00080140C9
:101C10000024014010B50D480078032804DA0B4871
:101C20000078401C094908700948008881B20322E5
:101C30000848FFF72CFD074904480078FFF70DFD21
:101C4000044601F055FF0449088010BD1805002026
:101C5000080500201A0500200C05002010B51548C5
:101C60000078012824D11448007858B9134801F0AD
:101C7000C2F8134908600C2000F060F801200E49FA
:101C8000087015E00C480078012811D10B4801F0CC
:101C9000B2F80B490968401A0A490860FFF7BAFF11
:101CA000082000F04BF80020034908700149087033
:101CB00010BD0000060500201005002000040040B3
:101CC00014050020080500207CB505460C4601A837
:101CD000FFF770F948208DF807004FF40040ADF889
:101CE000040003208DF8060001A91248FFF7CAF886
:101CF0000F210120FFF7A6F80F48FFF79BF84FF4DC
:101D000000400D49086001208871002008710820FA
:101D100048710846FFF744F828208DF8000001209C
:101D20008DF803008DF801508DF80240684600F0F0
:101D3000CDFA7CBD000C0140FC04002010B5044627
:101D400002484471FFF72CF810BD0000FC0400208D
:101D500010B50B480078012811D100F037F8094878
:101D60000078401C0749087008460078022806DB06
:101D700000F014F80020024908700249087010BDF4
:101D8000040500200F0500200120024908700249C7
:101D900008707047040500200505002010B50022DA
:101DA0004FF480510648FFF70DF9012005490870EE
:101DB0000020054908700820FFF7C0FF10BD000093
:101DC00000080140060500200705002010B5064860
:101DD0000078012807D1012201030448FFF7F2F837
:101DE00000200149087010BD0505002000080140D1
:101DF00008B56846FFF7DEF810208DF803000002F2
:101E0000ADF8000003208DF8020069460448FFF792
:101E100039F800224FF480510148FFF7D3F808BD8C
:101E20000008014010B50121042000F0EDFB142052
:101E30000449C87020200880032088700248FFF7FA
:101E400021F810BDAC040020000801400020144A15
:101E5000108000BF09E0134A125C8240104B1B88BF
:101E60001A430F4B1A80421CD0B21028F3DB0C48E7
:101E700000880122B2EBE03F05D109480088C04349
:101E8000401C074A1080064800880011064A10804E
:101E90000F21034800880840044A10807047000062
:101EA000C20400207E100020C4040020C6040020CC
:101EB00010B5C048C0490978405C072805D2DFE862
:101EC00000F073A6EA05FCFB040071E1BB48006862
:101ED000401CBA490860BA48BA490978405C30B138
:101EE000012817D002282AD003285BD144E0012220
:101EF0002021B548FFF766F800222021B248FFF7FD
:101F000061F80020AD490860AE480078401CAD493A
:101F1000087047E0A948006800EB8000B0F5FA7F40
:101F20000CD301222021A848FFF74CF80020A34938
:101F30000860A4480078401CA249087032E09F481D
:101F4000006800EB8000A1490978884213D3202162
:101F50009D48FFF722F858B901209D4908700020DC
:101F60009649086097480078401C9649087002E03E
:101F700000209749087015E09448007840F23A2113
:101F8000081A8E49096801EB8101884209D80020AE
:101F90008A4908608B49087087480078401C864948
:101FA000087000BF00BF03E184480068401C8349FB
:101FB0000860884888490978405C10B1012824D11C
:101FC0000DE0002220218048FEF7FCFF00207B4925
:101FD000086081480078401C7F49087015E0774808
:101FE000006800EB80003C280ED3012220217648B7
:101FF000FEF7E8FF002071490860774908706E48D5
:102000000078401C6C49087000BF00BFD0E06B48EE
:102010000068401C69490860704871490978405C53
:1020200020B1012810D0022833D121E00022202144
:102030006548FEF7C7FF00206049086068480078DF
:10204000401C6749087024E05C48006800EB800091
:102050000A280CD3012220215B48FEF7B3FF0020A1
:10206000564908605E480078401C5D49087010E0E1
:102070005248006800EB8000322809D300204F4905
:102080000860574908704C480078401C4A4908705D
:1020900000BF00BF8CE049480068401C4749086009
:1020A000504851490978405C40B1012814D00228B9
:1020B00026D003285CD14AE071E05BE000222021B9
:1020C0004148FEF77FFF00203C4908604648007801
:1020D000401C454908704BE03848006800EB800020
:1020E00005280CD3012220213748FEF76BFF002082
:1020F000324908603C480078401C3B49087037E092
:102100002E48006800EB800005281FD320212E48B0
:10211000FEF743FF48B10121344802780078401CA3
:10212000324B18703248815408E000212F48027861
:102130000078401C2D4B18702D48815400201F49F9
:10214000086029480078401C2749087010E01B48A7
:10215000006800EB80002D2809D300201749086093
:102160002149087014480078401C1349087000BFCA
:1021700000BF1DE011480068401C10490860084677
:10218000006800EB80001B49884207D300200B4900
:10219000086009480078401C0749087008E0FFF70C
:1021A00055FE01201449087000200349087000BF43
:1021B00000BF10BD6C3C0008B0040020B404002037
:1021C000E93C0008B904002000080140BA040020DE
:1021D000BB040020ED3C0008BC040020EF3C0008DC
:1021E000BD040020F23C0008BE040020C004002012
:1021F0007E100020B0710B00B804002001200C49B3
:1022000008700C49087000200B49088082200B4997
:10221000087000200A4908700A4908700A490870C5
:102220000A4908700A4908700A4908707047000096
:10223000B0040020BF040020C8040020BA0400201D
:10224000B8040020B9040020BC040020BD04002014
:10225000BE040020C004002010B50D4800780128FD
:1022600014D10C480088401C0A49088008460088A0
:1022700040F2712148430849B1EB001F06DC00F031
:102280000DF80020034908800149087010BD0000C6
:10229000BF040020C804002080841E0010B505483B
:1022A0000078012803D104480078012801D000F00B
:1022B00005F810BDB8040020BB040020002001492F
:1022C00008707047B00400207047000070B500210E
:1022D00000230F22C47804B3154C246804F4E0648E
:1022E000C4F5E064210AC1F10403CA40447804FA49
:1022F00003F184781440214309010E4C0678A1555E
:10230000047804F01F050124AC4005786D11AD0080
:1023100005F1E025C5F8004109E0047804F01F0547
:102320000124AC40044D0678761145F8264070BD76
:102330000CED00E000E400E080E100E00249014330
:10234000024A1160704700000000FA050CED00E041
:1023500070B500240EE00021204600F0E6F80025CC
:1023600004E0002000F002F9681CC5B2802DF8DB03
:10237000601CC4B2082CEEDB70BD000008B5012162
:10238000102000F041F914208DF8030003208DF88F
:1023900002004FF48040ADF8000069460A48FEF79D
:1023A00071FD4FF40040ADF8000069460648FEF7A5
:1023B00069FD012291030448FEF704FE0122D103C6
:1023C0000148FEF7FFFD08BD0010014070B505464D
:1023D000002415E08020204100EA05024FF400416E
:1023E0000E48FEF7EFFD012291030C48FEF7EAFDCF
:1023F00000224FF480410948FEF7E4FD601CC4B29E
:10240000082CE7DB012291030448FEF7DBFD0022E4
:102410004FF480410148FEF7D5FD70BD001001402A
:1024200010B50122D1030A48FEF7CCFD0122910329
:102430000748FEF7C7FD00224FF400410448FEF7AD
:10244000C1FD00224FF480410148FEF7BBFD10BDE5
:102450000010014010B500224FF400410648FEF77D
:10246000B1FD012291030448FEF7ACFD0122D10326
:102470000148FEF7A7FD10BD0010014070B5002413
:1024800006E0002500E06D1CB5F57A7FFBD3641CE7
:10249000B4F57A7FF5D3FFF771FFAE2000F056F860
:1024A000D52000F053F8802000F050F8A82000F06C
:1024B0004DF83F2000F04AF8D32000F047F8002004
:1024C00000F044F8402000F041F8A12000F03EF870
:1024D000C82000F03BF8DA2000F038F8122000F0B5
:1024E00035F8812000F032F8CF2000F02FF8D92005
:1024F00000F02CF8F12000F029F8DB2000F026F89D
:10250000302000F023F8A42000F020F8A62000F0EE
:102510001DF88D2000F01AF8142000F017F8AF20F5
:1025200000F014F8FFF714FF70BD70B505460C46B7
:1025300045F0B00000F00AF8102141EA141000F054
:1025400005F804F00F0000F001F870BD10B5044666
:10255000FFF766FF7820FFF739FF0020FFF736FF0F
:102560002046FFF733FFFFF775FF10BD10B5044697
:10257000FFF756FF7820FFF729FF4020FFF726FFDF
:102580002046FFF723FFFFF765FF10BD70470000EF
:1025900001460020034A506820F440400843506040
:1025A000704700000010024029B1064A52690243F8
:1025B000044B5A6104E0034A52698243014B5A6159
:1025C000704700000010024029B1064AD269024358
:1025D000044BDA6104E0034AD2698243014BDA61B9
:1025E000704700000010024029B1064A12690243F8
:1025F000044B1A6104E0034A12698243014B1A61D9
:10260000704700000010024029B1064A9269024357
:10261000044B9A6104E0034A92698243014B9A6138
:10262000704700000010024029B1064AD2680243F8
:10263000044BDA6004E0034AD2688243014BDA605B
:10264000704700000010024030B500210022002435
:1026500000232D4D6D6805F00C0121B1042905D032
:10266000082923D105E0294D056022E0274D0560AA
:102670001FE0254D6D6805F47012234D6D6805F45B
:102680008034022505EB92421CB9214D554305606B
:102690000BE01D4D6D6805F400351DB11C4D554313
:1026A000056002E0194D5543056002E0174D0560D5
:1026B00000BF00BF144D6D6805F0F0010909154D0C
:1026C0006B5C0568DD4045600F4D6D6805F4E061A9
:1026D000090A104D6B5C4568DD4085600A4D6D68E8
:1026E00005F46051C90A0B4D6B5C4568DD40C5605F
:1026F000054D6D6805F44041890B074D6B5CC5685D
:10270000B5FBF3F5056130BD0010024000127A0000
:1027100000093D000000002010000020704710B5A7
:1027200001214FF4E13000F00BF800F081F80023B4
:102730001A4619464FF4805000F032F810BD0000E0
:1027400070B504460D4601210420FFF75DFF01210D
:102750000846FFF759FF01214804FFF735FF012123
:102760000846FFF721FF0C4800F01AFF0B4801F064
:1027700026F80A4804600020084988810C20488116
:1027800000200881C8808880034800F0A7FF294600
:10279000014800F0F0FE70BD004400403011002000
:1027A0002DE9F04107460D4616461C461B48FEF72C
:1027B00092FA00201949C8601020886000208862C1
:1027C0004860C861802048610020086214480860A1
:1027D000002088610861084647621248FEF75BFAEC
:1027E0001120114908700846C47045708670FFF7C3
:1027F0006DFD012280210A48001F00F0C8FE012261
:1028000002210848FEF73EFA21460648FEF76EF917
:10281000012006490870BDE8F08100004011002049
:102820000444004080000240440500204C05002084
:1028300010B50748FEF7BEFB18200549C8700420F4
:102840000880032088700348FEF71CFB10BD0000C1
:102850003C0500200008014070B505460C461DB13E
:1028600014B1B4F57A7F02D34FF0FF3070BD00BFD2
:102870000B4800780028FBD000210A48FEF736F903
:1028800009484560C46000200549087006490548AC
:10289000FEF701FA01210348FEF728F90120E5E7D8
:1028A0004C050020800002404011002010B501219D
:1028B0004FF4E13000F014F8012000F0DDF80023BF
:1028C0001A4619464FF4005000F08AF801221146CA
:1028D000104600F05DF80121480300F027F810BD14
:1028E00070B504460D4601210820FFF78DFE012139
:1028F0008804FFF769FE01210846FFF755FE0948E5
:1029000004600020074988810C204881002008814C
:10291000C8808880044800F0E1FE2946024800F0A3
:102920002AFE70BD500B00200048004070B50446E0
:102930000D4601224021124800F029FE1148FEF701
:10294000E1F84FF400701049C86000208860886288
:102950000E4848600020C86180204861202008623D
:102960000748001D0860002088610861084644622D
:102970000448FEF790F929460248FEF7B7F870BD03
:1029800000480040300002408C0B0020500900201D
:1029900070B504460D46164604200D49C870400225
:1029A0000880032088700B48FEF76CFA012240F281
:1029B0002441094800F06CFE2720084908700120D6
:1029C000C870084644708570FFF780FC70BD000039
:1029D0003C000020000C0140004800404400002062
:1029E0002DE9F04104460D4616461F46012280217E
:1029F0001B4800F0CCFD1B48FEF784F800201A4964
:102A0000C860102088600020886218484860002054
:102A1000C86180204861002008621148001D0860DC
:102A2000002088610861084644620E48FEF733F9C9
:102A3000012202210B48FEF725F90C200C490870F1
:102A40000120C870084645708670FFF73FFC394684
:102A50000448FEF74BF8012006490870BDE8F081F4
:102A6000004800401C000240600B0020500700207E
:102A7000400000203300002010B504460121084624
:102A8000FFF7C2FD18200549C8704FF48060088028
:102A9000032088700248FEF7F5F910BD38000020C9
:102AA000000C014070B505460C46002C03DD15B145
:102AB000B4F57A7F02DB4FF0FF3070BD00BF0C48E9
:102AC00000780028FBD0002000F018F80948456085
:102AD000C46001460848FEF7DEF8012000F00EF859
:102AE000012000F015F80020014908700120E4E7FA
:102AF00033000020600B00201C00024010B504468B
:102B000021460248FDF7F2FF10BD00001C00024004
:102B100010B504462146024800F02DFD10BD00000E
:102B2000004800402DE9F0478146884616461C467D
:102B3000DDE9087A484600F03DFE0546307820B1D0
:102B400001280FD0022830D11FE01A4810F80800E1
:102B500038B901203070002020702278501C20707D
:102B6000BD5423E00D2D06D12278501C2070BD5499
:102B70000220307008E02178AAF10100814203DAD6
:102B80002278501C2070BD5410E00A2D0CD1227800
:102B9000501C2070BD540020307021787854207073
:102BA0000120044901F8080000E000BF00BFBDE8B3
:102BB000F08700002A00002010B500F001F810BDD9
:102BC0000CB50020019000903348006840F480303C
:102BD0003149086000BF3048006800F400300090C0
:102BE0000198401C0190009818B90198B0F5A06FA9
:102BF000F1D12948006800F4003010B101200090A4
:102C000001E0002000900098012843D1234800688B
:102C100040F01000214908600846006820F00300D9
:102C200008600846006840F0020008601A484068E2
:102C3000194948600846406848600846406840F4C2
:102C4000806048600846406820F47C104860084670
:102C5000406840F4E81048600846006840F0807022
:102C6000086000BF0C48006800F000700028F9D030
:102C70000948406820F0030007494860084640685A
:102C800040F00200486000BF0348406800F00C00BC
:102C90000828F9D10CBD00000010024000200240BD
:102CA0007047000010B51348006840F0010011495A
:102CB000086008464068104908400E4948600846C8
:102CC00000680E4908400B4908600846006820F477
:102CD000802008600846406820F4FE0048604FF4F9
:102CE0001F008860FFF768FF4FF00060044908602C
:102CF00010BD0000001002400000FFF8FFFFF6FECC
:102D000008ED00E010B50121044800F077F8012833
:102D100003D10121014800F050F810BD002C014002
:102D200010B50121880700F069F8012809D10121B7
:102D3000800700F042F8FFF70BF8FEF7DDFBFFF726
:102D4000B7F810BD10B501210C4800F057F8012864
:102D500012D10121094800F030F8FEF707FE642087
:102D6000FEF716FEFEF714FAFEF7A8FA4FF4967077
:102D7000FEF720FEFFF770FA10BD000000040040CF
:102D800010B50121044800F039F8012803D10121D0
:102D9000014800F012F810BD0008004021B102887F
:102DA00042F08002028004E002884FF67F731A40EE
:102DB00002807047CA4302827047CA43028270474A
:102DC00021B1028842F00102028004E002884FF63D
:102DD000FE731A400280704731B1B0F8442042F4CB
:102DE0000042A0F8442005E0B0F84420C2F30E02EF
:102DF000A0F8442070470146888C704730B50246E1
:102E0000002000230024158A05EA0103958905EABC
:102E1000010413B10CB1012000E0002030BD1AB153
:102E200083890B43838102E083898B4383817047CD
:102E300001894FF6F87211400181704770B5002486
:102E400000220023058C4FF6FE7635400584028C67
:102E50008388048B4FF68F752C40B51E2C400D884F
:102E60002C43751E2A400D892A434D882A43144D50
:102E7000A8420BD0134DA84208D0134DA84205D04C
:102E8000124DA84202D0124DA84213D14FF6F77549
:102E90002A404D892A434FF6FB752A408D882A43E4
:102EA0004FF6FF652B404FF6FF552B408D892B4386
:102EB000CD892B4383800483CD888586028470BDB1
:102EC000002C01400034014000400140004401401A
:102ED000004801400A460021018B4FF6F773194064
:102EE000114301837047000070B5002400220023C5
:102EF000058C4FF6EF7635400584028C8388048B71
:102F000048F6FF752C404FF6FF452C400D884FF6D4
:102F1000FF7606EA05252C434FF6DF752A400D891A
:102F200006EA05152A434D8806EA05152A43154D7C
:102F3000A84202D0144DA8421DD14FF67F752A40F9
:102F40004D894FF6FF7606EA05152A434FF6BF7501
:102F50002A408D8806EA05152A434FF6FF352B4097
:102F60004FF2FF752B408D8906EA85052B43CD89ED
:102F700006EA85052B4383800483CD880587028478
:102F800070BD0000002C0140003401400A460021C1
:102F9000018B4FF2FF7319404FF6FF7303EA0223D0
:102FA000194301837047000070B5002400220023FC
:102FB000058C4FF6FF6635400584028C8388848B30
:102FC0004FF68F752C404FF6FC752C400D882C4326
:102FD0004FF6FF552A400D894FF6FF7606EA052584
:102FE0002A434D8806EA05252A43154DA84202D0FA
:102FF000144DA8421DD14FF2FF752A404D894FF65E
:10300000FF7606EA05252A434FF6FF352A408D88CC
:1030100006EA05252A434EF6FF752B404DF6FF754F
:103020002B408D8906EA05152B43CD8906EA051547
:103030002B4383808483CD888587028470BD000004
:10304000002C0140003401400A460021818B4FF6DC
:10305000F7731940114381837047000070B5002257
:1030600000230024058C4EF6FF7635400584038C42
:103070008488828B48F6FF752A404FF6FF452A4028
:103080000D884FF6FF7606EA05252A434DF6FF75B3
:103090002B400D8906EA05352B434D8806EA053598
:1030A0002B430B4DA84202D00A4DA84208D14BF643
:1030B000FF752C408D894FF6FF7606EA85152C4367
:1030C00084808283CD88A0F84050038470BD0000C6
:1030D000002C0140003401400A460021818B4FF250
:1030E000FF7319404FF6FF7303EA022319438183EC
:1030F00070470021018041808180C1800181418130
:103100008181C18170470000002202881D4B9842D6
:103110000ED01D4B98420BD0B0F1804F08D01B4B06
:10312000984205D01A4B984202D01A4B984204D1CB
:103130004FF68F731A404B881A43174B984207D0AB
:10314000164B984204D04FF6FF431A40CB881A43DF
:1031500002808B8883850B8803850A4B98420BD0AD
:10316000094B984208D00E4B984205D00D4B98421F
:1031700002D00D4B984201D10B7A03860123838242
:1031800070470000002C0140003401400004004062
:1031900000080040000C00400010004000140040F7
:1031A0000040014000440140004801404FF6FF71DB
:1031B000818000210180C180418001727047000040
:1031C0001CB540F22551084800F038FA01280AD110
:1031D000F4240648064B074A0221CDE900040248C0
:1031E000FFF7A0FC00BF1CBD004400405C060020AF
:1031F0003100002030000020F8B540F22441894819
:1032000000F01CFA012879D1864800880090854892
:10321000001D0088009000218348FDF767FC82486C
:10322000FDF716FDC0F5007084B2601C84B2601E0C
:10323000B0F5007F02DA00217C4A115401207C495C
:10324000087000257B4A21467848FDF7FBFB0546C0
:103250000B2D6ED2DFE805F0060B10151A1F24297E
:103260002E333800062174A0FFF71CFCC1E00921B1
:1032700073A0FFF717FCBCE0042174A0FFF712FC59
:10328000B7E0072173A0FFF70DFCB2E00B2173A09C
:10329000FFF708FCADE00C2170A0FFF703FCA8E0ED
:1032A0000E2171A0FFF7FEFBA3E00E2172A0FFF735
:1032B000F9FB9EE0132174A0FFF7F4FB99E01321C2
:1032C00076A0FFF7EFFB94E0092179A0FFF7EAFB76
:1032D0007A4B7B4A21465548FDF73EFB774890F8EC
:1032E000400007285AD2DFE800F0040A1725323FD1
:1032F0004C000D2173A0FFF7D5FB54E090E00A21AC
:1033000074A0FFF7CFFB6D484130FCF785FFC6B2D4
:103310003046FEF757FC46E00A2171A0FFF7C2FBDA
:1033200066484130FCF778FFC6B23046FDF7D8FE5C
:1033300039E059E00A216DA0FFF7B4FB5F48413046
:10334000FCF76AFFC6B23046FEF7E2FB2BE00A212B
:1033500069A0FFF7A7FB59484130FCF75DFFC6B2F3
:103360003046FEF749F91EE00B2166A0FFF79AFBF5
:1033700052484130FCF750FFC6B23046FEF74EFAD5
:1033800011E0082162A0FFF78DFB4C484130FCF7AB
:1033900043FF46B23046FEF7CFF904E00E215FA0AE
:1033A000FFF780FB00BF00BF444890F84000D0B159
:1033B0007F215E48FCF7B3FF7F225D495B48FEF743
:1033C0002BF97F223D495948FEF726F97F2259A162
:1033D0005648FEF721F95548FCF73DFF86B23146C5
:1033E0005248FFF75FFB04E00C2156A0FFF75AFBA1
:1033F00000BF00BF4FF400710B48FDF76AFC554950
:103400000948FDF748FC01210748FDF76FFB012043
:10341000FFF77EFB40F22441024800F09DF800BF18
:10342000F8BD000000480040300002405009002074
:1034300032000020EC3B00084E4F4E450D0A0000C4
:10344000504F5745524F4E0D0A0000004F4B0D0A8A
:10345000000000004552524F520D0A00574946499C
:103460005F434F4E4E0D0A00574946495F4449534A
:10347000434F4E4E0D0A00004D5154545F44495382
:10348000434F4E4E0D0A00004D5154545F434F4E72
:103490004E5F535543434553530D0A005749464920
:1034A0005F434F4E4E5F535543434553530D0A0000
:1034B000444F574E434D440D0A0000003310002086
:1034C0003C3C0008434D445F554E4B4E4F574E0D0C
:1034D0000A000000434D445F575056520D0A000049
:1034E000434D445F415052530D0A0000434D445F29
:1034F000574852530D0A0000434D445F414C565209
:103500000D0A0000434D445F50474C56520D0A00CF
:10351000434D445F46540D0A00000000434D44549F
:103520005950454552524F520D0A0000B40F002029
:10353000A3030020222C227B7D222C302C310D0A6B
:10354000000000004D5347554E4B4E4F574E0D0A4D
:10355000000000008C0B002010B50022002340F674
:103560006A14A14200D100BF0A1201249440A3B200
:10357000DC43048010BD21B1828942F40052828173
:1035800004E082894DF6FF731A40828170471AB1B8
:10359000838A0B43838202E0838A8B438382704752
:1035A00010B504462048844209D101218803FFF761
:1035B0003BF800214FF48040FFF736F832E01B481B
:1035C000844209D101214804FFF70EF800214FF48D
:1035D0000030FFF709F825E01548844209D10121A0
:1035E0008804FFF701F800214FF48020FEF7FCFF6C
:1035F00018E01048844209D10121C804FEF7F4FF05
:1036000000214FF40020FEF7EFFF0BE00A48844250
:1036100008D101210805FEF7E7FF00214FF48010D3
:10362000FEF7E2FF10BD00000038014000440040FA
:1036300000480040004C00400050004070B5024679
:10364000002400230025002040F66A16B14200D174
:1036500000BFC1F3421501F01F03012606FA03F370
:10366000012D02D19689334006E0022D02D1168A3F
:10367000334001E0968A33400C12012606FA04F426
:103680001688344013B10CB1012000E0002070BD59
:10369000F0B50346002400260025002040F66A17F6
:1036A000B94200D100BF1846C1F3421401F01F0611
:1036B000012707FA06F5012C01D10C3004E0022C99
:1036C00001D1103000E014301AB107682F430760B1
:1036D00002E00768AF430760F0BD00002DE9F04746
:1036E00086B005460E460024A24600BFA14600272C
:1036F000B08900B100BF2F462C8A4CF6FF70044001
:10370000F08804432C82AC894EF6F3100440B08854
:1037100031890843718908430443AC81AC8A4FF670
:10372000FF400440B0890443AC8201A8FEF78CFF3F
:103730001F48874202D1DDF810A001E0DDF80CA09F
:10374000A88900F4004040B10AEBCA0000EB0A105F
:1037500031684900B0FBF1F807E00AEBCA0000EB62
:103760000A1031688900B0FBF1F86420B8FBF0F072
:1037700004012009642101FB1089A88900F400409C
:1037800040B1322000EBC900B0FBF1F000F00700BF
:10379000044308E0322000EB09106421B0FBF1F093
:1037A00000F00F0004432C8106B0BDE8F087000054
:1037B0000038014001468888C0F3080070474FF484
:1037C0001651016000218180C18001810C2141815D
:1037D00000218181704700BFFEE700004FF47A703E
:1037E000FDF787FA01214804FEF7EEFE0121880467
:1037F000FEF7EAFE0121C802FEF706FF0121084696
:10380000FEF7E2FE01210220FEF7DEFE0121042088
:10381000FEF7DAFE01210420FEF7F6FE0121082062
:10382000FEF7F2FE01211020FEF7EEFE0121084610
:10383000FEF7EAFE01214802FEF7E6FE01210846F6
:10384000FEF7B2FE4FF4A060FEF778FDFEF716FE1D
:10385000FEF77EFD03210846FEF70CF8012108461D
:10386000FEF746F801210846FEF7B6F800210846A3
:10387000FEF7ECF82648FEF723F94FF08040FEF7FC
:103880001FF92448FEF71CF92348FEF719F9FEF743
:10389000C9FA01210846FDF7D7FCFEF7A9FA002175
:1038A0000846FEF711FA4FF4FA70FDF701FF1B48C6
:1038B0000088FEF743F91A48006800F019F984B24D
:1038C0002046FDF759FE1748006800F011F984B250
:1038D0002046FDF763FFFEF781F9FDF7AFFFFDF727
:1038E00041FF0420FDF778FBFDF7DAFBFEF7F0F867
:1038F000FCF780FFFEF7DAFFFEF711FF06E0142168
:1039000009A0FEF7A9FF6420FDF7F3F9F7E700002F
:10391000002C014000040040000800402605002063
:10392000280500202C05002053657269616C325F08
:1039300053656E64537472696E670D0A000000006F
:1039400010B500290AD00878002807D00548784427
:10395000FCF73CFE002801D0002010BD024878444E
:1039600010BD0000620400005A0400004FF47F0CF8
:103970001CEAD0121EBF1CEAD11392EA0C0F93EA84
:103980000C0F00F0858090EA010F48BF42F480726E
:1039900040F4000C41F400002CF07F4120F07F4007
:1039A00000B58142A2EB03020FF2081CACEB504EB3
:1039B000C0F100009EF800E04FEA4E0E00FB0EFC46
:1039C00038BF49004FEA2C1C02F5FA020CFB0EF33B
:1039D0004FEACE1E4FEA112C4FEAC1210EEB635E77
:1039E00042EB22420EFB0CFC4FEA1C5300FB03117E
:1039F0004FEA112C4FEA01310EFB0CFC4FEADC4C74
:103A000000FB0C11C14228BF09184CEB03335DF8D1
:103A100004EB10EB410143EBC250B2F57C0F38BF11
:103A2000704729D512F0F00F1CBF00F1C04000F024
:103A300000407047008182838485868788898B8CCB
:103A40008D8E8F919293959697999A9C9D9FA0A207
:103A5000A3A5A7A8AAACAEB0B2B3B5B7B9BCBEC057
:103A6000C2C5C7C9CCCED1D4D7D9DCDFE2E6E9ECF8
:103A7000F0F3F7FAFE0000004FEA400C0CF1807CF6
:103A8000BCF17E4F28BF7047B0F1C04000F0A9B82C
:103A900090EA010F0CEAD11348BF42F480726245EC
:103AA00038BF634507D213F47F0F16D080EA0100B8
:103AB00000F00040704710B500F04DF8097EFC3E64
:103AC00000F005B880EA010000F00040704780EA8D
:103AD000010000F0004000F084B812F47F0F04BF32
:103AE0000248704780EA010000F07BB80000C07F08
:103AF000C10DD1F19E0206DB4FEA002343F00043E3
:103B000023FA02F07047004207D54FEA4001B1F1B5
:103B1000FE4F02D24FF00000704710B500F01BF8C6
:103B200049922480002070476FEA2000704700000F
:103B3000B0FA80F310FA03F2C3F19D030AD0D9055D
:103B400001EB1220530638BF704700F1010008BF97
:103B500020F0010070470EF1020E2EF0030E5EF809
:103B6000044B244204D44FEA4102B2F17F4F11D8F2
:103B70004FEA4003B3F17F4F0CD80ED14FEAD07C0F
:103B8000B2F17F4F0CEB4C0C0CF1020C08BF4CEB6C
:103B9000D17C04E04FF0080C01E04FEAD17C0CEB43
:103BA0004C0324FA03F404F00704B4F1040C06D225
:103BB0000EEB840CBDE810404CF0010C6047DFE8D0
:103BC0000CF0070802024FF00040A0F5800010BD85
:103BD0000846420018BFD2F1807288BF00F0004052
:103BE00010BDFF2141EAD050C005704734040020C9
:103BF000050006003A040020040007002E040020FF
:103C00000500040022040020030001003F040020FE
:103C10003800080078040020030009007C0400201C
:103C200005000A008204002005000500260400208B
:103C30000200020029040020040003008804002080
:103C4000040001008D040020040002009204002002
:103C50000400030097040020040004009C040020DA
:103C600005000500A2040020020006000603000073
:103C70000101000001010000010000000100040337
:103C8000000001010000010100010101010100012A
:103C90000202020202020202020202020202020204
:103CA000050000000000000000000000000000000F
:103CB0000000000000000000000000000000000004
:103CC00000000000000000000000000000000000F4
:103CD00000000000000000000000000000000000E4
:103CE00000000000000000000000010203000100CD
:103CF0000102000102030000356565636565313826
:103D000036313365383933306331396662393334AB
:103D10003639633839623135336664343861336239
:103D200062326662363036653163653662323766D6
:103D30006433356166353331000000002F737973C9
:103D40002F70726F706572746965732F7265706F12
:103D50007274222C227B5C227365727669636573B0
:103D60005C223A5B7B5C22736572766963655F698E
:103D7000645C223A5C22416C6C5C225C2C5C22709C
:103D8000726F706572746965735C223A000000009E
:103D9000C03E00080000002058050000280100086F
:103DA000F03F000858050020A01200008401000820
:103DB0001001000043000000F8FFFFFF00404040FA
:103DC00040404040404041414141414040404040EE
:103DD000404040404040404040404040400502029A
:103DE0000202020202020202020202020220202059
:103DF00020202020202020020202020202029090B5
:103E000090909090101010101010101010101010B2
:103E10001010101010101010020202020202888806
:103E20008888888808080808080808080808080812
:103E300008080808080808080202020240000000FA
:103E40000000000000000000000000000000000072
:103E50000000000000000000000000000000000062
:103E60000000000000000000000000000000000052
:103E70000000000000000000000000000000000042
:103E80000000000000000000000000000000000032
:103E90000000000000000000000000000000000022
:103EA0000000000000000000000000000000000012
:103EB0000000000000000000000000000000000002
:103EC000412D010203040400093406070809020415
:103ED0000608162B2B2B0D0A3D4154453007680A66
:103EE0002B43574D4F44453D310E7C5141500D7F82
:103EF00049504D55583D291A4A1B0115691E4A3F24
:103F00002A0019644D515454555345524346473D78
:103F1000302C312C224E554C4C222C22597F180922
:103F2000434C49454E54494480096377E97F0C6E00
:103F30004F4E4E7B997F0C725355427E697F4A509B
:103F40007F000DE5246F632F646576696365732FC9
:103F5000001B6541542B4D5154545055423D302C5B
:103F600022246F632F646576696365732F1445534C
:103F700050134F4B154552524F3D464920430613AF
:103F800044491B54540548166164306365356337F2
:103F900031662E7374312E696F7464612D9F101E0B
:103FA0002E636E2D6E6F7274682D342E6D79687568
:103FB00061776569636C6F75642E636F6D1433325E
:103FC000312E53554252454E13474F1557505652B6
:103FD00015415052531B5748051B414C0F2B50475E
:103FE0000613465405110A060D0A029146B2010055
:04000005080000ED02
:00000001FF
