:020000040800F2
:1000000080080020890100087518000827070008EB
:100010002B070008DD030008372600080000000059
:10002000000000000000000000000000891C000823
:100030004F04000800000000391B0008291F0008B9
:10004000A3010008A3010008A3010008A301000800
:10005000A3010008A3010008A3010008A3010008F0
:10006000A3010008A3010008B1040008A3010008CF
:10007000A3010008A3010008A3010008A3010008D0
:10008000A3010008A3010008A3010008A3010008C0
:10009000A3010008A3010008A3010008A3010008B0
:1000A000A30100088D1F0008A3010008A301000898
:1000B000A91F0008CD1F000805200008A3010008A3
:1000C000A3010008A3010008A3010008A301000880
:1000D000A3010008A3010008BD23000801240008B3
:1000E00097040008A3010008A301000800F002F82B
:1000F00000F03AF80AA090E8000C82448344AAF188
:100100000107DA4501D100F02FF8AFF2090EBAE885
:100110000F0013F0010F18BFFB1A43F0010318473B
:1001200084290000A4290000103A24BF78C878C1AF
:10013000FAD8520724BF30C830C144BF04680C60ED
:10014000704700000023002400250026103A28BF35
:1001500078C1FBD8520728BF30C148BF0B60704739
:100160001FB51FBD10B510BD00F031F81146FFF7E7
:10017000F7FF02F063FA00F04FF803B4FFF7F2FF65
:1001800003BC00F057F800000948804709480047C1
:10019000FEE7FEE7FEE7FEE7FEE7FEE7FEE7FEE737
:1001A000FEE7FEE704480549054A064B7047000094
:1001B0002D1F0008ED0000088002002080080020AC
:1001C0008004002080040020704770477047754607
:1001D00000F02CF8AE4605006946534620F00700B3
:1001E000854618B020B5FFF7DDFFBDE820404FF091
:1001F00000064FF000074FF000084FF0000B21F011
:100200000701AC46ACE8C009ACE8C009ACE8C009DD
:10021000ACE8C0098D46704710B50446AFF30080C6
:100220002046BDE81040FFF7A8BF00000048704717
:100230002002002001491820ABBEFEE72600020084
:10024000704721B1826842F00102826003E0826857
:1002500022F001028260704721B1826842F480720C
:10026000826003E0826822F48072826070470146F7
:1002700000208A6802F004020AB1012000E0002098
:100280007047014600208A6802F008020AB1012086
:1002900000E000207047000030B502460020002337
:1002A00050680F4C20400D790C6844EA0524204327
:1002B000506090680B4C2040D1E902542C434D799A
:1002C00044EA450420439060D06A20F470000C7C1E
:1002D000641EE4B2234340EA0350D06230BD000004
:1002E000FFFEF0FFFDF7F1FFF0B504460D460020DC
:1002F0000021092D11DDE068A5F10A0606EB46078D
:10030000072606FA07F18843A5F10A0606EB46061A
:1003100003FA06F10843E0600CE0206905EB4507AD
:10032000072606FA07F1884305EB450603FA06F1AE
:1003300008432061072A0FDA606B561E06EB86071A
:100340001F2606FA07F18843561E06EB860605FAB5
:1003500006F10843606322E00D2A0FDA206BD61FF6
:1003600006EB86071F2606FA07F18843D61F06EB21
:10037000860605FA06F10843206310E0E06AA2F160
:100380000D0606EB86071F2606FA07F18843A2F141
:100390000D0606EB860605FA06F10843E062F0BD9D
:1003A000816841F008018160704721B1826842F4A0
:1003B000A002826003E0826822F4A002826070479B
:1003C000816841F004018160704700210160017182
:1003D00041718160C16001210174704700BFFEE777
:1003E00021B1026842F00102026004E002684FF6A7
:1003F000FE731A400260704710B50022026847F68B
:10040000F0739A430C6A8B6823430C6923434C694D
:1004100023438C692343CC6923434C6A23438C6A6E
:1004200023431A430260CB6843600B6883604B68C8
:10043000C36010BD0021016041608160C160016145
:1004400041618161C16101624162816270477047AF
:1004500000B5034603E04FF47A7000F005F8181E6B
:10046000A3F10103F7D100BD00EBC001C9004FF0BB
:10047000E0225161002191610521116100BF4FF01F
:10048000E021096901F480310029F8D004214FF0FE
:10049000E0221161704710B54FF4004000F01AF8E7
:1004A000012804D1C00300F00FF800F0E3FE10BDF6
:1004B00010B5102000F00EF8012804D1102000F033
:1004C00003F800F025FB10BD0149086070470000EB
:1004D00014040140014600200022074B1B6803EA78
:1004E0000102054B14331B680B4013B10AB1012004
:1004F00000E0002070470000000401400021234973
:100500008279002A3AD00A46126803689A430B4659
:100510001A600A1D126803689A430B1D1A6002795B
:1005200011440A6803681A430A60184A08321268BC
:1005300003689A43154B08331A601A1D1268036842
:100540009A43124B0C331A604279102A0ED11A1FAB
:10055000126803681A430D4B08331A601A1D12689B
:1005600003681A43094B0C331A600DE007494279BE
:1005700011440A6803681A430A6005E002791144CD
:100580000A6803689A430A6070470000000401404B
:100590000021016001710C214171002181717047BE
:1005A00030B500228B071C0F0F2303FA04F20B4B0C
:1005B0008C1053F824309343084C8D1044F82530A8
:1005C00023468C1053F824308C07240F00FA04F4CF
:1005D0002343024C8D1044F8253030BD0800014003
:1005E0002DE9F041024600250026002000230024CA
:1005F000002791F803C00CF00F0591F803C00CF030
:10060000100CBCF1000F03D091F802C04CEA0505B4
:1006100091F800C0BCF1000F31D0146800202BE02D
:100620004FF0010C0CFA00F3B1F800C00CEA03061D
:100630009E4220D183004FF00F0C0CFA03F7BC430D
:1006400005FA03FC4CEA040491F803C0BCF1280F3E
:1006500006D14FF0010C0CFA00FCC2F814C00AE0FD
:1006600091F803C0BCF1480F05D14FF0010C0CFA12
:1006700000FCC2F810C0401C0828D1D31460B1F8A7
:1006800000C0BCF1FF0F34DD546800202EE000F103
:10069000080C4FF0010808FA0CF3B1F800C00CEA9E
:1006A00003069E4221D183004FF00F0C0CFA03F792
:1006B000BC4305FA03FC4CEA040491F803C0BCF106
:1006C000280F05D100F1080C08FA0CF8C2F81480C4
:1006D00091F803C0BCF1480F07D100F1080C4FF0AE
:1006E000010808FA0CF8C2F81080401C0828CED384
:1006F0005460BDE8F0810246002093680B400BB1C6
:10070000012000E000207047016170474FF6FF7143
:100710000180022181700421C17070470AB101611A
:1007200000E04161704700BFFEE700BFFEE7000048
:1007300010B590B004464FF4004001F0FFF90BA84B
:10074000FFF743FE01208DF8310000200E904FF49A
:1007500060200D9000200B908DF83C4001208DF81A
:1007600030000BA92148FFF797FD01211F48FFF733
:1007700073FD6846FFF75EFE1C484C300090801504
:100780000690002004901A4801904FF48060079072
:10079000802005900020029003940A902020089069
:1007A000C001099069461348FFF726FE01210F4852
:1007B000FFF747FD01210F48FFF712FE0B48FFF737
:1007C000EFFD00BF0948FFF75CFD0128FAD007489C
:1007D000FFF7F6FD00BF0548FFF749FD0128FAD0F5
:1007E00001210248FFF7E1FD10B010BD00240140D7
:1007F000280000200800024008B56846FFF786FF81
:1008000010208DF803004002ADF8000003208DF8A1
:10081000020069460248FFF7E3FE00F003F808BD56
:10082000000C014010B54FF400510248FFF76CFF77
:1008300010BD0000000C014008B56846FFF766FFD8
:1008400010208DF803000002ADF8000003208DF8A1
:10085000020069460248FFF7C3FE00F003F808BD36
:10086000000C014010B54FF480510248FFF74CFFD7
:1008700010BD0000000C014038B5044618208DF86A
:1008800003004FF48070ADF8000003208DF80200E3
:1008900069460F48FFF7A4FE0E4801F028FD00202E
:1008A0000C498881602008800020C88148818880A8
:1008B00001204880601EC880074801F009FC012122
:1008C000054801F0D3FB0821034801F04DFC38BD79
:1008D0000008014000020020002C01402DE9F041F9
:1008E00004460D460026002003E035F810100E44A3
:1008F000401CA042F9DB204602F030F807463046A3
:1009000002F02CF88046394601F046FFBDE8F08140
:1009100010B50B46002105E04C1C30F8144020F8BF
:100920001140491C541E8C42F6DC511E20F8113037
:1009300010BD000010B506480078012802D100F073
:10094000E3F804E00248007808B900F0D9F810BDD7
:10095000A400002010B50C48006840B90B4801F015
:1009600094FB0B490968401A0A4908600AE00748E5
:1009700001F08BFB42F21071084405490968401AE6
:100980000449086010BD00008C00002000040040F5
:10099000A00000209C00002010B5044801F075FB69
:1009A0000349086000200349086010BD00040040AE
:1009B000A00000208C00002004480078012804D109
:1009C00003480068401C0249086070478800002006
:1009D0008C0000207CB500200090019000240026AF
:1009E000002500BF15E000210FE0194A165D1DF833
:1009F0000020C1F1070306FA03F31A43D2B20DF83F
:100A00000020621CD4B24A1CD1B20729EDDD411C82
:100A1000C8B20428E7DD002005E01DF800102944D5
:100A2000CDB2411CC8B20328F7DD9DF80400A842EE
:100A30000AD1002005E01DF80010064A1154411C9F
:100A4000C8B20328F7DD01E000F05AF87CBD0000D1
:100A5000D80100209800002038B504460D46142027
:100A60001749C87010200880032088701548FFF7C8
:100A7000B7FD04210020FFF793FD0122102111484A
:100A8000FFF74CFE10201049086000200871082074
:100A90004871002088710846FFF730FD0A208DF864
:100AA000000000208DF801008DF8020001208DF873
:100AB0000300684600F0E0FE00F0F8F838BD0000E2
:100AC0007C000020000801408000002010B50A488A
:100AD000007801280FD109480078401C07490870A8
:100AE00008460078042806DBFFF724FF00200349AE
:100AF00008700149087010BD90000020A600002079
:100B000010B500F099F810BD10B500F095F810BDC3
:100B100010B53E480078062874D2DFE800F00304E0
:100B2000730D205F6FE0012039490870FFF734FF33
:100B300003203649087066E0FFF70CFF354800686F
:100B4000642809D333480068B42805D804202F4905
:100B50000870FFF721FF01E0FFF7D2FF53E0FFF736
:100B6000F9FE2C4800683C2818D32A4800685A2807
:100B700014D8FFF711FF0021274802780078401CA5
:100B8000254B18702548815418460078282824DB06
:100B900005201E49087000F06BF81EE01D48006833
:100BA0006E2818D31B480068822814D8FFF7F4FE7B
:100BB0000122194801780078401C174B187017481B
:100BC000425418460078282807DB05200F49087092
:100BD00000F04EF801E0FFF793FF14E0FFF7BAFED4
:100BE0000C48006828280AD30A4800683C2806D820
:100BF00001200B490870FFF7EDFE02E002E0FFF76D
:100C00007FFF00E000BF00BF10BD00009B00002080
:100C1000880000209C000020A5000020D8010020B2
:100C2000A400002010B500200249087000F016F85A
:100C300010BD0000A500002010B500F023F8002032
:100C400003490870034908700349087010BD00008B
:100C50009B00002088000020A400002010B50C207C
:100C6000024948710846FFF749FC10BD800000208A
:100C700010B50820024948710846FFF73FFC10BD37
:100C80008000002010B548200549C8700548FFF7CE
:100C9000A7FC0120044988710846FFF72FFC10BD0E
:100CA0007C000020000801408000002010B50020DA
:100CB000054988710846FFF721FC10200349C870D8
:100CC0000348FFF78DFC10BD800000207C00002051
:100CD0000008014010B501200749087000200749AD
:100CE0000870FFF7E3FF002005490870FFF79AFF3F
:100CF00001200449087010BD9100002092000020DE
:100D00009B0000209000002010B51A4800780128B0
:100D10002ED119480068401C174908601748007810
:100D200010B1012823D10DE0FFF7C0FF00221021F0
:100D30001348FFF7F3FC01201049087000200E490A
:100D4000086014E00C48006800EB800044F6206165
:100D500088420BD3FFF796FF01200A490870FFF77E
:100D60007DFF0020054908700249087000BF00BFE0
:100D700010BD00009100002094000020920000208F
:100D8000000801409B00002010B50121042000F064
:100D900001FF14200449C8702020088003208870B7
:100DA0000248FFF71DFC10BD5C0000200008014058
:100DB0000020144A108000BF09E0134A125C8240F0
:100DC000104B1B881A430F4B1A80421CD0B21028BC
:100DD000F3DB0C4800880122B2EBE03F05D1094863
:100DE0000088C043401C074A108006480088001154
:100DF000064A10800F21034800880840044A1080EA
:100E00007047000072000020900100207400002054
:100E10007600002010B5C048C0490978405C07281A
:100E200005D2DFE800F073A6EA05FCFB040071E1DF
:100E3000BB480068401CBA490860BA48BA490978FA
:100E4000405C30B1012817D002282AD003285BD19A
:100E500044E001222021B548FFF760FC0022202158
:100E6000B248FFF75BFC0020AD490860AE4800784F
:100E7000401CAD49087047E0A948006800EB8000BD
:100E8000B0F5FA7F0CD301222021A848FFF746FCD9
:100E90000020A3490860A4480078401CA2490870BB
:100EA00032E09F48006800EB8000A1490978884241
:100EB00013D320219D48FFF71EFC58B901209D49FE
:100EC000087000209649086097480078401C9649B1
:100ED000087002E000209749087015E094480078F7
:100EE00040F23A21081A8E49096801EB81018842D3
:100EF00009D800208A4908608B4908708748007823
:100F0000401C8649087000BF00BF03E184480068A8
:100F1000401C83490860884888490978405C10B1C2
:100F2000012824D10DE0002220218048FFF7F6FBA4
:100F300000207B49086081480078401C7F49087088
:100F400015E07748006800EB80003C280ED30122B2
:100F500020217648FFF7E2FB0020714908607749BD
:100F600008706E480078401C6C49087000BF00BFD4
:100F7000D0E06B480068401C6949086070487149BE
:100F80000978405C20B1012810D0022833D121E03B
:100F9000002220216548FFF7C1FB0020604908605E
:100FA00068480078401C6749087024E05C48006885
:100FB00000EB80000A280CD3012220215B48FFF7B8
:100FC000ADFB0020564908605E480078401C5D4932
:100FD000087010E05248006800EB8000322809D306
:100FE00000204F490860574908704C480078401C61
:100FF0004A49087000BF00BF8CE049480068401CA7
:1010000047490860504851490978405C40B101287F
:1010100014D0022826D003285CD14AE071E05BE0BE
:10102000002220214148FFF779FB00203C4908605D
:1010300046480078401C454908704BE03848006835
:1010400000EB800005280CD3012220213748FFF750
:1010500065FB0020324908603C480078401C3B4951
:10106000087037E02E48006800EB800005281FD389
:1010700020212E48FFF73FFB48B101213448027878
:101080000078401C324B18703248815408E000212F
:101090002F4802780078401C2D4B18702D48815441
:1010A00000201F49086029480078401C2749087023
:1010B00010E01B48006800EB80002D2809D30020B9
:1010C000174908602149087014480078401C1349EA
:1010D000087000BF00BF1DE011480068401C1049A7
:1010E00008600846006800EB80001B49884207D36F
:1010F00000200B49086009480078401C0749087027
:1011000008E0FFF755FE012014490870002003494C
:10111000087000BF00BF10BD182A00086000002042
:1011200064000020952A00086900002000080140A2
:101130006A0000206B000020992A00086C00002043
:101140009B2A00086D0000209E2A00086E000020E7
:101150007000002090010020B0710B00680000209A
:1011600001200C4908700C49087000200B490880C8
:1011700082200B49087000200A4908700A4908704B
:101180000A4908700A4908700A4908700A49087033
:1011900070470000600000206F00002078000020F1
:1011A0006A00002068000020690000206C00002018
:1011B0006D0000206E0000207000002010B50D486A
:1011C0000078012814D10C480088401C0A49088086
:1011D0000846008840F2712148430849B1EB001FDE
:1011E00006DC00F00DF80020034908800149087072
:1011F00010BD00006F0000207800002080841E00D9
:1012000010B505480078012803D10448007801286A
:1012100001D000F005F810BD680000206B00002030
:1012200000200149087070476000002010B50D488B
:101230000078032804DA0B480078401C094908703C
:101240000948008881B203220848FFF761FB07497B
:1012500004480078FFF742FB044601F05FFB0449B5
:10126000088010BD540000204400002056000020DB
:101270004800002010B515480078012824D11448F2
:10128000007858B9134800F000FF134908600C209B
:1012900000F060F801200E49087015E00C48007855
:1012A000012811D10B4800F0F0FE0B490968401AE3
:1012B0000A490860FFF7BAFF082000F04BF8002049
:1012C000034908700149087010BD00004200002069
:1012D0004C0000200004004050000020440000208A
:1012E0007CB505460C4601A8FFF710FA48208DF89A
:1012F00007004FF40040ADF8040003208DF806000D
:1013000001A91248FFF76CF90F210120FFF748F9F6
:101310000F48FFF73DF94FF400400D4908600120E8
:10132000887100200871082048710846FFF7E6F828
:1013300028208DF8000001208DF803008DF8015061
:101340008DF80240684600F097FA7CBD000C014021
:101350003800002010B5044602484471FFF7CEF86B
:1013600010BD00003800002010B50B48007801289F
:1013700011D100F037F809480078401C074908707F
:1013800008460078022806DB00F014F80020024925
:1013900008700249087010BD400000204B0000207A
:1013A000012002490870024908707047400000207F
:1013B0004100002010B500224FF480510648FFF78D
:1013C000ADF9012005490870002005490870082082
:1013D000FFF7C0FF10BD00000008014042000020E0
:1013E0004300002010B506480078012807D10122EB
:1013F00001030448FFF792F900200149087010BD6D
:10140000410000200008014008B56846FFF77EF95A
:1014100010208DF803000002ADF8000003208DF8C5
:10142000020069460448FFF7DBF800224FF48051C0
:101430000148FFF773F908BD0008014008B5684688
:10144000FFF764F900208DF803000220ADF80000DA
:1014500003208DF8020069460448FFF7C1F8052310
:10146000032209210248FEF73FFF08BD000C01409E
:101470000024014008B56846FFF748F910208DF8B0
:1014800003008002ADF8000003208DF802006946D9
:101490000248FFF7A5F800F003F808BD000C014072
:1014A00010B54FF480410248FFF72EF910BD00003F
:1014B000000C014038B504466846FFF727F91820AC
:1014C0008DF803004FF40070ADF8000003208DF894
:1014D000020069460F48FFF783F80F4800F007FF46
:1014E00000200D498881602008800020C881488143
:1014F000888001204880601EC880084800F03EFEB9
:101500000121064800F0B2FD0821044800F088FEE1
:1015100038BD00000008014080010020002C01407F
:1015200008B56846FFF7F2F800208DF803000120A7
:10153000ADF8000003208DF8020069460448FFF76B
:101540004FF80523022208210248FEF7CDFE08BD10
:10155000000C0140002401407FB505460C461C48A4
:1015600000F0B0FD01A800F01FFF0020ADF80A0058
:10157000ADF806004720ADF8040044F61F60ADF852
:10158000080000208DF80C0001A9114800F0BAFEF7
:1015900001210F4800F058FD012211460C4800F0CF
:1015A00088FD01210A4800F043FD19208DF8000054
:1015B00001208DF803008DF801508DF80240684637
:1015C00000F05AF90021024800F044FD7FBD000000
:1015D000002C01407FB505460C464FF0804000F0DE
:1015E00071FD01A800F0E0FE0020ADF80A00ADF8A2
:1015F00006004720ADF804000420ADF808000020E4
:101600008DF80C0001A94FF0804000F07BFE012115
:10161000880700F019FD01221146900700F049FDEE
:101620000121880700F004FD1C208DF80000012036
:101630008DF803008DF801508DF80240684600F0E7
:101640001BF900214FF0804000F004FD7FBD000039
:1016500010B5044607480088401C06490880084623
:101660000088A04205DB00200880FFF799FEFFF705
:1016700031FB10BD2400002010B504460648008848
:10168000401C0549088008460088A04203DB002072
:101690000880FFF765FD10BD260000207FB50546D8
:1016A0000C461A4800F00EFD01A800F07DFE002057
:1016B000ADF80A00ADF806004720ADF8040042F28C
:1016C0000F70ADF8080000208DF80C0001A90F483C
:1016D00000F018FE01210D4800F0B6FC0122114671
:1016E0000A4800F0E6FC1D208DF8000001208DF86E
:1016F00003008DF801508DF80240684600F0BCF8F8
:101700000021024800F0A6FC7FBD0000000400405C
:101710007FB505460C461A4800F0D4FC01A800F03D
:1017200043FE0020ADF80A00ADF8060041F61F4068
:10173000ADF8040042F20F70ADF8080000208DF8FB
:101740000C0001A90E4800F0DDFD01210C4800F05D
:101750007BFC012211460A4800F0ABFC1E208DF8EC
:10176000000001208DF803008DF801508DF8024033
:10177000684600F081F80021014800F06BFC7FBD55
:101780000008004010B504460121204600F062FC2C
:1017900010BD000008B510208DF803002020ADF822
:1017A000000003208DF8020069460348FEF718FF89
:1017B00000F004F808BD0000000C014010B5012243
:1017C00020210248FEF7AAFF10BD0000000C0140D6
:1017D00038B504466846FEF799FF18208DF80300D7
:1017E0004FF48060ADF8000003208DF802006946D8
:1017F0000F48FEF7F5FE0F4800F079FD00200D4977
:101800008881602008800020C8814881888001206C
:101810004880601EC880084800F010FD012106487D
:1018200000F024FC0821044800F058FD38BD0000F9
:101830000008014010020020002C014008B5684655
:10184000FEF764FF00208DF803000220ADF80000D1
:1018500003208DF8020069460448FEF7C1FE052307
:10186000012211460248FEF73FFD08BD0008014075
:10187000002401407047000070B5002100230F22B2
:10188000C47804B3154C246804F4E064C4F5E0643F
:10189000210AC1F10403CA40447804FA03F18478B0
:1018A0001440214309010E4C0678A155047804F038
:1018B0001F050124AC4005786D11AD0005F1E02550
:1018C000C5F8004109E0047804F01F050124AC408C
:1018D000044D0678761145F8264070BD0CED00E009
:1018E00000E400E080E100E002490143024A1160A7
:1018F000704700000000FA050CED00E070B5002410
:101900000EE00021204600F0E6F8002504E000206B
:1019100000F002F9681CC5B2802DF8DB601CC4B26F
:10192000082CEEDB70BD000008B50121102000F08E
:1019300031F914208DF8030003208DF802004FF4D4
:101940008040ADF8000069460A48FEF749FE4FF4B2
:101950000040ADF8000069460648FEF741FE01224E
:1019600091030448FEF7DAFE0122D1030148FEF795
:10197000D5FE08BD0010014070B50546002415E0F5
:101980008020204100EA05024FF400410E48FEF796
:10199000C5FE012291030C48FEF7C0FE00224FF461
:1019A00080410948FEF7BAFE601CC4B2082CE7DB90
:1019B000012291030448FEF7B1FE00224FF480415A
:1019C0000148FEF7ABFE70BD0010014010B50122CA
:1019D000D1030A48FEF7A2FE012291030748FEF751
:1019E0009DFE00224FF400410448FEF797FE0022BE
:1019F0004FF480410148FEF791FE10BD00100140F8
:101A000010B500224FF400410648FEF787FE012280
:101A100091030448FEF782FE0122D1030148FEF73C
:101A20007DFE10BD0010014070B5002406E00025C9
:101A300000E06D1CB5F57A7FFBD3641CB4F57A7FAA
:101A4000F5D3FFF771FFAE2000F056F8D52000F077
:101A500053F8802000F050F8A82000F04DF83F2007
:101A600000F04AF8D32000F047F8002000F044F8D6
:101A7000402000F041F8A12000F03EF8C82000F01E
:101A80003BF8DA2000F038F8122000F035F8812019
:101A900000F032F8CF2000F02FF8D92000F02CF819
:101AA000F12000F029F8DB2000F026F8302000F0CB
:101AB00023F8A42000F020F8A62000F01DF88D20C7
:101AC00000F01AF8142000F017F8AF2000F014F816
:101AD000FFF714FF70BD70B505460C4645F0B00029
:101AE00000F00AF8102141EA141000F005F804F0A3
:101AF0000F0000F001F870BD10B50446FFF766FF57
:101B00007820FFF739FF0020FFF736FF2046FFF768
:101B100033FFFFF775FF10BD10B50446FFF756FF02
:101B20007820FFF729FF4020FFF726FF2046FFF728
:101B300023FFFFF765FF10BD70470000014600203E
:101B4000034A506820F4404008435060704700004A
:101B50000010024029B1064A52690243044B5A61FF
:101B600004E0034A52698243014B5A617047000006
:101B70000010024029B1064AD2690243044BDA61DF
:101B800004E0034AD2698243014BDA6170470000E6
:101B90000010024029B1064A92690243044B9A613F
:101BA00004E0034A92698243014B9A617047000046
:101BB0000010024030B500210022002400232D4DEA
:101BC0006D6805F00C0121B1042905D0082923D145
:101BD00005E0294D056022E0274D05601FE0254DF9
:101BE0006D6805F47012234D6D6805F4803402258C
:101BF00005EB92421CB9214D554305600BE01D4D8C
:101C00006D6805F400351DB11C4D5543056002E0BB
:101C1000194D5543056002E0174D056000BF00BF38
:101C2000144D6D6805F0F0010909154D6B5C0568F0
:101C3000DD4045600F4D6D6805F4E061090A104D07
:101C40006B5C4568DD4085600A4D6D6805F4605148
:101C5000C90A0B4D6B5C4568DD40C560054D6D687C
:101C600005F44041890B074D6B5CC568B5FBF3F586
:101C7000056130BD0010024000127A0000093D00ED
:101C80000000002010000020704700002DE9F04700
:101C900081460F4615461C46DDE9088A484600F095
:101CA000B5FC0646287820B101280FD0022829D19A
:101CB0001CE01648C05D40B901202870002020704B
:101CC0002278501C207008F802601CE00D2E02D112
:101CD0000220287009E02178AAF10100814204DA8B
:101CE0002278501C207008F802600CE00A2E08D1FF
:101CF00000202870217808F8010020700120034995
:101D0000C85500E000BF00BFBDE8F08730000020EC
:101D10002DE9FF4F83B004468A46934635488442F6
:101D20000FD1354D2F4606154FF4006801210820CC
:101D3000FFF730FF01218804FFF71CFF4FF0270950
:101D400011E02E4884420ED12D4D2F4604264FF02F
:101D5000080801210420FFF71DFF01214804FFF7B7
:101D600009FF4FF0260901A8FEF7D0FC18208DF8D6
:101D70000700ADF8046003208DF8060001A928468D
:101D8000FEF72EFC48208DF80700ADF804800320F4
:101D90008DF8060001A93846FEF722FC194800F02C
:101DA0003EFC1848C0F800A00020164988810C208D
:101DB000488100200881C8808880204600F0BAFB56
:101DC000012240F22551204600F08EFB8DF808904C
:101DD00001208DF80B008DF809B006988DF80A00E7
:101DE00002A8FFF749FD0121204600F03AFB07B0A9
:101DF000BDE8F08F00480040000C01400044004066
:101E000000080140A800002070B504460D4600BF40
:101E10008021204600F031FB0028F9D029462046D9
:101E200000F0F9FB70BD70B505460C4604E014F8EF
:101E3000011B2846FFF7E8FF20780028F7D170BD86
:101E400010B500F001F810BD0CB500200190009015
:101E50003348006840F480303149086000BF3048A2
:101E6000006800F4003000900198401C0190009838
:101E700018B90198B0F5A06FF1D12948006800F4B5
:101E8000003010B10120009001E000200090009887
:101E9000012843D12348006840F010002149086020
:101EA0000846006820F0030008600846006840F01B
:101EB000020008601A4840681949486008464068AE
:101EC00048600846406840F48060486008464068C2
:101ED00020F47C1048600846406840F4E8104860F0
:101EE0000846006840F08070086000BF0C48006839
:101EF00000F000700028F9D00948406820F0030085
:101F0000074948600846406840F00200486000BF4A
:101F10000348406800F00C000828F9D10CBD00000F
:101F200000100240002002407047000010B5134826
:101F3000006840F0010011490860084640681049F7
:101F400008400E494860084600680E4908400B49A1
:101F500008600846006820F4802008600846406851
:101F600020F4FE0048604FF41F008860FFF768FF10
:101F70004FF000600449086010BD000000100240EE
:101F80000000FFF8FFFFF6FE08ED00E010B50121AC
:101F9000044800F07DF8012803D10121014800F038
:101FA00056F810BD002C014010B50121880700F043
:101FB0006FF8012809D10121800700F048F8FFF7E8
:101FC000D3F9FEF7A1FEFEF725FF10BD10B50121E4
:101FD0000B4800F05DF8012810D10121084800F0FD
:101FE00036F86420FFF734FBFEF7E6FCFEF76EFDE3
:101FF0004FF49670FFF740FBFFF7E0F810BD0000CC
:102000000004004010B50121074800F041F8012804
:1020100008D10121044800F01AF804480068401C67
:102020000249086010BD00000008004020000020A8
:1020300021B1028842F08002028004E002884FF65B
:102040007F731A4002807047CA4302827047CA43B6
:102050000282704721B1028842F00102028004E04E
:1020600002884FF6FE731A400280704731B1B0F813
:10207000442042F40042A0F8442005E0B0F8442097
:10208000C2F30E02A0F8442070470146888C7047C6
:1020900030B50246002000230024158A05EA01031A
:1020A000958905EA010413B10CB1012000E000207C
:1020B00030BD1AB183890B43838102E083898B434E
:1020C0008381704701894FF6F87211400181704792
:1020D00070B5002400220023058C4FF6FE763540B3
:1020E0000584028C8388048B4FF68F752C40B51EB7
:1020F0002C400D882C43751E2A400D892A434D889B
:102100002A43144DA8420BD0134DA84208D0134DBA
:10211000A84205D0124DA84202D0124DA84213D1B8
:102120004FF6F7752A404D892A434FF6FB752A4032
:102130008D882A434FF6FF652B404FF6FF552B4005
:102140008D892B43CD892B4383800483CD8885865D
:10215000028470BD002C0140003401400040014069
:1021600000440140004801400A460021018B4FF61F
:10217000F7731940114301837047000070B50024C4
:1021800000220023058C4FF6EF7635400584028C43
:102190008388048B48F6FF752C404FF6FF452C4092
:1021A0000D884FF6FF7606EA05252C434FF6DF75BE
:1021B0002A400D8906EA05152A434D8806EA0515C9
:1021C0002A43154DA84202D0144DA8421DD14FF606
:1021D0007F752A404D894FF6FF7606EA05152A439A
:1021E0004FF6BF752A408D8806EA05152A434FF63B
:1021F000FF352B404FF2FF752B408D8906EA850590
:102200002B43CD8906EA85052B4383800483CD8843
:102210000587028470BD0000002C0140003401409D
:102220000A460021018B4FF2FF7319404FF6FF73EE
:1022300003EA0223194301837047000070B50024AC
:1022400000220023058C4FF6FF6635400584028C82
:102250008388848B4FF68F752C404FF6FC752C408D
:102260000D882C434FF6FF552A400D894FF6FF7617
:1022700006EA05252A434D8806EA05252A43154D19
:10228000A84202D0144DA8421DD14FF2FF752A403A
:102290004D894FF6FF7606EA05252A434FF6FF35AE
:1022A0002A408D8806EA05252A434EF6FF752B4005
:1022B0004DF6FF752B408D8906EA05152B43CD8918
:1022C00006EA05152B4383808483CD8885870284A5
:1022D00070BD0000002C0140003401400A4600217E
:1022E000818B4FF6F77319401143818370470021AA
:1022F000018041808180C180018141818181C181D2
:1023000070470000002202881D4B98420ED01D4BE2
:1023100098420BD0B0F1804F08D01B4B984205D0AB
:102320001A4B984202D01A4B984204D14FF68F7341
:102330001A404B881A43174B984207D0164B9842C5
:1023400004D04FF6FF431A40CB881A4302808B8893
:1023500083850B8803850A4B98420BD0094B984222
:1023600008D00E4B984205D00D4B984202D00D4B31
:10237000984201D10B7A03860123838270470000C3
:10238000002C0140003401400004004000080040DF
:10239000000C0040001000400014004000400140CC
:1023A00000440140004801404FF6FF718180002148
:1023B0000180C18041800172704700001CB540F26D
:1023C00025510B4800F066F801280FD140F2255145
:1023D000074800F037F864240648074B074A0221F3
:1023E000CDE900040248FFF751FC00BF1CBD00000E
:1023F000004400401C01002037000020360000206F
:102400001CB540F225510B4800F044F801280FD1CB
:1024100040F22551074800F015F864240648074BA0
:10242000074A0321CDE900040248FFF72FFC00BF53
:102430001CBD000000480040B8000020350000200E
:102440003400002010B50022002340F66A14A14297
:1024500000D100BF0A1201249440A3B2DC430480DF
:1024600010BD21B1828942F40052828104E0828948
:102470004DF6FF731A408281704702460020B1F585
:10248000007F00D100BF13880B400BB1012000E09A
:102490000020704770B5024600240023002500206C
:1024A00040F66A16B14200D100BFC1F3421501F0F7
:1024B0001F03012606FA03F3012D02D1968933404A
:1024C00006E0022D02D1168A334001E0968A33409D
:1024D0000C12012606FA04F41688344013B10CB12C
:1024E000012000E0002070BDF0B503460024002666
:1024F0000025002040F66A17B94200D100BF1846F7
:10250000C1F3421401F01F06012707FA06F5012C5A
:1025100001D10C3004E0022C01D1103000E0143065
:102520001AB107682F43076002E00768AF430760EE
:10253000F0BD00002DE9F04786B005460E460024A8
:10254000A24600BFA1460027B08900B100BF2F46B8
:102550002C8A4CF6FF700440F08804432C82AC892E
:102560004EF6F3100440B08831890843718908435E
:102570000443AC81AC8A4FF6FF400440B089044369
:10258000AC8201A8FFF716FB1F48874202D1DDF895
:1025900010A001E0DDF80CA0A88900F4004040B1D3
:1025A0000AEBCA0000EB0A1031684900B0FBF1F8F1
:1025B00007E00AEBCA0000EB0A1031688900B0FBA3
:1025C000F1F86420B8FBF0F004012009642101FB5C
:1025D0001089A88900F4004040B1322000EBC90006
:1025E000B0FBF1F000F00700044308E0322000EBFC
:1025F00009106421B0FBF1F000F00F0004432C81BE
:1026000006B0BDE8F0870000003801400146888828
:10261000C0F308007047C1F30802828070474FF48E
:102620001651016000218180C18001810C2141810E
:1026300000218181704700BFFEE700004FF47A70EF
:10264000FDF706FF01214804FFF794FA01218804F1
:10265000FFF790FA0121C802FFF79CFA0121084612
:10266000FFF788FA01210220FFF784FA01210420F4
:10267000FFF780FA01210420FFF78CFA01210820DE
:10268000FFF788FA01211020FFF784FA012108469C
:10269000FFF780FA01214802FFF77CFA0121084682
:1026A000FFF758FA4FF4A060FFF71EF9FFF772F832
:1026B000FFF7BAF9FFF722F900231A464FF4E13188
:1026C0002B48FFF725FB2BA12948FFF7ACFB032381
:1026D0001A464FF4E1312948FFF71AFB28A1274891
:1026E000FFF7A1FB03210846FEF736FF002108464D
:1026F000FEF770FF01210846FEF7D0FF03210846D0
:10270000FFF706F82248FFF73DF84FF08040FFF74B
:1027100039F82048FFF736F844F62060FEF7ACF8A9
:1027200040F2DC50FEF7C6FE0020FFF751F8FEF73E
:102730006BFE02210846FEF7D3FD01210846FEF795
:102740008BF9FEF721FBFFF779F8FEF7E9FEFEF7BC
:1027500075FE0420FDF7ECFFFEF78CFEFEF74CF84B
:10276000FEF76AF802E06420FDF772FEFBE7000066
:102770000048004041540D0A0000000000440040A1
:1027800053657269616C325F4F6E0D0A0000000084
:10279000002C0140000400404FF47F0C1CEAD012D2
:1027A0001EBF1CEAD11392EA0C0F93EA0C0F00F043
:1027B000858090EA010F48BF42F4807240F4000C1B
:1027C00041F400002CF07F4120F07F4000B58142B1
:1027D000A2EB03020FF2081CACEB504EC0F100005C
:1027E0009EF800E04FEA4E0E00FB0EFC38BF490099
:1027F0004FEA2C1C02F5FA020CFB0EF34FEACE1E38
:102800004FEA112C4FEAC1210EEB635E42EB2242EC
:102810000EFB0CFC4FEA1C5300FB03114FEA112C7A
:102820004FEA01310EFB0CFC4FEADC4C00FB0C11B3
:10283000C14228BF09184CEB03335DF804EB10EBE1
:10284000410143EBC250B2F57C0F38BF704729D528
:1028500012F0F00F1CBF00F1C04000F000407047C4
:10286000008182838485868788898B8C8D8E8F9169
:102870009293959697999A9C9D9FA0A2A3A5A7A88D
:10288000AAACAEB0B2B3B5B7B9BCBEC0C2C5C7C9B9
:10289000CCCED1D4D7D9DCDFE2E6E9ECF0F3F7FA1D
:1028A000FE0000004FEA400C0CF1807CBCF17E4F32
:1028B00028BF7047B0F1C04000F0A9B890EA010FFE
:1028C0000CEAD11348BF42F48072624538BF6345B9
:1028D00007D213F47F0F16D080EA010000F0004009
:1028E000704710B500F04DF8097EFC3E00F005B8C9
:1028F00080EA010000F00040704780EA010000F02B
:10290000004000F084B812F47F0F04BF0248704703
:1029100080EA010000F07BB80000C07FC10DD1F15A
:102920009E0206DB4FEA002343F0004323FA02F045
:102930007047004207D54FEA4001B1F1FE4F02D285
:102940004FF00000704710B500F01BF8499224804A
:10295000002070476FEA200070470000B0FA80F353
:1029600010FA03F2C3F19D030AD0D90501EB12203E
:10297000530638BF704700F1010008BF20F0010086
:1029800070470EF1020E2EF0030E5EF8044B244247
:1029900004D44FEA4102B2F17F4F11D84FEA40030D
:1029A000B3F17F4F0CD80ED14FEAD07CB2F17F4FFC
:1029B0000CEB4C0C0CF1020C08BF4CEBD17C04E08E
:1029C0004FF0080C01E04FEAD17C0CEB4C0324FAE9
:1029D00003F404F00704B4F1040C06D20EEB840CEB
:1029E000BDE810404CF0010C6047DFE80CF0070830
:1029F00002024FF00040A0F5800010BD08464200E2
:102A000018BFD2F1807288BF00F0004010BDFF21D6
:102A100041EAD050C00570470603000001010000E4
:102A20000101000001000000010004030000010199
:102A30000000010100010101010100010202020286
:102A40000202020202020202020202020500000069
:102A50000000000000000000000000000000000076
:102A60000000000000000000000000000000000066
:102A70000000000000000000000000000000000056
:102A80000000000000000000000000000000000046
:102A9000000000000000010203000100010200012B
:102AA00002030000C42A000800000020A800000063
:102AB000280100086C2B0008A8000020D80700009F
:102AC00044010008000000000102030401020304A5
:102AD00006070809020406080000000000000000C4
:102AE00000000000000000000000000000000000E6
:102AF00000000000000000000000000000000000D6
:102B000000000000000000000000000000000000C5
:102B100000000000000000000000000000000000B5
:102B2000000000000000000000000000000046005F
:102B30000000000000000000000000000000000095
:102B40000000000000000000000000000000000085
:102B50000000000000000000000000000000000075
:0C2B600000000000000000000000000069
:04000005080000ED02
:00000001FF
