:020000040800F2
:10000000A00C002089010008C91600081309000887
:1000100051090008D9030008A929000800000000C0
:10002000000000000000000000000000E91B0008C4
:100030004D06000800000000591A0008B921000808
:10004000A3010008A3010008A3010008A301000800
:10005000A3010008A3010008A3010008A3010008F0
:10006000A3010008A3010008AB060008A3010008D3
:10007000DD030008A3010008A3010008A301000894
:10008000A301000801040008A3010008A30100085F
:10009000A3010008A3010008A3010008A3010008B0
:1000A000A30100081D220008A3010008A301000805
:1000B000392200085922000895220008A3010008EF
:1000C000A3010008A3010008A3010008A301000880
:1000D000A3010008A301000831260008AD2600088E
:1000E00095060008A3010008A301000800F002F82B
:1000F00000F03AF80AA090E8000C82448344AAF188
:100100000107DA4501D100F02FF8AFF2090EBAE885
:100110000F0013F0010F18BFFB1A43F0010318473B
:10012000D8310000F8310000103A24BF78C878C1F7
:10013000FAD8520724BF30C830C144BF04680C60ED
:10014000704700000023002400250026103A28BF35
:1001500078C1FBD8520728BF30C148BF0B60704739
:100160001FB51FBD10B510BD00F032F81146FFF7E6
:10017000F7FF02F065FC00F050F803B4FFF7F2FF60
:1001800003BC00F057F800000948804709480047C1
:10019000FEE7FEE7FEE7FEE7FEE7FEE7FEE7FEE737
:1001A000FEE7FEE704480549054A064B7047000094
:1001B000BD210008ED000008A0060020A00C0020D2
:1001C000A0080020A00800207047704770477047C3
:1001D000754600F02BF8AE4605006946534620F000
:1001E0000700854618B020B5FFF7DCFFBDE82040CA
:1001F0004FF000064FF000074FF000084FF0000BE3
:1002000021F00701AC46ACE8C009ACE8C009ACE895
:10021000C009ACE8C0098D46704710B50446AFF37D
:1002200000802046BDE81040FFF7A7BF0048704798
:100230003C06002001491820ABBEFEE72600020064
:1002400021B1826842F00102826003E0826822F0FC
:1002500001028260704721B1826842F4807282603C
:1002600003E0826822F480728260704701460020B9
:100270008A6802F004020AB1012000E00020704701
:10028000014600208A6802F008020AB1012000E05D
:100290000020704730B502460020002350680F4C04
:1002A00020400D790C6844EA052420435060906892
:1002B0000B4C2040D1E902542C434D7944EA4504CB
:1002C00020439060D06A20F470000C7C641EE4B27D
:1002D000234340EA0350D06230BD0000FFFEF0FF30
:1002E000FDF7F1FFF0B504460D4600200021092D71
:1002F00011DDE068A5F10A0606EB4607072606FAB7
:1003000007F18843A5F10A0606EB460603FA06F153
:100310000843E0600CE0206905EB4507072606FA74
:1003200007F1884305EB450603FA06F1084320610F
:10033000072A0FDA606B561E06EB86071F2606FAA1
:1003400007F18843561E06EB860605FA06F10843B8
:10035000606322E00D2A0FDA206BD61F06EB8607BA
:100360001F2606FA07F18843D61F06EB860605FA14
:1003700006F10843206310E0E06AA2F10D0606EBE7
:1003800086071F2606FA07F18843A2F10D0606EB41
:10039000860605FA06F10843E062F0BD816841F087
:1003A00008018160704721B1826842F4A002826036
:1003B00003E0826822F4A00282607047816841F005
:1003C0000401816070470021016001714171816009
:1003D000C16001210174704700BFFEE710B5202005
:1003E00000F0E8F840B1002001F05EFE0120034972
:1003F0000870202000F01AF810BD00002A0000202C
:1004000010B54FF0007000F0D5F848B10021054854
:1004100000F01AF8012004490870400600F006F8C0
:1004200010BD0000800002404C00002000F0805110
:1004300011B10349086001E00249486070470000BB
:10044000040402400000024021B1026842F00102AF
:10045000026004E002684FF6FE731A4002607047C3
:1004600001684FF6FE721140016000210160416099
:100470008160C1604B49884208D14A4908394968BE
:1004800041F00F01474A083A51608AE0454914316A
:10049000884208D143490839496841F0F001414A8E
:1004A000083A51607DE03F492831884208D13D49F2
:1004B0000839496841F470613A4A083A516070E07D
:1004C00038493C31884208D136490839496841F4F5
:1004D0007041344A083A516063E0324950318842F1
:1004E00008D130490839496841F470212D4A083A49
:1004F000516056E02B496431884208D129490839B6
:10050000496841F47001274A083A516049E0254999
:100510007831884208D123490839496841F070612F
:10052000204A083A51603CE01F49884206D1011F29
:10053000096841F00F01021F116032E01A491431BD
:10054000884208D11849091F096841F0F001164A8C
:10055000121F116025E014492831884208D1124940
:10056000091F096841F470610F4A121F116018E0F9
:100570000D493C31884208D10B49091F096841F4F3
:100580007041094A121F11600BE00749503188423F
:1005900007D10549091F096841F47021024A121F59
:1005A0001160704708000240080402400146486894
:1005B00080B2704701460020002201F0805313B141
:1005C000054B1A6801E0054B1A6802EA01030BB1FA
:1005D000012000E0002070470004024000000240BB
:1005E0001AB103680B43036002E003688B430360A6
:1005F000704710B50022026847F6F0739A430C6A00
:100600008B6823430C6923434C6923438C69234340
:10061000CC6923434C6A23438C6A23431A43026008
:10062000CB6843600B6883604B68C36010BD41605A
:1006300070470021016041608160C16001614161DA
:100640008161C1610162416281627047704700B59A
:10065000034603E04FF47A7000F005F8181EA3F18A
:100660000103F7D100BD00EBC001C9004FF0E0224B
:100670005161002191610521116100BF4FF0E0211E
:10068000096901F480310029F8D004214FF0E022FB
:100690001161704710B54FF4004000F019F80128BF
:1006A00002D1C00300F00EF810BD10B5102000F00C
:1006B0000FF8012804D1102000F004F800F0C8FA67
:1006C00010BD00000149086070470000140401409B
:1006D000014600200022074B1B6803EA0102054B7C
:1006E00014331B680B4013B10AB1012000E0002055
:1006F0007047000000040140002123498279002A4C
:100700003AD00A46126803689A430B461A600A1DDB
:10071000126803689A430B1D1A60027911440A6833
:1007200003681A430A60184A0832126803689A4339
:10073000154B08331A601A1D126803689A43124B4E
:100740000C331A604279102A0ED11A1F12680368FE
:100750001A430D4B08331A601A1D126803681A43B6
:10076000094B0C331A600DE00749427911440A68BD
:1007700003681A430A6005E0027911440A680368B5
:100780009A430A60704700000004014030B500221F
:100790008B071C0F0F2303FA04F20B4B8C1053F83A
:1007A00024309343084C8D1044F8253023468C1098
:1007B00053F824308C07240F00FA04F42343024C2E
:1007C0008D1044F8253030BD080001402DE9F0417E
:1007D000024600250026002000230024002791F86F
:1007E00003C00CF00F0591F803C00CF0100CBCF125
:1007F000000F03D091F802C04CEA050591F800C043
:10080000BCF1000F31D0146800202BE04FF0010C38
:100810000CFA00F3B1F800C00CEA03069E4220D1A6
:1008200083004FF00F0C0CFA03F7BC4305FA03FCEE
:100830004CEA040491F803C0BCF1280F06D14FF034
:10084000010C0CFA00FCC2F814C00AE091F803C0D5
:10085000BCF1480F05D14FF0010C0CFA00FCC2F8B6
:1008600010C0401C0828D1D31460B1F800C0BCF1FE
:10087000FF0F34DD546800202EE000F1080C4FF02B
:10088000010808FA0CF3B1F800C00CEA03069E4216
:1008900021D183004FF00F0C0CFA03F7BC4305FA8B
:1008A00003FC4CEA040491F803C0BCF1280F05D105
:1008B00000F1080C08FA0CF8C2F8148091F803C093
:1008C000BCF1480F07D100F1080C4FF0010808FAFD
:1008D0000CF8C2F81080401C0828CED35460BDE844
:1008E000F0810246002093680B400BB1012000E02C
:1008F00000207047016170474FF6FF7101800221AF
:1009000081700421C17070470AB1016100E041614A
:10091000704700BFFEE7000008B56846FFF7ECFF30
:1009200000208DF803000220ADF8000003208DF8B0
:10093000020069460448FFF749FF05230422092104
:100940000248FFF7CFFC08BD000C01400024014025
:1009500000BFFEE710B590B004464FF4004001F030
:100960007DF80BA8FFF72FFD01208DF83100002046
:100970000E904FF460200D9000200B908DF83C40BD
:1009800001208DF830000BA92148FFF783FC0121DD
:100990001F48FFF760FC6846FFF74BFE1C484C30D1
:1009A000009080150690002004901A4801904FF4A2
:1009B00080600790802005900020029003940A90A8
:1009C00020200890C001099069461348FFF711FEE6
:1009D00001210F48FFF734FC01210F48FFF734FDD8
:1009E0000B48FFF7DBFC00BF0948FFF749FC012873
:1009F000FAD00748FFF7E2FC00BF0548FFF736FCD6
:100A00000128FAD001210248FFF7CDFC10B010BD3B
:100A100000240140B60000200800024008B56846E6
:100A2000FFF76AFF10208DF803004002ADF80000C8
:100A300003208DF8020069460248FFF7C7FE00F068
:100A400003F808BD000C014010B54FF400510248F6
:100A5000FFF750FF10BD0000000C014010B5064824
:100A60000078012802D100F0EFF804E00248007895
:100A700008B900F0E5F810BD8000002010B50C4862
:100A8000006840B90B4801F048FC0B490968401A5E
:100A90000A4908600AE0074801F03FFC42F2107181
:100AA000084405490968401A0449086010BD00005F
:100AB00068000020000400407C0000207800002036
:100AC00010B5044801F029FC0349086000200349DF
:100AD000086010BD000400407C0000206800002079
:100AE00004480078012804D103480068401C0249EA
:100AF0000860704764000020680000207CB500207A
:100B00000090019000240026002500BF15E0002180
:100B10000FE01D4A165D1DF80020C1F1070306FA1B
:100B200003F31A43D2B20DF80020621CD4B24A1C5F
:100B3000D1B20729EDDD411CC8B20428E7DD002051
:100B400005E01DF800102944CDB2411CC8B20328AD
:100B5000F7DD9DF80400A84212D1002005E01DF841
:100B600000100A4A1154411CC8B20328F7DD074897
:100B7000807807490870054800780649087001E048
:100B800000F05EF87CBD00009C0500207400002091
:100B9000820000208300002038B504460D46142052
:100BA0001749C87010200880032088701548FFF787
:100BB0000DFE04210020FFF7E9FD0122102111485C
:100BC000FFF7A2FE102010490860002008710820DD
:100BD0004871002088710846FFF78EFD0A208DF8C5
:100BE000000000208DF801008DF8020001208DF832
:100BF0000300684600F06AFD00F0F8F838BD000018
:100C000058000020000801405C00002010B50A4890
:100C1000007801280FD109480078401C0749087066
:100C200008460078042806DBFFF718FF0020034978
:100C300008700149087010BD6C000020840000207D
:100C400010B500F099F810BD10B500F095F810BD82
:100C500010B53E480078062874D2DFE800F003049F
:100C6000730D205F6FE0012039490870FFF728FFFE
:100C700003203649087066E0FFF700FF354800683A
:100C8000642809D333480068B42805D804202F49C4
:100C90000870FFF715FF01E0FFF7D2FF53E0FFF701
:100CA000EDFE2C4800683C2818D32A4800685A28D2
:100CB00014D8FFF705FF0021274802780078401C70
:100CC000254B18702548815418460078282824DBC5
:100CD00005201E49087000F06BF81EE01D480068F2
:100CE0006E2818D31B480068822814D8FFF7E8FE46
:100CF0000122194801780078401C174B18701748DA
:100D0000425418460078282807DB05200F49087050
:100D100000F04EF801E0FFF793FF14E0FFF7AEFE9E
:100D20000C48006828280AD30A4800683C2806D8DE
:100D300001200B490870FFF7E1FE02E002E0FFF737
:100D40007FFF00E000BF00BF10BD00007700002063
:100D50006400002078000020810000209C05002015
:100D60008000002010B500200249087000F016F83D
:100D700010BD00008100002010B500F023F8002015
:100D800003490870034908700349087010BD00004A
:100D900077000020640000208000002010B50C20A7
:100DA000024948710846FFF7A7FC10BD5C0000200F
:100DB00010B50820024948710846FFF79DFC10BD98
:100DC0005C00002010B548200549C8700548FFF7B1
:100DD000FDFC0120044988710846FFF78DFC10BD19
:100DE00058000020000801405C00002010B50020E1
:100DF000054988710846FFF77FFC10200349C87039
:100E00000348FFF7E3FC10BD5C0000205800002001
:100E10000008014010B5012007490870002007496B
:100E20000870FFF7E3FF002005490870FFF79AFFFD
:100E300001200449087010BD6D0000206E000020E4
:100E4000770000206C00002010B51A4800780128B7
:100E50002ED119480068401C1749086017480078CF
:100E600010B1012823D10DE0FFF7C0FF00221021AF
:100E70001348FFF749FD01201049087000200E4972
:100E8000086014E00C48006800EB800044F6206124
:100E900088420BD3FFF796FF01200A490870FFF73D
:100EA0007DFF0020054908700249087000BF00BF9F
:100EB00010BD00006D000020700000206E000020BA
:100EC000000801407700002038B504466846FFF767
:100ED00013FD18208DF803004FF48070ADF800006A
:100EE00003208DF8020069460F48FFF76FFC0F489A
:100EF00001F037FB00200D49888160200880002028
:100F0000C8814881888001204880601EC8800848C8
:100F100001F026FA0121064801F0F0F90821044801
:100F200001F06AFA38BD0000000801402C060020DC
:100F3000002C014038B5044618208DF803004FF40A
:100F40000060ADF8000003208DF8020069460F48EC
:100F5000FFF73CFC0E4801F004FB00200C4988819F
:100F6000602008800020C881488188800120488056
:100F7000601EC880074801F0A9FA0121054801F068
:100F8000BDF90821034801F0DFFA38BD000801402F
:100F90000C060020002C01407FB505460C461C487D
:100FA00001F0D8F901A801F039FB0020ADF80A00E2
:100FB000ADF806004720ADF8040044F61F60ADF818
:100FC000080000208DF80C0001A9114801F0D4FAA6
:100FD00001210F4801F080F9012211460C4801F06F
:100FE000B0F901210A4801F06BF919208DF80000D1
:100FF00001208DF803008DF801508DF802406846FD
:1010000000F064FB0021024801F06CF97FBD000094
:10101000002C01407FB505460C464FF0804001F0A2
:1010200099F901A801F0FAFA0020ADF80A00ADF82C
:1010300006004720ADF804000420ADF808000020A9
:101040008DF80C0001A94FF0804001F095FA0121C4
:10105000880701F041F901221146900701F071F96A
:101060000121880701F02CF91C208DF800000120D7
:101070008DF803008DF801508DF80240684600F0AD
:1010800025FB00214FF0804001F02CF97FBD0000CE
:1010900005480088401C04490880084600880A2842
:1010A00001DB0020088070472400002010B50446B2
:1010B00006480088401C0549088008460088A04270
:1010C00003DB00200880FFF7A5FE10BD26000020EE
:1010D00010B5044606480088401C054908800846AB
:1010E0000088A04203DB0020088000F087FA10BDD2
:1010F000280000207FB505460C461A4801F02AF961
:1011000001A801F08BFA0020ADF80A00ADF8060046
:101110004720ADF8040042F20F70ADF8080000203F
:101120008DF80C0001A90F4801F026FA01210D48A5
:1011300001F0D2F8012211460A4801F002F91D20FF
:101140008DF8000001208DF803008DF801508DF816
:101150000240684600F0BAFA0021024801F0C2F8E5
:101160007FBD00000004004010B504460121204668
:1011700001F0B8F810BD000008B56846FFF7BCFBE9
:1011800010208DF803000002ADF8000003208DF858
:10119000020069460248FFF719FB00F003F808BD9A
:1011A000000C014010B54FF480510248FFF7A2FB3C
:1011B00010BD0000000C014038B504466846FFF73A
:1011C0009BFB18208DF803004FF40070ADF8000071
:1011D00003208DF8020069460F48FFF7F7FA0F4821
:1011E00001F0BFF900200D498881602008800020AF
:1011F000C8814881888001204880601EC8800848D6
:1012000001F004F90121064801F078F808210448AA
:1012100001F04EF938BD0000000801401C06002016
:10122000002C014010B50121042000F053FC1420D3
:101230000449C87020200880032088700248FFF706
:10124000C5FA10BD88000020000801400020144AA3
:10125000108000BF09E0134A125C8240104B1B88CB
:101260001A430F4B1A80421CD0B21028F3DB0C48F3
:1012700000880122B2EBE03F05D109480088C04355
:10128000401C074A1080064800880011064A10805A
:101290000F21034800880840044A1080704700006E
:1012A0009E000020C4050020A0000020A200002015
:1012B00010B5C048C0490978405C072805D2DFE86E
:1012C00000F073A6EA05FCFB040071E1BB4800686E
:1012D000401CBA490860BA48BA490978405C30B144
:1012E000012817D002282AD003285BD144E001222C
:1012F0002021B548FFF708FB00222021B248FFF764
:1013000003FB0020AD490860AE480078401CAD49A1
:10131000087047E0A948006800EB8000B0F5FA7F4C
:101320000CD301222021A848FFF7EEFA0020A349A0
:101330000860A4480078401CA249087032E09F4829
:10134000006800EB8000A1490978884213D320216E
:101350009D48FFF7C6FA58B901209D490870002042
:101360009649086097480078401C9649087002E04A
:1013700000209749087015E09448007840F23A211F
:10138000081A8E49096801EB8101884209D80020BA
:101390008A4908608B49087087480078401C864954
:1013A000087000BF00BF03E184480068401C834907
:1013B0000860884888490978405C10B1012824D128
:1013C0000DE0002220218048FFF79EFA00207B4993
:1013D000086081480078401C7F49087015E0774814
:1013E000006800EB80003C280ED3012220217648C3
:1013F000FFF78AFA002071490860774908706E4843
:101400000078401C6C49087000BF00BFD0E06B48FA
:101410000068401C69490860704871490978405C5F
:1014200020B1012810D0022833D121E00022202150
:101430006548FFF769FA002060490860684800784D
:10144000401C6749087024E05C48006800EB80009D
:101450000A280CD3012220215B48FFF755FA00200F
:10146000564908605E480078401C5D49087010E0ED
:101470005248006800EB8000322809D300204F4911
:101480000860574908704C480078401C4A49087069
:1014900000BF00BF8CE049480068401C4749086015
:1014A000504851490978405C40B1012814D00228C5
:1014B00026D003285CD14AE071E05BE000222021C5
:1014C0004148FFF721FA00203C490860464800786F
:1014D000401C454908704BE03848006800EB80002C
:1014E00005280CD3012220213748FFF70DFA0020F0
:1014F000324908603C480078401C3B49087037E09E
:101500002E48006800EB800005281FD320212E48BC
:10151000FFF7E7F948B10121344802780078401C10
:10152000324B18703248815408E000212F4802786D
:101530000078401C2D4B18702D48815400201F4905
:10154000086029480078401C2749087010E01B48B3
:10155000006800EB80002D2809D30020174908609F
:101560002149087014480078401C1349087000BFD6
:1015700000BF1DE011480068401C10490860084683
:10158000006800EB80001B49884207D300200B490C
:10159000086009480078401C0749087008E0FFF718
:1015A00055FE01201449087000200349087000BF4F
:1015B00000BF10BD6E3200088C000020900000209B
:1015C000EB32000895000020000801409600002042
:1015D00097000020EF32000898000020F132000848
:1015E00099000020F43200089A0000209C0000209E
:1015F000C4050020B0710B009400002001200C49AC
:1016000008700C49087000200B49088082200B49A3
:10161000087000200A4908700A4908700A490870D1
:101620000A4908700A4908700A49087070470000A2
:101630008C0000209B000020A400002096000020C9
:1016400094000020950000209800002099000020C0
:101650009A0000209C00002010B50D480078012859
:1016600014D10C480088401C0A49088008460088AC
:1016700040F2712148430849B1EB001F06DC00F03D
:101680000DF80020034908800149087010BD0000D2
:101690009B000020A400002080841E0010B5054897
:1016A0000078012803D104480078012801D000F017
:1016B00005F810BD9400002097000020002001498B
:1016C000087070478C0000207047000070B5002142
:1016D00000230F22C47804B3154C246804F4E0649A
:1016E000C4F5E064210AC1F10403CA40447804FA55
:1016F00003F184781440214309010E4C0678A1556A
:10170000047804F01F050124AC4005786D11AD008C
:1017100005F1E025C5F8004109E0047804F01F0553
:101720000124AC40044D0678761145F8264070BD82
:101730000CED00E000E400E080E100E0024901433C
:10174000024A1160704700000000FA050CED00E04D
:1017500070B500240EE00021204600F0F0F80025CE
:1017600004E0002000F068F9681CC5B2802DF8DBA9
:10177000601CC4B2082CEEDB70BD000008B501216E
:10178000102000F0A7F914208DF8030003208DF835
:1017900002004FF48040ADF8000069460A48FFF7A8
:1017A00015F84FF40040ADF8000069460648FFF711
:1017B0000DF8012291030448FFF7A6F80122D10396
:1017C0000148FFF7A1F808BD0010014070B50546BB
:1017D000002415E08020204100EA05024FF400417A
:1017E0000E48FFF791F8012291030C48FFF78CF89F
:1017F00000224FF480410948FFF786F8601CC4B20C
:10180000082CE7DB012291030448FFF77DF8002252
:101810004FF480410148FFF777F870BD0010014098
:1018200010B50122D1030A48FFF76EF80122910397
:101830000748FFF769F800224FF400410448FFF71A
:1018400063F800224FF480410148FFF75DF810BDB6
:101850000010014010B500224FF400410648FFF788
:1018600053F8012291030448FFF74EF80122D103F7
:101870000148FFF749F810BD0010014070B5002481
:1018800006E0002500E06D1CB5F57A7FFBD3641CF3
:10189000B4F57A7FF5D3FFF771FFAE2000F0BCF806
:1018A000D52000F0B9F8802000F0B6F8A82000F0AC
:1018B000B3F83F2000F0B0F8D32000F0ADF80020DE
:1018C00000F0AAF8402000F0A7F8A12000F0A4F84A
:1018D000C82000F0A1F8DA2000F09EF8122000F0F5
:1018E0009BF8812000F098F8CF2000F095F8D920DF
:1018F00000F092F8F12000F08FF8DB2000F08CF877
:10190000302000F089F8A42000F086F8A62000F02E
:1019100083F88D2000F080F8142000F07DF8AF20CF
:1019200000F07AF8FFF714FF70BD10B502460120F1
:1019300000E050430B1EA1F10101FAD110BD70B5BA
:1019400005460C4645F0B00000F066F8102141EA6B
:10195000141000F061F804F00F0000F05DF870BDA5
:101960002DE9F04105460E461746721ED206110EAD
:101970006A1E5206100EFFF7E2FF002409E0A7F1ED
:101980002001134A02EB0111085D00F055F8601CBC
:10199000C4B2082CF3DB721ED206110E6A1E01239C
:1019A00003EB4202D0B2FFF7CAFF00240BE0A7F11D
:1019B0002001074A02EB011204F10801505C00F01B
:1019C0003BF8601CC4B2082CF1DBBDE8F0810000DC
:1019D0007E2C00082DE9F04780460E4617461D462E
:1019E000002415E0281B411E0A20FFF79EFFB7FBCD
:1019F000F0F00A21B0FBF1F201FB120000F1300916
:101A00003019C1B24A464046FFF7AAFF601CC4B273
:101A1000AC42E7DBBDE8F08710B50446FFF700FFF6
:101A20007820FFF7D3FE0020FFF7D0FE2046FFF717
:101A3000CDFEFFF70FFF10BD10B50446FFF7F0FE17
:101A40007820FFF7C3FE4020FFF7C0FE2046FFF7D7
:101A5000BDFEFFF7FFFE10BD7047000001460020ED
:101A6000034A506820F4404008435060704700002B
:101A70000010024029B1064A52690243044B5A61E0
:101A800004E0034A52698243014B5A6170470000E7
:101A90000010024029B1064AD2690243044BDA61C0
:101AA00004E0034AD2698243014BDA6170470000C7
:101AB0000010024029B1064A12690243044B1A6120
:101AC00004E0034A12698243014B1A617047000027
:101AD0000010024029B1064A92690243044B9A6100
:101AE00004E0034A92698243014B9A617047000007
:101AF0000010024029B1064AD2680243044BDA6062
:101B000004E0034AD2688243014BDA607047000068
:101B10000010024030B500210022002400232D4D8A
:101B20006D6805F00C0121B1042905D0082923D1E5
:101B300005E0294D056022E0274D05601FE0254D99
:101B40006D6805F47012234D6D6805F4803402252C
:101B500005EB92421CB9214D554305600BE01D4D2C
:101B60006D6805F400351DB11C4D5543056002E05C
:101B7000194D5543056002E0174D056000BF00BFD9
:101B8000144D6D6805F0F0010909154D6B5C056891
:101B9000DD4045600F4D6D6805F4E061090A104DA8
:101BA0006B5C4568DD4085600A4D6D6805F46051E9
:101BB000C90A0B4D6B5C4568DD40C560054D6D681D
:101BC00005F44041890B074D6B5CC568B5FBF3F527
:101BD000056130BD0010024000127A0000093D008E
:101BE0000000002010000020704710B501214FF4C4
:101BF000E13000F013F800F0EDF800231A46194622
:101C00004FF4805000F09AF80121084600F06CF87B
:101C10004FF4805000F032F810BD000070B504465B
:101C20000D4601210420FFF755FF01210846FFF76B
:101C300051FF01214804FFF72DFF01210846FFF75E
:101C400019FF0C4800F09AFD0B4800F0A1FE0A486D
:101C500004600020084988810C2048810020088108
:101C6000C8808880034800F027FE2946014800F01C
:101C700070FD70BD004400402C03002010B50446E8
:101C800001224021144800F070FD1448FEF7E8FBE3
:101C90004FF400701249C8600020886088621148C3
:101CA00048600020C86180204861202008620A48FE
:101CB000001D0860002088610861084644620748EA
:101CC000FEF797FC01210548FEF7BEFB0020054901
:101CD00081F8040210BD0000004400406C00024086
:101CE000680300209403002070B505460C460F4899
:101CF000FEF702FE04200D49C8700820088003206A
:101D000088700B48FEF762FD012240F22441094829
:101D100000F0ACFD2620084908700120C8704D7005
:101D20008C700846FFF7D2FC70BD00004000002018
:101D30000008014000440040480000202DE9F04127
:101D400004460D4616461F461D48FEF789FB1D48F2
:101D5000FEF76FFC00201B49C8601020886000203F
:101D600088624860C8618020486100200862164887
:101D70000860002088610861084644621048FEF748
:101D800038FC1120114908700120C87008464570C0
:101D90008670FFF79BFC012280210B48001F00F09A
:101DA000E4FC012202210648FEF71AFC39460448E9
:101DB000FEF74AFB012006490870BDE8F0810000EB
:101DC000800002403C030020044400404400002006
:101DD0004C00002010B50748FEF78EFD182005497D
:101DE000C87004200880032088700348FEF7EEFCCA
:101DF00010BD00003C0000200008014070B5054601
:101E00000C461DB114B1B4F5806F02D34FF0FF3012
:101E100070BD00BF0B4800780028FBD000210A48A5
:101E2000FEF712FB09484560C46001460648FEF70C
:101E3000E0FB01210448FEF707FB00200149087080
:101E40000120E5E74C000020800002403C03002018
:101E50002DE9F04707460C4615461E46DDE9088980
:101E60000121384600F016F8012000F0DBF8F2B24C
:101E7000E9B20023204600F08DF809F0FF0108F0D8
:101E8000FF00012200F05EF80121480300F028F86D
:101E9000BDE8F08770B504460D4601210820FFF724
:101EA00019FE01218804FFF7F5FD01210846FFF71F
:101EB000E1FD094804600020074988810C20488121
:101EC00000200881C8808880044800F0F5FC29467D
:101ED000024800F03EFC70BDC402002000480040F3
:101EE00070B504460D4601224021124800F03DFC29
:101EF0001148FEF7B5FA4FF400701049C860002091
:101F0000886088620E4848600020C861802048616F
:101F1000202008620748001D0860002088610861D1
:101F2000084644620448FEF764FB29460248FEF76F
:101F30008BFA70BD004800403000024000030020D2
:101F4000C100002070B504460D46164604200D4918
:101F5000C87040020880032088700B48FEF736FCEA
:101F6000012240F22441094800F080FC2720084962
:101F700008700120C870084644708570FFF7A6FB02
:101F800070BD000030000020000C014000480040FF
:101F9000380000202DE9F04104460D4616461F4644
:101FA000012280211A4800F0E0FB1A48FEF758FA97
:101FB00000201949C86010208860002088624860AD
:101FC000C86180204861002008621148001D086037
:101FD000002088610861084644620E48FEF709FB4C
:101FE000012202210B48FEF7FBFA0C200B49087076
:101FF0000120C870084645708670FFF767FB3946B8
:102000000448FEF721FA012005490870BDE8F08177
:10201000004800401C000240D40200203400002090
:102020002A00002010B5044601210846FFF752FDA2
:1020300018200549C8704FF480600880032088701C
:102040000248FEF7C3FB10BD2C000020000C01402D
:1020500070B505460C46002C03DD15B1B4F57A7F4A
:1020600002DB4FF0FF3070BD00BF0C480078002845
:10207000FBD0002000F018F809484560C460014614
:102080000848FEF7B6FA012000F00EF8012000F033
:1020900015F80020014908700120E4E72A0000201B
:1020A000D40200201C00024010B50446214602481C
:1020B000FEF7CAF910BD00001C00024010B504462E
:1020C0002146024800F045FB10BD000000480040DA
:1020D00010B500F001F810BD0CB500200190009083
:1020E0003348006840F480303149086000BF304810
:1020F000006800F4003000900198401C01900098A6
:1021000018B90198B0F5A06FF1D12948006800F422
:10211000003010B10120009001E0002000900098F4
:10212000012843D12348006840F01000214908608D
:102130000846006820F0030008600846006840F088
:10214000020008601A48406819494860084640681B
:1021500048600846406840F480604860084640682F
:1021600020F47C1048600846406840F4E81048605D
:102170000846006840F08070086000BF0C480068A6
:1021800000F000700028F9D00948406820F00300F2
:10219000074948600846406840F00200486000BFB8
:1021A0000348406800F00C000828F9D10CBD00007D
:1021B00000100240002002407047000010B5134894
:1021C000006840F001001149086008464068104965
:1021D00008400E494860084600680E4908400B490F
:1021E00008600846006820F48020086008464068BF
:1021F00020F4FE0048604FF41F008860FFF768FF7E
:102200004FF000600449086010BD0000001002405B
:102210000000FFF8FFFFF6FE08ED00E010B5012119
:10222000044800F07DF8012803D10121014800F0A5
:1022300056F810BD002C014010B50121880700F0B0
:102240006FF8012807D10121800700F048F8FEF758
:10225000FBFDFFF72DF810BD10B501210C4800F073
:102260005FF8012812D10121094800F038F8FEF783
:102270000FFF6420FEF71AFFFEF732FCFEF7C6FCE4
:102280004FF49670FEF724FFFFF7E6F910BD00004B
:102290000004004010B50121074800F041F8012872
:1022A00008D10121044800F01AF804480068401CD5
:1022B0000249086010BD0000000800402000002016
:1022C00021B1028842F08002028004E002884FF6C9
:1022D0007F731A4002807047CA4302827047CA4324
:1022E0000282704721B1028842F00102028004E0BC
:1022F00002884FF6FE731A400280704731B1B0F881
:10230000442042F40042A0F8442005E0B0F8442004
:10231000C2F30E02A0F8442070470146888C704733
:1023200030B50246002000230024158A05EA010387
:10233000958905EA010413B10CB1012000E00020E9
:1023400030BD1AB183890B43838102E083898B43BB
:102350008381704701894FF6F872114001817047FF
:1023600070B5002400220023058C4FF6FE76354020
:102370000584028C8388048B4FF68F752C40B51E24
:102380002C400D882C43751E2A400D892A434D8808
:102390002A43144DA8420BD0134DA84208D0134D28
:1023A000A84205D0124DA84202D0124DA84213D126
:1023B0004FF6F7752A404D892A434FF6FB752A40A0
:1023C0008D882A434FF6FF652B404FF6FF552B4073
:1023D0008D892B43CD892B4383800483CD888586CB
:1023E000028470BD002C01400034014000400140D7
:1023F00000440140004801400A460021018B4FF68D
:10240000F7731940114301837047000070B5002431
:1024100000220023058C4FF6EF7635400584028CB0
:102420008388048B48F6FF752C404FF6FF452C40FF
:102430000D884FF6FF7606EA05252C434FF6DF752B
:102440002A400D8906EA05152A434D8806EA051536
:102450002A43154DA84202D0144DA8421DD14FF673
:102460007F752A404D894FF6FF7606EA05152A4307
:102470004FF6BF752A408D8806EA05152A434FF6A8
:10248000FF352B404FF2FF752B408D8906EA8505FD
:102490002B43CD8906EA85052B4383800483CD88B1
:1024A0000587028470BD0000002C0140003401400B
:1024B0000A460021018B4FF2FF7319404FF6FF735C
:1024C00003EA0223194301837047000070B500221C
:1024D00000230024058C4EF6FF7635400584038CDE
:1024E0008488828B48F6FF752A404FF6FF452A40C4
:1024F0000D884FF6FF7606EA05252A434DF6FF754F
:102500002B400D8906EA05352B434D8806EA053533
:102510002B430B4DA84202D00A4DA84208D14BF6DE
:10252000FF752C408D894FF6FF7606EA85152C4302
:1025300084808283CD88A0F84050038470BD000061
:10254000002C0140003401400A460021818B4FF2EB
:10255000FF7319404FF6FF7303EA02231943818387
:1025600070470021018041808180C18001814181CB
:102570008181C18170470000002202881D4B984272
:102580000ED01D4B98420BD0B0F1804F08D01B4BA2
:10259000984205D01A4B984202D01A4B984204D167
:1025A0004FF68F731A404B881A43174B984207D047
:1025B000164B984204D04FF6FF431A40CB881A437B
:1025C00002808B8883850B8803850A4B98420BD049
:1025D000094B984208D00E4B984205D00D4B9842BB
:1025E00002D00D4B984201D10B7A038601238382DE
:1025F00070470000002C01400034014000040040FE
:1026000000080040000C0040001000400014004092
:102610000040014000440140004801404FF6FF7176
:10262000818000210180C1804180017270470000DB
:1026300008B540F224411A4800F0EEF878B3184883
:10264000008800901648001D008800900021154861
:10265000FDF7FAFE1348FDF7A9FFC0F50070124917
:10266000C1F800020020D1F800120F4A5054104661
:10267000D0F80002401C1146C1F80002012081F888
:10268000040241020748FDF7D2FF01210548FDF78A
:10269000DBFE40F22441024800F04CF800BF08BDC8
:1026A000004400406C0002409403002038B540F222
:1026B00024411C4800F0B0F8012832D119480088A4
:1026C00000901848001D0088009000211648FDF772
:1026D000BBFE1548FDF76AFFC0F5007084B2601CB0
:1026E00084B2601EB0F5007F02DA00220F490A545E
:1026F00001200E49491E087041020B48FDF797FF63
:102700000B490948FDF775FF01210748FDF79CFEBD
:102710000120FFF7D3FC40F22441024800F00AF800
:1027200000BF38BD0048004030000240C10000201A
:102730000003002010B50022002340F66A14A142D5
:1027400000D100BF0A1201249440A3B2DC430480EC
:1027500010BD21B1828942F40052828104E0828955
:102760004DF6FF731A40828170471AB1838A0B437A
:10277000838202E0838A8B438382704710B50446CC
:102780002048844209D101218803FFF7B3F90021D1
:102790004FF48040FFF7AEF932E01B48844209D184
:1027A00001214804FFF786F900214FF40030FFF7BC
:1027B00081F925E01548844209D101218804FFF7F9
:1027C00079F900214FF48020FFF774F918E01048E0
:1027D000844209D10121C804FFF76CF900214FF4AC
:1027E0000020FFF767F90BE00A48844208D1012175
:1027F0000805FFF75FF900214FF48010FFF75AF941
:1028000010BD000000380140004400400048004076
:10281000004C00400050004070B5024600240023E8
:102820000025002040F66A16B14200D100BFC1F376
:10283000421501F01F03012606FA03F3012D02D110
:102840009689334006E0022D02D1168A334001E01A
:10285000968A33400C12012606FA04F41688344096
:1028600013B10CB1012000E0002070BDF0B50346AB
:10287000002400260025002040F66A17B94200D146
:1028800000BF1846C1F3421401F01F06012707FAE2
:1028900006F5012C01D10C3004E0022C01D11030DE
:1028A00000E014301AB107682F43076002E00768A0
:1028B000AF430760F0BD00002DE9F04786B0054644
:1028C0000E460024A24600BFA1460027B08900B1F1
:1028D00000BF2F462C8A4CF6FF700440F08804435A
:1028E0002C82AC894EF6F3100440B088318908433D
:1028F000718908430443AC81AC8A4FF6FF40044021
:10290000B0890443AC8201A8FFF704F91F4887424D
:1029100002D1DDF810A001E0DDF80CA0A88900F4D8
:10292000004040B10AEBCA0000EB0A1031684900D0
:10293000B0FBF1F807E00AEBCA0000EB0A103168BF
:102940008900B0FBF1F86420B8FBF0F00401200925
:10295000642101FB1089A88900F4004040B13220B5
:1029600000EBC900B0FBF1F000F00700044308E001
:10297000322000EB09106421B0FBF1F000F00F00F1
:1029800004432C8106B0BDE8F08700000038014008
:102990004FF41651016000218180C18001810C211A
:1029A000418100218181704700BFFEE710B51348C7
:1029B000FDF7A2FF00201149C87001200880032004
:1029C00088700F48FDF702FF0523012200210D4802
:1029D000FDF788FC0948FDF78FFF00200749C87004
:1029E00002200880032088700548FDF7EFFE0523CC
:1029F000022201210348FDF775FC10BDAE00002046
:102A0000000801400024014010B50A48FDF774FF9A
:102A100000200849C87001200880032088700648FB
:102A2000FDF7D4FE0523032208210448FDF75AFCD4
:102A300010BD0000B2000020000C01400024014045
:102A40001CB54FF47A70FDF702FE01214804FFF730
:102A500021F801218804FFF71DF80121C802FFF7C2
:102A600039F801210846FFF715F801210220FFF788
:102A700011F801210420FFF70DF801210420FFF7D0
:102A800029F801210820FFF725F801211020FFF780
:102A900021F801210846FFF71DF801214802FFF740
:102AA00019F801210846FEF7E5FF4FF4A060FEF794
:102AB00045FEFEF7E3FEFEF74BFE03210846FEF758
:102AC0006BFA01210846FEF7A5FA01210846FEF738
:102AD00011FB2C48FEF748FB4FF08040FEF744FB0B
:102AE0002948FEF741FBFEF79DFB01210846FEF752
:102AF00053F84FF4FA70FEF7E7F924480088FEF720
:102B00005BFB2348006800F055F884B22046FEF7CE
:102B100011FAFFF74BFFFFF777FFFDF7FDFE0420EB
:102B2000FDF718FFFDF77AFFFEF726FBFFF75DF8CC
:102B30000C2118A0FFF762F90120009000231A462B
:102B4000010301904FF4E130FFF782F90C2115A049
:102B5000FFF77EFA14E04FF4FA60FDF778FD0C21E0
:102B60000CA0FFF74BF90C210EA0FFF771FA082318
:102B7000012211461046FEF72DFF0120FDF767FDEB
:102B8000E9E70000002C014000040040AC000020F8
:102B9000A800002053657269616C325F4F6E0D0AA8
:102BA0000000000053657269616C335F4F6E0D0A5F
:102BB00000000000C10DD1F19E0206DB4FEA0023A8
:102BC00043F0004323FA02F07047004207D54FEA72
:102BD0004001B1F1FE4F02D24FF00000704710B536
:102BE00000F007F849922480002070476FEA200027
:102BF00070470EF1020E2EF0030E5EF8044B2442D5
:102C000004D44FEA4102B2F17F4F11D84FEA40039A
:102C1000B3F17F4F0CD80ED14FEAD07CB2F17F4F89
:102C20000CEB4C0C0CF1020C08BF4CEBD17C04E01B
:102C30004FF0080C01E04FEAD17C0CEB4C0324FA76
:102C400003F404F00704B4F1040C06D20EEB840C78
:102C5000BDE810404CF0010C6047DFE80CF00708BD
:102C600002024FF00040A0F5800010BD084642006F
:102C700018BFD2F1807288BF00F0004010BD000084
:102C80000000000000000000000000000000000044
:102C900000F80000000000000033300000000010C9
:102CA0000C06100C0600000000000000000040C0F0
:102CB0007840C0784000043F04043F0404000070E2
:102CC00088FC08300000001820FF211E0000F008DA
:102CD000F000E018000000211C031E211E0000F07F
:102CE0000888700000001E212324192721101016C7
:102CF0000E000000000000000000000000000000C6
:102D000000E0180402000000000718204000000244
:102D10000418E000000000402018070000004040B8
:102D200080F0804040000202010F0102020000001A
:102D300000F0000000000101011F0101010000007E
:102D400000000000000080B07000000000000000E3
:102D5000000000000000000101010101010100006C
:102D60000000000000000030300000000000000003
:102D7000000080601804006018060100000000E0F8
:102D800010080810E000000F102020100F000010A5
:102D900010F8000000000020203F202000000070FC
:102DA00008080888700000302824222130000030F4
:102DB0000888884830000018202020110E000000EC
:102DC000C02010F8000000070424243F240000F86D
:102DD0000888880808000019212020110E0000E052
:102DE000108888180000000F112020110E000038F4
:102DF0000808C83808000000003F0000000000700C
:102E0000880808887000001C222121221C0000E094
:102E100010080810E0000000312222110F0000000D
:102E200000C0C000000000000030300000000000C2
:102E30000080000000000000806000000000000032
:102E400080402010080000010204081020004040CB
:102E5000404040404000040404040404040000080E
:102E600010204080000000201008040201000070C3
:102E700048080808F0000000003036010000C030AB
:102E8000C828E810E0000718272423140B000000CE
:102E9000C038E0000000203C23020227382008F858
:102EA000888888700000203F202020110E00C0304C
:102EB000080808083800071820202010080008F823
:102EC00008080810E000203F202020100F0008F81C
:102ED0008888E8081000203F20202320180008F8E8
:102EE0008888E8081000203F200003000000C03060
:102EF00008080838000007182020221E020008F8E1
:102F000008000008F808203F210101213F200008A7
:102F100008F8080800000020203F202000000000E2
:102F20000808F8080800C08080807F00000008F8CA
:102F300088C028180800203F20012638200008F803
:102F4000080000000000203F20202020300008F86A
:102F5000F800F8F80800203F003F003F200008F884
:102F600030C00008F808203F200007183F00E0109C
:102F700008080810E0000F10202020100F0008F8AB
:102F800008080808F000203F210101010000E010BE
:102F900008080810E0000F18242438504F0008F8E3
:102FA000888888887000203F2000030C3020007043
:102FB0008808080838000038202121221C00180841
:102FC00008F8080818000000203F2000000008F85A
:102FD00008000008F808001F202020201F000878A3
:102FE000880000C83808000007380E010000F80803
:102FF00000F80008F800033C0700073C030008182D
:1030000068808068180820302C03032C3020083892
:10301000C800C83808000000203F20000000100849
:103020000808C83808002038262120201800000091
:1030300000FE020202000000007F40404000000C41
:1030400030C000000000000000010638C00000028F
:103050000202FE000000004040407F00000000002F
:103060000402020204000000000000000000000052
:10307000000000000000808080808080808000024E
:10308000020400000000000000000000000000003A
:103090008080808000000019242222223F2008F82E
:1030A000008080000000003F112020110E00000071
:1030B000008080800000000E112020201100000000
:1030C00000808088F800000E112020103F200000B2
:1030D000808080800000001F2222222213000080B6
:1030E00080F0888888180020203F20200000000001
:1030F000808080808000006B94949493600008F836
:10310000008080800000203F210000203F200080C0
:103110009898000000000020203F202000000000C0
:1031200000809898000000C08080807F000008F830
:10313000000080808000203F24022D302000000805
:1031400008F8000000000020203F202000008080C0
:10315000808080808000203F20003F20003F8080D2
:10316000008080800000203F210000203F200000E0
:10317000808080800000001F202020201F00808091
:1031800000808000000080FFA12020110E000000C0
:10319000008080808000000E112020A0FF808080B1
:1031A00080008080800020203F212000010000005E
:1031B0008080808080000033242424241900008033
:1031C00080E0808000000000001F20200000808040
:1031D000000000808000001F202020103F20808001
:1031E00080000080808000010E3008060100808091
:1031F0000080008080800F300C030C300F000080B6
:103200008000808080000020312E0E3120008080E0
:1032100080000080808080818E7018060100008010
:103220008080808080000021302C2221300000002E
:103230000000807C020200000000003F40400000CF
:103240000000FF00000000000000FF00000000027E
:10325000027C800000000040403F000000000006AB
:103260000101020204040000000000000000060347
:103270000000010100000101000001000000010048
:10328000040300000101000001010001010101012E
:103290000001020202020202020202020202020211
:1032A0000202050000000000000000000000000015
:1032B000000000000000000000000000000000000E
:1032C00000000000000000000000000000000000FE
:1032D00000000000000000000000000000000000EE
:1032E00000000000000000000000000001020300D8
:1032F0000100010200010203183300080000002051
:10330000C000000028010008D8330008C0000020D9
:10331000E00B00004401000800000000010203046B
:103320000102030406070809020406080000000061
:10333000000000000000000000000000000000008D
:10334000000000000000000000000000000000007D
:10335000000000000000000000000000000000006D
:10336000000000000100000000000000000000005C
:10337000000000000000000000000000000000004D
:10338000000000000000000000000000000000003D
:10339000000000000000000000000000000000002D
:1033A00000000000000000000000000000004600D7
:1033B000000000000000000000000000000000000D
:1033C00000007A440000000000000000000000003F
:0833D0000000000000000000F5
:04000005080000ED02
:00000001FF
