:020000040800F2
:1000000078170020D90100083122000813100008D9
:1000100017100008F10A0008A736000800000000C9
:100020000000000000000000000000003927000868
:10003000390D000800000000E9250008712C0008B7
:10004000F3010008F3010008F3010008F3010008C0
:10005000F3010008F3010008F3010008F3010008B0
:10006000F3010008F30100089B0D0008F3010008EC
:10007000F50A0008F3010008F3010008F301000885
:10008000F3010008F3010008F3010008F301000880
:10009000F3010008F3010008F3010008F301000870
:1000A000F3010008D52C0008F3010008F301000853
:1000B000F12C0008152D0008512D0008F30100084F
:1000C000F3010008F3010008F3010008F301000840
:1000D000F3010008F301000891310008C93100085C
:1000E000810D0008F3010008F301000800F002F898
:1000F00000F063F80AA090E8000C82448344AAF15F
:100100000107DA4501D100F058F8AFF2090EBAE85C
:100110000F0013F0010F18BFFB1A43F0010318473B
:1001200090410000B04100000A444FF0000C10F86C
:10013000013B13F0070408BF10F8014B1D1108BF65
:1001400010F8015B641E05D010F8016B641E01F805
:10015000016BF9D113F0080F1EBF10F8014BAD1C55
:100160000C1B09D16D1E58BF01F801CBFAD505E073
:1001700014F8016B01F8016B6D1EF9D59142D6D3CD
:10018000704700000023002400250026103A28BFF5
:1001900078C1FBD8520728BF30C148BF0B607047F9
:1001A0001FB500F0F7F904000020002103F060FB08
:1001B000401C60601FBD10B510BD00F0C6F91146AF
:1001C000FFF7EEFF03F072FA00F0F6F903B4FFF761
:1001D000F2FF03BC00F03AFA09488047094800479B
:1001E000FEE7FEE7FEE7FEE7FEE7FEE7FEE7FEE7E7
:1001F000FEE7FEE704480549054A064B7047000044
:10020000752C0008ED0000087811002078170020F8
:10021000781300207813002070B5064600F0CCF863
:100220000468054630460A22002100F0C9F82C6017
:1002300070BD30B505460B462A4613F8014B12F83F
:10024000010B08B1A042F8D01CB1002802D06D1CEF
:10025000F1E7284630BD10B5431C02E010F8011B41
:1002600071B18107FAD14FF0013202C88C1A8C4368
:1002700014EAC211F9D0C01A0A0603D0C01E10BD7C
:10028000C01A10BD0A0401D0801E10BD0902FCD0A6
:10029000401E10BD032A40F2308010F0030C00F025
:1002A000158011F8013BBCF1020F624498BF11F8B0
:1002B00001CB00F8013B38BF11F8013BA2F1040269
:1002C00098BF00F801CB38BF00F8013B11F00303E1
:1002D00000F0AE80083AC0F0088051F8043B083ABC
:1002E00051F804CBA0E80810F5E7121D5CBF51F8E7
:1002F000043B40F8043BAFF30080D20724BF11F861
:10030000013B11F801CB48BF11F8012B24BF00F8C5
:10031000013B00F801CB48BF00F8012B70474FF0BC
:1003200000020429C0F0128010F0030C00F01B80C2
:10033000CCF1040CBCF1020F18BF00F8012BA8BFD0
:1003400020F8022BA1EB0C0100F00DB85FEAC17C94
:1003500024BF00F8012B00F8012B48BF00F8012B47
:1003600070474FF0000200B5134694469646203978
:1003700022BFA0E80C50A0E80C50B1F12001BFF45E
:10038000F7AF090728BFA0E80C5048BF0CC05DF8C4
:1003900004EB890028BF40F8042B08BF704748BF12
:1003A00020F8022B11F0804F18BF00F8012B704786
:1003B00070477047704700000048704714110020D4
:1003C0002DE9F04791460F4680460446002614F872
:1003D000015B2DB100F062F80068405DC007F6D106
:1003E0002B2D02D02D2D18D0641E4A4639462046AA
:1003F00000F05CF827B13968A14201D1C7F800804C
:100400004FF0020471050BD54042002803DDFFF7D1
:10041000D3FF0460A007BDE8F08746F48066E4E7F8
:100420000028F8DAFFF7C8FF04606FF00040F2E739
:1004300010B5203AC0F00B80B1E81850203AA0E87F
:100440001850B1E81850A0E81850BFF4F5AF5FEAB3
:10045000027C24BFB1E81850A0E8185044BF18C966
:1004600018C0BDE810405FEA827C24BF51F8043B0D
:1004700040F8043B08BF7047D20728BF31F8023B61
:1004800048BF11F8012B28BF20F8023B48BF00F8F5
:10049000012B7047004870471411002010B500F080
:1004A00079F8001D10BD00BFC93300002DE9F05FD1
:1004B000824615468B4600270AF10104B9460078AA
:1004C000302801D09DB113E014F8010B01277828E2
:1004D00003D0582801D045B10AE00DB1102D07D145
:1004E000002714F8010B102502E0082500E00A257A
:1004F0000026B0460EE005FB080005FB06F10127CB
:100500001FFA80F801EB1046B6F5803F00D3B946DC
:1005100014F8010B294600F041F80028EBDABBF192
:10052000000F05D00FB1641E00E05446CBF8004028
:10053000B9F1000F06D0FFF73FFF02210160C81E8E
:10054000BDE8F09F48EA0640FAE77546FFF7A2FFCC
:10055000AE4605006946534620F00700854618B0B0
:1005600020B5FFF747FEBDE820404FF000064FF0F2
:1005700000074FF000084FF0000B21F00701AC46D8
:10058000ACE8C009ACE8C009ACE8C009ACE8C009F7
:100590008D46704700487047341100203A2800D239
:1005A000303820F02002412A01D3A2F137008842DE
:1005B00001D34FF0FF30704710B50446AFF3008011
:1005C0002046BDE81040FFF701BE00004FF0013C9F
:1005D00050F8042B51F8043B9A4221D1A2EB0C03B2
:1005E000934313EACC1317D150F8042B51F8043B72
:1005F0009A4215D1A2EB0C03934313EACC130BD10F
:1006000050F8042B51F8043B9A4209D1A2EB0C0399
:10061000934313EACC13DBD04FF00000704700BFC8
:10062000D01A01BAB1FA81F101F0180122FA01F0F1
:10063000CB40C1F12001DBB2C0B2C01A2CFA01F3E9
:10064000D11A914311EAC311E6D17047014918202C
:10065000ABBEFEE726000200704721B1826842F07F
:100660000102826003E0826822F00102826070472A
:1006700021B1826842F48072826003E0826822F4D1
:10068000807282607047014600208A6802F004028E
:100690000AB1012000E000207047014600208A686E
:1006A00002F008020AB1012000E0002070470000BB
:1006B00030B502460020002350680F4C20400D79D1
:1006C0000C6844EA05242043506090680B4C20409D
:1006D000D1E902542C434D7944EA4504204390600B
:1006E000D06A20F470000C7C641EE4B2234340EA1C
:1006F0000350D06230BD0000FFFEF0FFFDF7F1FFB8
:10070000F0B504460D4600200021092D11DDE068FA
:10071000A5F10A0606EB4607072606FA07F1884305
:10072000A5F10A0606EB460603FA06F10843E06067
:100730000CE0206905EB4507072606FA07F1884318
:1007400005EB450603FA06F108432061072A0FDA94
:10075000606B561E06EB86071F2606FA07F18843D4
:10076000561E06EB860605FA06F10843606322E092
:100770000D2A0FDA206BD61F06EB86071F2606FA16
:1007800007F18843D61F06EB860605FA06F10843F3
:10079000206310E0E06AA2F10D0606EB86071F2633
:1007A00006FA07F18843A2F10D0606EB860605FA64
:1007B00006F10843E062F0BD816841F00801816004
:1007C000704721B1826842F4A002826003E082682F
:1007D00022F4A00282607047816841F004018160C8
:1007E000704700210160017141718160C160012188
:1007F0000174704710B57F2222A1264800F0FAFE4E
:100800007F2225A1234800F0F5FE7F2223492148BD
:1008100000F0F0FE7F2222A11E4800F0EBFE7F22B6
:1008200022A1294800F0E6FE7F2228A1264800F0F8
:10083000E1FE7F2226A1354800F0DCFE7F2234A1B4
:10084000324800F0D7FE7F220EA1344800F0D2FEDD
:100850007F2233A1314800F0CDFEFF2209A13248AA
:1008600000F0C8FEFF2231492F4800F0C3FEFF22EE
:1008700004A12F4800F0BEFEFF222EA12C4800F05C
:10088000B9FE10BD4151415132353033323930312A
:1008900000000000AF000020222C220018420008B7
:1008A000222C302C302C22220D0A000041514151C3
:1008B00032353033323930315F305F305F32303291
:1008C00035303332393037002E010020220D0A0036
:1008D000616430636535633731662E7374312E6918
:1008E0006F7464612D6465766963652E636E2D6E29
:1008F0006F7274682D342E6D7968756177656963E0
:100900006C6F75642E636F6D00000000AD010020F8
:10091000222C313838332C310D0A00002C020020F3
:10092000222C300D0A000000AB0200205C420008BF
:10093000AA0300202F7379732F636F6D6D616E644E
:10094000732F726573706F6E73652F726571756545
:1009500073745F69643D00002DE9FF4F83B09246D8
:100960001D464B212846FFF7DAFC4AA10398FFF702
:1009700060FC06461EB9002007B0BDE8F08F761D6A
:1009800046A13046FFF755FC07460FB90020F3E7B4
:10099000BF1EB81B401C029031462846029AFFF742
:1009A00079FC0021029829548B46894614E05AF8B4
:1009B00039100398FFF73DFC04464CB10AEBC9001F
:1009C000807985F840000AEBC900B0F804B007E070
:1009D00009F1010000F0FF09314800788145E6DBAC
:1009E00000BF2CB905212FA001F09EFF0020C3E716
:1009F00004EB0B00801C019004EB0B01881CFFF73B
:100A00002AFC1FFA80F904EB0B01881C494601F00F
:100A10008BFF26A12046FFF70CFC8046B8F1000FA3
:100A200001D10020A8E7A8F101080198A8EB000077
:100A3000401C80B2009005F14100DDE90021FFF784
:100A400029FC002205F1410100980A541848FFF7DB
:100A500002FC1FFA80F94946154801F065FF0221A2
:100A600014A001F061FF124A0121084601F088FD3F
:100A70000F48FFF7D1FB814608234A460121022097
:100A800001F05CFD082301210320009A01F056FDCE
:100A9000002071E7745F69643D0000002C000000D5
:100AA000AE0400207473740D0A0000007D2C000059
:100AB000581000200D0A00002DE9F0410746884635
:100AC000154600240BE005EBC40638463168FFF7F5
:100AD000B0FB10B1B079BDE8F081601CC4B203482E
:100AE00000788442EFDB0020F5E70000AD04002031
:100AF00000BFFEE710B5202000F0D2F840B1002082
:100B000001F05CFF012003490870202000F004F888
:100B100010BD00003300002000F0805111B10349E6
:100B2000086001E002494860704700000404024088
:100B30000000024021B1026842F00102026004E0BC
:100B400002684FF6FE731A400260704701684FF664
:100B5000FE72114001600021016041608160C1604E
:100B60004B49884208D14A490839496841F00F0188
:100B7000474A083A51608AE045491431884208D111
:100B800043490839496841F0F001414A083A516047
:100B90007DE03F492831884208D13D4908394968FC
:100BA00041F470613A4A083A516070E038493C318A
:100BB000884208D136490839496841F47041344ABD
:100BC000083A516063E032495031884208D13049D7
:100BD0000839496841F470212D4A083A516056E0BD
:100BE0002B496431884208D129490839496841F4C0
:100BF0007001274A083A516049E025497831884216
:100C000008D123490839496841F07061204A083AFF
:100C100051603CE01F49884206D1011F096841F03C
:100C20000F01021F116032E01A491431884208D1C5
:100C30001849091F096841F0F001164A121F116096
:100C400025E014492831884208D11249091F096852
:100C500041F470610F4A121F116018E00D493C31D8
:100C6000884208D10B49091F096841F47041094ABB
:100C7000121F11600BE007495031884207D1054926
:100C8000091F096841F47021024A121F1160704760
:100C900008000240080402400146486880B27047DC
:100CA00001460020002201F0805313B1054B1A6861
:100CB00001E0054B1A6802EA01030BB1012000E0D4
:100CC0000020704700040240000002401AB103688F
:100CD0000B43036002E003688B430360704710B569
:100CE0000022026847F6F0739A430C6A8B6823432C
:100CF0000C6923434C6923438C692343CC69234308
:100D00004C6A23438C6A23431A430260CB684360D6
:100D10000B6883604B68C36010BD41607047002161
:100D2000016041608160C160016141618161C161B7
:100D30000162416281627047704700B5034603E07B
:100D40004FF47A7000F005F8181EA3F10103F7D1F3
:100D500000BD00EBC001C9004FF0E022516100214D
:100D600091610521116100BF4FF0E021096901F493
:100D700080310029F8D004214FF0E0221161704742
:100D800010B54FF4004000F01BF8012804D1C00357
:100D900000F010F800F016FF10BD10B5102000F0A4
:100DA0000FF8012804D1102000F004F800F0B4FA84
:100DB00010BD0000014908607047000014040140A4
:100DC000014600200022074B1B6803EA0102054B85
:100DD00014331B680B4013B10AB1012000E000205E
:100DE0007047000000040140002123498279002A55
:100DF0003AD00A46126803689A430B461A600A1DE5
:100E0000126803689A430B1D1A60027911440A683C
:100E100003681A430A60184A0832126803689A4342
:100E2000154B08331A601A1D126803689A43124B57
:100E30000C331A604279102A0ED11A1F1268036807
:100E40001A430D4B08331A601A1D126803681A43BF
:100E5000094B0C331A600DE00749427911440A68C6
:100E600003681A430A6005E0027911440A680368BE
:100E70009A430A60704700000004014000210160AD
:100E800001710C21417100218171704730B5002240
:100E90008B071C0F0F2303FA04F20B4B8C1053F833
:100EA00024309343084C8D1044F8253023468C1091
:100EB00053F824308C07240F00FA04F42343024C27
:100EC0008D1044F8253030BD080001402DE9F04177
:100ED000024600250026002000230024002791F868
:100EE00003C00CF00F0591F803C00CF0100CBCF11E
:100EF000000F03D091F802C04CEA050591F800C03C
:100F0000BCF1000F31D0146800202BE04FF0010C31
:100F10000CFA00F3B1F800C00CEA03069E4220D19F
:100F200083004FF00F0C0CFA03F7BC4305FA03FCE7
:100F30004CEA040491F803C0BCF1280F06D14FF02D
:100F4000010C0CFA00FCC2F814C00AE091F803C0CE
:100F5000BCF1480F05D14FF0010C0CFA00FCC2F8AF
:100F600010C0401C0828D1D31460B1F800C0BCF1F7
:100F7000FF0F34DD546800202EE000F1080C4FF024
:100F8000010808FA0CF3B1F800C00CEA03069E420F
:100F900021D183004FF00F0C0CFA03F7BC4305FA84
:100FA00003FC4CEA040491F803C0BCF1280F05D1FE
:100FB00000F1080C08FA0CF8C2F8148091F803C08C
:100FC000BCF1480F07D100F1080C4FF0010808FAF6
:100FD0000CF8C2F81080401C0828CED35460BDE83D
:100FE000F0810246002093680B400BB1012000E025
:100FF00000207047016170474FF6FF7101800221A8
:1010000081700421C17070470AB1016100E0416143
:10101000704700BFFEE700BFFEE7000010B590B0CC
:1010200004464FF4004001F0E1FA0BA8FFF7D9FBAA
:1010300001208DF8310000200E904FF460200D90BB
:1010400000200B908DF83C4001208DF830000BA95A
:101050002148FFF72DFB01211F48FFF709FB6846D8
:10106000FFF75DFE1C484C30009080150690002074
:1010700004901A4801904FF48060079080200590FA
:101080000020029003940A9020200890C00109904B
:1010900069461348FFF723FE01210F48FFF7DDFAE9
:1010A00001210F48FFF746FD0B48FFF785FB00BF06
:1010B0000948FFF7F2FA0128FAD00748FFF78CFB3E
:1010C00000BF0548FFF7DFFA0128FAD001210248E6
:1010D000FFF777FB10B010BD00240140340500205D
:1010E0000800024008B56846FFF786FF10208DF81B
:1010F00003004002ADF8000003208DF802006946AD
:101100000248FFF7E3FE00F003F808BD000C0140C1
:1011100010B54FF400510248FFF76CFF10BD0000FE
:10112000000C014010B506480078012802D100F0FB
:10113000EFF804E00248007808B900F0E5F810BDC7
:10114000FC04002010B50C48006840B90B4801F0C1
:101150003AFE0B490968401A0A4908600AE0074844
:1011600001F031FE42F21071084405490968401A45
:101170000449086010BD0000E404002000040040A1
:10118000F8040020F404002010B5044801F01BFE10
:101190000349086000200349086010BD00040040B6
:1011A000F8040020E404002004480078012804D159
:1011B00003480068401C024908607047E0040020B2
:1011C000E40400207CB5002000900190002400265B
:1011D000002500BF15E000210FE01D4A165D1DF837
:1011E0000020C1F1070306FA03F31A43D2B20DF847
:1011F0000020621CD4B24A1CD1B20729EDDD411C8B
:10120000C8B20428E7DD002005E01DF800102944DD
:10121000CDB2411CC8B20328F7DD9DF80400A842F6
:1012200012D1002005E01DF800100A4A1154411C9B
:10123000C8B20328F7DD07488078074908700548D9
:1012400000780649087001E000F05EF87CBD0000FF
:10125000AA100020F0040020FE040020FF0400205B
:1012600038B504460D4614201749C8701020088070
:10127000032088701548FFF729FE04210020FFF79E
:1012800005FE012210211148FFF7BEFE1020104973
:101290000860002008710820487100208871084605
:1012A000FFF7A2FD0A208DF8000000208DF8010054
:1012B0008DF8020001208DF80300684600F0BAFFA7
:1012C00000F0F8F838BD0000D40400200008014008
:1012D000D804002010B50A48007801280FD1094829
:1012E0000078401C0749087008460078042806DB8F
:1012F000FFF718FF0020034908700149087010BD6E
:10130000E80400200005002010B500F099F810BD99
:1013100010B500F095F810BD10B53E4800780628CD
:1013200074D2DFE800F00304730D205F6FE001204A
:1013300039490870FFF728FF03203649087066E036
:10134000FFF700FF35480068642809D33348006878
:10135000B42805D804202F490870FFF715FF01E0D5
:10136000FFF7D2FF53E0FFF7EDFE2C4800683C2862
:1013700018D32A4800685A2814D8FFF705FF00211F
:10138000274802780078401C254B18702548815466
:1013900018460078282824DB05201E49087000F034
:1013A0006BF81EE01D4800686E2818D31B480068C3
:1013B000822814D8FFF7E8FE012219480178007846
:1013C000401C174B187017484254184600782828BC
:1013D00007DB05200F49087000F04EF801E0FFF729
:1013E00093FF14E0FFF7AEFE0C48006828280AD3EC
:1013F0000A4800683C2806D801200B490870FFF70E
:10140000E1FE02E002E0FFF77FFF00E000BF00BF67
:1014100010BD0000F3040020E0040020F4040020CC
:10142000FD040020AA100020FC04002010B50020BC
:101430000249087000F016F810BD0000FD040020FD
:1014400010B500F023F80020034908700349087024
:101450000349087010BD0000F3040020E0040020E0
:10146000FC04002010B50C20024948710846FFF723
:10147000BBFC10BDD804002010B5082002494871FB
:101480000846FFF7B1FC10BDD804002010B5482075
:101490000549C8700548FFF719FD01200449887106
:1014A0000846FFF7A1FC10BDD4040020000801404D
:1014B000D804002010B50020054988710846FFF7C0
:1014C00093FC10200349C8700348FFF7FFFC10BDD0
:1014D000D8040020D40400200008014010B50120E9
:1014E00007490870002007490870FFF7E3FF002054
:1014F00005490870FFF79AFF01200449087010BDE4
:10150000E9040020EA040020F3040020E80400209D
:1015100010B51A48007801282ED119480068401CDF
:10152000174908601748007810B1012823D10DE051
:10153000FFF7C0FF002210211348FFF765FD0120CF
:101540001049087000200E49086014E00C4800683B
:1015500000EB800044F6206188420BD3FFF796FF32
:1015600001200A490870FFF77DFF00200549087037
:101570000249087000BF00BF10BD0000E904002050
:10158000EC040020EA04002000080140F3040020DD
:1015900038B5044618208DF803004FF48060ADF88C
:1015A000000003208DF8020069460F48FFF78EFC0B
:1015B0000E4801F086FD00200C49888160200880DB
:1015C0000020C8814881888001204880601EC88032
:1015D000074801F0D1FC0121054801F0E5FB082195
:1015E000034801F019FD38BD00080140F210002049
:1015F000002C01402DE9F04105460C4616462846D0
:10160000FEF729FE87B22046FEF725FE1FFA80F876
:10161000F01B404503DA4FF0FF30BDE8F0810020B9
:1016200004E0215C3A18A954411CC8B2215C00298D
:10163000F7D10120F1E72DE9F04104460D460026DF
:10164000002003E035F810100E44401CA042F9DBE6
:10165000204602F005FA0746304602F001FA8046BD
:10166000394602F01BF9BDE8F08110B50B460021A8
:1016700005E04C1C30F8144020F81140491C541E61
:101680008C42F6DC511E20F8113010BD38B50446EE
:101690006846FFF7B1FC18208DF803004FF4807006
:1016A000ADF8000003208DF8020069460F48FFF7EF
:1016B0000DFC0F4801F005FD00200D4988816020D8
:1016C00008800020C8814881888001204880601EF1
:1016D000C880084801F09AFB0121064801F064FB2C
:1016E0000821044801F0DEFB38BD0000000801407D
:1016F000D2100020002C014008B56846FFF77CFCA2
:1017000000208DF803000220ADF8000003208DF8C2
:10171000020069460448FFF7D9FB0523042209218A
:101720000248FEF7EDFF08BD000C01400024014017
:1017300038B5044618208DF803004FF40060ADF86A
:10174000000003208DF8020069460F48FFF7BEFB3A
:101750000E4801F0B6FC00200C498881602008800A
:101760000020C8814881888001204880601EC88090
:10177000074801F05BFC0121054801F015FB082139
:10178000034801F091FC38BD00080140021100201F
:10179000002C014008B56846FFF72EFC00208DF8AC
:1017A00003000120ADF8000003208DF80200694617
:1017B0000448FFF78BFB0523032208210248FEF7AC
:1017C0009FFF08BD000C0140002401407FB5054685
:1017D0000C461C4801F014FB01A801F0CFFC0020CE
:1017E000ADF80A00ADF806004720ADF8040044F655
:1017F0001F60ADF8080000208DF80C0001A9114809
:1018000001F06AFC01210F4801F0BCFA01221146E7
:101810000C4801F0ECFA01210A4801F0A7FA19205E
:101820008DF8000001208DF803008DF801508DF82F
:101830000240684600F0FEFC0021024801F0A8FAD0
:101840007FBD0000002C01407FB505460C464FF0DF
:10185000804001F0D5FA01A801F090FC0020ADF81D
:101860000A00ADF806004720ADF804000420ADF8EA
:10187000080000208DF80C0001A94FF0804001F015
:101880002BFC0121880701F07DFA01221146900707
:1018900001F0ADFA0121880701F068FA1C208DF8EB
:1018A000000001208DF803008DF801508DF80240F2
:1018B000684600F0BFFC00214FF0804001F068FA5C
:1018C0007FBD000010B507480088401C054908800E
:1018D000084600880A2803DB0020088000F008FA88
:1018E00010BD00002400002010B504460648008802
:1018F000401C0549088008460088A04203DB002000
:101900000880FFF7EBFD10BD2600002010B504464F
:1019100006480088401C0549088008460088A04207
:1019200003DB0020088000F01DFC10BD2800002013
:101930007FB505460C461A4801F062FA01A801F08D
:101940001DFC0020ADF80A00ADF806004720ADF8F8
:10195000040042F20F70ADF8080000208DF80C0072
:1019600001A90F4801F0B8FB01210D4801F00AFA66
:10197000012211460A4801F03AFA1D208DF80000B4
:1019800001208DF803008DF801508DF80240684663
:1019900000F050FC0021024801F0FAF97FBD000080
:1019A000000400407FB505460C461A4801F028FAAD
:1019B00001A801F0E3FB0020ADF80A00ADF8060035
:1019C00040F2CF20ADF804000920ADF80800002057
:1019D0008DF80C0001A90F4801F07EFB01210D4894
:1019E00001F0D0F9012211460A4801F000FA1E2048
:1019F0008DF8000001208DF803008DF801508DF85E
:101A00000240684600F016FC0021024801F0C0F9CF
:101A10007FBD00000008004010B5044601212046AB
:101A200001F0B6F910BD000008B510208DF80300D4
:101A30002020ADF8000003208DF80200694603481D
:101A4000FFF744FA00F004F808BD0000000C014064
:101A500010B5012220210248FFF7D6FA10BD000080
:101A6000000C014008B56846FFF7C6FA10208DF853
:101A700003000002ADF8000003208DF80200694663
:101A80000248FFF723FA00F003F808BD000C0140FC
:101A900010B54FF480510248FFF7ACFA10BD0000BA
:101AA000000C014038B504466846FFF7A5FA182037
:101AB0008DF803004FF40070ADF8000003208DF89E
:101AC000020069460F48FFF701FA0F4801F0F9FAE2
:101AD00000200D498881602008800020C88148814D
:101AE000888001204880601EC880084801F0E4F921
:101AF0000121064801F058F90821044801F02EFAA6
:101B000038BD000000080140E2100020002C014018
:101B100010B50446601E0349C880034801F0CCF9A3
:101B200010BD0000E2100020002C014010B504465A
:101B300003480480C82104FB01F0FFF7E9FF10BD52
:101B40002805002008B56846FFF756FA00208DF8F2
:101B500003000220ADF8000003208DF80200694662
:101B60000448FFF7B3F90523022201210248FEF7DA
:101B7000C7FD08BD000801400024014010B50D4814
:101B80000078032804DA0B480078401C09490870E3
:101B90000948008881B203220848FFF766FD07491B
:101BA00004480078FFF747FD044601F039FF044977
:101BB000088010BD2005002010050020220500200F
:101BC0001405002010B515480078012824D11448C8
:101BD000007858B9134801F0F6F8134908600C2052
:101BE00000F060F801200E49087015E00C480078FC
:101BF000012811D10B4801F0E6F80B490968401A99
:101C00000A490860FFF7BAFF082000F04BF80020EF
:101C1000034908700149087010BD00000E0500203E
:101C200018050020000400401C05002010050020BD
:101C30007CB505460C4601A8FFF7DEF948208DF873
:101C400007004FF40040ADF8040003208DF80600B3
:101C500001A91248FFF73AF90F210120FFF716F901
:101C60000F48FFF70BF94FF400400D4908600120C1
:101C7000887100200871082048710846FFF7B4F801
:101C800028208DF8000001208DF803008DF8015008
:101C90008DF80240684600F0CDFA7CBD000C014092
:101CA0000405002010B5044602484471FFF79CF873
:101CB00010BD00000405002010B50B480078012875
:101CC00011D100F037F809480078401C0749087026
:101CD00008460078022806DB00F014F800200249CC
:101CE00008700249087010BD0C050020170500207F
:101CF0000120024908700249087070470C05002055
:101D00000D05002010B500224FF480510648FFF762
:101D10007BF901200549087000200549087008205A
:101D2000FFF7C0FF10BD0000000801400E050020B5
:101D30000F05002010B506480078012807D10122C0
:101D400001030448FFF760F900200149087010BD45
:101D50000D0500200008014008B56846FFF74CF962
:101D600010208DF803000002ADF8000003208DF86C
:101D7000020069460448FFF7A9F800224FF4805199
:101D80000148FFF741F908BD0008014010B50121E5
:101D9000042000F057FC14200449C870202008805B
:101DA000032088700248FFF791F810BDB4040020AA
:101DB000000801400020144A108000BF09E0134AC7
:101DC000125C8240104B1B881A430F4B1A80421C36
:101DD000D0B21028F3DB0C4800880122B2EBE03FC0
:101DE00005D109480088C043401C074A10800648B6
:101DF00000880011064A10800F210348008808401F
:101E0000044A108070470000CA04002062100020BD
:101E1000CC040020CE04002010B5C048C049097889
:101E2000405C072805D2DFE800F073A6EA05FCFB5A
:101E3000040071E1BB480068401CBA490860BA4818
:101E4000BA490978405C30B1012817D002282AD05D
:101E500003285BD144E001222021B548FFF7D4F8E4
:101E600000222021B248FFF7CFF80020AD490860DA
:101E7000AE480078401CAD49087047E0A9480068AA
:101E800000EB8000B0F5FA7F0CD301222021A84896
:101E9000FFF7BAF80020A3490860A4480078401C66
:101EA000A249087032E09F48006800EB8000A14919
:101EB0000978884213D320219D48FFF792F858B93A
:101EC00001209D49087000209649086097480078D5
:101ED000401C9649087002E000209749087015E000
:101EE0009448007840F23A21081A8E49096801EBBB
:101EF0008101884209D800208A4908608B4908700E
:101F000087480078401C8649087000BF00BF03E185
:101F100084480068401C83490860884888490978DB
:101F2000405C10B1012824D10DE00022202180481E
:101F3000FFF76AF800207B49086081480078401C60
:101F40007F49087015E07748006800EB80003C2866
:101F50000ED3012220217648FFF756F80020714960
:101F60000860774908706E480078401C6C4908701A
:101F700000BF00BFD0E06B480068401C69490860A2
:101F8000704871490978405C20B1012810D00228BE
:101F900033D121E0002220216548FFF735F80020E9
:101FA0006049086068480078401C6749087024E070
:101FB0005C48006800EB80000A280CD30122202135
:101FC0005B48FFF721F80020564908605E4800781A
:101FD000401C5D49087010E05248006800EB80002A
:101FE000322809D300204F490860574908704C48EF
:101FF0000078401C4A49087000BF00BF8CE0494887
:102000000068401C47490860504851490978405CC5
:1020100040B1012814D0022826D003285CD14AE020
:1020200071E05BE0002220214148FEF7EDFF002037
:102030003C49086046480078401C454908704BE020
:102040003848006800EB800005280CD301222021CD
:102050003748FEF7D9FF0020324908603C48007835
:10206000401C3B49087037E02E48006800EB8000B8
:1020700005281FD320212E48FEF7B3FF48B10121C8
:10208000344802780078401C324B18703248815432
:1020900008E000212F4802780078401C2D4B187072
:1020A0002D48815400201F49086029480078401CB1
:1020B0002749087010E01B48006800EB80002D28BD
:1020C00009D3002017490860214908701448007896
:1020D000401C1349087000BF00BF1DE01148006894
:1020E000401C104908600846006800EB80001B494E
:1020F000884207D300200B49086009480078401C3B
:102100000749087008E0FFF755FE012014490870E0
:1021100000200349087000BF00BF10BD8C410008BB
:10212000B8040020BC04002009420008C1040020BB
:1021300000080140C2040020C30400200D42000832
:10214000C40400200F420008C50400201242000809
:10215000C6040020C804002062100020B0710B00EB
:10216000C004002001200C4908700C4908700020B0
:102170000B49088082200B49087000200A4908702A
:102180000A4908700A4908700A4908700A49087023
:102190000A49087070470000B8040020C7040020F6
:1021A000D0040020C2040020C0040020C10400208C
:1021B000C4040020C5040020C6040020C804002078
:1021C00010B50D480078012814D10C480088401C37
:1021D0000A4908800846008840F2712148430849AE
:1021E000B1EB001F06DC00F00DF800200349088069
:1021F0000149087010BD0000C7040020D004002071
:1022000080841E0010B505480078012803D10448D9
:102210000078012801D000F005F810BDC0040020AE
:10222000C30400200020014908707047B804002052
:102230007047000070B5002100230F22C47804B35A
:10224000154C246804F4E064C4F5E064210AC1F18B
:102250000403CA40447804FA03F18478144021430B
:1022600009010E4C0678A155047804F01F050124DD
:10227000AC4005786D11AD0005F1E025C5F80041D1
:1022800009E0047804F01F050124AC40044D0678F1
:10229000761145F8264070BD0CED00E000E400E04A
:1022A00080E100E002490143024A116070470000EA
:1022B0000000FA050CED00E070B500240EE00021EE
:1022C000204600F0F0F8002504E0002000F07CF942
:1022D000681CC5B2802DF8DB601CC4B2082CEEDB94
:1022E00070BD000008B50121102000F0ABF91420EA
:1022F0008DF8030003208DF802004FF48040ADF804
:10230000000069460A48FEF7E1FD4FF40040ADF8D1
:10231000000069460648FEF7D9FD012291030448F2
:10232000FEF772FE0122D1030148FEF76DFE08BDE3
:102330000010014070B50546002415E080202041C2
:1023400000EA05024FF400410E48FEF75DFE01224F
:1023500091030C48FEF758FE00224FF480410948D3
:10236000FEF752FE601CC4B2082CE7DB0122910389
:102370000448FEF749FE00224FF480410148FEF771
:1023800043FE70BD0010014010B50122D1030A4880
:10239000FEF73AFE012291030748FEF735FE0022C0
:1023A0004FF400410448FEF72FFE00224FF4804115
:1023B0000148FEF729FE10BD0010014010B50022B3
:1023C0004FF400410648FEF71FFE01229103044826
:1023D000FEF71AFE0122D1030148FEF715FE10BDDB
:1023E0000010014070B5002406E0002500E06D1CDF
:1023F000B5F57A7FFBD3641CB4F57A7FF5D3FFF78C
:1024000071FFAE2000F0D0F8D52000F0CDF880208C
:1024100000F0CAF8A82000F0C7F83F2000F0C4F888
:10242000D32000F0C1F8002000F0BEF8402000F0FA
:10243000BBF8A12000F0B8F8C82000F0B5F8DA2009
:1024400000F0B2F8122000F0AFF8812000F0ACF8F4
:10245000CF2000F0A9F8D92000F0A6F8F12000F074
:10246000A3F8DB2000F0A0F8302000F09DF8A420B5
:1024700000F09AF8A62000F097F88D2000F094F86C
:10248000142000F091F8AF2000F08EF8FFF714FF51
:1024900070BD10B50246012000E050430B1EA1F1B3
:1024A0000101FAD110BD70B505460C4645F0B000EB
:1024B00000F07AF8102141EA141000F075F804F0E9
:1024C0000F0000F071F870BD2DE9F04105460E4691
:1024D0001746721ED206110E6A1E5206100EFFF724
:1024E000E2FF002409E0A7F12001134A02EB0111E9
:1024F000085D00F069F8601CC4B2082CF3DB721EA2
:10250000D206110E6A1E012303EB4202D0B2FFF77E
:10251000CAFF00240BE0A7F12001074A02EB0112D9
:1025200004F10801505C00F04FF8601CC4B2082CA4
:10253000F1DBBDE8F08100009C3B00082DE9F0478D
:1025400080460E4617461D46002415E0281B411EF6
:102550000A20FFF79EFFB7FBF0F00A21B0FBF1F273
:1025600001FB120000F130093019C1B24A46404661
:10257000FFF7AAFF601CC4B2AC42E7DBBDE8F087FE
:102580002DE9F04107460E461546002407E02A5D76
:102590003019C1B23846FFF797FF601CC4B2285DFE
:1025A0000028F4D1BDE8F08110B50446FFF7ECFE39
:1025B0007820FFF7BFFE0020FFF7BCFE2046FFF7A4
:1025C000B9FEFFF7FBFE10BD10B50446FFF7DCFEB9
:1025D0007820FFF7AFFE4020FFF7ACFE2046FFF764
:1025E000A9FEFFF7EBFE10BD70470000014600207A
:1025F000034A506820F44040084350607047000090
:102600000010024029B1064A52690243044B5A6144
:1026100004E0034A52698243014B5A61704700004B
:102620000010024029B1064AD2690243044BDA6124
:1026300004E0034AD2698243014BDA61704700002B
:102640000010024029B1064A92690243044B9A6184
:1026500004E0034A92698243014B9A61704700008B
:102660000010024030B500210022002400232D4D2F
:102670006D6805F00C0121B1042905D0082923D18A
:1026800005E0294D056022E0274D05601FE0254D3E
:102690006D6805F47012234D6D6805F480340225D1
:1026A00005EB92421CB9214D554305600BE01D4DD1
:1026B0006D6805F400351DB11C4D5543056002E001
:1026C000194D5543056002E0174D056000BF00BF7E
:1026D000144D6D6805F0F0010909154D6B5C056836
:1026E000DD4045600F4D6D6805F4E061090A104D4D
:1026F0006B5C4568DD4085600A4D6D6805F460518E
:10270000C90A0B4D6B5C4568DD40C560054D6D68C1
:1027100005F44041890B074D6B5CC568B5FBF3F5CB
:10272000056130BD0010024000127A0000093D0032
:102730000000002010000020704710B501214FF468
:10274000E13000F011F8012000F0D8F80022114625
:10275000104600F089F801221146104600F05CF89E
:10276000012000F027F810BD70B504460D46012188
:102770000820FFF767FF01218804FFF753FF0121BD
:102780000846FFF73FFF0948046000200749888199
:102790000C20488100200881C8808880044800F00F
:1027A00001FF2946024800F08CFE70BD340B00206A
:1027B0000048004010B5044601224021124800F0B4
:1027C0008CFE1248FEF7C2F94FF400701049C86041
:1027D0000020886088620F4848600020C86180201F
:1027E0004861202008620848001D086000208861B8
:1027F00008614FF4405048620448FEF770FA2146E1
:102800000248FEF797F910BD004800403000024032
:10281000700B00203409002070B504460D461646A2
:1028200004200D49C87040020880032088700B48BE
:10283000FEF74CFB012240F22441094800F08DFED6
:102840002720084908700120C87008464470857028
:10285000FFF7F0FC70BD00003C000020000C0140C0
:10286000004800404400002070B506460C4615465E
:10287000012280211B4800F030FE1B48FEF766F95C
:1028800000201A49C860102088600020886218481B
:1028900048600020C861802048610020086211481B
:1028A000001D08600020886108614FF400504862F4
:1028B0000D48FEF714FA012202210B48FEF706FA32
:1028C0000C200C4908700120C870084646708470BE
:1028D000FFF7B0FC29460448FEF72CF90120064911
:1028E000087070BD004800401C000240440B0020EE
:1028F00034070020400000203300002010B50446BB
:1029000001210846FFF79EFE18200549C8704FF4C4
:1029100080600880032088700248FEF7D7FA10BD57
:1029200038000020000C014070B505460C461D48DB
:102930000078401C40B21B490870002C03DD15B123
:10294000B4F57A7F02DB4FF0FF3070BD1548007898
:10295000401C40B21349087000BF1348007800289B
:10296000FBD012480078401C40B21049087000208B
:1029700000F024F80E484560C46001460D48FEF79B
:10298000AEF9012000F01AF8012000F021F80A4801
:102990000078401C40B208490870002002490870C5
:1029A0000120D2E74C000020330000204D00002021
:1029B000440B00201C0002404E00002010B50446CD
:1029C00021460248FEF7B6F810BD00001C00024088
:1029D00010B504462146024800F073FD10BD00000A
:1029E000004800402DE9F0478146884616461C46BF
:1029F000DDE9087A484600F041FE0546307820B10E
:102A000001280FD0022830D11FE01A4810F8080022
:102A100038B901203070002020702278501C2070BE
:102A2000BD5423E00D2D06D12278501C2070BD54DA
:102A30000220307008E02178AAF10100814203DA17
:102A40002278501C2070BD5410E00A2D0CD1227841
:102A5000501C2070BD5400203070217878542070B4
:102A60000120044901F8080000E000BF00BFBDE8F4
:102A7000F08700002A0000202DE9FF4F83B00446B4
:102A80008A4693462D48844207D12D4D2F46061580
:102A90004FF400684FF0270909E02A48844206D124
:102AA000294D2F4604264FF008084FF0260901A8AB
:102AB000FEF7A2FA18208DF80700ADF80460032095
:102AC0008DF8060001A92846FEF700FA48208DF887
:102AD0000700ADF8048003208DF8060001A93846F0
:102AE000FEF7F4F9194800F0D2FD1848C0F800A02C
:102AF0000020164988810C20488100200881C88068
:102B00008880204600F04EFD012240F225512046EB
:102B100000F023FD8DF8089001208DF80B008DF852
:102B200009B006988DF80A0002A8FFF783FB01217F
:102B3000204600F0C6FC07B0BDE8F08F004800401A
:102B4000000C014000440040000801403C0500200A
:102B500070B504460D4600BF8021204600F0C6FC3B
:102B60000028F9D02946204600F08DFD70BD70B5D3
:102B700005460C4604E014F8011B2846FFF7E8FF61
:102B800020780028F7D170BD10B500F001F810BD15
:102B90000CB50020019000903348006840F480306C
:102BA0003149086000BF3048006800F400300090F0
:102BB0000198401C0190009818B90198B0F5A06FD9
:102BC000F1D12948006800F4003010B101200090D4
:102BD00001E0002000900098012843D123480068BC
:102BE00040F01000214908600846006820F003000A
:102BF00008600846006840F0020008601A48406813
:102C0000194948600846406848600846406840F4F2
:102C1000806048600846406820F47C1048600846A0
:102C2000406840F4E81048600846006840F0807052
:102C3000086000BF0C48006800F000700028F9D060
:102C40000948406820F0030007494860084640688A
:102C500040F00200486000BF0348406800F00C00EC
:102C60000828F9D10CBD00000010024000200240ED
:102C70007047000010B51348006840F0010011498A
:102C8000086008464068104908400E4948600846F8
:102C900000680E4908400B4908600846006820F4A7
:102CA000802008600846406820F4FE0048604FF429
:102CB0001F008860FFF768FF4FF00060044908605C
:102CC00010BD0000001002400000FFF8FFFFF6FEFC
:102CD00008ED00E010B50121044800F077F8012864
:102CE00003D10121014800F050F810BD002C014033
:102CF00010B50121880700F069F8012809D10121E8
:102D0000800700F042F8FEF7D7FFFEF701FCFFF75F
:102D100083F810BD10B501210C4800F057F80128C8
:102D200012D10121094800F030F8FEF7CBFD6420F4
:102D3000FEF7DAFDFEF738FAFEF7CCFA4FF496709C
:102D4000FEF7E4FDFFF73CFA10BD00000004004070
:102D500010B50121044800F039F8012803D1012100
:102D6000014800F012F810BD0008004021B10288AF
:102D700042F08002028004E002884FF67F731A401E
:102D800002807047CA4302827047CA43028270477A
:102D900021B1028842F00102028004E002884FF66D
:102DA000FE731A400280704731B1B0F8442042F4FB
:102DB0000042A0F8442005E0B0F84420C2F30E021F
:102DC000A0F8442070470146888C704730B5024611
:102DD000002000230024158A05EA0103958905EAED
:102DE000010413B10CB1012000E0002030BD1AB184
:102DF00083890B43838102E083898B4383817047FE
:102E000001894FF6F87211400181704770B50024B6
:102E100000220023058C4FF6FE7635400584028C97
:102E20008388048B4FF68F752C40B51E2C400D887F
:102E30002C43751E2A400D892A434D882A43144D80
:102E4000A8420BD0134DA84208D0134DA84205D07C
:102E5000124DA84202D0124DA84213D14FF6F77579
:102E60002A404D892A434FF6FB752A408D882A4314
:102E70004FF6FF652B404FF6FF552B408D892B43B6
:102E8000CD892B4383800483CD888586028470BDE1
:102E9000002C01400034014000400140004401404A
:102EA000004801400A460021018B4FF6F773194094
:102EB000114301837047000070B5002400220023F5
:102EC000058C4FF6EF7635400584028C8388048BA1
:102ED00048F6FF752C404FF6FF452C400D884FF605
:102EE000FF7606EA05252C434FF6DF752A400D894B
:102EF00006EA05152A434D8806EA05152A43154DAD
:102F0000A84202D0144DA8421DD14FF67F752A4029
:102F10004D894FF6FF7606EA05152A434FF6BF7531
:102F20002A408D8806EA05152A434FF6FF352B40C7
:102F30004FF2FF752B408D8906EA85052B43CD891D
:102F400006EA85052B4383800483CD8805870284A8
:102F500070BD0000002C0140003401400A460021F1
:102F6000018B4FF2FF7319404FF6FF7303EA022300
:102F7000194301837047000070B50024002200232C
:102F8000058C4FF6FF6635400584028C8388848B60
:102F90004FF68F752C404FF6FC752C400D882C4356
:102FA0004FF6FF552A400D894FF6FF7606EA0525B4
:102FB0002A434D8806EA05252A43154DA84202D02A
:102FC000144DA8421DD14FF2FF752A404D894FF68E
:102FD000FF7606EA05252A434FF6FF352A408D88FD
:102FE00006EA05252A434EF6FF752B404DF6FF7580
:102FF0002B408D8906EA05152B43CD8906EA051578
:103000002B4383808483CD888587028470BD000034
:10301000002C0140003401400A460021818B4FF60C
:10302000F7731940114381837047000070B5002287
:1030300000230024058C4EF6FF7635400584038C72
:103040008488828B48F6FF752A404FF6FF452A4058
:103050000D884FF6FF7606EA05252A434DF6FF75E3
:103060002B400D8906EA05352B434D8806EA0535C8
:103070002B430B4DA84202D00A4DA84208D14BF673
:10308000FF752C408D894FF6FF7606EA85152C4397
:1030900084808283CD88A0F84050038470BD0000F6
:1030A000002C0140003401400A460021818B4FF280
:1030B000FF7319404FF6FF7303EA0223194381831C
:1030C00070470021018041808180C1800181418160
:1030D0008181C18170470000002202881D4B984207
:1030E0000ED01D4B98420BD0B0F1804F08D01B4B37
:1030F000984205D01A4B984202D01A4B984204D1FC
:103100004FF68F731A404B881A43174B984207D0DB
:10311000164B984204D04FF6FF431A40CB881A430F
:1031200002808B8883850B8803850A4B98420BD0DD
:10313000094B984208D00E4B984205D00D4B98424F
:1031400002D00D4B984201D10B7A03860123838272
:1031500070470000002C0140003401400004004092
:1031600000080040000C0040001000400014004027
:103170000040014000440140004801404FF6FF710B
:10318000818000210180C180418001727047000070
:103190001CB540F22551084800F0B5F901280AD1C4
:1031A000F4240648064B074A0221CDE900040248F0
:1031B000FFF718FC00BF1CBD004400404006002083
:1031C0003100002030000020F8B540F224416D4865
:1031D00000F099F901287DD16A480088009069487B
:1031E000001D0088009000216748FDF7A3FC664899
:1031F000FDF752FDC0F5007084B2601C84B2601E01
:10320000B0F5007F02DA0021604A115401206049C4
:10321000087000255F4A21465C48FDF74DFC0546D5
:103220000B2D71D2DFE805F0060B10151A1F2429AB
:103230002E333800062158A0FFF776FB8AE00921DB
:1032400057A0FFF771FB85E0042158A0FFF76CFB46
:1032500080E0072157A0FFF767FB7BE00B2157A019
:10326000FFF762FB76E00C2154A0FFF75DFB71E0F5
:103270000E2155A0FFF758FB6CE00E2156A0FFF77A
:1032800053FB67E0132158A0FFF74EFB62E01321C8
:103290005AA0FFF749FB5DE00A205D49087009214B
:1032A0005CA0FFF741FB5E4B5E4A21463748FDF7C5
:1032B00053FB5B48FCF7CFFF86B231465848FFF717
:1032C00033FB022135A0FFF72FFB554890F8400053
:1032D000072800E055E031D2DFE800F00409171CB0
:1032E00021262B000D2150A0FFF71EFB2BE00A2109
:1032F00051A0FFF719FB4A484130FCF78DFFC6B2D9
:103300003046FEF713FC1EE01FE00A214DA0FFF738
:103310000BFB18E00A214EA0FFF706FB13E00A2181
:103320004EA0FFF701FB0EE00B214FA0FFF7FCFAC8
:1033300009E008214FA0FFF7F7FA04E00C2150A0A4
:10334000FFF7F2FA00BF00BF04E00C2150A0FFF726
:10335000EBFA00BF00BF4FF400710B48FDF7DDFC36
:103360004F490948FDF7BBFC01210748FDF7E2FB87
:103370000120FFF72DFB40F22441024800F092F8B3
:1033800000BFF8BD00480040300002403409002072
:10339000320000201C3B00084E4F4E450D0A000035
:1033A000504F5745524F4E0D0A0000004F4B0D0A2B
:1033B000000000004552524F520D0A00574946493D
:1033C0005F434F4E4E0D0A00574946495F444953EB
:1033D000434F4E4E0D0A00004D5154545F44495323
:1033E000434F4E4E0D0A00004D5154545F434F4E13
:1033F0004E5F535543434553530D0A0057494649C1
:103400005F434F4E4E5F535543434553530D0A00A0
:103410004C000020444F574E434D440D0A0000001D
:10342000171000206C3B0008434D445F554E4B4E37
:103430004F574E0D0A000000434D445F57505652FF
:103440000D0A0000434D445F415052530D0A0000E5
:10345000434D445F574852530D0A0000434D445FAB
:10346000414C56520D0A0000434D445F50474C56A4
:10347000520D0A00434D445F46540D0A00000000FF
:10348000434D44554E4B4E4F574E0D0A0000000021
:103490004D5347554E4B4E4F574E0D0A00000000FE
:1034A000700B002010B50022002340F66A14A142E0
:1034B00000D100BF0A1201249440A3B2DC4304806F
:1034C00010BD21B1828942F40052828104E08289D8
:1034D0004DF6FF731A40828170471AB1838A0B43FD
:1034E000838202E0838A8B438382704702460020F6
:1034F000B1F5007F00D100BF13880B400BB1012054
:1035000000E00020704770B502460024002300252B
:10351000002040F66A16B14200D100BFC1F3421547
:1035200001F01F03012606FA03F3012D02D196894B
:10353000334006E0022D02D1168A334001E0968A1C
:1035400033400C12012606FA04F41688344013B1F5
:103550000CB1012000E0002070BDF0B5034600244E
:1035600000260025002040F66A17B94200D100BFAE
:103570001846C1F3421401F01F06012707FA06F5A9
:10358000012C01D10C3004E0022C01D1103000E0FC
:1035900014301AB107682F43076002E00768AF4391
:1035A0000760F0BD2DE9F04786B005460E460024C1
:1035B000A24600BFA1460027B08900B100BF2F4638
:1035C0002C8A4CF6FF700440F08804432C82AC89AE
:1035D0004EF6F3100440B0883189084371890843DE
:1035E0000443AC81AC8A4FF6FF400440B0890443E9
:1035F000AC8201A8FFF736F81F48874202D1DDF8F8
:1036000010A001E0DDF80CA0A88900F4004040B152
:103610000AEBCA0000EB0A1031684900B0FBF1F870
:1036200007E00AEBCA0000EB0A1031688900B0FB22
:10363000F1F86420B8FBF0F004012009642101FBDB
:103640001089A88900F4004040B1322000EBC90085
:10365000B0FBF1F000F00700044308E0322000EB7B
:1036600009106421B0FBF1F000F00F0004432C813D
:1036700006B0BDE8F08700000038014001468888A8
:10368000C0F308007047C1F30802828070474FF40E
:103690001651016000218180C18001810C2141818E
:1036A00000218181704700BFFEE700004FF47A706F
:1036B000FDF743FB01214804FEF7B4FF0121880414
:1036C000FEF7B0FF0121C802FEF7BCFF012108464A
:1036D000FEF7A8FF01210220FEF7A4FF012104202C
:1036E000FEF7A0FF01210420FEF7ACFF0121082016
:1036F000FEF7A8FF01211020FEF7A4FF01210846D4
:10370000FEF7A0FF01214802FEF79CFF01210846B9
:10371000FEF778FF4FF4A060FEF7C4FDFEF784F9D2
:1037200000231A464FF4E1314248FFF7A5F942A1C0
:103730004048FFF71CFAFEF755FEFEF7BDFD0321DA
:103740000846FEF743F801210846FEF77DF80121FF
:103750000846FEF7EDF800210846FEF723F93A483F
:10376000FEF75AF94FF08040FEF756F93748FEF75A
:1037700053F93748FEF750F9FEF708FB01210846D8
:10378000FDF76EFDFEF7E8FA00210846FEF750FA55
:103790004FF4FA70FDF77AFF2E480088FEF782F9A1
:1037A0002D48006800F03CF984B22046FDF7F0FE99
:1037B0002A48006800F034F984B22046FDF7B8FFCB
:1037C000FEF7C0F9FDF7E6FFFDF796FF0420FDF7D1
:1037D00025FCFDF787FCFEF745F9FDF70BF8FEF732
:1037E000ACFF25E01E480078012812D15221114873
:1037F000FFF7AEF90D210F48FFF7AAF90A210D488E
:10380000FFF7A6F917490B48FFF7B1F90020144953
:1038100008701548807801280AD11448FCF71BFD70
:1038200084B221461148FFF77FF800200E498870C6
:10383000D8E700000044004053657269616C325F54
:103840004F6E0D0A00000000002C014000040040F3
:1038500000080040280500202C050020300500202D
:1038600032000020340900202A00002040060020F9
:1038700010B500290AD00878002807D005487844F8
:10388000FCF7A4FE002801D0002010BD02487844B7
:1038900010BD0000520A00004A0A00004FF47F0CDD
:1038A0001CEAD0121EBF1CEAD11392EA0C0F93EA55
:1038B0000C0F00F0858090EA010F48BF42F480723F
:1038C00040F4000C41F400002CF07F4120F07F40D8
:1038D00000B58142A2EB03020FF2081CACEB504E84
:1038E000C0F100009EF800E04FEA4E0E00FB0EFC17
:1038F00038BF49004FEA2C1C02F5FA020CFB0EF30C
:103900004FEACE1E4FEA112C4FEAC1210EEB635E47
:1039100042EB22420EFB0CFC4FEA1C5300FB03114E
:103920004FEA112C4FEA01310EFB0CFC4FEADC4C44
:1039300000FB0C11C14228BF09184CEB03335DF8A2
:1039400004EB10EB410143EBC250B2F57C0F38BFE2
:10395000704729D512F0F00F1CBF00F1C04000F0F5
:1039600000407047008182838485868788898B8C9C
:103970008D8E8F919293959697999A9C9D9FA0A2D8
:10398000A3A5A7A8AAACAEB0B2B3B5B7B9BCBEC028
:10399000C2C5C7C9CCCED1D4D7D9DCDFE2E6E9ECC9
:1039A000F0F3F7FAFE0000004FEA400C0CF1807CC7
:1039B000BCF17E4F28BF7047B0F1C04000F0A9B8FD
:1039C00090EA010F0CEAD11348BF42F480726245BD
:1039D00038BF634507D213F47F0F16D080EA010089
:1039E00000F00040704710B500F04DF8097EFC3E35
:1039F00000F005B880EA010000F00040704780EA5E
:103A0000010000F0004000F084B812F47F0F04BF02
:103A10000248704780EA010000F07BB80000C07FD8
:103A2000C10DD1F19E0206DB4FEA002343F00043B3
:103A300023FA02F07047004207D54FEA4001B1F186
:103A4000FE4F02D24FF00000704710B500F01BF897
:103A500049922480002070476FEA200070470000E0
:103A6000B0FA80F310FA03F2C3F19D030AD0D9052E
:103A700001EB1220530638BF704700F1010008BF68
:103A800020F0010070470EF1020E2EF0030E5EF8DA
:103A9000044B244204D44FEA4102B2F17F4F11D8C3
:103AA0004FEA4003B3F17F4F0CD80ED14FEAD07CE0
:103AB000B2F17F4F0CEB4C0C0CF1020C08BF4CEB3D
:103AC000D17C04E04FF0080C01E04FEAD17C0CEB14
:103AD0004C0324FA03F404F00704B4F1040C06D2F6
:103AE0000EEB840CBDE810404CF0010C6047DFE8A1
:103AF0000CF0070802024FF00040A0F5800010BD56
:103B00000846420018BFD2F1807288BF00F0004022
:103B100010BDFF2141EAD050C00570473B04002092
:103B200005000600410400200400070035040020C1
:103B300005000400290400200300010046040020C1
:103B4000380008007F0400200300090083040020DF
:103B500005000A0089040020050005002D0400204E
:103B60000200020030040020040003008F04002043
:103B70000400010094040020050002009A040020C3
:103B8000040003009F04002004000400A40400209B
:103B900005000500AA040020020006000000000045
:103BA000000000000000000000000000000000F81D
:103BB00000000000000000333000000000100C0680
:103BC000100C0600000000000000000040C078401B
:103BD000C0784000043F04043F040400007088FCE7
:103BE00008300000001820FF211E0000F008F0003F
:103BF000E018000000211C031E211E0000F00888B0
:103C0000700000001E2123241927211010160E0019
:103C1000000000000000000000000000000000E0C4
:103C200018040200000000071820400000020418D9
:103C3000E00000000040201807000000404080F035
:103C4000804040000202010F01020200000000F06B
:103C5000000000000101011F01010100000000003F
:103C60000000000080B070000000000000000000B4
:103C7000000000000001010101010101000000003D
:103C800000000000003030000000000000000000D4
:103C900080601804006018060100000000E01008B1
:103CA0000810E000000F102020100F00001010F886
:103CB000000000000020203F2020000000700808C5
:103CC0000888700000302824222130000030088845
:103CD000884830000018202020110E000000C0206D
:103CE00010F8000000070424243F240000F808888E
:103CF000880808000019212020110E0000E010881B
:103D000088180000000F112020110E00003808084C
:103D1000C83808000000003F00000000007088085C
:103D200008887000001C222121221C0000E01008DD
:103D30000810E0000000312222110F00000000C036
:103D4000C0000000000000303000000000000080D3
:103D500000000000000080600000000000008040C3
:103D600020100800000102040810200040404040DC
:103D7000404040000404040404040400000810202F
:103D80004080000000201008040201000070480874
:103D90000808F0000000003036010000C030C828DC
:103DA000E810E0000718272423140B000000C03897
:103DB000E0000000203C23020227382008F8888811
:103DC00088700000203F202020110E00C03008081D
:103DD00008083800071820202010080008F80808F4
:103DE0000810E000203F202020100F0008F88888ED
:103DF000E8081000203F20202320180008F88888B9
:103E0000E8081000203F200003000000C030080830
:103E10000838000007182020221E020008F80800B9
:103E20000008F808203F210101213F20000808F880
:103E3000080800000020203F2020000000000808A3
:103E4000F8080800C08080807F00000008F888C063
:103E500028180800203F20012638200008F8080014
:103E600000000000203F20202020300008F8F8004B
:103E7000F8F80800203F003F003F200008F830C05D
:103E80000008F808203F200007183F00E01008084D
:103E90000810E0000F10202020100F0008F808087C
:103EA0000808F000203F210101010000E01008088F
:103EB0000810E0000F18242438504F0008F88888B4
:103EC00088887000203F2000030C30200070880894
:103ED000080838000038202121221C00180808F8A2
:103EE000080818000000203F2000000008F8080023
:103EF0000008F808001F202020201F0008788800F4
:103F000000C83808000007380E010000F80800F863
:103F10000008F800033C0700073C0300081868800D
:103F20008068180820302C03032C30200838C80083
:103F3000C83808000000203F2000000010080808D2
:103F4000C83808002038262120201800000000FE74
:103F5000020202000000007F40404000000C30C020
:103F600000000000000000010638C000000202024C
:103F7000FE000000004040407F00000000000402FE
:103F80000202040000000000000000000000000029
:103F90000000000080808080808080800002020419
:103FA0000000000000000000000000000000808011
:103FB000808000000019242222223F2008F800807F
:103FC00080000000003F112020110E000000008042
:103FD00080800000000E11202020110000000080D1
:103FE0008088F800000E112020103F200000808003
:103FF00080800000001F222222221300008080F017
:10400000888888180020203F202000000000808041
:1040100080808000006B94949493600008F8008086
:1040200080800000203F210000203F2000809898E1
:10403000000000000020203F202000000000008041
:104040009898000000C08080807F000008F8000081
:1040500080808000203F24022D302000000808F8D6
:10406000000000000020203F202000008080808091
:1040700080808000203F20003F20003F8080008023
:1040800080800000203F210000203F200000808031
:1040900080800000001F202020201F0080800080E2
:1040A0008000000080FFA12020110E000000008091
:1040B00080808000000E112020A0FF808080800082
:1040C0008080800020203F212000010000008080AF
:1040D000808080000033242424241900008080E0A4
:1040E000808000000000001F202000008080000071
:1040F00000808000001F202020103F208080800052
:104100000080808000010E30080601008080008061
:10411000008080800F300C030C300F000080800086
:10412000808080000020312E0E31200080808000B1
:104130000080808080818E70180601000080808061
:10414000808080000021302C2221300000000000FF
:10415000807C020200000000003F404000000000A0
:10416000FF00000000000000FF0000000002027CD1
:10417000800000000040403F0000000000060101F8
:10418000020204040000000000000000060300001A
:104190000101000001010000010000000100040312
:1041A0000000010100000101000101010101000105
:1041B00002020202020202020202020202020202DF
:1041C00005000000000000000000000000000000EA
:1041D00000000000000000000000000000000000DF
:1041E00000000000000000000000000000000000CF
:1041F00000000000000000000000000000000000BF
:1042000000000000000000000000010203000100A7
:104210000102000102030000356565636565313800
:104220003631336538393330633139666239333486
:104230003639633839623135336664343861336214
:1042400062326662363036653163653662323766B1
:104250006433356166353331000000002F737973A4
:104260002F70726F706572746965732F7265706FED
:104270007274222C227B5C2273657276696365738B
:104280005C223A5B7B5C22736572766963655F6969
:10429000645C223A5C22416C6C5C225C2C5C227077
:1042A000726F706572746965735C223A0000000079
:1042B000E0430008000000203C0500002801000841
:1042C000104500083C0500203C1200008401000855
:1042D0001001000043000000F8FFFFFF00404040D5
:1042E00040404040404041414141414040404040C9
:1042F0004040404040404040404040404005020275
:104300000202020202020202020202020220202033
:10431000202020202020200202020202020290908F
:10432000909090901010101010101010101010108D
:1043300010101010101010100202020202028888E1
:1043400088888888080808080808080808080808ED
:1043500008080808080808080202020240000000D5
:10436000000000000000000000000000000000004D
:10437000000000000000000000000000000000003D
:10438000000000000000000000000000000000002D
:10439000000000000000000000000000000000001D
:1043A000000000000000000000000000000000000D
:1043B00000000000000000000000000000000000FD
:1043C00000000000000000000000000000000000ED
:1043D00000000000000000000000000000000000DD
:1043E000412D010203040400093B060708090204E9
:1043F0000608162B2B2B0D0A3D4154453007680A41
:104400002B43574D4F44453D310E7C5141500D7F5C
:1044100049504D55583D291A4A1B0115691E4A3FFE
:104420002A0019644D515454555345524346473D53
:10443000302C312C224E554C4C222C22597F1809FD
:10444000434C49454E54494480096377E97F0C6EDB
:104450004F4E4E7B997F0C725355427E697F4A5076
:104460007F000DE5246F632F646576696365732FA4
:10447000001B6541542B4D5154545055423D302C36
:1044800022246F632F646576696365732F14455327
:1044900050134F4B154552524F3D4649204306138A
:1044A00044491B54540548166164306365356337CD
:1044B00031662E7374312E696F7464612D9F101EE6
:1044C0002E636E2D6E6F7274682D342E6D79687543
:1044D00061776569636C6F75642E636F6D14333239
:1044E000312E53554252454E13474F155750565291
:1044F00016415052534315574852531B414C102BF1
:1045000050470613465405110A060D0A0279460063
:04000005080000ED02
:00000001FF
