:020000040800F2
:100000003808002089010008D913000839070008C2
:100010003D070008DD03000857220008000000002B
:10002000000000000000000000000000B9180008F7
:100030004F0400080000000069170008591B000861
:10004000A3010008A3010008A3010008A301000800
:10005000A3010008A3010008A3010008A3010008F0
:10006000A3010008A3010008B1040008A3010008CF
:10007000A3010008A3010008A3010008A3010008D0
:10008000A3010008A3010008A3010008A3010008C0
:10009000A3010008A3010008A3010008C904000887
:1000A000A3010008BD1B0008A3010008A30100086C
:1000B000E91B0008091C0008351C0008A301000802
:1000C000A3010008A3010008A3010008A301000880
:1000D000A3010008A3010008DD1F0008212000087B
:1000E00097040008A3010008A301000800F002F82B
:1000F00000F03AF80AA090E8000C82448344AAF188
:100100000107DA4501D100F02FF8AFF2090EBAE885
:100110000F0013F0010F18BFFB1A43F0010318473B
:10012000102B0000302B0000103A24BF78C878C193
:10013000FAD8520724BF30C830C144BF04680C60ED
:10014000704700000023002400250026103A28BF35
:1001500078C1FBD8520728BF30C148BF0B60704739
:100160001FB51FBD10B510BD00F031F81146FFF7E7
:10017000F7FF02F073F800F04FF803B4FFF7F2FF57
:1001800003BC00F057F800000948804709480047C1
:10019000FEE7FEE7FEE7FEE7FEE7FEE7FEE7FEE737
:1001A000FEE7FEE704480549054A064B7047000094
:1001B0005D1B0008ED000008380200203808002010
:1001C0003804002038040020704770477047754697
:1001D00000F02CF8AE4605006946534620F00700B3
:1001E000854618B020B5FFF7DDFFBDE820404FF091
:1001F00000064FF000074FF000084FF0000B21F011
:100200000701AC46ACE8C009ACE8C009ACE8C009DD
:10021000ACE8C0098D46704710B50446AFF30080C6
:100220002046BDE81040FFF7A8BF00000048704717
:10023000D801002001491820ABBEFEE726000200CD
:10024000704721B1826842F00102826003E0826857
:1002500022F001028260704721B1826842F480720C
:10026000826003E0826822F48072826070470146F7
:1002700000208A6802F004020AB1012000E0002098
:100280007047014600208A6802F008020AB1012086
:1002900000E000207047000030B502460020002337
:1002A00050680F4C20400D790C6844EA0524204327
:1002B000506090680B4C2040D1E902542C434D799A
:1002C00044EA450420439060D06A20F470000C7C1E
:1002D000641EE4B2234340EA0350D06230BD000004
:1002E000FFFEF0FFFDF7F1FFF0B504460D460020DC
:1002F0000021092D11DDE068A5F10A0606EB46078D
:10030000072606FA07F18843A5F10A0606EB46061A
:1003100003FA06F10843E0600CE0206905EB4507AD
:10032000072606FA07F1884305EB450603FA06F1AE
:1003300008432061072A0FDA606B561E06EB86071A
:100340001F2606FA07F18843561E06EB860605FAB5
:1003500006F10843606322E00D2A0FDA206BD61FF6
:1003600006EB86071F2606FA07F18843D61F06EB21
:10037000860605FA06F10843206310E0E06AA2F160
:100380000D0606EB86071F2606FA07F18843A2F141
:100390000D0606EB860605FA06F10843E062F0BD9D
:1003A000816841F008018160704721B1826842F4A0
:1003B000A002826003E0826822F4A002826070479B
:1003C000816841F004018160704700210160017182
:1003D00041718160C16001210174704700BFFEE777
:1003E00021B1026842F00102026004E002684FF6A7
:1003F000FE731A400260704710B50022026847F68B
:10040000F0739A430C6A8B6823430C6923434C694D
:1004100023438C692343CC6923434C6A23438C6A6E
:1004200023431A430260CB6843600B6883604B68C8
:10043000C36010BD0021016041608160C160016145
:1004400041618161C16101624162816270477047AF
:1004500000B5034603E04FF47A7000F005F8181E6B
:10046000A3F10103F7D100BD00EBC001C9004FF0BB
:10047000E0225161002191610521116100BF4FF01F
:10048000E021096901F480310029F8D004214FF0FE
:10049000E0221161704710B54FF4004000F02CF8D5
:1004A000012804D1C00300F021F800F0B5FC10BD14
:1004B00010B5102000F020F8012804D1102000F021
:1004C00015F800F02BFB10BD10B5202000F014F83B
:1004D000012802D1202000F009F8402000F00CF89B
:1004E000012802D1402000F001F810BD0149086048
:1004F0007047000014040140014600200022074B11
:100500001B6803EA0102054B14331B680B4013B14F
:100510000AB1012000E00020704700000004014003
:10052000002123498279002A3AD00A4612680368DA
:100530009A430B461A600A1D126803689A430B1D02
:100540001A60027911440A6803681A430A60184A5B
:100550000832126803689A43154B08331A601A1D53
:10056000126803689A43124B0C331A604279102ABE
:100570000ED11A1F126803681A430D4B08331A6014
:100580001A1D126803681A43094B0C331A600DE0F8
:100590000749427911440A6803681A430A6005E072
:1005A000027911440A6803689A430A6070470000A0
:1005B000000401400021016001710C214171002102
:1005C0008171704730B500228B071C0F0F2303FA8F
:1005D00004F20B4B8C1053F824309343084C8D10CD
:1005E00044F8253023468C1053F824308C07240F10
:1005F00000FA04F42343024C8D1044F8253030BD3A
:10060000080001402DE9F0410246002500260020A7
:1006100000230024002791F803C00CF00F0591F887
:1006200003C00CF0100CBCF1000F03D091F802C015
:100630004CEA050591F800C0BCF1000F31D01468F8
:1006400000202BE04FF0010C0CFA00F3B1F800C0D1
:100650000CEA03069E4220D183004FF00F0C0CFAE7
:1006600003F7BC4305FA03FC4CEA040491F803C009
:10067000BCF1280F06D14FF0010C0CFA00FCC2F8B7
:1006800014C00AE091F803C0BCF1480F05D14FF047
:10069000010C0CFA00FCC2F810C0401C0828D1D391
:1006A0001460B1F800C0BCF1FF0F34DD54680020C5
:1006B0002EE000F1080C4FF0010808FA0CF3B1F835
:1006C00000C00CEA03069E4221D183004FF00F0CBC
:1006D0000CFA03F7BC4305FA03FC4CEA040491F856
:1006E00003C0BCF1280F05D100F1080C08FA0CF882
:1006F000C2F8148091F803C0BCF1480F07D100F193
:10070000080C4FF0010808FA0CF8C2F81080401CE1
:100710000828CED35460BDE8F081016170474FF6E0
:10072000FF710180022181700421C17070470AB1FC
:10073000016100E04161704700BFFEE700BFFEE7D6
:1007400010B590B004464FF4004001F00FF80BA82C
:10075000FFF73BFE01208DF8310000200E904FF492
:1007600060200D9000200B908DF83C4001208DF80A
:1007700030000BA92148FFF78FFD01211F48FFF72B
:100780006BFD6846FFF756FE1C484C300090801504
:100790000690002004901A4801904FF48060079062
:1007A000802005900020029003940A902020089059
:1007B000C001099069461348FFF71EFE01210F484A
:1007C000FFF73FFD01210F48FFF70AFE0B48FFF737
:1007D000E7FD00BF0948FFF754FD0128FAD007489C
:1007E000FFF7EEFD00BF0548FFF741FD0128FAD0F5
:1007F00001210248FFF7D9FD10B010BD00240140CF
:100800002A0000200800024008B56846FFF787FF6D
:1008100010208DF803004002ADF8000003208DF891
:10082000020069460248FFF7EDFE00F003F808BD3C
:10083000000C014010B54FF400510248FFF76DFF66
:1008400010BD0000000C014008B56846FFF767FFC7
:1008500010208DF803000002ADF8000003208DF891
:10086000020069460248FFF7CDFE00F003F808BD1C
:10087000000C014010B54FF480510248FFF74DFFC6
:1008800010BD0000000C014038B5044618208DF85A
:1008900003004FF48070ADF8000003208DF80200D3
:1008A00069460F48FFF7AEFE0E4801F030FB00200E
:1008B0000C498881602008800020C8814881888098
:1008C00001204880601EC880074801F011FA01210C
:1008D000054801F0DBF90821034801F055FA38BD5D
:1008E00000080140B8010020002C01402DE9F04132
:1008F00004460D460026002003E035F810100E4493
:10090000401CA042F9DB204601F03CFE0746304681
:1009100001F038FE8046394601F052FDBDE8F08115
:1009200010B50B46002105E04C1C30F8144020F8AF
:100930001140491C541E8C42F6DC511E20F8113027
:1009400010BD000010B506480078012802D100F063
:10095000E1F804E00248007808B900F0D7F810BDCB
:10096000A400002010B50C48006840B90B4801F005
:100970009CF90B490968401A0A4908600AE00748CF
:1009800001F093F942F21071084405490968401AD0
:100990000449086010BD00008C00002000040040E5
:1009A000A00000209C00002010B5044801F07DF953
:1009B0000349086000200349086010BD000400409E
:1009C000A00000208C00002004480078012804D1F9
:1009D00003480068401C02490860704788000020F6
:1009E0008C0000207CB5002000900190002400269F
:1009F000002500BF15E000210FE0194A165D1DF823
:100A00000020C1F1070306FA03F31A43D2B20DF82E
:100A10000020621CD4B24A1CD1B20729EDDD411C72
:100A2000C8B20428E7DD002005E01DF800102944C5
:100A3000CDB2411CC8B20328F7DD9DF80400A842DE
:100A40000AD1002005E01DF80010064A1154411C8F
:100A5000C8B20328F7DD01E000F058F87CBD0000C3
:100A6000900100209800002008B514201749C87094
:100A700010200880032088701548FFF7C3FD04216B
:100A80000020FFF79FFD012210211148FFF74FFEC4
:100A900010201049086000200871082048710020CB
:100AA00088710846FFF73CFD0A208DF80000002001
:100AB0008DF801008DF8020001208DF803006846D2
:100AC00000F08CFC00F002F908BD00007C00002062
:100AD000000801408000002010B50A480078012875
:100AE0000FD109480078401C074908700846007873
:100AF000042806DBFFF726FF0020034908700149A0
:100B0000087010BD90000020A600002010B500F075
:100B1000A3F810BD10B500F09FF810BD10B5424805
:100B2000007806287CD2DFE800F003047B0D206704
:100B300077E001203D490870FFF736FF03203A496E
:100B400008706EE0FFF70EFF39480068642809D38B
:100B500037480068B42805D8042033490870FFF7E7
:100B600023FF01E0FFF7D2FF5BE0FFF7FBFE304819
:100B700000683C281CD32E4800685A2818D8FFF774
:100B800013FF00212B4802780078401C294B187075
:100B9000294881543021294800F04EFF254800782B
:100BA000282828DB05202049087000F071F822E091
:100BB0001F4800686E281CD31D480068822818D87A
:100BC000FFF7F2FE01221B4801780078401C194B08
:100BD0001870194842543121184800F02DFF15486B
:100BE0000078282807DB05200F49087000F050F82E
:100BF00001E0FFF78BFF14E0FFF7B4FE0C4800683C
:100C000028280AD30A4800683C2806D801200C4945
:100C10000870FFF7E7FE02E002E0FFF777FF00E071
:100C200000BF00BF10BD00009B0000208800002016
:100C30009C000020A50000209001002000440040FE
:100C4000A400002010B500200249087000F016F83A
:100C500010BD0000A500002010B500F023F8002012
:100C600003490870034908700349087010BD00006B
:100C70009B00002088000020A400002010B50C205C
:100C8000024948710846FFF74BFC10BD8000002068
:100C900010B50820024948710846FFF741FC10BD15
:100CA0008000002010B548200549C8700548FFF7AE
:100CB000A9FC0120044988710846FFF731FC10BDEA
:100CC0007C000020000801408000002010B50020BA
:100CD000054988710846FFF723FC10200349C870B6
:100CE0000348FFF78FFC10BD800000207C0000202F
:100CF0000008014010B5012007490870002007498D
:100D00000870FFF7E3FF002005490870FFF79AFF1E
:100D100001200449087010BD9100002092000020BD
:100D20009B0000209000002010B51A480078012890
:100D30002ED119480068401C1749086017480078F0
:100D400010B1012823D10DE0FFF7C0FF00221021D0
:100D50001348FFF7ECFC01201049087000200E49F1
:100D6000086014E00C48006800EB800044F6206145
:100D700088420BD3FFF796FF01200A490870FFF75E
:100D80007DFF0020054908700249087000BF00BFC0
:100D900010BD00009100002094000020920000206F
:100DA000000801409B00002010B50121042000F044
:100DB00009FD14200449C870202008800320887091
:100DC0000248FFF71FFC10BD600000200008014032
:100DD00010B50D480078032804DA0B480078401C51
:100DE000094908700948008881B203220848FFF7C2
:100DF00097FD074904480078FFF778FD044601F0A5
:100E0000A1FB0449088010BD5800002048000020C4
:100E10005A0000204C00002010B515480078012829
:100E200024D11448007858B9134800F03EFF134904
:100E300008600C2000F060F801200E49087015E0F1
:100E40000C480078012811D10B4800F02EFF0B4907
:100E50000968401A0A490860FFF7BAFF082000F045
:100E60004BF80020034908700149087010BD0000CC
:100E700046000020500000200004004054000020E4
:100E8000480000201CB501A8FFF749FC48208DF858
:100E900007004FF40040ADF8040003208DF8060071
:100EA00001A91348FFF7AEFB0F210120FFF78AFBD2
:100EB0001048FFF77FFB4FF400400E490860012007
:100EC000887100200871082048710846FFF728FB48
:100ED00028208DF8000001208DF803008DF8010016
:100EE00003208DF80200684600F078FA1CBD00006F
:100EF000000C01403C00002010B50446024844713B
:100F0000FFF70EFB10BD00003C00002010B50B48A1
:100F10000078012811D100F037F809480078401C0A
:100F20000749087008460078022806DB00F014F82C
:100F30000020024908700249087010BD44000020DA
:100F40004F000020012002490870024908707047D4
:100F5000440000204500002010B500224FF48051CD
:100F60000648FFF7E4FB0120054908700020054909
:100F700008700820FFF7C0FF10BD00000008014006
:100F8000460000204700002010B5064800780128E0
:100F900007D1012201030448FFF7C9FB00200149E2
:100FA000087010BD450000200008014008B56846E3
:100FB000FFF7B5FB10208DF803000002ADF800002C
:100FC00003208DF8020069460448FFF71BFB00224E
:100FD0004FF480510148FFF7AAFB08BD000801400B
:100FE00008B56846FFF79BFB00208DF80300022040
:100FF000ADF8000003208DF8020069460448FFF7B1
:1010000001FB0523032209210248FFF76DF908BD02
:10101000000C01400024014008B56846FFF77FFB43
:1010200010208DF803008002ADF8000003208DF839
:10103000020069460248FFF7E5FA00F003F808BD30
:10104000000C014010B54FF480410248FFF765FBEA
:1010500010BD0000000C014038B504466846FFF79B
:101060005EFB18208DF803004FF40070ADF800000F
:1010700003208DF8020069460F48FFF7C3FA0F48B6
:1010800000F045FF00200D49888160200880002085
:10109000C8814881888001204880601EC880084837
:1010A00000F07CFE0121064800F0F0FD0821044814
:1010B00000F0C6FE38BD000000080140800100209D
:1010C000002C014008B56846FFF729FB00208DF889
:1010D00003000120ADF8000003208DF802006946EE
:1010E0000448FFF78FFA0523022208210248FFF780
:1010F000FBF808BD000C0140002401401FB51D484D
:1011000000F0F0FD01A800F05FFF0020ADF80A003C
:10111000ADF806004720ADF8040044F61F60ADF8B6
:10112000080000208DF80C0001A9124800F0FAFE1A
:101130000121104800F098FD012211460D4800F0F1
:10114000C8FD01210B4800F083FD19208DF8000037
:1011500001208DF8030003208DF8010002208DF896
:101160000200684600F03AF90121024800F082FDD1
:101170001FBD0000002C01401FB54FF0804000F063
:10118000B1FD01A800F020FF0020ADF80A00ADF885
:1011900006004720ADF804000420ADF80800002048
:1011A0008DF80C0001A94FF0804000F0BBFE01213A
:1011B000880700F059FD01221146900700F089FDD3
:1011C0000121880700F044FD1C208DF8000001205B
:1011D0008DF803008DF801008DF80200684600F0DC
:1011E000FDF80121880700F045FD1FBD10B504463C
:1011F00007480088401C0649088008460088A0422D
:1012000005DB00200880FFF79DFEFFF773FD10BD92
:10121000240000201FB51A4800F064FD01A800F06A
:10122000D3FE0020ADF80A00ADF806004720ADF867
:10123000040042F20F70ADF8080000208DF80C0099
:1012400001A90F4800F06EFE01210D4800F00CFDD1
:10125000012211460A4800F03CFD1D208DF80000D7
:1012600001208DF8030002208DF801008DF80200A6
:10127000684600F0B3F80121014800F0FBFC1FBDF7
:10128000000400401FB51B4800F02CFD01A800F031
:101290009BFE0020ADF80A00ADF8060041F61F40A5
:1012A000ADF8040042F20F70ADF8080000208DF890
:1012B0000C0001A90F4800F035FE01210D4800F097
:1012C000D3FC012211460B4800F003FD1E208DF8CF
:1012D000000001208DF8030002208DF801008DF838
:1012E0000200684600F07AF80021024800F0C2FCD3
:1012F0001FBD00000008004008B510208DF8030055
:101300002020ADF8000003208DF802006946034854
:10131000FFF778F900F004F808BD0000000C014068
:1013200010B5012220210248FFF701FA10BD00008C
:10133000000C014038B504466846FFF7F0F9182064
:101340008DF803004FF48060ADF8000003208DF8A5
:10135000020069460F48FFF755F90F4800F0D7FD26
:1013600000200D498881602008800020C8814881C4
:10137000888001204880601EC880084800F06EFD0B
:101380000121064800F082FC0821044800F0B6FD67
:1013900038BD000000080140C8010020002C0140B9
:1013A00008B56846FFF7BBF900208DF8030002205E
:1013B000ADF8000003208DF8020069460448FFF7ED
:1013C00021F90523012211460248FEF78DFF08BDD1
:1013D00000080140002401407047000070B5002162
:1013E00000230F22C47804B3154C246804F4E0648D
:1013F000C4F5E064210AC1F10403CA40447804FA48
:1014000003F184781440214309010E4C0678A1555C
:10141000047804F01F050124AC4005786D11AD007F
:1014200005F1E025C5F8004109E0047804F01F0546
:101430000124AC40044D0678761145F8264070BD75
:101440000CED00E000E400E080E100E0024901432F
:10145000024A1160704700000000FA050CED00E040
:1014600070B500240EE00021204600F0F0F80025C1
:1014700004E0002000F068F9681CC5B2802DF8DB9C
:10148000601CC4B2082CEEDB70BD000008B5012161
:10149000102000F097F914208DF8030003208DF838
:1014A00002004FF48040ADF8000069460A48FFF79B
:1014B000A9F84FF40040ADF8000069460648FFF770
:1014C000A1F8012291030448FFF731F90122D10369
:1014D0000148FFF72CF908BD0010014070B5054622
:1014E000002415E08020204100EA05024FF400416D
:1014F0000E48FFF71CF9012291030C48FFF717F97A
:1015000000224FF480410948FFF711F9601CC4B272
:10151000082CE7DB012291030448FFF708F90022B9
:101520004FF480410148FFF702F970BD00100140FF
:1015300010B50122D1030A48FFF7F9F801229103FF
:101540000748FFF7F4F800224FF400410448FFF782
:10155000EEF800224FF480410148FFF7E8F810BD93
:101560000010014010B500224FF400410648FFF77B
:10157000DEF8012291030448FFF7D9F80122D103D4
:101580000148FFF7D4F810BD0010014070B50024E9
:1015900006E0002500E06D1CB5F57A7FFBD3641CE6
:1015A000B4F57A7FF5D3FFF771FFAE2000F0BCF8F9
:1015B000D52000F0B9F8802000F0B6F8A82000F09F
:1015C000B3F83F2000F0B0F8D32000F0ADF80020D1
:1015D00000F0AAF8402000F0A7F8A12000F0A4F83D
:1015E000C82000F0A1F8DA2000F09EF8122000F0E8
:1015F0009BF8812000F098F8CF2000F095F8D920D2
:1016000000F092F8F12000F08FF8DB2000F08CF869
:10161000302000F089F8A42000F086F8A62000F021
:1016200083F88D2000F080F8142000F07DF8AF20C2
:1016300000F07AF8FFF714FF70BD10B502460120E4
:1016400000E050430B1EA1F10101FAD110BD70B5AD
:1016500005460C4645F0B00000F066F8102141EA5E
:10166000141000F061F804F00F0000F05DF870BD98
:101670002DE9F04105460E461746721ED206110EA0
:101680006A1E5206100EFFF7E2FF002409E0A7F1E0
:101690002001134A02EB0111085D00F055F8601CAF
:1016A000C4B2082CF3DB721ED206110E6A1E01238F
:1016B00003EB4202D0B2FFF7CAFF00240BE0A7F110
:1016C0002001074A02EB011204F10801505C00F00E
:1016D0003BF8601CC4B2082CF1DBBDE8F0810000CF
:1016E000402600082DE9F04780460E4617461D4665
:1016F000002415E0281B411E0A20FFF79EFFB7FBC0
:10170000F0F00A21B0FBF1F201FB120000F1300908
:101710003019C1B24A464046FFF7AAFF601CC4B266
:10172000AC42E7DBBDE8F08710B50446FFF700FFE9
:101730007820FFF7D3FE0020FFF7D0FE2046FFF70A
:10174000CDFEFFF70FFF10BD10B50446FFF7F0FE0A
:101750007820FFF7C3FE4020FFF7C0FE2046FFF7CA
:10176000BDFEFFF7FFFE10BD7047000001460020E0
:10177000034A506820F4404008435060704700001E
:101780000010024029B1064A52690243044B5A61D3
:1017900004E0034A52698243014B5A6170470000DA
:1017A0000010024029B1064AD2690243044BDA61B3
:1017B00004E0034AD2698243014BDA6170470000BA
:1017C0000010024029B1064A92690243044B9A6113
:1017D00004E0034A92698243014B9A61704700001A
:1017E0000010024030B500210022002400232D4DBE
:1017F0006D6805F00C0121B1042905D0082923D119
:1018000005E0294D056022E0274D05601FE0254DCC
:101810006D6805F47012234D6D6805F4803402255F
:1018200005EB92421CB9214D554305600BE01D4D5F
:101830006D6805F400351DB11C4D5543056002E08F
:10184000194D5543056002E0174D056000BF00BF0C
:10185000144D6D6805F0F0010909154D6B5C0568C4
:10186000DD4045600F4D6D6805F4E061090A104DDB
:101870006B5C4568DD4085600A4D6D6805F460511C
:10188000C90A0B4D6B5C4568DD40C560054D6D6850
:1018900005F44041890B074D6B5CC568B5FBF3F55A
:1018A000056130BD0010024000127A0000093D00C1
:1018B0000000002010000020704700002DE9F047D4
:1018C00081460F4615461C46DDE9088A484600F069
:1018D000ADFC0646287820B101280FD0022829D176
:1018E0001CE01648C05D40B901202870002020701F
:1018F0002278501C207008F802601CE00D2E02D1E6
:101900000220287009E02178AAF10100814204DA5E
:101910002278501C207008F802600CE00A2E08D1D2
:1019200000202870217808F8010020700120034968
:10193000C85500E000BF00BFBDE8F08732000020BE
:101940002DE9FF4F83B004468A46934635488442CA
:101950000FD1354D2F4606154FF4006801210820A0
:10196000FFF730FF01218804FFF71CFF4FF0270924
:1019700011E02E4884420ED12D4D2F4604264FF003
:10198000080801210420FFF71DFF01214804FFF78B
:1019900009FF4FF0260901A8FEF7C1FE18208DF8B7
:1019A0000700ADF8046003208DF8060001A9284661
:1019B000FEF728FE48208DF80700ADF804800320CC
:1019C0008DF8060001A93846FEF71CFE194800F004
:1019D00036FC1848C0F800A00020164988810C2069
:1019E000488100200881C8808880204600F0B2FB32
:1019F000012240F22551204600F086FB8DF8089028
:101A000001208DF80B008DF809B006988DF80A00BA
:101A100002A8FFF7E3FC0121204600F032FB07B0EB
:101A2000BDE8F08F00480040000C01400044004039
:101A300000080140A800002070B504460D4600BF14
:101A40008021204600F029FB0028F9D029462046B5
:101A500000F0F1FB70BD70B505460C4604E014F8CB
:101A6000011B2846FFF7E8FF20780028F7D170BD5A
:101A700010B500F001F810BD0CB5002001900090E9
:101A80003348006840F480303149086000BF304876
:101A9000006800F4003000900198401C019000980C
:101AA00018B90198B0F5A06FF1D12948006800F489
:101AB000003010B10120009001E00020009000985B
:101AC000012843D12348006840F0100021490860F4
:101AD0000846006820F0030008600846006840F0EF
:101AE000020008601A484068194948600846406882
:101AF00048600846406840F4806048600846406896
:101B000020F47C1048600846406840F4E8104860C3
:101B10000846006840F08070086000BF0C4800680C
:101B200000F000700028F9D00948406820F0030058
:101B3000074948600846406840F00200486000BF1E
:101B40000348406800F00C000828F9D10CBD0000E3
:101B500000100240002002407047000010B51348FA
:101B6000006840F0010011490860084640681049CB
:101B700008400E494860084600680E4908400B4975
:101B800008600846006820F4802008600846406825
:101B900020F4FE0048604FF41F008860FFF768FFE4
:101BA0004FF000600449086010BD000000100240C2
:101BB0000000FFF8FFFFF6FE08ED00E010B5012180
:101BC000074800F075F8012808D10121044800F009
:101BD0004EF804480068401C0249086010BD00002F
:101BE000002C01401400002010B50121880700F0EE
:101BF0005FF8012807D10121800700F038F8FFF7CE
:101C000085F9FFF791F810BD10B50121084800F0E3
:101C10004FF801280AD10121054800F028F8642076
:101C2000FFF7E4FAFEF7D0FEFEF756FF10BD000006
:101C30000004004010B50121044800F039F80128E3
:101C400003D10121014800F012F810BD0008004046
:101C500021B1028842F08002028004E002884FF63F
:101C60007F731A4002807047CA4302827047CA439A
:101C70000282704721B1028842F00102028004E032
:101C800002884FF6FE731A400280704731B1B0F8F7
:101C9000442042F40042A0F8442005E0B0F844207B
:101CA000C2F30E02A0F8442070470146888C7047AA
:101CB00030B50246002000230024158A05EA0103FE
:101CC000958905EA010413B10CB1012000E0002060
:101CD00030BD1AB183890B43838102E083898B4332
:101CE0008381704701894FF6F87211400181704776
:101CF00070B5002400220023058C4FF6FE76354097
:101D00000584028C8388048B4FF68F752C40B51E9A
:101D10002C400D882C43751E2A400D892A434D887E
:101D20002A43144DA8420BD0134DA84208D0134D9E
:101D3000A84205D0124DA84202D0124DA84213D19C
:101D40004FF6F7752A404D892A434FF6FB752A4016
:101D50008D882A434FF6FF652B404FF6FF552B40E9
:101D60008D892B43CD892B4383800483CD88858641
:101D7000028470BD002C014000340140004001404D
:101D800000440140004801400A460021018B4FF603
:101D9000F7731940114301837047000070B50024A8
:101DA00000220023058C4FF6EF7635400584028C27
:101DB0008388048B48F6FF752C404FF6FF452C4076
:101DC0000D884FF6FF7606EA05252C434FF6DF75A2
:101DD0002A400D8906EA05152A434D8806EA0515AD
:101DE0002A43154DA84202D0144DA8421DD14FF6EA
:101DF0007F752A404D894FF6FF7606EA05152A437E
:101E00004FF6BF752A408D8806EA05152A434FF61E
:101E1000FF352B404FF2FF752B408D8906EA850573
:101E20002B43CD8906EA85052B4383800483CD8827
:101E30000587028470BD0000002C01400034014081
:101E40000A460021018B4FF2FF7319404FF6FF73D2
:101E500003EA0223194301837047000070B5002490
:101E600000220023058C4FF6FF6635400584028C66
:101E70008388848B4FF68F752C404FF6FC752C4071
:101E80000D882C434FF6FF552A400D894FF6FF76FB
:101E900006EA05252A434D8806EA05252A43154DFD
:101EA000A84202D0144DA8421DD14FF2FF752A401E
:101EB0004D894FF6FF7606EA05252A434FF6FF3592
:101EC0002A408D8806EA05252A434EF6FF752B40E9
:101ED0004DF6FF752B408D8906EA05152B43CD89FC
:101EE00006EA05152B4383808483CD888587028489
:101EF00070BD0000002C0140003401400A46002162
:101F0000818B4FF6F773194011438183704700218D
:101F1000018041808180C180018141818181C181B5
:101F200070470000002202881D4B98420ED01D4BC6
:101F300098420BD0B0F1804F08D01B4B984205D08F
:101F40001A4B984202D01A4B984204D14FF68F7325
:101F50001A404B881A43174B984207D0164B9842A9
:101F600004D04FF6FF431A40CB881A4302808B8877
:101F700083850B8803850A4B98420BD0094B984206
:101F800008D00E4B984205D00D4B984202D00D4B15
:101F9000984201D10B7A03860123838270470000A7
:101FA000002C0140003401400004004000080040C3
:101FB000000C0040001000400014004000400140B0
:101FC00000440140004801404FF6FF71818000212C
:101FD0000180C18041800172704700001CB540F251
:101FE00025510B4800F066F801280AD164240948FD
:101FF000094B0A4A0221CDE900040548FFF75EFCBF
:1020000000BF40F22551024800F02CF81CBD000032
:10201000004400401C01002039000020380000204E
:102020001CB540F225510B4800F044F801280AD1B4
:1020300064240948094B0A4A0321CDE900040548F4
:10204000FFF73CFC00BF40F22551024800F00AF8BF
:102050001CBD000000480040B800002037000020F0
:102060003600002010B50022002340F66A14A14279
:1020700000D100BF0A1201249440A3B2DC430480C3
:1020800010BD21B1828942F40052828104E082892C
:102090004DF6FF731A408281704702460020B1F569
:1020A000007F00D100BF13880B400BB1012000E07E
:1020B0000020704770B50246002400230025002050
:1020C00040F66A16B14200D100BFC1F3421501F0DB
:1020D0001F03012606FA03F3012D02D1968933402E
:1020E00006E0022D02D1168A334001E0968A334081
:1020F0000C12012606FA04F41688344013B10CB110
:10210000012000E0002070BDF0B503460024002649
:102110000025002040F66A17B94200D100BF1846DA
:10212000C1F3421401F01F06012707FA06F5012C3E
:1021300001D10C3004E0022C01D1103000E0143049
:102140001AB107682F43076002E00768AF430760D2
:10215000F0BD00002DE9F04786B005460E4600248C
:10216000A24600BFA1460027B08900B100BF2F469C
:102170002C8A4CF6FF700440F08804432C82AC8912
:102180004EF6F3100440B088318908437189084342
:102190000443AC81AC8A4FF6FF400440B08904434D
:1021A000AC8201A8FFF71EFB1F48874202D1DDF871
:1021B00010A001E0DDF80CA0A88900F4004040B1B7
:1021C0000AEBCA0000EB0A1031684900B0FBF1F8D5
:1021D00007E00AEBCA0000EB0A1031688900B0FB87
:1021E000F1F86420B8FBF0F004012009642101FB40
:1021F0001089A88900F4004040B1322000EBC900EA
:10220000B0FBF1F000F00700044308E0322000EBDF
:1022100009106421B0FBF1F000F00F0004432C81A1
:1022200006B0BDE8F087000000380140014688880C
:10223000C0F308007047C1F30802828070474FF472
:102240001651016000218180C18001810C214181F2
:1022500000218181704700BFFEE700004FF47A70D3
:10226000FEF7F6F801214804FFF79CFA01218804E3
:10227000FFF798FA0121C802FFF7A4FA01210846E6
:10228000FFF790FA01210220FFF78CFA01210420C8
:10229000FFF788FA01210420FFF794FA01210820B2
:1022A000FFF790FA01211020FFF78CFA0121084670
:1022B000FFF788FA01214802FFF784FA0121084656
:1022C000FFF760FA4FF4A060FFF7C0F8FFF714F8CB
:1022D000FFF75CF9FFF7C4F8012302224FF4E13164
:1022E0002E48FFF72DFB2EA12C48FFF7B4FB02234D
:1022F0001A464FF4E1312C48FFF722FB2BA12A4864
:10230000FFF7A9FBFEF7FAFEFEF736FFFEF782FFA6
:10231000FEF7B8FF44F62060FEF7B6FA40F2DC5054
:10232000FEF79AFE0020FFF705F8FEF73FFEFEF7E6
:10233000A9FDFEF799FBFEF737FDFFF731F8FEF731
:10234000C1FEFEF74DFE0420FEF7FAF9FEF764FE2B
:10235000FEF75AFAFEF778FA1EE0184802880423BE
:1023600001210846FFF7BEF91448428804230121E1
:102370000220FFF7B7F911488288042301210320C6
:10238000FFF7B0F90D48C288042301211846FFF772
:10239000A9F96420FEF75CF8DFE700000048004080
:1023A00041540D0A0000000000440040536572696A
:1023B000616C325F4F6E0D0A000000002A000020A1
:1023C0004FF47F0C1CEAD0121EBF1CEAD11392EA14
:1023D0000C0F93EA0C0F00F0858090EA010F48BFC4
:1023E00042F4807240F4000C41F400002CF07F4174
:1023F00020F07F4000B58142A2EB03020FF2081CDF
:10240000ACEB504EC0F100009EF800E04FEA4E0EDB
:1024100000FB0EFC38BF49004FEA2C1C02F5FA0203
:102420000CFB0EF34FEACE1E4FEA112C4FEAC121EE
:102430000EEB635E42EB22420EFB0CFC4FEA1C5398
:1024400000FB03114FEA112C4FEA01310EFB0CFC8B
:102450004FEADC4C00FB0C11C14228BF09184CEBC1
:1024600003335DF804EB10EB410143EBC250B2F5CE
:102470007C0F38BF704729D512F0F00F1CBF00F158
:10248000C04000F0004070470081828384858687C9
:1024900088898B8C8D8E8F919293959697999A9C23
:1024A0009D9FA0A2A3A5A7A8AAACAEB0B2B3B5B792
:1024B000B9BCBEC0C2C5C7C9CCCED1D4D7D9DCDF68
:1024C000E2E6E9ECF0F3F7FAFE0000004FEA400C18
:1024D0000CF1807CBCF17E4F28BF7047B0F1C0404A
:1024E00000F0A9B890EA010F0CEAD11348BF42F4FA
:1024F0008072624538BF634507D213F47F0F16D050
:1025000080EA010000F00040704710B500F04DF87F
:10251000097EFC3E00F005B880EA010000F00040B2
:10252000704780EA010000F0004000F084B812F427
:102530007F0F04BF0248704780EA010000F07BB8BB
:102540000000C07FC10DD1F19E0206DB4FEA0023DF
:1025500043F0004323FA02F07047004207D54FEAE8
:102560004001B1F1FE4F02D24FF00000704710B5AC
:1025700000F01BF849922480002070476FEA200089
:1025800070470000B0FA80F310FA03F2C3F19D0324
:102590000AD0D90501EB1220530638BF704700F16D
:1025A000010008BF20F0010070470EF1020E2EF06E
:1025B000030E5EF8044B244204D44FEA4102B2F108
:1025C0007F4F11D84FEA4003B3F17F4F0CD80ED1A3
:1025D0004FEAD07CB2F17F4F0CEB4C0C0CF1020CAB
:1025E00008BF4CEBD17C04E04FF0080C01E04FEA4F
:1025F000D17C0CEB4C0324FA03F404F00704B4F18F
:10260000040C06D20EEB840CBDE810404CF0010C1B
:102610006047DFE80CF0070802024FF00040A0F529
:10262000800010BD0846420018BFD2F1807288BFFA
:1026300000F0004010BDFF2141EAD050C0057047B6
:10264000000000000000000000000000000000008A
:10265000000000F80000000000000033300000001F
:1026600000100C06100C0600000000000000000026
:1026700040C07840C0784000043F04043F04040098
:10268000007088FC08300000001820FF211E0000A8
:10269000F008F000E018000000211C031E211E00BD
:1026A00000F00888700000001E2123241927211043
:1026B00010160E00000000000000000000000000E6
:1026C000000000E01804020000000007182040008D
:1026D00000020418E000000000402018070000007D
:1026E000404080F0804040000202010F01020200E1
:1026F000000000F0000000000101011F01010100C5
:10270000000000000000000080B070000000000029
:1027100000000000000000000001010101010101B2
:102720000000000000000000003030000000000049
:10273000000000008060180400601806010000001E
:1027400000E010080810E000000F102020100F001B
:10275000001010F8000000000020203F20200000A2
:1027600000700808088870000030282422213000FA
:1027700000300888884830000018202020110E0002
:102780000000C02010F8000000070424243F2400AB
:1027900000F80888880808000019212020110E0080
:1027A00000E0108888180000000F112020110E0092
:1027B00000380808C83808000000003F000000008A
:1027C0000070880808887000001C222121221C004B
:1027D00000E010080810E0000000312222110F0074
:1027E000000000C0C0000000000000303000000009
:1027F0000000008000000000000080600000000079
:102800000000804020100800000102040810200091
:1028100040404040404040000404040404040400DC
:102820000008102040800000002010080402010071
:10283000007048080808F000000000303601000071
:10284000C030C828E810E0000718272423140B0024
:102850000000C038E0000000203C2302022738209E
:1028600008F8888888700000203F202020110E0082
:10287000C030080808083800071820202010080079
:1028800008F808080810E000203F202020100F0062
:1028900008F88888E8081000203F2020232018002E
:1028A00008F88888E8081000203F20000300000096
:1028B000C03008080838000007182020221E020037
:1028C00008F808000008F808203F210101213F20F6
:1028D000000808F8080800000020203F2020000021
:1028E00000000808F8080800C08080807F00000011
:1028F00008F888C028180800203F2001263820004A
:1029000008F8080000000000203F202020203000B0
:1029100008F8F800F8F80800203F003F003F2000CA
:1029200008F830C00008F808203F200007183F00D2
:10293000E01008080810E0000F10202020100F0001
:1029400008F808080808F000203F210101010000F4
:10295000E01008080810E0000F18242438504F0039
:1029600008F8888888887000203F2000030C3020F9
:1029700000708808080838000038202121221C0037
:10298000180808F8080818000000203F2000000080
:1029900008F808000008F808001F202020201F0069
:1029A0000878880000C83808000007380E010000C9
:1029B000F80800F80008F800033C0700073C030093
:1029C000081868808068180820302C03032C3020F9
:1029D0000838C800C83808000000203F2000000068
:1029E00010080808C83808002038262120201800C0
:1029F000000000FE020202000000007F4040400094
:102A0000000C30C000000000000000010638C000CB
:102A100000020202FE000000004040407F00000073
:102A20000000040202020400000000000000000098
:102A30000000000000000000808080808080808096
:102A4000000202040000000000000000000000007E
:102A500000008080808000000019242222223F2074
:102A600008F8008080000000003F112020110E00B7
:102A70000000008080800000000E11202020110046
:102A8000000000808088F800000E112020103F20F8
:102A90000000808080800000001F2222222213007C
:102AA000008080F0888888180020203F20200000C7
:102AB0000000808080808000006B9494949360007C
:102AC00008F8008080800000203F210000203F2087
:102AD00000809898000000000020203F2020000087
:102AE000000000809898000000C08080807F000077
:102AF00008F8000080808000203F24022D30200054
:102B0000000808F8000000000020203F20200000FE
:102B10008080808080808000203F20003F20003F18
:102B20008080008080800000203F210000203F2026
:102B30000000808080800000001F202020201F00D7
:102B4000808000808000000080FFA12020110E0006
:102B50000000008080808000000E112020A0FF80F7
:102B6000808080008080800020203F2120000100A4
:102B700000008080808080000033242424241900F9
:102B8000008080E0808000000000001F2020000006
:102B90008080000000808000001F202020103F2047
:102BA000808080000080808000010E3008060100D7
:102BB00080800080008080800F300C030C300F007C
:102BC00000808000808080000020312E0E312000A7
:102BD000808080000080808080818E7018060100D7
:102BE00000808080808080000021302C22213000F5
:102BF00000000000807C020200000000003F404016
:102C000000000000FF00000000000000FF000000C6
:102C10000002027C800000000040403F00000000F5
:102C20000006010102020404000000000000000090
:102C3000502C000800000020A80000002801000817
:102C4000F82C0008A80000209007000044010008AC
:102C50000000000001020304010203040607080942
:102C60000204060800000000000000000000000050
:102C70000000000000000000000000000000000054
:102C80000000000000000000000000000000000044
:102C90000000000000000000000000000000000034
:102CA0000000000000000000000000000000000024
:102CB00000000000000000000000000000004600CE
:102CC0000000000000000000000000000000000004
:102CD00000000000000000000000000000000000F4
:102CE00000000000000000000000000000000000E4
:082CF0000000000000000000DC
:04000005080000ED02
:00000001FF
