:020000040800F2
:10000000601800207D020008594000080F2E0008EB
:10001000132E0008BD280008395700080000000012
:10002000000000000000000000000000AD440008D7
:10003000312B0008000000001D430008954A00080D
:10004000970200089702000897020008970200082C
:10005000970200089702000897020008970200081C
:100060009702000897020008932B000897020008E7
:10007000C1280008970200089702000897020008AC
:1000800097020008E5280008970200089702000878
:1000900097020008970200089702000897020008DC
:1000A00097020008F94A0008970200089702000822
:1000B000154B0008394B0008914B000897020008C7
:1000C00097020008970200089702000897020008AC
:1000D0009702000897020008E14F00085D500008F1
:1000E000792B0008970200089702000800F002F838
:1000F00000F0B4F80AA090E8000C82448344AAF10E
:100100000107DA4501D100F0A9F8AFF2090EBAE80B
:100110000F0013F0010F18BFFB1A43F0010318473B
:10012000C05E0000E05E000010F8013B0A4413F0DE
:10013000030408BF10F8014B1D1108BF10F8015B44
:10014000641E05D010F8016B641E01F8016BF9D133
:10015000002D15D010F8014B03F00C030C2BA1EB74
:1001600004040ABF10F8013BA4EB8314A4EB03249E
:1001700005F1010314F8016B5B1E01F8016BF9D561
:10018000914238BF10F8013BD1D3704700230024BF
:1001900000250026103A28BF78C1FBD8520728BF97
:1001A00030C148BF0B6070476E2900F0278370296B
:1001B00000F08784662905F02F85652905F02C85D8
:1001C000672905F02985612905F0288503681B0A40
:1001D00028BF41F08001692900F0D280642900F035
:1001E000CF80752900F0CC806F2900F01484782925
:1001F00000F05384E92900F0AF83E42900F0AC83D8
:10020000F52900F0A983EF2900F01184F82900F006
:1002100052840368DB0928BF41F08001632900F0A4
:100220003083732900F03583E32901F0CF80F3296F
:1002300001F0D480002070471FB501F067F9040079
:100240000020002105F060FB401C606000200021C0
:1002500005F070FBE0601FBD10B510BD01F031F975
:100260001146FFF7E9FF05F085FA01F013FA03B430
:10027000FFF7F2FF03BC01F057FA0000094880477E
:1002800009480047FEE7FEE7FEE7FEE7FEE7FEE778
:10029000FEE7FEE7FEE7FEE704480549054A064B90
:1002A00070470000994A0008ED0000086012002025
:1002B0006018002060140020601400200FB47CB58A
:1002C0000C0009AA009001D02044401E084B7B443A
:1002D00069460190089800F0AAFA05461CB1002072
:1002E000694600F0B7FA28467CBC5DF814FB0000B4
:1002F0008D0500000FB47CB50C0009AA009001D058
:100300002044401E084B7B4469460190089800F049
:100310008EFA05461CB10020694600F09BFA28467B
:100320007CBC5DF814FB00005505000070B50C4660
:100330000546012A05D02878800600D5EA69002301
:1003400002E0012305E05B1C934202D2E05C00283E
:10035000F9D1A869E618C01AA861286A1844286269
:10036000284600F0B9F904E0D5E9012114F8010BA1
:100370009047B442F8D3284600F0C4F970BD00009D
:100380002DE9F0410646002410687529314616A56E
:1003900010D000F0C8F9002802DA404213A507E0A7
:1003A00031688A0701D512A502E0490704D511A5D5
:1003B000012401E000F0C0F900210A2206F124071F
:1003C00009E0B0FBF2FCB0FBF2F302FB1C003030A2
:1003D00078541846491C0028F3D123462A46304653
:1003E000BDE8F04100F0B1B9000000002D000000B0
:1003F0002B000000200000002DE9F05F8946044634
:100400004FF0000ADFF874B1FB44C0F820A020468A
:10041000E1688847002874D0252806D0D4E9012156
:100420009047206A401C2062F1E700265F46204684
:10043000E16888472028054607DB312D05D2781969
:1004400010F8200C08B10643F1E7B00701D526F0FB
:100450000406C4F81CA00027C4F818A02A2D09D04F
:10046000284605F07FF938B304EB8708303DC8F81B
:10047000185019E059F8041B204604EB87029161DB
:10048000E1688847012F054618D1E069002820DA85
:1004900026F020061DE0D8F8180000EB800005EBE0
:1004A00040003038C8F818002046E1688847054603
:1004B00005F058F90028EED1012F0AD02E2D08D1D1
:1004C0002046E16888477F1C0546022F46F020063B
:1004D000C4DBA069002803DA404246F00106A061AF
:1004E000F00701D026F010066C2D0BD0682D09D036
:1004F0004C2D39D06A2D35D0742D35D07A2D33D08E
:1005000016E038E0E1682F4620468847B8420546A5
:1005100009D16C2F26D04FF48060E1680643204655
:100520008847054604E06C2F1AD04FF480700643CC
:100530000DB3A5F14100192802D8203546F4006614
:100540004A462946204626604E46FFF72DFE80B1DA
:1005500001280BD0F61D26F0070000F1080956E728
:100560004020E4E78020D8E70020D6E706F1040920
:100570004DE7284652E7206ABDE8F09F1E5900006B
:1005800070B5064600F0A4F80468054630460A2215
:10059000002100F0A1FA2C6070BD30B505460B4675
:1005A0002A4613F8014B12F8010B08B1A042F8D00B
:1005B0001CB1002802D06D1CF1E7284630BD10B5F3
:1005C000431C02E010F8011B71B18107FAD14FF012
:1005D000013202C88C1A8C4314EAC211F9D0C01A35
:1005E0000A0603D0C01E10BDC01A10BD0A0401D0F7
:1005F000801E10BD0902FCD0401E10BD032A40F22F
:10060000308010F0030C00F0158011F8013BBCF1B4
:10061000020F624498BF11F801CB00F8013B38BFCC
:1006200011F8013BA2F1040298BF00F801CB38BFDA
:1006300000F8013B11F0030300F08682083AC0F095
:10064000088051F8043B083A51F804CBA0E80810A0
:10065000F5E7121D5CBF51F8043B40F8043BAFF3D3
:100660000080D20724BF11F8013B11F801CB48BF2D
:1006700011F8012B24BF00F8013B00F801CB48BF63
:1006800000F8012B70474FF000020429C0F01280DF
:1006900010F0030C00F08C82CCF1040CBCF1020FC2
:1006A00018BF00F8012BA8BF20F8022BA1EB0C010A
:1006B00000F07EBA5FEAC17C24BF00F8012B00F88D
:1006C000012B48BF00F8012B7047704770477047F7
:1006D000004870470012002070B504468569006824
:1006E000C10601D5302600E02026C00707D070BD26
:1006F000D4E9012130469047206A401C20626D1EDB
:10070000F6D570BD70B5044685690078C00707D17D
:1007100070BDD4E9012120209047206A401C20624E
:100720006D1EF6D570BD09684A0501D540B2704707
:10073000C905FCD500B2704709684A0501D5C0B2A9
:100740007047C905FCD580B270472DE9F0470D46CA
:1007500099469246044600F124080168880604D5AB
:10076000E06921F01001216000E00120A84201DDD4
:10077000471B00E00027A1697A1902EB0900081A5B
:10078000A0612078C00602D42046FFF7A5FF00260E
:1007900008E0D4E901211AF806009047206A401CBD
:1007A000761C20624E45F4DB2078C0060AD5204630
:1007B000FFF792FF06E0D4E9012130209047206A3C
:1007C000401C2062381EA7F10107F4DC07E0D4E9E1
:1007D000012118F805009047206A401C2062281E5D
:1007E000A5F10105F3DC2046FFF78CFF2078000619
:1007F00002D50220BDE8F0870120FBE711680268FE
:10080000006A530501D508700AE0D30501D50880B8
:1008100006E0130603D5C217C1E9000200E0086034
:100820000120704701694A1C02610878704700B5D1
:100830008FB0CDE901310021059105497944CDE919
:10084000031011466846FFF7D7FD0FB000BD00004A
:10085000E5FFFFFF0A6802F8010B0A607047D1E963
:1008600000239A4202D2531C0B601070704710B5DF
:10087000436913B1AFF3008001E0FFF757FD01209A
:1008800010BD127800F124010A7000224A70012282
:10089000EDE711684FF0FF32E9E700002DE9FF5F57
:1008A00015468A460446DFF8AC80F8440027D8E9AC
:1008B00000103E46CDE9001010E03AF816106A46E6
:1008C00002A800F0DEFD411C07D02178890603D57F
:1008D000E269391891420DD80744761C20788006C9
:1008E00002D5E069B84205DDAE42E6DB3AF8160013
:1008F0000028E2D1A069C01BA0612046FFF7ECFEF2
:10090000D8E90010CDE90010002017E03AF81810DF
:100910006A4602A800F0B5FDB0F1FF3F81460BD05A
:1009200000250DF1080B05E0D4E901211BF80500B5
:1009300090476D1C4D45F7D308F10100B042804649
:10094000E4DB206A384420622046FFF7DBFEBDE886
:10095000FF9F00008E5400002DE9F0418046D21D1B
:1009600022F007020025D2E90002F52915A614D0CD
:10097000011E72F1000106DA0023D0EB030063EBE5
:10098000020211A608E0D8F800108B0701D50FA6C7
:1009900002E0490701D50EA601251146002408F101
:1009A000240704E000F036F930323A55641C50EA6E
:1009B0000102F7D12B46324621464046BDE8F041C0
:1009C000FFF7C3BE000000002D0000002B00000058
:1009D0002000000030B4002100F1240408E002F0FF
:1009E0000705D208303542EA4372DB086554491CDA
:1009F00052EA0305F3D10468002310A2250707D5A6
:100A0000A40600D421B1C46901230DA2641EC461EF
:100A100030BCFFF79ABE10B5044621461068FFF7B8
:100A20008BFE02462046BDE810400023D2E7D21DCF
:100A300022F00701D1E90023CCE70000000000000C
:100A400030000000F0B40D460188090502D5214CA4
:100A50007C4402E01F4C7C440E34002100F124064B
:100A600008E002F00F071209E75D42EA03721B0972
:100A70007754491C52EA0307F3D102780023120786
:100A800004D5702D06D009B1022311342246F0BCE2
:100A9000FFF75BBE01231034F8E770B504460D463E
:100AA00021461068FFF748FE024629462046BDE869
:100AB00070400023C6E7D21D22F00703D3E90023CC
:100AC000C0E70368126843F0200303600823C36192
:100AD0000023B7E7F05200002DE9F04791460F469A
:100AE00080460446002614F8015B2DB100F08AF818
:100AF0000068405DC007F6D12B2D02D02D2D18D0F7
:100B0000641E4A463946204600F06CFC27B139681D
:100B1000A14201D1C7F800804FF0020471050BD546
:100B20004042002803DDFFF7D3FD0460A007BDE8C5
:100B3000F08746F48066E4E70028F8DAFFF7C8FD9E
:100B400004606FF00040F2E710B5203AC0F00B806F
:100B5000B1E81850203AA0E81850B1E81850A0E8C1
:100B60001850BFF4F5AF5FEA027C24BFB1E818501B
:100B7000A0E8185044BF18C918C0BDE810405FEA8B
:100B8000827C24BF51F8043B40F8043B08BF704707
:100B9000D20728BF31F8023B48BF11F8012B28BF0C
:100BA00020F8023B48BF00F8012B70474FF00002CD
:100BB00000B5134694469646203922BFA0E80C5053
:100BC000A0E80C50B1F12001BFF4F7AF090728BF2E
:100BD000A0E80C5048BF0CC05DF804EB890028BFAA
:100BE00040F8042B08BF704748BF20F8022B11F0D3
:100BF000804F18BF00F8012B704700000048704775
:100C00000012002010B500F081FC001D10BD00BFD7
:100C1000F94C000030B5B0F10A024FEA900E71F1C4
:100C200000034EEA817EB0EB0E0061EB91014FEACA
:100C3000101E4EEA017E10EB0E0041EB11114FEA3F
:100C4000102E4EEA016E10EB0E0041EB11214FEA1F
:100C5000104E4EEA014E10EB0E0041EB11414018D0
:100C600041F100014FEAD00040EA41704FEAD10162
:100C700010EB80054FEA810444EA907444EB0104D0
:100C80006D1944EB0404521BA3414FF0000348BF0D
:100C90000A3200D530BD401C41F1000130BD704723
:100CA0002DE9FF4F0C461E464FF0FF378BB0D2E9BF
:100CB0000001DDF860800A908A46C1F30A5505B943
:100CC0003D46002108464FF00000BAF1000F00F445
:100CD000400005DA00EB80004FF4400101EA5000CB
:100CE0004FEA9059B9F1010F00DDB9460A9850EA70
:100CF0004A000ED044F61050A5F2FF3545432F149C
:100D0000B8F1000F1ED07542291E1EDDC9F1000288
:100D10001CE0B8F1010F4FF0000001D0302103E0DA
:100D2000F24305E02154401CB042FBDB3046002278
:100D3000002121540B99C1F80880C1E900200FB0AF
:100D4000BDE8F08FBD1B6D1CDEE74A4600DA694244
:100D500006A800F02DFC06AB93E8070003AB83E880
:100D6000070050460A9900F0E6FC8DE80700A0F560
:100D700000501F3800900398002D0ADD42F21F0139
:100D80004A460844002303A90390684600F04FFF39
:100D900009E0A0F500504A461F38002303A903903C
:100DA000684600F059FF8DE807000004000C03D0EE
:100DB0004FF0FF30410800E01046B8F1000F03D0BB
:100DC0000022009215461EE0751E05D4FFF722FF93
:100DD000303262556D1EF9D5B3460122084302D068
:100DE00000227F1C04E02078302801D100227F1EE1
:100DF000002A099784D01DE0112D07DAFFF70AFFBA
:100E0000303262556D1C50EA0102F5D1084302D020
:100E10000098C8B10EE00021681E05E0235C625C0A
:100E200063542254401E491C8142F7DBAB46A81B89
:100E3000401E0990002004F80B000B98099AC0F896
:100E40000880C0E9002B7AE711264FF0000857E729
:100E50002DE9F04F88460446D21D22F0070191B0DB
:100E6000D1E90001CDE90A0104F068FC02460B98C3
:100E7000C00F01D02D2007E02068810701D52B206D
:100E800002E0202101EAC000032A099001D0072ACC
:100E900005DB03464146204600F03CFB0BE1207891
:100EA000800601D5E06900E00620B8F1650F8146B3
:100EB00006D0B8F1660F18D0B8F1670F70D131E0E5
:100EC0000020B9F1110F009001DB112301E009F1BD
:100ED00001030AAA01A90CA8FFF7E2FEDDE90C70E4
:100EE000002609F10105834647E001204B460090AA
:100EF0004FF000470AAA01A90CA8FFF7D1FEDDE9CF
:100F00000DB00C995D46002610B909F101000D18CD
:100F1000B9EB050003D4C0F1FF3609F10105A5EBDB
:100F200009002BE0B9F1010F01DA4FF001090020AF
:100F3000B9F1110F0090484601DD112300E003468E
:100F40000AAA01A90CA8FFF7ABFEDDE90C704D461B
:100F500000268346207800070AD4AB4500DA5D46B8
:100F600001A8012D04DD411911F8011C302907D019
:100F70004F4502DA17F1040F04DA012082460FE030
:100F80006D1EEEE7002F02DCED1B3E4403E0781CF3
:100F9000A84200DD7D1CB81B00F1010A4FF000479C
:100FA0002078000703D4AA4501DB4FF0FF3A002167
:100FB000B7F1004F0DF143088DF8431024D0022003
:100FC0002B23002F01DA7F422D230A21021EA0F1DC
:100FD000010000DC5FB197FBF1FC97FBF1F201FB34
:100FE0001C7C17460CF1300C08F801CDEEE7A8F197
:100FF000010003702188090501D5452100E0652124
:10100000A0F1010800F8011C09980FA9A1EB08073D
:10101000FF1D00B10120411901EBEA70A1693844BC
:10102000081A401EA0612078C00602D42046FFF7AF
:1010300053FB099828B1D4E901219047206A401C4C
:1010400020622078C00622D52046FFF745FB1EE02F
:10105000002E04DBB34502DD01A8805D00E03020F6
:10106000D4E901219047206A401C2062761CAAF135
:1010700001005FEA000A0AD100F048FAC06801687E
:10108000405CD4E901219047206A401C2062281E60
:10109000A5F10105DCDC07E0D4E9012118F8010B1A
:1010A0009047206A401C2062381EA7F10107F3DC3C
:1010B0002046FFF727FB032011B041E62DE9F04F52
:1010C00004460D46D21D22F0070089B0D0E90097F2
:1010D0004846394604F032FB0246F80F01D02D2372
:1010E00007E02068810701D52B2302E0202101EAD7
:1010F000C0038DF820300BB1012000E00020032A4E
:10110000824601D0072A04DB2946204600F002FA75
:101110003FE12078800601D40D2500E0E569C7F3A2
:101120000A560D2D49DA00214FEA175B08464FF0A9
:101130000000002F00F4400007DA00EB80004FF4BD
:10114000400100EBD07001EA60008115012901DD4A
:101150004FF0FF3100224FEA850CBCF1180F06D387
:101160001346ACF118004FF08052C24003E04FF438
:10117000801323FA0CF30CF10C0CBCF1200F04D3F8
:10118000ACF1200C09FA0CF001E007FA0CF0002990
:101190004FF0004801DD18B90FE00ED140450CD3E7
:1011A00019EB02095F4121B9404502D19F4329EA69
:1011B0000209BBEB175F00D0761C2088000502D522
:1011C0007B48784402E07A487844193808AA3023EA
:1011D00002F80A30037C0AF10101002E0AF1020A2A
:1011E00053546A4602DC4FF0300101E04FF0310108
:1011F0004FF001088DF8001002D0A6F2FF3603E090
:1012000059EA470100D06B4E002D02DC2178090716
:1012100004D54FF002082E218DF80110C44600219C
:101220000BE0C7F303433F01C35C491C6D1E02F88A
:101230000830052908F1010801DA002DF1DC002150
:101240000CE000EB1973491C1B786D1E082902F88D
:1012500008304FEA091908F1010801DA002DF0DC25
:1012600021688B0602D516E0A8F10108E04505DDEE
:1012700002EB080313F8013C302BF5D0B8F1000F56
:1012800009DD02EB080313F8013C2E2B03D10907FB
:1012900001D4A8F10108002D05DD3E2102F8081057
:1012A0006D1E08F10108407C002E02F8080008F1CC
:1012B000010804DA2D20764202F8080002E02B2013
:1012C00002F808000A214FF47A70864208F10108FA
:1012D0000BDB96FBF0F3303302F8083096FBF0F3AB
:1012E00008F1010800FB136601E0642E0CDB6420AA
:1012F00096FBF0F3303302F8083096FBF0F308F178
:10130000010800FB136601E00A2E06DB96FBF1F0F4
:10131000303002F8080008F1010896FBF1F001FBFB
:101320001060303002F80800A16908F1010808EBEC
:10133000050202EB0A00081AA0612078C00602D458
:101340002046FFF7C9F9216A08AE01EB0A002062C6
:1013500004E0D4E9012116F8010B9047BAF1010A23
:10136000F7D22078C00602D52046FFF7B5F96E46C1
:1013700009E016F8010B3E280FD0D4E9012190476F
:10138000206A401C2062B8F10108F2D22046FFF723
:10139000B9F909B00320BDE8F08F206A2844206223
:1013A00003E0D4E90121302090476D1EEBD3F8E72C
:1013B000B94B000002FCFFFF10B5436913B1AFF356
:1013C000008001E0FFF76AFA012010BD128800F1E9
:1013D000240182840022C2840122EDE711684FF0CB
:1013E000FF32E9E72DE9F05F824615468B4600277C
:1013F0000AF10104B9460078302801D09DB113E00C
:1014000014F8010B0127782803D0582801D045B1E2
:101410000AE00DB1102D07D1002714F8010B10259B
:1014200002E0082500E00A250026B0460EE005FB94
:10143000080005FB06F101271FFA80F801EB1046B2
:10144000B6F5803F00D3B94614F8010B294600F0E9
:10145000A1F80028EBDABBF1000F05D00FB1641E34
:1014600000E05446CBF80040B9F1000F06D0FFF77A
:101470002FF902210160C81EBDE8F09F48EA06402E
:10148000FAE770B516460C460546FFF7BBFB036846
:1014900093F80101012806D0FF2C0FD8185D68B120
:1014A00001202C7070BDD3F807013246214603F2AB
:1014B000071303442846BDE8704018474FF0FF303B
:1014C00070BD7546FFF79AFBAE4605006946534668
:1014D00020F00700854618B020B5FEF7DDFEBDE818
:1014E00020404FF000064FF000074FF000084FF08B
:1014F000000B21F00701AC46ACE8C009ACE8C0091C
:10150000ACE8C009ACE8C0098D4670470048704798
:10151000201200202DE9F0411F46044603260168F1
:10152000072A01F4006004DB08B116A505E016A542
:1015300003E008B115A500E015A521F0100020601A
:10154000A069C01EA0610FB1401EA0612046FFF738
:10155000C3F84FB1D4E9012138469047206A401CB6
:101560002062C01C206206E0206AFAE7D4E901216B
:1015700015F8010B9047761EF8D22046FFF7C2F807
:10158000BDE8F0814E414E006E616E00494E46004E
:10159000696E66003A2800D2303820F02002412AD5
:1015A00001D3A2F13700884201D34FF0FF307047DA
:1015B0002DE9F047814616468AB0354878440DC873
:1015C0008DE80D0032487844801C03AC0DC884E8D7
:1015D0000D0041F69B300844372190FBF1F290FB5F
:1015E000F1F5A5F1800501FB12041B3C02D5644214
:1015F000012000E00020DFF898A080460027FA4490
:10160000AAF1BE0A0EE0E0070AD03246684607EBB0
:10161000470101230AEB810100F01EFB8DE8070062
:1016200064107F1C002CEED1194F7F44AE3F19E0AF
:10163000E80715D007EB04100DF1180A90E80E002A
:101640008AE80E00C068F04201D19819089032462D
:10165000012306A903A800F0FFFA03AB83E8070003
:101660006D10641C002DE3D14FF001033246694632
:10167000B8F1000F03A802D000F0D9FA01E000F0A1
:10168000EBFAC9E90001C9F808200AB0BDE8F08703
:101690005048000010B50446AFF300802046BDE876
:1016A0001040FEF7E4BD00004FF0013C50F8042B61
:1016B00051F8043B9A4221D1A2EB0C03934313EA65
:1016C000CC1317D150F8042B51F8043B9A4215D192
:1016D000A2EB0C03934313EACC130BD150F8042B69
:1016E00051F8043B9A4209D1A2EB0C03934313EA4D
:1016F000CC13DBD04FF00000704700BFD01A01BA06
:10170000B1FA81F101F0180122FA01F0CB40C1F1E8
:101710002001DBB2C0B2C01A2CFA01F3D11A9143F6
:1017200011EAC311E6D1704701491820ABBEFEE7AC
:101730002600020070475FEA400C08BF91F0000FDE
:101740004FEA8C234FEAC12243EA51514FEA1C5021
:1017500018BF00F5F0404FEA300018BF41F00041DB
:101760005FEA6C5C00F02980BCF1FF3F08BF40F0ED
:1017700080407047130C06BF12044FF0100C4FF05E
:10178000000C130E04BF12020CF1080C130F04BF5F
:1017900012010CF1040C930F04BF92000CF1020C27
:1017A000D30F04BF52000CF1010C11464FF00002A0
:1017B000A0F11F00A0EB0C00704711F0004F08BF14
:1017C000704731F000413FF4D5AF0B0C06BF090460
:1017D0004FF0100C4FF0000C0B0E04BF09020CF17F
:1017E000080C0B0F04BF09010CF1040C8B0F04BF94
:1017F00089000CF1020CCB0F04BF49000CF1010C65
:10180000CCF12003A0EB0C0022FA03F302FA0CF255
:1018100041EA030100F10100704720F07F4C80EAAB
:10182000030023F07F47ACEB070303F57C5300F084
:10183000004003F1FF032DE980494FEA154B09B43D
:101840004FEA144325EA0B4E24EA03480FF204261C
:1018500006EB132749083E785FEA320203FB06676E
:10186000C7F5000707FB06F64FEA54374FEAD6469E
:1018700006F1020607FB066CCCF1005C4FEA1C4740
:101880002CEA074C07FB06F40CFB06F504EB1546A7
:101890004FEA961634BF00204FF000404FEAD13790
:1018A00006FB07FC4FEA1C4C0CFB0BF7D21B03FB9F
:1018B0000CF761EB07010CFB0EF7B0EB074072EB86
:1018C00017420CFB08F734BFA2EB0742B2EB07420A
:1018D00061EB17414FEA0C444FEA910706FB07FC06
:1018E0004FEA1C4C0CFB0BF7B0EBC74072EB5732C6
:1018F00003FB0CF734BFA2EBC742B2EBC74261EB6C
:1019000057310CFB0EF7B0EBC70072EB57720CFBB4
:1019100008F734BFA2EBC702B2EBC70261EB577105
:10192000039F4FEA816141EA921104EBCC044FEA34
:10193000D1374FEA826206FB07FC42EA90124FEA77
:1019400080604FEA1C4C0CFB0BF7D21B03FB0CF71F
:1019500061EB07010CFB0EF7B0EB074072EB17428F
:101960000CFB08F734BFA2EB0742B2EB074261EB76
:1019700017414FEA8C554FEA910704EB9C2406FB74
:1019800007FC4FEA1C4C0CFB0BF7B0EBC74072EBAB
:10199000573203FB0CF734BFA2EBC742B2EBC7428E
:1019A00061EB57310CFB0EF7B0EBC70072EB5772CF
:1019B0000CFB08F734BFA2EBC702B2EBC70261EB26
:1019C000577115EB4C254FEA816141EA92114FEABC
:1019D00082624FEAD13742EA901206FB07FC44F1DB
:1019E00000044FEA80604FEA1C4C0CFB0BF7D21B43
:1019F00003FB0CF761EB07010CFB0EF7B0EB0740A4
:101A000072EB17420CFB08F734BFA2EB0742B2EBB4
:101A1000074261EB174115EB1C154FEA813141EA92
:101A200092414FEA823242EA90424FEA80304FEAD6
:101A30000C7644F1000448EA03434EEA0B484FF0A9
:101A4000000EB2EB080C71EB030724BF6246394667
:101A50004EEB0E0E4FF0000B0018524149414BEB7C
:101A60000B0BB2EB080C71EB03077BF1000B24BFEF
:101A7000624639464EEB0E0E4FF0000B00185241F5
:101A800049414BEB0B0BB2EB080C71EB03077BF1FD
:101A9000000B24BF624639464EEB0E0E51EA020798
:101AA00018BF46F0010616EB0E7655F1000254F110
:101AB000000103D5BDE88901BDE80088BDE88901C2
:101AC000BDE80048B619524141EB0101A3F1010301
:101AD000704780807F7E7D7C7B7A7978777676759B
:101AE0007473727171706F6E6E6D6C6C6B6A6A6913
:101AF0006868676666656464636362616160605FAD
:101B00005F5E5E5D5D5C5C5B5B5A5A595958585725
:101B1000575656555555545453535252525151508D
:101B200050504F4F4F4E4E4D4D4D4C4C4C4B4B4BE0
:101B30004A4A4A4949494848484747474746464626
:101B40004545454444444443434343424242424161
:101B50004141002B9C4630D477002BD01CB54FEA76
:101B6000370703B44FF010004FF01001BAF1000F27
:101B700006D0BCF1000FDCBF40F0080040F00801C7
:101B80004FF000000FBCBDE810400BF1010BBBF1A2
:101B9000010F08BF5FEA170722BF12F1010211F11E
:101BA00001014FF0004143F1000300F0004043EA1F
:101BB00000007047F9D35708D0E746EA064613F10C
:101BC000400F4FEA16461FDD13F1200FDFBF16430B
:101BD0000A46002120335B42BED0C3F1200746EA0B
:101BE000064602FA07F74FEA164646EA0706C3F129
:101BF000200722FA03F201FA07F721FA03F14FF066
:101C0000000342EA0702A7E746EA020646EA06465A
:101C10004FEA164646EA0106BCBF46EA0646360CBF
:101C20004FF000034FF000024FF0000194E72DE960
:101C3000804C9A46934670B491E8380007C831EA60
:101C4000400C48BF34EA430C03D5FFF7E6FDFFF72D
:101C500080FFF0BCBDE8008C2DE9804C9A4693468D
:101C600070B491E8380007C810F0804F08BF13F037
:101C7000804F03D100F005F8FFF76BFFF0BCBDE823
:101C8000008C20F07F4780EA030023F07F4C07EBB5
:101C90000C03A3F57C5300F00040A3F1FE0392F087
:101CA000000F00F0B38095F0000F00F077802DE971
:101CB00001494FEA11404FEA144621EA004800FB6F
:101CC00006FC24EA064708FB06F607FB08F800FBBB
:101CD00007F718EB06484CEB164C4FEA124B18EB83
:101CE00007484FEA15464CEB174022EA0B4E0BFB18
:101CF00006FC25EA06470EFB06F607FB0EFE0BFB6D
:101D000007F71EEB064E4CEB164C4FF000061EEB91
:101D1000074E4CEB174B18EB0B0840F1000018EB8B
:101D20000E0B58EB000840F100008F1A4FF0000135
:101D30003CBFC943661B14BFB5EB040C00213CBF7C
:101D4000C943F61B4FEA17444EEA8E0E27EA0445B4
:101D50004FEA1C4704FB07622CEA074C05FB07F718
:101D60000CFB05F604FB0CFC16EB074642EB174296
:101D700016EB0C4642EB1C421BEB060658EB02022C
:101D8000414146EA9E0601D5BDE80189B619524196
:101D900041EB0101A3F10103BDE801894FEA1445BC
:101DA0004FEA114724EA054621EA074C05FB07F4F0
:101DB00006FB07F70CFB06F105FB0CFC11EB0741DA
:101DC00044EB17444FEA124711EB0C4144EB1C441F
:101DD00022EA074C05FB07F206FB07F70CFB06F6A9
:101DE00005FB0CFC16EB074642EB174216EB0C46C4
:101DF00042EB1C456A1854F1000148BF7047B61900
:101E0000524141EB0101A3F10103704795F0000F2E
:101E100037D04FEA11424FEA144721EA024624EA3A
:101E2000074C02FB07F106FB07F70CFB06F402FB6D
:101E30000CFC14EB074441EB17414FEA154714EB38
:101E40000C4441EB1C4125EA074C02FB07F506FB5D
:101E500007F70CFB06F602FB0CFC16EB074645EBFE
:101E6000174516EB0C4645EB1C42121951F10001C7
:101E700048BF7047B619524141EB0101A3F101037C
:101E800070474FEA14454FEA114724EA054621EA14
:101E9000074C05FB07F106FB07F70CFB06F24FF0BA
:101EA000000605FB0CFC12EB074241EB174112EB5D
:101EB0000C4251EB1C4148BF7047921841EB0101A5
:101EC000A3F10103704721B1826842F001028260F0
:101ED00003E0826822F001028260704721B18268CB
:101EE00042F48072826003E0826822F48072826031
:101EF0007047014600208A6802F004020AB10120FE
:101F000000E000207047014600208A6802F00802C5
:101F10000AB1012000E000207047000030B5024601
:101F20000020002350680F4C20400D790C6844EAD3
:101F300005242043506090680B4C2040D1E90254A6
:101F40002C434D7944EA450420439060D06A20F444
:101F500070000C7C641EE4B2234340EA0350D0625C
:101F600030BD0000FFFEF0FFFDF7F1FFF0B50446C5
:101F70000D4600200021092D11DDE068A5F10A06BB
:101F800006EB4607072606FA07F18843A5F10A067D
:101F900006EB460603FA06F10843E0600CE0206910
:101FA00005EB4507072606FA07F1884305EB4506CA
:101FB00003FA06F108432061072A0FDA606B561E08
:101FC00006EB86071F2606FA07F18843561E06EB26
:101FD000860605FA06F10843606322E00D2A0FDA4F
:101FE000206BD61F06EB86071F2606FA07F18843EB
:101FF000D61F06EB860605FA06F10843206310E0BB
:10200000E06AA2F10D0606EB86071F2606FA07F125
:102010008843A2F10D0606EB860605FA06F1084391
:10202000E062F0BD816841F008018160704721B134
:10203000826842F4A002826003E0826822F4A00277
:1020400082607047816841F004018160704700211F
:102050000160017141718160C160012101747047AB
:1020600008B51D48A0F114031CA23C210090214892
:10207000FEF740F9204821A324A27F2100902F4899
:10208000FEF738F92E4B2FA27F213548FEF732F9A3
:102090003448A0F17C0334A27F2100903948FEF738
:1020A00029F9304B103338A27F214448FEF722F93A
:1020B00043A02C4B1033434AFF2100904248FEF7C7
:1020C00019F93FA0274B1033404A7F210090404828
:1020D000FEF710F908BD00003502002041542B43E3
:1020E000574A41503D222573222C222573220D0A86
:1020F00000000000D1020020F45E0008415141516F
:1021000032353033323930310000000041542B4D2C
:10211000515454555345524346473D302C312C229F
:102120004E554C4C222C222573222C222573222C16
:10213000302C302C22220D0A000000001009002053
:102140005800002041542B4D515454434C49454EA6
:102150005449443D302C222573220D0A0000000012
:102160008F090020D001002041542B4D515454437D
:102170004F4E4E3D302C222573222C25732C310DD1
:102180000A0000000E0A002041542B4D51545453B4
:1021900055423D302C22246F632F64657669636558
:1021A000732F25732F7379732F636F6D6D616E6459
:1021B000732F23222C300D0A000000008D0A00200E
:1021C00025730000285E00080C0B0020A45E0008A8
:1021D000071000202DE9FF4F83B092461C464B218B
:1021E0002046FEF750FA31A10398FEF7D6F90546CE
:1021F0001DB9002007B0BDE8F08F6D1D2DA1284648
:10220000FEF7CBF906460EB90020F3E7B61E701BA9
:1022100000F1010B5A4629462046FEF7EFF900204F
:1022200004F80B000290814614E05AF83910039824
:10223000FEF7B3F907464FB10AEBC900807984F87D
:1022400040000AEBC9008088029007E009F1010014
:1022500000F0FF09184800788145E6DB00BF0FB9A0
:102260000020C7E702983844801C019013A138462B
:10227000FEF793F98046B8F1000F01D10020B9E7CD
:10228000A8F101080198A8EB0000401C80B2009062
:1022900004F14100DDE90021FEF7B0F9002204F16C
:1022A000410100980A540020A4E70000745F6964AB
:1022B0003D0000002C0000009D0300207D2C00004C
:1022C0002DE9F04107468846154600240BE005EB52
:1022D000C40638463168FEF760F910B1B079BDE840
:1022E000F081601CC4B2034800788442EFDB022016
:1022F000F5E700009C0300203EB525480078012842
:1023000042D1244890F9000010B1012839D11BE0D6
:1023100021480178214802782148008800B2CDE99F
:10232000012100901F48808802B21E48408801B2F7
:102330001D48008803B21D48008800B200F042F832
:102340000120144908701CE01948006803F0CAFB1A
:1023500004B21848006803F0C5FB05B216480078BF
:1023600016490978CDE900100E49C98808B2144908
:102370000B782246294600F0ABF80020054908708A
:1023800000BF00BF01203EBD4FF0FF30FBE7000063
:102390005C020020A1030020310400203004002052
:1023A0001E04002028040020BC0300200404002098
:1023B0002404002020040020EF030020EE0300206E
:1023C000180400202DE9F04F87B004460D4616464C
:1023D0001F46DDE9119ADDF84080002C00DA002468
:1023E000B4F57A6F01DD4FF47A64002D00DA002530
:1023F00040F6FF70854200DD0546002E00DA00261B
:1024000040F6FF70864200DD064617F1370F01DA0D
:102410006FF036077D2F00DD7D27B8F1000F01DA60
:102420004FF00008B8F1640F01DD4FF06408B9F116
:10243000000F01DA4FF00009B9F10A0F01DD4FF08A
:102440000A09BAF1000F01DA4FF0000ABAF10A0FD7
:1024500001DD4FF00A0A4FF0000BFF211848FEF78C
:1024600012F92346174AFF2117488DE8E007FDF7C8
:1024700041FF0FFA80FBBBF1000F02DBBBF1FF0F46
:1024800004D34FF0FF3007B0BDE8F08F0E4B0F4A7A
:10249000FF210B48FDF712FF0948FEF790F80146AF
:1024A0000690074802F00CF90548FEF788F880B25C
:1024B00001460690024802F02DFA0120E3E70000F1
:1024C0000B0C0020845F0008090E00200C0B00207C
:1024D0002DE9F04F85B004460D4616461F46DDE94E
:1024E0000E89002C00DA002440F6FF70844200DDE3
:1024F0000446002D00DA0025642D00DD6425002E41
:1025000000DA0026642E00DD6426002F00DA0027A2
:102510000A2F00DD0A27B8F1000F01DA4FF000089A
:10252000B8F1320F01DD4FF03208B9F1000F01DAD6
:102530004FF00009B9F1640F01DD4FF064094FF06D
:10254000000AFF211848FEF79EF82346174AFF218C
:1025500017488DE8E003FDF7CDFE0FFA80FABAF1D7
:10256000000F02DBBAF1FF0F04D34FF0FF3005B0CC
:10257000BDE8F08F0E4B0F4AFF210B48FDF79EFE82
:102580000948FEF71CF883465946074802F098F8B8
:102590000548FEF714F81FFA80FB5946024802F07E
:1025A000B9F90120E3E700000A0D0020385F0008B8
:1025B000080F00200C0B00202DE9F04104460D46C9
:1025C00016461F466068401C6060207809286ED25D
:1025D000DFE800F005061B4C8CB9E6FDFC0056E177
:1025E000D4E901014843AB49884203DB0220207053
:1025F000BDE8F08196F8290030B902202070002053
:10260000207386F82900F3E7F2E7207B78B9A24827
:10261000FDF7D5FF1FFA80F841469F4802F07AF98E
:10262000002085F802020120207300206060D4E9B8
:10263000010148439949884202DB00202073D7E713
:1026400095F80202092803D095F8020204280CD15B
:10265000002085F8020296F8290008B904202070AD
:102660000320207000202073C2E7C1E796F82900FC
:1026700010B904202070BBE7207B78B98848FDF7AB
:102680009EFF1FFA80F84146854802F043F900207A
:1026900085F802020120207300206060D4E9010166
:1026A00048438049884203DB00202073A0E7EDE027
:1026B00095F8020209280AD095F80202052806D0EA
:1026C00095F80202062802D096F8290068B9002081
:1026D00085F80202012086F82800002086F82900EB
:1026E000042020700020207382E781E796F82900FB
:1026F000012800D17CE7207B78B96B48FDF75FFFAC
:102700001FFA80F84146684802F004F9002085F875
:1027100002020120207300206060D4E901014843D7
:102720006049884202DB0020207361E795F80202CD
:10273000092807D1002085F802020520207000201A
:10274000207355E754E796F82900012800D14FE798
:10275000207B78B95548FDF732FF1FFA80F84146D3
:10276000524802F0D7F8002085F8020201202073B9
:1027700000206060D4E9010148434A49884202DBF5
:102780000020207334E795F80202092807D10020C1
:1027900085F80202062020700020207328E727E732
:1027A00096F82900012800D122E7207B90B9404803
:1027B000FDF705FF1FFA80F841463D4802F0AAF8F0
:1027C000002085F802020120207301E04BE01BE0AD
:1027D00000206060D4E9010148433249884202DBAD
:1027E0000020207304E795F80202092803D095F829
:1027F00002020A2807D1002085F802020720207073
:1028000000202073F4E6F3E696F82900012800D1B1
:10281000EEE6207B70B92748FDF7D1FE1FFA80F85D
:102820004146244802F076F8002085F80202012093
:102830002073DDE6D4E9010148431A49884202DBEE
:1028400000202073D4E695F8020209280AD100205E
:1028500085F8020208202070012017490870002026
:102860002073C5E6C4E696F82900012803D10020AC
:1028700011490870BCE696F8290030B997F8C801EC
:1028800018B901200C490870B2E600BF00BF00BFB4
:1028900000BFADE68096980063020020C0C62D0000
:1028A000D1020020404B4C00100900208F0900206D
:1028B0000E0A00208D0A00205C02002000BFFEE707
:1028C00010B5202000F0E8F840B1002002F05AF8DE
:1028D000012003490870202000F01AF810BD000004
:1028E0002A00002010B54FF0007000F0D5F848B174
:1028F0000021054800F01AF801200449087040063C
:1029000000F006F810BD0000800002404C000020DE
:1029100000F0805111B10349086001E002494860AC
:1029200070470000040402400000024021B1026828
:1029300042F00102026004E002684FF6FE731A40A2
:102940000260704701684FF6FE721140016000217D
:10295000016041608160C1604B49884208D14A49A9
:102960000839496841F00F01474A083A51608AE046
:1029700045491431884208D143490839496841F032
:10298000F001414A083A51607DE03F4928318842D0
:1029900008D13D490839496841F470613A4A083A1A
:1029A000516070E038493C31884208D136490839D5
:1029B000496841F47041344A083A516063E0324951
:1029C0005031884208D130490839496841F47021B2
:1029D0002D4A083A516056E02B496431884208D1AB
:1029E00029490839496841F47001274A083A516079
:1029F00049E025497831884208D123490839496896
:102A000041F07061204A083A51603CE01F49884219
:102A100006D1011F096841F00F01021F116032E069
:102A20001A491431884208D11849091F096841F030
:102A3000F001164A121F116025E01449283188421E
:102A400008D11249091F096841F470610F4A121F29
:102A5000116018E00D493C31884208D10B49091F2B
:102A6000096841F47041094A121F11600BE00749DF
:102A70005031884207D10549091F096841F4702186
:102A8000024A121F11607047080002400804024009
:102A90000146486880B2704701460020002201F0DC
:102AA000805313B1054B1A6801E0054B1A6802EA1E
:102AB00001030BB1012000E0002070470004024038
:102AC000000002401AB103680B43036002E0036890
:102AD0008B430360704710B50022026847F6F0731D
:102AE0009A430C6A8B6823430C6923434C69234344
:102AF0008C692343CC6923434C6A23438C6A234368
:102B00001A430260CB6843600B6883604B68C36004
:102B100010BD416070470021016041608160C1606B
:102B2000016141618161C1610162416281627047FD
:102B3000704700B5034603E04FF47A7000F005F8E3
:102B4000181EA3F10103F7D100BD00EBC001C900BD
:102B50004FF0E0225161002191610521116100BF18
:102B60004FF0E021096901F480310029F8D00421F7
:102B70004FF0E0221161704710B54FF4004000F0B3
:102B80001BF8012804D1C00300F010F800F02EFF5C
:102B900010BD10B5102000F00FF8012804D110204E
:102BA00000F004F800F0CCFA10BD00000149086004
:102BB0007047000014040140014600200022074B2A
:102BC0001B6803EA0102054B14331B680B4013B169
:102BD0000AB1012000E0002070470000000401401D
:102BE000002123498279002A3AD00A4612680368F4
:102BF0009A430B461A600A1D126803689A430B1D1C
:102C00001A60027911440A6803681A430A60184A74
:102C10000832126803689A43154B08331A601A1D6C
:102C2000126803689A43124B0C331A604279102AD7
:102C30000ED11A1F126803681A430D4B08331A602D
:102C40001A1D126803681A43094B0C331A600DE011
:102C50000749427911440A6803681A430A6005E08B
:102C6000027911440A6803689A430A6070470000B9
:102C7000000401400021016001710C21417100211B
:102C80008171704730B500228B071C0F0F2303FAA8
:102C900004F20B4B8C1053F824309343084C8D10E6
:102CA00044F8253023468C1053F824308C07240F29
:102CB00000FA04F42343024C8D1044F8253030BD53
:102CC000080001402DE9F0410246002500260020C1
:102CD00000230024002791F803C00CF00F0591F8A1
:102CE00003C00CF0100CBCF1000F03D091F802C02F
:102CF0004CEA050591F800C0BCF1000F31D0146812
:102D000000202BE04FF0010C0CFA00F3B1F800C0EA
:102D10000CEA03069E4220D183004FF00F0C0CFA00
:102D200003F7BC4305FA03FC4CEA040491F803C022
:102D3000BCF1280F06D14FF0010C0CFA00FCC2F8D0
:102D400014C00AE091F803C0BCF1480F05D14FF060
:102D5000010C0CFA00FCC2F810C0401C0828D1D3AA
:102D60001460B1F800C0BCF1FF0F34DD54680020DE
:102D70002EE000F1080C4FF0010808FA0CF3B1F84E
:102D800000C00CEA03069E4221D183004FF00F0CD5
:102D90000CFA03F7BC4305FA03FC4CEA040491F86F
:102DA00003C0BCF1280F05D100F1080C08FA0CF89B
:102DB000C2F8148091F803C0BCF1480F07D100F1AC
:102DC000080C4FF0010808FA0CF8C2F81080401CFB
:102DD0000828CED35460BDE8F081024600209368F5
:102DE0000B400BB1012000E00020704741617047AB
:102DF000016170474FF6FF7101800221817004214B
:102E0000C17070470AB1016100E04161704700BFC5
:102E1000FEE700BFFEE7000010B590B004464FF497
:102E2000004001F07DFA0BA8FFF711F901208DF8A1
:102E3000310000200E904FF460200D9000200B9088
:102E40008DF83C4001208DF830000BA92148FFF798
:102E500065F801211F48FFF741F86846FFF75BFE60
:102E60001C484C30009080150690002004901A48B1
:102E700001904FF480600790802005900020029020
:102E800003940A9020200890C001099069461348D5
:102E9000FFF721FE01210F48FFF715F801210F4828
:102EA000FFF744FD0B48FFF7BDF800BF0948FFF7E7
:102EB0002AF80128FAD00748FFF7C4F800BF0548F0
:102EC000FFF717F80128FAD001210248FFF7AFF801
:102ED00010B010BD0024014028040020080002406A
:102EE00008B56846FFF786FF10208DF80300400202
:102EF000ADF8000003208DF8020069460248FFF794
:102F0000E1FE00F003F808BD000C014010B54FF4DD
:102F100000510248FFF76CFF10BD0000000C01409B
:102F200010B50446074804702CB94FF40051064808
:102F3000FFF75CFF05E0012C03D161030248FFF7B6
:102F400057FF10BD30040020000C014010B50648AA
:102F50000078012802D100F0EFF804E00248007880
:102F600008B900F0E5F810BDEC03002010B50C48DE
:102F7000006840B90B4801F04EFE0B490968401A41
:102F80000A4908600AE0074801F045FE42F2107164
:102F9000084405490968401A0449086010BD00004A
:102FA000D403002000040040E8030020E4030020D4
:102FB00010B5044801F02FFE0349086000200349C2
:102FC000086010BD00040040E8030020D403002086
:102FD00004480078012804D103480068401C0249D5
:102FE00008607047D0030020D40300207CB5002087
:102FF0000090019000240026002500BF15E000216C
:103000000FE01D4A165D1DF80020C1F1070306FA06
:1030100003F31A43D2B20DF80020621CD4B24A1C4A
:10302000D1B20729EDDD411CC8B20428E7DD00203C
:1030300005E01DF800102944CDB2411CC8B2032898
:10304000F7DD9DF80400A84212D1002005E01DF82C
:1030500000100A4A1154411CC8B20328F7DD074882
:10306000807807490870054800780649087001E033
:1030700000F05EF87CBD000098110020E003002005
:10308000EE030020EF03002038B504460D4614205F
:103090001749C87010200880032088701548FFF772
:1030A00011FE04210020FFF7EDFD0122102111483F
:1030B000FFF7A8FE102010490860002008710820C2
:1030C0004871002088710846FFF78AFD0A208DF8B4
:1030D000000000208DF801008DF8020001208DF81D
:1030E0000300684600F0BAFF00F0F8F838BD0000B1
:1030F000C403002000080140C803002010B50A489E
:10310000007801280FD109480078401C0749087051
:1031100008460078042806DBFFF718FF0020034963
:1031200008700149087010BDD8030020F00300208A
:1031300010B500F099F810BD10B500F095F810BD6D
:1031400010B53E480078062874D2DFE800F003048A
:10315000730D205F6FE0012039490870FFF728FFE9
:1031600003203649087066E0FFF700FF3548006825
:10317000642809D333480068B42805D804202F49AF
:103180000870FFF715FF01E0FFF7D2FF53E0FFF7EC
:10319000EDFE2C4800683C2818D32A4800685A28BD
:1031A00014D8FFF705FF0021274802780078401C5B
:1031B000254B18702548815418460078282824DBB0
:1031C00005201E49087000F06BF81EE01D480068DD
:1031D0006E2818D31B480068822814D8FFF7E8FE31
:1031E0000122194801780078401C174B18701748C5
:1031F000425418460078282807DB05200F4908703C
:1032000000F04EF801E0FFF793FF14E0FFF7AEFE89
:103210000C48006828280AD30A4800683C2806D8C9
:1032200001200B490870FFF7E1FE02E002E0FFF722
:103230007FFF00E000BF00BF10BD0000E3030020DF
:10324000D0030020E4030020ED03002098110020AB
:10325000EC03002010B500200249087000F016F8B9
:1032600010BD0000ED03002010B500F023F8002091
:1032700003490870034908700349087010BD000035
:10328000E3030020D0030020EC03002010B50C2045
:10329000024948710846FFF7A3FC10BDC80300208F
:1032A00010B50820024948710846FFF799FC10BD87
:1032B000C803002010B548200549C8700548FFF72D
:1032C00001FD0120044988710846FFF789FC10BD03
:1032D000C403002000080140C803002010B50020EE
:1032E000054988710846FFF77BFC10200349C87028
:1032F0000348FFF7E7FC10BDC8030020C40300200B
:103300000008014010B50120074908700020074956
:103310000870FFF7E3FF002005490870FFF79AFFE8
:1033200001200449087010BDD9030020DA030020F1
:10333000E3030020D803002010B51A4800780128C4
:103340002ED119480068401C1749086017480078BA
:1033500010B1012823D10DE0FFF7C0FF002210219A
:103360001348FFF74FFD01201049087000200E4957
:10337000086014E00C48006800EB800044F620610F
:1033800088420BD3FFF796FF01200A490870FFF728
:103390007DFF0020054908700249087000BF00BF8A
:1033A00010BD0000D9030020DC030020DA03002058
:1033B00000080140E303002038B5044618208DF8CA
:1033C00003004FF48060ADF8000003208DF8020088
:1033D00069460F48FFF776FC0E4801F09AFD002081
:1033E0000C498881602008800020C881488188803D
:1033F00001204880601EC880074801F0E5FC0121DB
:10340000054801F0F9FB0821034801F02DFD38BD06
:1034100000080140E0110020002C014010B50446D6
:10342000601E0349C880034801F0CEFC10BD0000B7
:10343000E0110020002C014010B50446204602F0A7
:103440008DFB04490860C82104FB01F0FFF7E6FF8B
:1034500010BD0000200400202DE9F04104460D4677
:103460000026002003E035F810100E44401CA04256
:10347000F9DB204602F072FB0746304602F06EFB95
:103480008046394602F06CFABDE8F08110B50B4673
:10349000002105E04C1C30F8144020F81140491C74
:1034A000541E8C42F6DC511E20F8113010BD000075
:1034B00038B504466846FFF79DFC18208DF80300D8
:1034C0004FF48070ADF8000003208DF802006946CB
:1034D0000F48FFF7F7FB0F4801F01BFD00200D49D7
:1034E0008881602008800020C88148818880012070
:1034F0004880601EC880084801F0B0FB01210648E2
:1035000001F07AFB0821044801F0F4FB38BD00000B
:1035100000080140C0110020002C014010B50446F5
:10352000601E0349C880034801F098FB10BD0000ED
:10353000C0110020002C014010B5044607490C7052
:10354000012C0AD108460078012806D008460078E8
:1035500018B903480088FFF7E1FF10BD18040020E8
:103560001A04002008B56846FFF744FC00208DF8D7
:1035700003000220ADF8000003208DF80200694628
:103580000448FFF79FFB0523042209210248FEF7A8
:10359000EDFC08BD000C01400024014038B5044694
:1035A00018208DF803004FF40060ADF800000320F0
:1035B0008DF8020069460F48FFF784FB0E4801F0C2
:1035C000A8FC00200C498881602008800020C88168
:1035D0004881888001204880601EC880074801F02B
:1035E0004DFC0121054801F007FB0821034801F0CB
:1035F00083FC38BD00080140F0110020002C014080
:1036000010B50446601E0349C880034801F036FC2B
:1036100010BD0000F0110020002C014010B5044640
:10362000204602F09BFA04490860C82104FB01F01F
:10363000FFF7E6FF10BD00002404002008B568462F
:10364000FFF7D8FB00208DF803000120ADF8000043
:1036500003208DF8020069460448FFF733FB052379
:10366000032208210248FEF781FC08BD000C01403E
:10367000002401407FB505460C461C4801F0E8FADD
:1036800001A801F0A3FC0020ADF80A00ADF8060087
:103690004720ADF8040044F61F60ADF80800002094
:1036A0008DF80C0001A9114801F03EFC01210F48E2
:1036B00001F090FA012211460C4801F0C0FA0121F4
:1036C0000A4801F07BFA19208DF8000001208DF8DE
:1036D00003008DF801508DF80240684600F0BEFCF2
:1036E0000021024801F07CFA7FBD0000002C01405F
:1036F0007FB505460C464FF0804001F0A9FA01A8BD
:1037000001F064FC0020ADF80A00ADF80600472087
:10371000ADF804000420ADF8080000208DF80C007E
:1037200001A94FF0804001F0FFFB0121880701F063
:1037300051FA01221146900701F081FA0121880710
:1037400001F03CFA1C208DF8000001208DF80300E8
:103750008DF801508DF80240684600F07FFC002192
:103760004FF0804001F03CFA7FBD000010B50748E3
:103770000088401C05490880084600880A2803DBA9
:103780000020088000F0C8F910BD000024000020CF
:1037900010B5044606480088401C054908800846C4
:1037A0000088A04203DB00200880FFF7ABFD10BDBE
:1037B0002600002010B5044607480088401C064932
:1037C000088008460088A04205DB0020088000F041
:1037D000DDFBFEF791FD10BD280000207FB50546FA
:1037E0000C461A4801F034FA01A801F0EFFB002062
:1037F000ADF80A00ADF806004720ADF8040042F22B
:103800000F70ADF8080000208DF80C0001A90F48DA
:1038100001F08AFB01210D4801F0DCF9012211467B
:103820000A4801F00CFA1D208DF8000001208DF8E7
:1038300003008DF801508DF80240684600F00EFC40
:103840000021024801F0CCF97FBD000000040040D7
:1038500010B504460121204601F0C2F910BD000058
:1038600008B56846FFF7C6FA10208DF8030000027D
:10387000ADF8000003208DF8020069460248FFF70A
:1038800021FA00F003F808BD000C014010B54FF418
:1038900080510248FFF7ACFA10BD0000000C014057
:1038A00010B5044607480470012C04D121030648D2
:1038B000FFF79EFA05E024B94FF480510248FFF764
:1038C00095FA10BD31040020000C014038B50446C3
:1038D0006846FFF78FFA18208DF803004FF4007048
:1038E000ADF8000003208DF8020069460F48FFF78D
:1038F000E9F90F4801F00DFB00200D498881602097
:1039000008800020C8814881888001204880601E8E
:10391000C880084801F0F8F90121064801F06CF967
:103920000821044801F042FA38BD000000080140B7
:10393000D0110020002C014010B50446601E034940
:10394000C880034801F0E0F910BD0000D01100204C
:10395000002C014010B5044603480480C82104FB34
:1039600001F0FFF7E9FF10BD1E04002008B568460E
:10397000FFF740FA00208DF803000220ADF80000A8
:1039800003208DF8020069460448FFF79BF90523E0
:10399000022201210248FEF7E9FA08BD00080140B1
:1039A0000024014010B50D480078032804DA0B48C4
:1039B0000078401C094908700948008881B2032238
:1039C0000848FFF763FD074904480078FFF744FD06
:1039D000044602F0A3F80449088010BD100400203A
:1039E00000040020120400200404002010B5154833
:1039F0000078012824D11448007858B9134801F000
:103A00000AF9134908600C2000F060F801200E4903
:103A1000087015E00C480078012811D10B4801F01E
:103A2000FAF80B490968401A0A490860FFF7BAFF1B
:103A3000082000F04BF80020034908700149087085
:103A400010BD0000FE030020080400200004004018
:103A50000C040020000400207CB505460C4601A89B
:103A6000FFF7C8F948208DF807004FF40040ADF883
:103A7000040003208DF8060001A91248FFF722F97F
:103A80000F210120FFF7FEF80F48FFF7F3F84FF47E
:103A900000400D490860012088710020087108204D
:103AA00048710846FFF79CF828208DF80000012097
:103AB0008DF803008DF801508DF80240684600F043
:103AC000CDFA7CBD000C0140F403002010B5044683
:103AD00002484471FFF784F810BD0000F403002091
:103AE00010B50B480078012811D100F037F80948CB
:103AF0000078401C0749087008460078022806DB59
:103B000000F014F80020024908700249087010BD46
:103B1000FC0300200704002001200249087002492C
:103B200008707047FC030020FD03002010B5002240
:103B30004FF480510648FFF765F9012005490870E8
:103B40000020054908700820FFF7C0FF10BD0000E5
:103B500000080140FE030020FF03002010B50648C6
:103B60000078012807D1012201030448FFF74AF930
:103B700000200149087010BDFD030020000801402D
:103B800008B56846FFF736F910208DF803000002EB
:103B9000ADF8000003208DF8020069460448FFF7E5
:103BA00091F800224FF480510148FFF72BF908BD2E
:103BB0000008014010B50121042000F0EDFB1420A5
:103BC0000449C87020200880032088700248FFF74D
:103BD00079F810BDA4030020000801400020144A19
:103BE000108000BF09E0134A125C8240104B1B8812
:103BF0001A430F4B1A80421CD0B21028F3DB0C483A
:103C000000880122B2EBE03F05D109480088C0439B
:103C1000401C074A1080064800880011064A1080A0
:103C20000F21034800880840044A108070470000B4
:103C3000BA03002050110020BC030020BE03002066
:103C400010B5C048C0490978405C072805D2DFE8B4
:103C500000F073A6EA05FCFB040071E1BB480068B4
:103C6000401CBA490860BA48BA490978405C30B18A
:103C7000012817D002282AD003285BD144E0012272
:103C80002021B548FFF7BEF800222021B248FFF7F7
:103C9000B9F80020AD490860AE480078401CAD4935
:103CA000087047E0A948006800EB8000B0F5FA7F93
:103CB0000CD301222021A848FFF7A4F80020A34933
:103CC0000860A4480078401CA249087032E09F4870
:103CD000006800EB8000A1490978884213D32021B5
:103CE0009D48FFF77AF858B901209D4908700020D7
:103CF0009649086097480078401C9649087002E091
:103D000000209749087015E09448007840F23A2165
:103D1000081A8E49096801EB8101884209D8002000
:103D20008A4908608B49087087480078401C86499A
:103D3000087000BF00BF03E184480068401C83494D
:103D40000860884888490978405C10B1012824D16E
:103D50000DE0002220218048FFF754F800207B4925
:103D6000086081480078401C7F49087015E077485A
:103D7000006800EB80003C280ED301222021764809
:103D8000FFF740F8002071490860774908706E48D5
:103D90000078401C6C49087000BF00BFD0E06B4841
:103DA0000068401C69490860704871490978405CA6
:103DB00020B1012810D0022833D121E00022202197
:103DC0006548FFF71FF800206049086068480078E0
:103DD000401C6749087024E05C48006800EB8000E4
:103DE0000A280CD3012220215B48FFF70BF80020A2
:103DF000564908605E480078401C5D49087010E034
:103E00005248006800EB8000322809D300204F4957
:103E10000860574908704C480078401C4A490870AF
:103E200000BF00BF8CE049480068401C474908605B
:103E3000504851490978405C40B1012814D002280B
:103E400026D003285CD14AE071E05BE0002220210B
:103E50004148FEF7D7FF00203C49086046480078FB
:103E6000401C454908704BE03848006800EB800072
:103E700005280CD3012220213748FEF7C3FF00207C
:103E8000324908603C480078401C3B49087037E0E4
:103E90002E48006800EB800005281FD320212E4803
:103EA000FEF79BFF48B10121344802780078401C9E
:103EB000324B18703248815408E000212F480278B4
:103EC0000078401C2D4B18702D48815400201F494C
:103ED000086029480078401C2749087010E01B48FA
:103EE000006800EB80002D2809D3002017490860E6
:103EF0002149087014480078401C1349087000BF1D
:103F000000BF1DE011480068401C104908600846C9
:103F1000006800EB80001B49884207D300200B4952
:103F2000086009480078401C0749087008E0FFF75E
:103F300055FE01201449087000200349087000BF95
:103F400000BF10BDA05C0008A8030020AC03002047
:103F50001D5D0008B103002000080140B2030020ED
:103F6000B3030020215D0008B4030020235D000896
:103F7000B5030020265D0008B6030020B80300202A
:103F800050110020B0710B00B003002001200C493B
:103F900008700C49087000200B49088082200B49EA
:103FA000087000200A4908700A4908700A49087018
:103FB0000A4908700A4908700A49087070470000E9
:103FC000A8030020B7030020C0030020B203002094
:103FD000B0030020B1030020B4030020B50300208B
:103FE000B6030020B803002010B50D480078012862
:103FF00014D10C480088401C0A49088008460088F3
:1040000040F2712148430849B1EB001F06DC00F083
:104010000DF80020034908800149087010BD000018
:10402000B7030020C003002080841E0010B505489F
:104030000078012803D104480078012801D000F05D
:1040400005F810BDB0030020B30300200020014993
:1040500008707047A80300207047000070B5002169
:1040600000230F22C47804B3154C246804F4E064E0
:10407000C4F5E064210AC1F10403CA40447804FA9B
:1040800003F184781440214309010E4C0678A155B0
:10409000047804F01F050124AC4005786D11AD00D3
:1040A00005F1E025C5F8004109E0047804F01F059A
:1040B0000124AC40044D0678761145F8264070BDC9
:1040C0000CED00E000E400E080E100E00249014383
:1040D000024A1160704700000000FA050CED00E094
:1040E00070B500240EE00021204600F0E6F800251F
:1040F00004E0002000F002F9681CC5B2802DF8DB56
:10410000601CC4B2082CEEDB70BD000008B50121B4
:10411000102000F041F914208DF8030003208DF8E1
:1041200002004FF48040ADF8000069460A48FEF7EF
:10413000C9FD4FF40040ADF8000069460648FEF79F
:10414000C1FD012291030448FEF75CFE0122D10368
:104150000148FEF757FE08BD0010014070B5054646
:10416000002415E08020204100EA05024FF40041C0
:104170000E48FEF747FE012291030C48FEF742FE6F
:1041800000224FF480410948FEF73CFE601CC4B297
:10419000082CE7DB012291030448FEF733FE0022DE
:1041A0004FF480410148FEF72DFE70BD0010014024
:1041B00010B50122D1030A48FEF724FE0122910323
:1041C0000748FEF71FFE00224FF400410448FEF7A7
:1041D00019FE00224FF480410148FEF713FE10BD86
:1041E0000010014010B500224FF400410648FEF7D0
:1041F00009FE012291030448FEF704FE0122D103C7
:104200000148FEF7FFFD10BD0010014070B500240D
:1042100006E0002500E06D1CB5F57A7FFBD3641C39
:10422000B4F57A7FF5D3FFF771FFAE2000F056F8B2
:10423000D52000F053F8802000F050F8A82000F0BE
:104240004DF83F2000F04AF8D32000F047F8002056
:1042500000F044F8402000F041F8A12000F03EF8C2
:10426000C82000F03BF8DA2000F038F8122000F007
:1042700035F8812000F032F8CF2000F02FF8D92057
:1042800000F02CF8F12000F029F8DB2000F026F8EF
:10429000302000F023F8A42000F020F8A62000F041
:1042A0001DF88D2000F01AF8142000F017F8AF2048
:1042B00000F014F8FFF714FF70BD70B505460C460A
:1042C00045F0B00000F00AF8102141EA141000F0A7
:1042D00005F804F00F0000F001F870BD10B50446B9
:1042E000FFF766FF7820FFF739FF0020FFF736FF62
:1042F0002046FFF733FFFFF775FF10BD10B50446EA
:10430000FFF756FF7820FFF729FF4020FFF726FF31
:104310002046FFF723FFFFF765FF10BD7047000041
:1043200001460020034A506820F440400843506092
:10433000704700000010024029B1064A526902434A
:10434000044B5A6104E0034A52698243014B5A61AB
:10435000704700000010024029B1064AD2690243AA
:10436000044BDA6104E0034AD2698243014BDA610B
:10437000704700000010024029B1064A126902434A
:10438000044B1A6104E0034A12698243014B1A612B
:10439000704700000010024029B1064A92690243AA
:1043A000044B9A6104E0034A92698243014B9A618B
:1043B000704700000010024029B1064AD26802434B
:1043C000044BDA6004E0034AD2688243014BDA60AE
:1043D000704700000010024030B500210022002488
:1043E00000232D4D6D6805F00C0121B1042905D085
:1043F000082923D105E0294D056022E0274D0560FD
:104400001FE0254D6D6805F47012234D6D6805F4AD
:104410008034022505EB92421CB9214D55430560BD
:104420000BE01D4D6D6805F400351DB11C4D554365
:10443000056002E0194D5543056002E0174D056027
:1044400000BF00BF144D6D6805F0F0010909154D5E
:104450006B5C0568DD4045600F4D6D6805F4E061FB
:10446000090A104D6B5C4568DD4085600A4D6D683A
:1044700005F46051C90A0B4D6B5C4568DD40C560B1
:10448000054D6D6805F44041890B074D6B5CC568AF
:10449000B5FBF3F5056130BD0010024000127A0053
:1044A00000093D000000002010000020704710B5FA
:1044B00001214FF4E13000F013F800F0EDF8002393
:1044C0001A4619464FF4805000F09AF80121084628
:1044D00000F06CF84FF4805000F032F810BD00008E
:1044E00070B504460D4601210420FFF755FF012158
:1044F0000846FFF751FF01214804FFF72DFF012176
:104500000846FFF719FF0C4801F000F80B4801F0CE
:1045100007F90A4804600020084988810C20488176
:1045200000200881C8808880034801F08DF8294662
:10453000014800F0D6FF70BD00440040A0060020F6
:1045400010B5044601224021144800F0D6FF14485B
:10455000FEF7F8F94FF400701249C8600020886037
:104560008862114848600020C8618020486120208E
:1045700008620A48001D086000208861086108463A
:1045800044620748FEF7A7FA01210548FEF7CEF975
:104590000020054981F8040210BD000000440040DD
:1045A0006C000240DC0600200807002070B50546BC
:1045B0000C460F48FEF71EFC04200D49C870082069
:1045C0000880032088700B48FEF77CFB012240F234
:1045D0002441094801F012F82620084908700120FA
:1045E000C8704D708C700846FFF738FD70BD000034
:1045F0004000002000080140004400404800002026
:104600002DE9F04104460D4616461F461D48FEF7AB
:1046100099F91D48FEF77FFA00201B49C860102059
:104620008860002088624860C8618020486100205E
:1046300008621648086000208861086108464462E4
:104640001048FEF748FA1120114908700120C8707F
:10465000084645708670FFF701FD012280210B4856
:10466000001F00F04AFF012202210648FEF72AFA45
:1046700039460448FEF75AF9012006490870BDE89A
:10468000F081000080000240B00600200444004099
:10469000440000204C00002010B50748FEF7AAFB9C
:1046A00018200549C870042008800320887003483A
:1046B000FEF708FB10BD00003C0000200008014090
:1046C00070B505460C461DB114B1B4F5806F02D328
:1046D0004FF0FF3070BD00BF0B4800780028FBD0C2
:1046E00000210A48FEF722F909484560C4600146E6
:1046F0000648FEF7F0F901210448FEF717F90020FB
:10470000014908700120E5E74C00002080000240CC
:10471000B00600202DE9F04707460C4615461E4618
:10472000DDE908890121384600F016F8012000F083
:10473000DBF8F2B2E9B20023204600F08DF809F070
:10474000FF0108F0FF00012200F05EF8012148039C
:1047500000F028F8BDE8F08770B504460D46012149
:104760000820FFF719FE01218804FFF7F5FD01215C
:104770000846FFF7E1FD09480460002007498881E9
:104780000C20488100200881C8808880044800F0FF
:104790005BFF2946024800F0A4FE70BD38060020E9
:1047A0000048004070B504460D46012240211248E1
:1047B00000F0A3FE1148FEF7C5F84FF40070104951
:1047C000C8600020886088620E4848600020C86188
:1047D00080204861202008620748001D08600020F2
:1047E00088610861084644620448FEF774F9294666
:1047F0000248FEF79BF870BD0048004030000240C0
:10480000740600203504002070B504460D46164697
:1048100004200D49C87040020880032088700B48AE
:10482000FEF750FA012240F22441094800F0E6FE6A
:104830002720084908700120C87008464470857018
:10484000FFF70CFC70BD000030000020000C0140A0
:1048500000480040380000202DE9F04104460D4694
:1048600016461F46012280211A4800F046FE1A48CB
:10487000FEF768F800201949C86010208860002001
:1048800088624860C8618020486100200862114841
:10489000001D0860002088610861084644620E48D7
:1048A000FEF719F9012202210B48FEF70BF90C2043
:1048B0000B4908700120C870084645708670FFF7E4
:1048C000CDFB39460448FEF731F801200549087050
:1048D000BDE8F081004800401C000240480600206E
:1048E000340000202A00002010B5044601210846AB
:1048F000FFF752FD18200549C8704FF4806008800A
:10490000032088700248FEF7DDF910BD2C0000205E
:10491000000C014070B505460C46062114A0FFF7B7
:10492000CFFE21462846FFF7CBFE002C03DD15B154
:10493000B4F57A7F02DB4FF0FF3070BD00BF0E4848
:1049400000780028FBD0002000F01CF80B484560E0
:10495000C46001460A48FEF7BEF8012000F012F8D4
:10496000012000F019F80020034908700120E4E755
:104970005478333A0D0A00002A000020480600202F
:104980001C00024010B5044621460248FDF7CEFF48
:1049900010BD00001C00024010B50446214602482C
:1049A00000F09FFD10BD00000048004010B500F071
:1049B00001F810BD0CB5002001900090334800684C
:1049C00040F480303149086000BF3048006800F48E
:1049D000003000900198401C0190009818B901988F
:1049E000B0F5A06FF1D12948006800F4003010B193
:1049F0000120009001E0002000900098012843D1A0
:104A00002348006840F0100021490860084600680B
:104A100020F0030008600846006840F002000860CB
:104A20001A48406819494860084640684860084686
:104A3000406840F4806048600846406820F47C107C
:104A400048600846406840F4E8104860084600683E
:104A500040F08070086000BF0C48006800F00070F3
:104A60000028F9D00948406820F003000749486051
:104A70000846406840F00200486000BF03484068B4
:104A800000F00C000828F9D10CBD00000010024015
:104A9000002002407047000010B51348006840F045
:104AA00001001149086008464068104908400E4955
:104AB0004860084600680E4908400B4908600846EF
:104AC000006820F4802008600846406820F4FE005A
:104AD00048604FF41F008860FFF768FF4FF00060E8
:104AE0000449086010BD0000001002400000FFF8FB
:104AF000FFFFF6FE08ED00E010B50121044800F0CC
:104B00008DF8012803D10121014800F066F810BD9D
:104B1000002C014010B50121880700F07FF8012822
:104B200009D10121800700F058F8FEF7D9FFFEF700
:104B300003FCFFF785F810BD10B501210F4800F008
:104B40006DF8012818D101210C4800F046F8FEF755
:104B50000DFE6420FEF71CFEFEF73AFAFEF7CEFAD1
:104B60004FF49670FEF726FEFFF73EFA044B054A17
:104B700005490648FDF720FD10BD00000004004077
:104B80005800002021020020340400204C020020A4
:104B900010B50121074800F041F8012808D1012192
:104BA000044800F01AF804480068401C02490860F4
:104BB00010BD0000000800402000002021B1028844
:104BC00042F08002028004E002884FF67F731A40B0
:104BD00002807047CA4302827047CA43028270470C
:104BE00021B1028842F00102028004E002884FF6FF
:104BF000FE731A400280704731B1B0F8442042F48D
:104C00000042A0F8442005E0B0F84420C2F30E02B0
:104C1000A0F8442070470146888C704730B50246A2
:104C2000002000230024158A05EA0103958905EA7E
:104C3000010413B10CB1012000E0002030BD1AB115
:104C400083890B43838102E083898B43838170478F
:104C500001894FF6F87211400181704770B5002448
:104C600000220023058C4FF6FE7635400584028C29
:104C70008388048B4FF68F752C40B51E2C400D8811
:104C80002C43751E2A400D892A434D882A43144D12
:104C9000A8420BD0134DA84208D0134DA84205D00E
:104CA000124DA84202D0124DA84213D14FF6F7750B
:104CB0002A404D892A434FF6FB752A408D882A43A6
:104CC0004FF6FF652B404FF6FF552B408D892B4348
:104CD000CD892B4383800483CD888586028470BD73
:104CE000002C0140003401400040014000440140DC
:104CF000004801400A460021018B4FF6F773194026
:104D0000114301837047000070B500240022002386
:104D1000058C4FF6EF7635400584028C8388048B32
:104D200048F6FF752C404FF6FF452C400D884FF696
:104D3000FF7606EA05252C434FF6DF752A400D89DC
:104D400006EA05152A434D8806EA05152A43154D3E
:104D5000A84202D0144DA8421DD14FF67F752A40BB
:104D60004D894FF6FF7606EA05152A434FF6BF75C3
:104D70002A408D8806EA05152A434FF6FF352B4059
:104D80004FF2FF752B408D8906EA85052B43CD89AF
:104D900006EA85052B4383800483CD88058702843A
:104DA00070BD0000002C0140003401400A46002183
:104DB000018B4FF2FF7319404FF6FF7303EA022392
:104DC000194301837047000070B5002400220023BE
:104DD000058C4FF6FF6635400584028C8388848BF2
:104DE0004FF68F752C404FF6FC752C400D882C43E8
:104DF0004FF6FF552A400D894FF6FF7606EA052546
:104E00002A434D8806EA05252A43154DA84202D0BB
:104E1000144DA8421DD14FF2FF752A404D894FF61F
:104E2000FF7606EA05252A434FF6FF352A408D888E
:104E300006EA05252A434EF6FF752B404DF6FF7511
:104E40002B408D8906EA05152B43CD8906EA051509
:104E50002B4383808483CD888587028470BD0000C6
:104E6000002C0140003401400A460021818B4FF69E
:104E7000F7731940114381837047000070B5002219
:104E800000230024058C4EF6FF7635400584038C04
:104E90008488828B48F6FF752A404FF6FF452A40EA
:104EA0000D884FF6FF7606EA05252A434DF6FF7575
:104EB0002B400D8906EA05352B434D8806EA05355A
:104EC0002B430B4DA84202D00A4DA84208D14BF605
:104ED000FF752C408D894FF6FF7606EA85152C4329
:104EE00084808283CD88A0F84050038470BD000088
:104EF000002C0140003401400A460021818B4FF212
:104F0000FF7319404FF6FF7303EA022319438183AD
:104F100070470021018041808180C18001814181F1
:104F20008181C18170470000002202881D4B984298
:104F30000ED01D4B98420BD0B0F1804F08D01B4BC8
:104F4000984205D01A4B984202D01A4B984204D18D
:104F50004FF68F731A404B881A43174B984207D06D
:104F6000164B984204D04FF6FF431A40CB881A43A1
:104F700002808B8883850B8803850A4B98420BD06F
:104F8000094B984208D00E4B984205D00D4B9842E1
:104F900002D00D4B984201D10B7A03860123838204
:104FA00070470000002C0140003401400004004024
:104FB00000080040000C00400010004000140040B9
:104FC0000040014000440140004801404FF6FF719D
:104FD000818000210180C180418001727047000002
:104FE00008B540F224411A4800F0DEFA78B31848B8
:104FF000008800901648001D008800900021154888
:10500000FDF794FC1348FDF743FDC0F5007012490D
:10501000C1F800020020D1F800120F4A5054104687
:10502000D0F80002401C1146C1F80002012081F8AE
:10503000040241020748FDF76CFD01210548FDF718
:1050400075FC40F22441024800F03CFA00BF08BD64
:10505000004400406C00024008070020F8B540F210
:105060002441A64800F0A0FA012876D1A348008880
:105070000090A248001D008800900021A048FDF784
:1050800055FC9F48FDF704FDC0F5007084B2601C1C
:1050900084B2601EB0F5007F02DA002299490A54FA
:1050A00001209849491E0870062197A0FFF708FBC8
:1050B0009448FBF784FA064631469248FFF700FB16
:1050C000934A21468F48FDF7FBF80546032D00D192
:1050D00000258C48401E80F8015290F80102894951
:1050E000491E81F80202084690F801020D2874D288
:1050F000DFE800F007160CE7111B27343D4247504C
:105100005900132183A0FFF7DBFADFE0102186A00E
:10511000FFF7D6FADAE0102188A0FFF7D1FAD5E040
:1051200013218BA0FFF7CCFAD0E001208D4981F844
:105130002800002081F829001A218BA0FFF7C0FA6F
:10514000C4E00120874981F82800002081F8290067
:1051500017218CA0FFF7B4FAB8E0CEE00120814916
:1051600081F829001D218DA0FFF7AAFAAEE00B21DE
:1051700092A0FFF7A5FAA9E00E2195A0FFF7A0FAEB
:10518000A4E00020964981F8C801172195A0FFF7F7
:1051900097FA9BE00120924981F8C8011C2197A051
:1051A000FFF78EFA92E017219CA0FFF789FAA14B36
:1051B000A14A21465348FDF70DF89E4890F840005B
:1051C000072859D2DFE800F0040A1724313E4B00CB
:1051D0000C219AA0FFF774FA53E072E00A219BA019
:1051E000FFF76EFA93484130FBF7CAF9C6B2304672
:1051F000FEF7B0FB45E00A2197A0FFF761FA8D4862
:105200004130FBF7BDF9C6B23046FDF789FE38E004
:105210000A2194A0FFF754FA86484130FBF7B0F911
:10522000C6B23046FEF73CFB2BE00A2190A0FFF708
:1052300047FA80484130FBF7A3F9C6B23046FEF783
:10524000FBF81EE00B218DA0FFF73AFA79484130B8
:10525000FBF796F9C6B23046FEF7E0F911E00821F7
:1052600089A0FFF72DFA73484130FBF789F946B260
:105270003046FEF761F904E00E2186A0FFF720FA20
:1052800000BF00BF6B4890F84000C8B17F2185483F
:10529000FBF7F9F9674B844A7F218248FBF70EF848
:1052A0008048FBF78CF986B231467E48FFF732FB27
:1052B0007C48FBF784F9064631467A48FFF700FA46
:1052C00004E0122179A0FFF7FBF900BF00BF4FF403
:1052D00000710B48FDF71DFC79490948FDF7FBFB00
:1052E00001210748FDF722FB0120FFF755FB40F2A3
:1052F0002441024800F0E6F800BFF8BD0048004035
:1053000030000240350400205278333A0D0A000084
:10531000205C000844656275673A4D53475F4465F9
:105320006661756C740D0A0044656275673A4D5389
:10533000475F4E4F4E450D0A000000004465627500
:10534000673A4D53475F415445300D0A0000000055
:1053500044656275673A4D53475F506F7765724F8A
:105360006E0D0A002102002044656275673A4D53B4
:10537000475F574946495F434F4E4E454354454466
:105380000D0A000044656275673A4D53475F5749FF
:1053900046495F474F545F49500D0A0044656275A6
:1053A000673A4D53475F574946495F444953434F16
:1053B0004E4E45435445440D0A0000004465627555
:1053C000673A4D53475F4552524F520D0A00000055
:1053D00044656275673A4D53475F4F4B0D0A0000B5
:1053E0005800002044656275673A4D53475F4D5140
:1053F0005454434F4E4E5F4F4B0D0A004465627547
:10540000673A4D53475F4D515454444953434F4EAF
:105410004E45435445440D0A000000004465627542
:10542000673A4D53475F4D5154545355425245438B
:10543000560D0A0005110020705C0008434D445FC2
:10544000554E4B4E4F570D0A00000000434D445F30
:10545000575056520D0A0000434D445F415052537D
:105460000D0A0000434D445F574852530D0A000097
:10547000434D445F414C56520D0A0000434D445F7A
:1054800050474C56520D0A00434D445F46540D0A96
:1054900000000000434D44545950454552524F526C
:1054A0000D0A000086100020071000204465627578
:1054B000673A4D5347554E4B4E4F574E0D0A00001D
:1054C0007406002010B50022002340F66A14A142A1
:1054D00000D100BF0A1201249440A3B2DC4304802F
:1054E00010BD21B1828942F40052828104E0828998
:1054F0004DF6FF731A40828170471AB1838A0B43BD
:10550000838202E0838A8B438382704710B504460E
:105510002048844209D101218803FEF74DFF002174
:105520004FF48040FEF748FF32E01B48844209D127
:1055300001214804FEF720FF00214FF40030FEF760
:105540001BFF25E01548844209D101218804FEF79C
:1055500013FF00214FF48020FEF70EFF18E01048E3
:10556000844209D10121C804FEF706FF00214FF44F
:105570000020FEF701FF0BE00A48844208D1012118
:105580000805FEF7F9FE00214FF48010FEF7F4FE47
:1055900010BD0000003801400044004000480040B9
:1055A000004C00400050004070B50246002400232B
:1055B0000025002040F66A16B14200D100BFC1F3B9
:1055C000421501F01F03012606FA03F3012D02D153
:1055D0009689334006E0022D02D1168A334001E05D
:1055E000968A33400C12012606FA04F416883440D9
:1055F00013B10CB1012000E0002070BDF0B50346EE
:10560000002400260025002040F66A17B94200D188
:1056100000BF1846C1F3421401F01F06012707FA24
:1056200006F5012C01D10C3004E0022C01D1103020
:1056300000E014301AB107682F43076002E00768E2
:10564000AF430760F0BD00002DE9F04786B0054686
:105650000E460024A24600BFA1460027B08900B133
:1056600000BF2F462C8A4CF6FF700440F08804439C
:105670002C82AC894EF6F3100440B088318908437F
:10568000718908430443AC81AC8A4FF6FF40044063
:10569000B0890443AC8201A8FEF79EFE1F488742F2
:1056A00002D1DDF810A001E0DDF80CA0A88900F41B
:1056B000004040B10AEBCA0000EB0A103168490013
:1056C000B0FBF1F807E00AEBCA0000EB0A10316802
:1056D0008900B0FBF1F86420B8FBF0F00401200968
:1056E000642101FB1089A88900F4004040B13220F8
:1056F00000EBC900B0FBF1F000F00700044308E044
:10570000322000EB09106421B0FBF1F000F00F0033
:1057100004432C8106B0BDE8F0870000003801404A
:105720004FF41651016000218180C18001810C215C
:10573000418100218181704700BFFEE7490050EAA6
:10574000C12018BF04204A0D18BF40F0010040F2EC
:10575000FF72B2EB515F08BF40F00200012808BFA2
:105760000520704730380A2801D2012070470020F8
:10577000704700001CB54FF47A70FDF7DAF901218B
:105780004804FEF7E9FD01218804FEF7E5FD01214B
:10579000C802FEF701FE01210846FEF7DDFD0121EA
:1057A0000220FEF7D9FD01210420FEF7D5FD0121DD
:1057B0000420FEF7F1FD01210820FEF7EDFD012197
:1057C0001020FEF7E9FD01210846FEF7E5FD012165
:1057D0004802FEF7E1FD01210846FEF7ADFD4FF45A
:1057E000A060FEF773FCFEF711FDFEF779FC0321C4
:1057F0000846FDF73FFF01210846FDF779FF01212B
:105800000846FDF7EBFF3548FEF722F84FF08040E1
:10581000FEF71EF83248FEF71BF8FEF7CBF9012120
:105820000846FDF731FCFEF7ABF900210846FEF70C
:1058300013F94FF4FA70FDF73BFE2A480088FEF793
:1058400045F82948006800F069F984B22046FDF760
:10585000B3FD2648006800F061F984B22046FDF7E8
:105860009DFEFEF783F8FDF7E9FEFDF77BFE0420C1
:10587000FDF7D2FAFDF734FBFDF7F2FFFEF717FE56
:105880000C211BA0FEF71CFFFCF7EAFB0120009097
:1058900000231A464FF4405101904FF4E130FEF7D7
:1058A00039FF00201649486042F2107088600120DC
:1058B000087012E0134890F8040201280AD1114838
:1058C000B0F8000281B20F48FFF724F800200D491C
:1058D00081F804020120FDF72CF9EBE7002C0140D0
:1058E000000400401E0400202004002024040020A6
:1058F00053657269616C325F4F6E0D0A00000000E3
:105900004C0200200807002010B500290AD00878B2
:10591000002807D005487844FBF7C6FE002801D0D0
:10592000002010BD0248784410BD0000EA060000C7
:10593000E206000010B500290AD00878002807D038
:1059400005487844FBF7B0FE002801D0002010BDC8
:105950000248784410BD0000CE070000C6070000D2
:105960004FF47F0C1CEAD0121EBF1CEAD11392EA3E
:105970000C0F93EA0C0F00F0858090EA010F48BFEE
:1059800042F4807240F4000C41F400002CF07F419E
:1059900020F07F4000B58142A2EB03020FF2081C09
:1059A000ACEB504EC0F100009EF800E04FEA4E0E06
:1059B00000FB0EFC38BF49004FEA2C1C02F5FA022E
:1059C0000CFB0EF34FEACE1E4FEA112C4FEAC12119
:1059D0000EEB635E42EB22420EFB0CFC4FEA1C53C3
:1059E00000FB03114FEA112C4FEA01310EFB0CFCB6
:1059F0004FEADC4C00FB0C11C14228BF09184CEBEC
:105A000003335DF804EB10EB410143EBC250B2F5F8
:105A10007C0F38BF704729D512F0F00F1CBF00F182
:105A2000C04000F0004070470081828384858687F3
:105A300088898B8C8D8E8F919293959697999A9C4D
:105A40009D9FA0A2A3A5A7A8AAACAEB0B2B3B5B7BC
:105A5000B9BCBEC0C2C5C7C9CCCED1D4D7D9DCDF92
:105A6000E2E6E9ECF0F3F7FAFE0000004FEA400C42
:105A70000CF1807CBCF17E4F28BF7047B0F1C04074
:105A800000F0C5B890EA010F0CEAD11348BF42F408
:105A90008072624538BF634507D213F47F0F16D07A
:105AA00080EA010000F00040704710B500F069F88E
:105AB000097EFC3E00F005B880EA010000F00040DD
:105AC000704780EA010000F0004000F0A0B812F436
:105AD0007F0F04BF0248704780EA010000F097B8CA
